:020000040000fa
:080000000002040000000000f2
:020000040000fa
:100008009402000094020000940200009402000090
:100018009402000094020000940200009402000080
:10002800940200000251000094020000844800007d
:100038009402000050510000940200009402000055
:100048009402000094020000940200001e4e00007a
:10005800424e000094020000940200009402000046
:100068009402000094020000940200009402000030
:1000780094020000940200009e510000ec51000020
:100088009402000094020000940200009402000010
:100098009402000094020000940200009402000000
:1000a80094020000940200009402000094020000f0
:1000b80094020000940200009402000094020000e0
:1000c80094020000940200009402000094020000d0
:1000d80094020000940200009402000094020000c0
:1000e80094020000940200009402000094020000b0
:1000f80094020000940200009402000094020000a0
:10010800940200009402000094020000940200008f
:10011800940200009402000094020000940200007f
:10012800940200009402000094020000940200006f
:10013800940200009402000094020000940200005f
:10014800940200009402000094020000940200004f
:10015800940200009402000094020000940200003f
:10016800940200009402000094020000940200002f
:10017800940200009402000094020000940200001f
:10018800940200009402000094020000940200000f
:1001980094020000940200009402000094020000ff
:1001a80094020000940200009402000094020000ef
:1001b80094020000940200009402000094020000df
:1001c80094020000940200009402000094020000cf
:1001d80094020000940200009402000094020000bf
:1001e80094020000940200009402000094020000af
:0801f8009402000094020000d3
:020000040000fa
:10020800940200009402000094020000940200008e
:10021800940200009402000094020000940200007e
:10022800940200000251000094020000844800007b
:100238009402000050510000940200009402000053
:100248009402000094020000940200001e4e000078
:10025800424e000094020000940200009402000044
:10026800940200009402000094020000940200002e
:1002780094020000940200009e510000ec5100001e
:10028800940200009402000094020000940200000e
:1002980094020000940200009402000094020000fe
:1002a80094020000940200009402000094020000ee
:1002b80094020000940200009402000094020000de
:1002c80094020000940200009402000094020000ce
:1002d80094020000940200009402000094020000be
:1002e80094020000940200009402000094020000ae
:1002f800940200009402000094020000940200009e
:10030800940200009402000094020000940200008d
:10031800940200009402000094020000940200007d
:10032800940200009402000094020000940200006d
:10033800940200009402000094020000940200005d
:10034800940200009402000094020000940200004d
:10035800940200009402000094020000940200003d
:10036800940200009402000094020000940200002d
:10037800940200009402000094020000940200001d
:10038800940200009402000094020000940200000d
:1003980094020000940200009402000094020000fd
:1003a80094020000940200009402000094020000ed
:1003b80094020000940200009402000094020000dd
:1003c80094020000940200009402000094020000cd
:1003d80094020000940200009402000094020000bd
:1003e80094020000940200009402000094020000ad
:0803f8009402000094020000d1
:020000040000fa
:100400004fc020000e7f24000e0188000000000075
:1004100000012000200288000c000700a0e4240056
:100420000100200011000700000020000000e00093
:10043000020032000000020000000000245302000d
:10044000000000000040da000000fe004440a90067
:1004500020b820000000e00003003200000020006f
:10046000a00188004440a800000006009101880017
:10047000800078000000eb0015003700e2804000ab
:1004800032a0b4009101ba00e280400032a0b40072
:100490009102ba00e280400032a0b4000002eb00fa
:1004a000472bde00f507b200602ce10004003a00a3
:1004b0000059eb008301e900fdff3e000400370016
:1004c0006128e100010032000082eb000400070017
:1004d0001101ba000200e000e8ff3a000000060047
:1004e0003159ba008301e9000c0032002159ba00e9
:1004f0008301e900080032000400e00003003a0034
:10050000e280400032a0b400f5ff370011d9ba00f4
:100510008301e900faff3a008100e800e180400031
:1005200032a0b400000006000040da000000fe0027
:100530008420a900e7026000c42add00f4f82f003f
:10054000260580000602620005027200240588006c
:10055000680060004300de006100600000004000b1
:10056000d4ff2f00a5048000050262000000720085
:10057000a00488000000060084a0a900e702600033
:10058000c42add00f4f82f00360580000602620060
:100590000502720034058800680060004300de0038
:1005a000610060004500dd00f4fd2f00a50480001f
:1005b0000502620000027200a40488000000060028
:1005c00086c0a900e7026000c82add00f48f2f0072
:1005d000760580000602620005027200740588003c
:1005e000680060004300de00610060004600dd003e
:1005f000f4fb2f00b50480000502620000027200c7
:10060000b40488000000060086e0a900e70260004c
:10061000cc2add00f4ff2800760580000602620087
:100620000502720074058800680060004300de0067
:10063000610060004700dd00f4f72f00b504800082
:100640000502620000027200b40488000000060087
:10065000100a880000000600300a8800000006002a
:10066000d00a880000000600f00a8800000006009a
:100670008440a900e7026000c82add00f48f2f0043
:10068000260580000602620005027200240588002b
:10069000680060004300de00610060004200dd0091
:1006a000b4ff2f00a5048000050262000002720062
:1006b000a40488000000060084c0a900e7026000ce
:1006c000c82add00f48f2f00360580000602620084
:1006d0000502720034058800680060004300de00f7
:1006e000610060004600dd00f4fb2f00a5048000df
:1006f0000502620000027200a404880000000600e7
:100700008720a900e7026000c42add00f4f82f006a
:1007100086058000060262000502720084058800da
:10072000680060004300de00610060004900dd00f9
:10073000f4df2f00b50480000502620000027200a1
:10074000b4048800000006008740a900e7026000aa
:10075000c82add00f48f2f008605800006026200a3
:100760000502720084058800680060004300de0016
:10077000610060004a00dd00f4bf2f00b504800076
:100780000502620000027200b40488000000060046
:100790008002780080ff2f008421b600010c8800c1
:1007a000120c8800250c88000000060080027800ea
:1007b00080ff2f008a21b600310c8800420c88008f
:1007c000550c8800000006008002780080ff2f0092
:1007d0009021b600610c8800720c8800850c88009e
:1007e000000006008002780080ff2f009621b600ee
:1007f000910c8800a20c8800b50c8800000006004f
:100800008460a900e7026000cc2add00f4ff280024
:100810002605800006026200050272002405880099
:100820006800600074ff2f00a504800005026200cc
:1008300000007200a0048800000006000021ef0004
:100840001108880020088800000006000621ef003b
:1008500061088800800888001061a9000000060077
:100860000a21ef0071088800900888000000060047
:10087000000888000000060030088800000006001c
:100880005008880000000600001020002202b60078
:100890000000e9004f00de0000000600101180009b
:1008a00061406000000006000411800066026200e2
:1008b000e60f520002003a003011800000000600ee
:1008c00030118000f00fb20000000600041180001b
:1008d00066026200e60f520001003200f00fb20023
:1008e00020118800000006000411800066026200ea
:1008f000e60f52000c003a00030037002322ab0041
:10090000feff3a0025118800b0027800e08f520007
:10091000faff3a00000006002322ab00feff3a0077
:100920008502fb0025118800b0427800e0cf52001c
:10093000f9ff3a000000060003f0a200889fbe0005
:100940008a9fbe008c1f7800ac010700b301330002
:100950006450e1004f0032006420e1005200320098
:1009600003826c0007003b000905d0000306d0009d
:10097000820f54000c065d000200390002003200b4
:1009800089017800030678008582550004003d0047
:100990000003fd008103fd008502ea008b85420013
:1009a000840f720002003b0060001000e08018001d
:1009b0006011b8000005eb007a28e1000a00390058
:1009c00006007800c75ddd00f707b200878075007c
:1009d0002d003700828171000a01780061056000f6
:1009e0008180d1000080d3008502e900f9ff3b003f
:1009f000060440008784480002003b0060041400a5
:100a0000e0841c000988a300070032008a8171007d
:100a100082817100610164008904d1000884d300df
:100a20008b05e800170037000978a30013003a008f
:100a30000b00e000130034008b05e90008044400bb
:100a400089844c000a4474000978a3000d003a0020
:100a50000b00e000070034008b05e90008044400a7
:100a600089844c0001003a000b0020000978a300a3
:100a7000f7ff32000001eb000200370082817100b5
:100a80000a017800220107000cf0a70001f0a00085
:100a90006b0137006420e10002003a00838f6c0094
:100aa0006b0133000801be000200be006401370084
:100ab000889fbe008a9fbe008c1f78004f010700f0
:100ac0001002200002003b00504d88005301370007
:100ad0008a0062006408e10002003a00504d88007c
:100ae0005b0137006108e100fcff32000800be0036
:100af000030478007000070001f0a100090007005e
:100b000008f0a600040037000001be009104240094
:100b1000b0fd200088ff070009f0a70001f0a20047
:100b200047013700889fbe008a9fbe008c9fbe0091
:100b30000004be001c0107000800be008906780002
:100b40006420e10008003900040032000160a000c8
:100b500012022000524d88005300370091fc230000
:100b6000b0fd20004e0037000006eb0009f0a100a8
:100b700003f82300020020000800be009f000700c9
:100b80000600340001f82300000020000801be0028
:100b9000490007000004be002c0020000800be0031
:100ba00093e82300320a2300940007001200340067
:100bb0000801be00d1fd2300703d2b005fff070040
:100bc0000005be00b3f32300f27a26000800be0041
:100bd0003101070003f823000200200056ff070040
:100be0000801be0055ff07000a01be0032000700e1
:100bf0000004be000c06e8000800be0001f0a100e1
:100c000002002000039823007c0007000800be00bb
:100c1000160035000801be001f0107000005be00d8
:100c200032cd2c0043fb230044ff0700809fbe0011
:100c30001269280003d52b000a00be001601070028
:100c4000620f210013ef2b003cff07000a01be00da
:100c5000110107004f01be00170007000801be0088
:100c60000d0107000801be0034ff07000c00e00082
:100c70000b0032000c10a70001f0a200b2fd200012
:100c800093fc23006260e1000400320022a92000ee
:100c900063f023000c10a70063f8230027ff070070
:100ca0000df0a70001f0a2004f06be004f05be00e8
:100cb0004f04be0000000600889fbe008a9fbe0051
:100cc0008c1f7800cd000700d400330003866c0031
:100cd0006450e1002e0032006420e1003300320055
:100ce0006150e1002f0032006120e100310032004c
:100cf00085855500eb07b00009002000080420009e
:100d0000050037000804440089844c000a003100c3
:100d10000603430087834b000001530081815b0081
:100d2000f8ff33000203be000800a00008044400de
:100d300089844c00f6ff3900c639dd008301730059
:100d400001003200130020008904d1000884d30080
:100d50000998a300050032000800a7000300a000c6
:100d60008904d1000884d3008b05e8008904d100f0
:100d70000884d3000001eb000281d2006400070068
:100d800001f0a1000cf0a70001f0a000ac003700ba
:100d90006420e100ae0032000801be000200be0087
:100da000f7ff37006120e100a90032006000b800c1
:100db000f3ff37000000200001f82700f0ff3700a4
:100dc000839f68000100e00002003d006000100009
:100dd000e08018000300e00002003d006001110007
:100de000e0811900150107004f00e00002003b0000
:100df00060001000e08018000000060014002000d1
:100e000021013700f4ff2f001f0137000001be0051
:100e1000650007000470a70003f0a1006509b10098
:100e2000160032000d0035006828e100060035008c
:100e3000f0ff2f00f1ff27000300e00013003b004c
:100e400001002800000005000000400081804800eb
:100e50008502e900fcff3a0008003700f88f4200e5
:100e600002003c008000eb00000005008100d10082
:100e70000080d3008502e800fcff3a000300e00098
:100e800002003b0060001000e08018000000060037
:100e90000001be00440007000470a70003f0a10099
:100ea00003f8a30013003a006509b10010003200f6
:100eb000090035006928e100020035000100280022
:100ec0000000050000004000818048008502e90024
:100ed000fcff3a0000000600f88f420005003500d4
:100ee0008100d1000080d3008502e800fcff3a00b9
:100ef000000006008000eb00000005004f89de00c6
:100f000082017800fb0037006011b800090137004a
:100f100081002000618055000b003d000b00200087
:100f200061fe2f000100e1001d003400828171008c
:100f3000610164008904d1000884d3000000e80046
:100f4000faff3a00710020006100640003007000a5
:100f5000020060000900320061044400e0844c009b
:100f60000988a500050032008b05e8006808e1004b
:100f700002003a008904d1000884d300f20f200057
:100f80000258e10005003d00c75ddd00f907b20031
:100f90008980750008007800000006000bf8270023
:100fa0008b00780000000500c70ade00f107b200e0
:100fb000f50fb20008003200e1cf4200020032001b
:100fc0000170a00024000500810f700001003200b4
:100fd0000408050044000500810f700002003a007b
:100fe000140005008502e9000000400081c04800af
:100ff000fcff3b000170a000240005000004be00bf
:10100000e9ff07000003be000405be000200be00a9
:10101000e5ff0700844f7500000006000200be00d7
:101020006450e100050036006420e1000200360053
:101030000968a30001003a000800be000160a0009a
:101040004f0678004f05be004f04be0000000600aa
:10105000f0ff2f00f1ff2700f9ff3700811f780014
:101060000100e00002003d0060001000e080180078
:101070000300e00002003d0060011100e081190062
:101080007e0007004f00e00002003b0060001000ff
:10109000e080180000000600889fbe008a9fbe0006
:1010a0008c1f7800d5ff0700dcff330003866c003f
:1010b0006450e100240032006420e1002700320087
:1010c0006150e100220032006120e1002100320085
:1010d0008b854200eb07b1000134b800003ab8003c
:1010e0000804420089844a00013ab8000030b80080
:1010f0008880400009014a000400330000004000dd
:1011000081804800020149008b05e900c909dd0022
:10111000830170000100320013002000c814de00bb
:101120004814dd004709de001200b200c808de00e6
:101130000884700076ff070001f0a1000cf0a70002
:1011400001f0a000beff37006120e100c0ff3200c7
:101150000801be000200be00f7ff37006150e10049
:10116000fcff3a00baff3700889fbe008a9fbe008e
:101170008c1f78000004be008bff07000478a300da
:1011800026003a006120e1002500320009f8a300a2
:1011900025003a006420e10021003200f507b1008b
:1011a0000508a300020032000000400081804800d2
:1011b0006044b8000310200002002000000040003e
:1011c000818048000805440089854c000a054100db
:1011d0008b8549000a0550008b85580003003300b9
:1011e0000a00be0002047400838474008301d100ed
:1011f0000281d300830f7100f0ff3a008904d1000f
:101200000884d3006001490082017800c1adde008e
:10121000fb07b0003eff070089ff37000960a00010
:101220000800be0086ff370012022000524d8800e1
:10123000f0ff2f00f1ff270081ff37006022b80088
:10124000060220000000d0008180d2000482d2007b
:101250008582d2000000a0000202520083825a0060
:10126000030031000202420083824a000000a10014
:101270000603e900f3ff3a0000000600efff070055
:101280000400be0000000600889fbe008a9fbe00ca
:10129000841f780059ff07004f00780011003300c9
:1012a000f0ff2f00838f6c0006003b0004056500f3
:1012b0000a00a7000800370009f0a600100020006f
:1012c00008003700820f5400838f5c000300390050
:1012d0001000200001003e000000200009f0a700df
:1012e0000000ea004f05be004f04be000000e00011
:1012f00000000600881f7800030478000300e00067
:1013000007003d0060001000e08018006001190037
:10131000e081190002003b0001f02d0003003700be
:101320000400070008f0a70001f0a0004f047800b7
:1013300000000600889fbe008a9fbe0000827000e9
:101340000402710004827100260032000004be0015
:101350000200be006011b8006b0920009502200059
:101360000182cf000a0039000541b1000082cf00a0
:10137000070039000541b1000982cf00040039009f
:101380000541b1000882cf00010039000541b100dc
:1013900005425200120032000a003b0082817100b7
:1013a000610164008100d1000080d3008984d300f2
:1013b0000884d3008b05e8000442e800f7ff3a00f8
:1013c000070037000804440089844c0000004800ee
:1013d000818048008b05e9000442e900f9ff3a00ea
:1013e000cbfe07004f05be004f04be000000060004
:1013f000b042780031c2520002003a00e0cf520001
:10140000fbff3a000400fb00000006000000fa00a9
:1014100068815700cfb8970020be20009d050700c7
:101420000080fa00000006000000fa006881570002
:10143000cfb8970020be2000960507000080fa0074
:10144000000006000000fa0068815700cfb897003e
:1014500020be20008f0507000080fa000000060073
:101460000000fa0068815700cfb8970020be200026
:10147000880507000080fa0000000600889fbe0073
:101480000104780038029000e20262008084eb00e0
:101490003b003200040378000620b200980290005e
:1014a00002003a00e08f520035003a000490a0009c
:1014b0003404980080047800f90fb200e08f5200e5
:1014c00002003a00a8029000050c7800ea8f540050
:1014d00005003a000408b20003003a0088007800d2
:1014e000d0002000e5ff070018029000d80290000d
:1014f000850f52000b0032000402e800140498002b
:1015000018027800094a7800040ce80015c0b300fe
:10151000c4bf2000054a7800ea8f540018003a0042
:1015200005003700880078000940780017000700a0
:101530008004780012003700380290000410b200d6
:101540000f00320018019000a800900048009000a1
:101550005200070018029000840f5000040032006f
:10156000380290000403b300340498008084eb0038
:101570000002eb001404980028029000040c78008c
:10158000090078004f04be00000006000200fa00c7
:10159000889fbe00a0ff9f000104780038029000e1
:1015a000840278000504b200020032000000fb0053
:1015b00035003700e202620005003a000403b30080
:1015c00034049800150498000080eb002e003700ca
:1015d000d8049000e08f540006003a00120020006a
:1015e000e6805700480090002c000700190498007e
:1015f00023003700a8029000e08f520008003a0054
:10160000f5bf200025049800050c78002500200077
:1016100055049800150498000430a0003404980084
:1016200018019000a8009000480090001b000700df
:10163000280290008082eb0015049800affa970012
:10164000054a7800040ce8002ffa9700ea4f520090
:101650000b003a00380290000410b200080032007b
:1016600018019000a8009000480090000b000700af
:101670000002eb0014049800a8029000050c78000a
:101680002ffa97000400fb004f04be000080fa0010
:101690000000060000c0da00000006000a00fa00a0
:1016a000e20f500022003e0014608000e10f520063
:1016b0000600320087232000462320002423200038
:1016c00005232000e08f530004003a008722200009
:1016d00046222000242220000522200000002800ad
:1016e0001500600003003a00800b78000700280016
:1016f000958a7300054020009482620001003a0040
:1017000014a0a0008202780006003700940378003d
:101710000710b200fdff3200b103fb00070b780099
:101720008502e900e08f5200f8ff3a000800370018
:1017300034002000b4bf9f00c0bf9f00d1bf9f00f6
:10174000e2bf9f006a805700d2ff07006fb9970081
:10175000020078000080fa00000006002800fa006d
:10176000889fbe008a9fbe008c9fbe00070678003f
:10177000878669000c003b0003047800870478002a
:1017800008f0a10009f0a100840f5000858f5800d7
:10179000860f5900890f5c00030033000cf0a20093
:1017a00001003a000cf0a100fe0007006400e10017
:1017b0005f003200780147006408e10061003200f8
:1017c0006c014700748557003200be001201be0054
:1017d0003a04be001a05be001e039000be0a900027
:1017e0008503530006003d000004fd008104fd0058
:1017f0000205fd008305fd008703ea00050378006c
:101800000df8a3000400320060041400e0841c0002
:1018100060051d00e0851d006022b8007d032000ea
:101820000d38e1008006eb000b0039004433dd0089
:10183000f300b20083017300390037008482720024
:101840000d027800e10664008b85d1000a85d30083
:101850008984d3000884d3008703e900f7ff3b00a5
:1018600008004000898048000a0149008b81490036
:1018700004003b0060001000e080180060011900c7
:10188000e08119000358a300090032008d82720024
:1018900084827200610260008301d1000281d30062
:1018a0008180d3000080d3000603e8001b003700ce
:1018b0000348a30017003a000600e00017003400b8
:1018c0000603e9000d00a3000000480081804800e5
:1018d00002014900838149000348a3000f003a0038
:1018e0000600e000090034000603e90000004000a3
:1018f00081804800020149008381490001003a00cb
:101900000003eb000348a300f5ff32006022b8009b
:101910000200370084827200618266007500070051
:1019200003f0a1000cf0a70003f0a000b100370005
:10193000640147006408e10002003a000df8a300ca
:10194000a9003a003200be001201be00a900370013
:101950008f1fd100220307008f87e9000000e000fd
:1019600000000600809feb001d0307008f87e90041
:101970000000e000000006002800fa00889fbe007a
:101980008a9fbe008c9fbe0003866b008500070007
:101990006400e100440032006408e1004a003200c3
:1019a0006100e100460032006108e10049003200b8
:1019b000ec0647006000b8003d02be003d03be00db
:1019c000f48657006011b8003d04be003d05be001e
:1019d0007d0320000b0037000000a0008d06e90009
:1019e000130032000402420085824a0006034b00c5
:1019f00087834b00000040008180480002014900bd
:101a0000838149000802520089825a000a035b0060
:101a10008b835b00f0ff3b000802420089824a0092
:101a20000a034b008b834b008d06e900edff3a0063
:101a30008482720086827200f707b2008782720089
:101a400001003200150020001e0490003e0b9000a3
:101a500006035400e63fb0000368a300070032000d
:101a60000000a7000500a0008301d1000281d3007f
:101a70008180d3000080d3000603e8008301d100f9
:101a80000281d3008180d3000080d3000002eb00ec
:101a90000482d2001700070003f0a1000cf0a70099
:101aa00003f0a00053003700640247006408e1001f
:101ab0004d0032003400be003401be00f6ff370096
:101ac0006108e100480032006011b8006000b80011
:101ad000f1ff370003ff270002002000fbff370063
:101ae000801feb00be0207008f87e9000000e000c6
:101af00000000600180020005700200008045300d2
:101b00000d003d000600200097fc2f000740e1007b
:101b10001e00340084827200610260008301d100e3
:101b20000281d3008180d3000080d3000804e80044
:101b3000f8ff3a00470020006104600005047400cb
:101b4000040464000d00320061004000e0804800a1
:101b500060014900e081490003b8a5000700320098
:101b60000603e8006538e10004003a008301d10073
:101b70000281d3008180d3000080d300f87f200051
:101b80000830e10003003500080378006000b80069
:101b90006011b8004433dd00f300b200830173002c
:101ba00000000600680447000294be000094be00d6
:101bb000fc0447008694be008494be0009007800af
:101bc000d002070008007800ce02070099007800d4
:101bd000814f70000b003b000800be00a902070007
:101be0004f00b10003003700f3ff2700f2ff2f0082
:101bf0006110b9004f06be004f05be004f04be0085
:101c00000080fa000000060081037800e6fc07006f
:101c10000001be006000b8000478a30013003a0081
:101c20006220e10015003e000d0039008301d10063
:101c30000281d3008180d3008301d1000281d300cf
:101c40008180d3008301d1000281d3008180d30041
:101c50000538b000c42add00f300b20083817200b1
:101c600007f0a70003f0a00000000600f3ff270024
:101c7000f2ff2f006110b900fbff370003ff2700c0
:101c8000f7ff37001400fa00889fbe008a9fbe004d
:101c90008c9fbe000004be000205be006800470025
:101ca0000a90be000890be00960207000070a700d0
:101cb0000bf0a1000bf8a30020003a009e09900051
:101cc0000e099000fe0090006e0090009e029000b1
:101cd0003443200084825200c6ff32000a003c00d8
:101ce000b4fc2f000428e100140034008301d1006b
:101cf0000281d3008180d3000080d3008502e800f8
:101d0000faff3a00bbff3700b40020000428e100ce
:101d100007003c00000040008180480002014900ab
:101d2000838149008502e900faff3a00b1ff3700dc
:101d30000300280002002000010037006011b800f5
:101d40006000b800abff37001400fa00889fbe00a7
:101d50008a9fbe008c9fbe000004be000205be002c
:101d6000680047000a90be000890be0065020700a8
:101d70000070a7000bf0a1000bf8a30016003a00ba
:101d80009e0290003043200080825200b0fe2f005f
:101d90000028e1000d003c00b0fc2f000028e1000d
:101da0000d0034001e0990008e0890007e00900007
:101db0000501b0000201d1008180d3000080d30072
:101dc0008502e800fbff3a008aff37000100280087
:101dd0000000200087ff37006000b80085ff370053
:101de000889fbe00008270000402710004827100ae
:101df0002400320036432000c50020008383cf003a
:101e00000a0039000541b1008283cf000700390084
:101e10000541b1008183cf00040039000541b100c4
:101e20008083cf00010039000541b10085c3530014
:101e30006022b800120032000a003b008482720067
:101e4000610260008301d1000281d3008180d30050
:101e50000080d3000603e8008743e800f7ff3a005c
:101e6000070037000000400081804800020149005f
:101e7000838149000603e9008743e900f9ff3a003e
:101e80001cff07004f04be00000006006011b800f0
:101e9000d3ff37001400fa00889fbe008a9fbe005f
:101ea0008c9fbe00040678000004be000205be0040
:101eb000680047000a90be000890be0011020700ab
:101ec0006200e1000800be000a01be00040020001c
:101ed0000b003a001e029000e43fb1006e0090003b
:101ee000fe0090000e0990009e099000f300b200e1
:101ef00005fe2300858171000bf0a70003f0a00010
:101f0000040e78003bff37002800fa00889fbe00cf
:101f10008a9fbe008c9fbe0003866b0021ff0700d6
:101f20000028a30064003a000128a30067003a00db
:101f30000008a30062003a000108a30065003a000f
:101f40001e009000be08900081064000ed3fb100e9
:101f5000f4805700ee019000111ab8008e0990002d
:101f6000311bb8009e099000311cb800511db8000b
:101f7000f485570046000700fe0190003a00070074
:101f80008b85e8003e0007008e09900040000700a6
:101f9000ee019000340007008b85e8003800070050
:101fa0008e099000400007009e0990001b18b800a1
:101fb000890440000a854800fe01900034000700b3
:101fc0008b85e80038000700ee0190003000070024
:101fd0008e0990001b18b800890440000a8548004b
:101fe0000a98a30008003a000402420085824a00d1
:101ff00006034b0087834b0008044c0089844c0087
:102000000a054d008d06e900848272008502730086
:102010004c3add00850272000100320015002000fc
:10202000443ade001400b2004538de00cb45dd0046
:102030000b007000c540de00cb4ddd008b807000d2
:102040004549de00cb55dd000b017100c551de00b6
:102050000d037800a7fe070003f0a1000cf0a70015
:1020600003f0a000e3fe37001b18b8008502400013
:1020700006834800e0834b0060044c0007003700f3
:102080001b18b8000603400087834800faff37009a
:102090001b18b8008703400008844800e0844c0007
:1020a00060054d00000006001b18b8000804400041
:1020b00089844800faff37000108a300cafe3a00ed
:1020c0005800be005801be00e3ff37000008a3001f
:1020d000c5fe3a0009047800f9ff370007f0a200b6
:1020e0009efd37001400fa00889fbe008a9fbe0044
:1020f0008c9fbe000005be000206be0068004700bf
:102100000c90be000a90be007e0107006400e10052
:102110001a00320016003e006100e1001a00320091
:102120006e049000fe0490000e0b90009e0b900039
:102130006011b8009e0590000b38b100d501200059
:1021400082817100610164008703d1000683d3009e
:102150008984d3000884d3008502e900f8ff3a009f
:102160006bfb07000df0a70001f0a000a1fe3700f7
:10217000f1ff2700f0ff2f009efe370001f8270037
:1021800000002000f7ff37006000b800f5ff3700bf
:10219000889fbe008a9fbe003004be002005be009e
:1021a0000404440085844c0006054d0087854d00dd
:1021b0000898be000a90be000440e10005c8e10096
:1021c00006d0e10007d8e1000200310068004000bd
:1021d0001008e8004f05be004f04be0000000600d6
:1021e0001000fa00889fbe008a9fbe000605be0050
:1021f0000404be003002be002003be00c4b79f002e
:10220000d5b79f00e6b79f00f7b79f0008025200be
:1022100089825a000a035b008b835b0084bf9f00a6
:1022200095bf9f00a6bf9f00b7bf9f000498be0048
:102230000698be00110020004fb29700dfb2970051
:102240006fb39700ffb397000820e10009a8e100f1
:102250000ab0e1000bb8e100010039008000eb009a
:10226000108810004f05be004f04be000080fa0029
:10227000000006001400fa00889fbe008a9fbe007e
:102280008c9fbe003f0007000605be000404be0090
:102290000006eb00ccb79f00bcb79f00acb79f0017
:1022a0009cb79f008cb79f000d0420004fb3970090
:1022b000bfb29700860343002fb29700e00f530090
:1022c00004003d003d0007000f004000b0ff070084
:1022d00003003700390007000f004000c0ff07006f
:1022e000cfb2970095bf9f00e08f520009003500e4
:1022f0002b00070014002000050020006033b80008
:1023000000007200818072000201730083817300fb
:102310001c0007000c06e8008d0f5600e3ff3a0092
:102320001fba9700e00f520005003d000802be00f2
:102330000a03be0000fe2f000f00400094ff0700bc
:102340004faa9700e00f520008003a000fb4970020
:102350009fb497002fb59700bfb59700d8b79f00df
:10236000e9b79f00fab79f008bbf9f000c000700e2
:102370004f06be004f05be004f04be000080fa00ad
:1023800000000600010007000000060090b79f0053
:10239000a1b79f00b2b79f00c3b79f00000006001f
:1023a00001000700000006001fb09700afb09700c3
:1023b0003fb19700cfb19700000006004f2bde0021
:1023c00087037300a7b79f004f23de00858242007a
:1023d0008502730095b79f00ffaa97004f2bde0080
:1023e000040242000402730084b79f006faa9700a2
:1023f0004f23de008582420085027300f5af9f0007
:10240000e9ff07004f18de000402420000027200dc
:10241000e4af9f00e4ff0700000040008180480017
:102420000201490083814900d8ff07000802be006d
:102430000a03be0000fe2f0000000600881f78007f
:1024400018002000881f78008aff07008f87e900a6
:102450004f04780000000600801feb0085ff070096
:102460008f87e90000000600889fbe008a9fbe009b
:10247000e00f5000e08f5800e00f5900e08f590046
:102480000c003d006044b8006055b80000005400e6
:1024900081805c0002015d0083815d0018002000e6
:1024a0001500070008003d00180007000004eb00bd
:1024b000050037000004eb000f00070002003d009c
:1024c0001200070018002000dcff0700e00f540096
:1024d000060032006022b8006033b80000005200ed
:1024e00081805a0002015b0083815b004f05be00c2
:1024f0004f04be0000000600e00f5200e08f5a00bb
:10250000e00f5b00e08f5b00000006006044b80055
:102510006055b8000402540085825c0006035d002b
:1025200087835d0000000600889fbe008a9fbe0072
:102530008c1f7800e00f5000e08f5800e00f59002a
:10254000e08f59000d003d006044b8006055b800b0
:102550000000540081805c0002015d0083815d0009
:102560001c0020000820e10009a8e1000ab0e100f9
:102570000bb8e1000d003d00080037000006eb003d
:10258000e00f5200e08f5a00e00f5b00e08f5b002d
:1025900006003d006044b8006055b80004025400d5
:1025a00085825c0006035d0087835d00aaff07004b
:1025b000e00f5600060032006022b8006033b80019
:1025c0000000520081805a0002015b0083815b00a1
:1025d0004f0678004f05be004f04be000000060005
:1025e000889fbe008a9fbe008c9fbe000404be0070
:1025f0000605be00809fbe00829fbe002f00070020
:10260000040678000800be000a01be002b00070087
:10261000840678004f03be004f02be008d4f760047
:102620007fb0970013003300f0ff2f008b8f6b00fb
:1026300006003b000d0666000c00a7000a003700ec
:1026400007f0a600100020000a003700880f520093
:10265000898f5a008a0f5b008b8f5b000300390063
:102660001000200001003e000000200007f0a7003d
:102670000000ea004f06be004f05be004f04be003a
:1026800000000600e48240001078a300070032003a
:10269000640240001178a3003400be001401be00a3
:1026a000040032000330a700000006003500be0021
:1026b0001501be000330a0000000060005ff270042
:1026c00005826100070032000428e10001003200a9
:1026d000240005000600070001003a004400050040
:1026e0000408050002000700f9ff3a001400050085
:1026f0006f826100810270008502710085027200a4
:1027000000000600800078005002be005003be00aa
:102710004439de00f700b200f37f200003016100be
:10272000090032000218e10016003a00850172002b
:1027300083017300838173000008200015003a00b4
:1027400040002000130037008501720083017300f0
:102750008381730005003a0004a8be0006a8be00ed
:10276000100020000b0037000201e90004024200c3
:1027700085824a0006034b0087834b000748a3006d
:10278000f9ff32000740a00004a8be0006a8be0062
:1027900020002000800098009200980000000600b1
:1027a0000800fa00889fbe008a9fbe000084fb00dc
:1027b000d4c6b300844f5000340036004b062000ce
:1027c000110009000b84d8008105780072004000d8
:1027d0004300dd00c9a52000008044006022b8004d
:1027e0000600200007fe23005001be004000be008e
:1027f000c5fd07000002be000203be0084bf9f00ab
:1028000095bf9f00a6bf9f00b7bf9f00aa002000f2
:10281000110009008a85d80080057800e985450007
:10282000c35ddd008b8544003b02be002b03be0070
:102830000fb897009fb897002fb99700bfb99700be
:10284000b1fd07000002be000203be0084bf9f006e
:1028500095bf9f00a6bf9f00b7bf9f001100090052
:102860000a84d800010478004344dd0088844400d1
:102870003902be002903be000fb897009fb8970029
:102880002fb99700bfb997001d003700ea4f5000dd
:1028900013003600aa002000110009000a84d800a5
:1028a00001057800690440004344dd00c9a520000b
:1028b000088444006022b8000600200007fe2300c0
:1028c0003800be002801be008ffd07004355dd0023
:1028d0008a8444003902be002903be000800370084
:1028e0004344dd00c4a52000080442006022b80073
:1028f0000600200007fe23003800be002801be00ad
:1029000081fd07004f05be004f04be000080fa00a5
:10291000000006000800fa00889fbe008a9fbe00e3
:10292000d4c6b300e04f500022003d000040ea0052
:102930000004fb00844f50000a00340044062000cd
:10294000110009000404d800a900200011000900aa
:102950008900d800e9004000c308dd00caa52000b6
:1029600020003700ea4f50000f003400a400200080
:10297000110009000404d800690040004300dd0094
:10298000c4a5200000004200430cdd000802420004
:102990005403be004402be005001be004000be0011
:1029a00059fd0700370037004344dd00c4a520006f
:1029b000310037000004fb00844f50002300340036
:1029c00044062000110009000404d800a9002000da
:1029d000110009008900d800e9004000c308dd00ab
:1029e000ca9a2000810045003102be002103be00ca
:1029f0008b0920008a8545003b00be002b01be00ec
:102a000041fd07000002be000203be0084bf9f001c
:102a100095bf9f00a6bf9f00b7bf9f001100090090
:102a20000904d800010478004344dd00080545008e
:102a30003a02be002a03be000fb897009fb8970065
:102a40002fb99700bfb99700d5ff3700ea4f500064
:102a500007003400a4002000110009000404d8007d
:102a6000690040004300dd00c49a2000c5ff370024
:102a70004344dd00c49a2000080442003800be0030
:102a80002801be004f05be004f04be000080fa00c2
:102a900000000600af05b000889fbe008a9fbe0000
:102aa0008c9fbe008e1f7800a0af9f0081af9f005b
:102ab00092af9f006000b8006011b80080a79f002f
:102ac00091a79f00a2a79f00b3a79f000006eb005d
:102ad0007e0637008fa897008100e80081af9f0035
:102ae00054c2b300844f500006003a00010378003e
:102af0008002eb0000c3b30001c2b300b2c2b30056
:102b0000070037000000fb00afa897005bfa070042
:102b1000e10f40006d0632000c06e8006b0637003e
:102b20008603780036427800d3c2b300834f520048
:102b30000900320005003c00814f520008003200bd
:102b4000824f52000c003a0007003700804f5200bd
:102b500009003a00060037000530a000f0ff3700fa
:102b60000500a000eeff37000510a000ecff3700c5
:102b70000520a000eaff37006283620001003200f6
:102b80000500a10068836200010032000520a10059
:102b90000403fb000603b100e90f530010003e00e0
:102ba000070378000002eb0005007800840278003b
:102bb0006a2ab900b603fb000703b1008482430010
:102bc000860378001602fb000403b100e90f5200ef
:102bd000f7ff3600b5af9f00800278000a0037008b
:102be0000003eb00b6af9f00a6c2b300864f5200b1
:102bf00005003a001fac9700c804780098af9f000a
:102c0000b9af9f008703e800e4c2b300974f1200fa
:102c100019003a00850678000de0a00064425200d9
:102c2000d74f120003003200870278000007eb0044
:102c30000b0037001fad97004a0778009aaf9f003e
:102c40008703e8000700780095c6b30006c7b30005
:102c5000c7c6b3000c0037006a73b900060742000c
:102c6000850378003502fb000403b100e90f520030
:102c7000f9ff3600f3ff3700850678000dc0a0008d
:102c80000007eb00efff370080007800314278004a
:102c900001007800854f52002f00320015003c00e3
:102ca00081af9f0035c6b300854f520085003200ca
:102cb00009003c00fcc25200854f52002f00320038
:102cc000f1c24200854f520034003200e04f520002
:102cd000030632009a00370045c6b300854f520004
:102ce0001e003200e3c24200854f520094003a00b9
:102cf00017003700864f52002700320007003c00c3
:102d0000874f52001700320081af9f00f5c6b30015
:102d1000854f52008a003a001c00370081af9f00a7
:102d200055c7b300854f52008c003200e3c2420009
:102d3000854f520004003200e5c25200854f520018
:102d40007f003a0019003700a45f9f00150037008c
:102d5000a45f9f000b00370081af9f00a45f9f001e
:102d600080003700f080660004012000010032007e
:102d70000400280084867600c3ff3700a45f9f000c
:102d80000d50a0000d90a00076003700a45f9f00ba
:102d90000d60a0007300370081af9f00a45f9f000b
:102da0000d50a0000d70a0006e003700a45f9f00c2
:102db0009fad97004b0278009baf9f00c4af9f0070
:102dc000e00f520002003a00e1bc2000c1af9f00ba
:102dd0004fab97000002eb00010037000402e8004f
:102de000e6427a00e0cf5200fcff3a00d4af9f00e9
:102df000e00f5700050032005fa99700820f5700cf
:102e0000020031008e017800d3af9f005faa9700c7
:102e10000004eb00bfaa9700848f52000100360027
:102e200004845200e886660014003a000700370068
:102e3000afa897000002200090f90700e10f4000c2
:102e4000010032000c06e8000804e900e00f54001d
:102e5000f7ff3a000084eb00080037004faa970004
:102e60003400fb00c4af9f00afa8970083f90700b0
:102e7000e10f4000010032000c06e8005faa970055
:102e80000403e900d6af9f00e00f5200f3ff3a00c1
:102e9000e08f56008d05320007003700afa897007d
:102ea0000002200075f90700e10f40000100320028
:102eb0000c06e8000804e900e00f5400f7ff3a00b0
:102ec000820537009fab97004702780097af9f00bd
:102ed00004047800cfc4de00090578008a05780074
:102ee0000800be000a01be004800de00480add00fe
:102ef00000007200a05f9f00f082660009003200af
:102f0000e04f500007003200e14f40000500320062
:102f1000b05f9f00c85f9f0025002000d5af9f00d5
:102f200003003700b85f9f0016002000d6af9f0057
:102f3000b7f92f0087834700c7af9f00acff37006a
:102f4000a45f9f00a8f92f0008844700c8af9f0026
:102f500019002000d9af9f00a5ff3700a45f9f0094
:102f60000d0cb3000470200004826600d60332000a
:102f70000400210004826600010032006e0020007f
:102f800070826600050032001fa897004005be0051
:102f90004004be0090af9f00060037001fa99700b5
:102fa0004200be0092af9f0017fb07000004be0066
:102fb0000205be006022b8006033b8000800be0001
:102fc0000a01be0062fa0700e00f500002003d0057
:102fd0000bf0a2003d00b3000002eb00f48f9f0055
:102fe0006022b8006033b8000800be000a01be00cd
:102ff000bbfa0700e00f5000340032000800be00aa
:103000000a01be0037fc0700e2f92f000f01410062
:10301000a0fb07007f8b97000603e9006333b9002c
:10302000a4002000110009000403d800f08f9f00c5
:10303000e00f500002003d000000e900f08f9f000b
:10304000ff899700c3af9f000340ea0031fe0700ed
:103050000802be000a03be00abfb07000002be0070
:103060000203be0084a79f0095a79f00a6a79f000c
:10307000b7a79f006022b8000600200007ff2300ca
:1030800033fa0700e00f500003003d00cfaa97007d
:103090000502e9000c0037006022b800060020009d
:1030a000470224000fa097009fa097002fa1970030
:1030b000bfa197002bfa0700e00f50000300350076
:1030c0004fab97000602e800f48f9f00ff8b97003c
:1030d000c7af9f000d0278000420b2000202320048
:1030e00007007800e40f4000020035008e0f50000a
:1030f0008f013500e00f5700010032000e07e90094
:10310000f20f57000300360024c1b300a45f9f00f4
:1031100001003700ae5f9f006022b8006033b80046
:103120000800be000a01be006dfa0700e00f500063
:10313000660032002f59970082cf9f008fd99700e9
:1031400002c05100f3fd07000002be000203be00f2
:103150000800be000a01be0007fa07000004be0016
:103160000205be00f8fa070048fb07000002be0097
:103170000203be000800be000a01be00d7fb070024
:103180006022b8000600200007fe2300f5f90700c2
:10319000e00f5000080035006022b8000600200053
:1031a00007fe23000800be000a01be006bf90700fd
:1031b0000004be000205be000800be000a01be00f9
:1031c000e1fa0700c09f9f00d19f9f008002eb00a3
:1031d000e59f9f000003eb00f69f9f008fcb9700b9
:1031e0008703fb00c7b79f000702e8004322dd000a
:1031f000c1b02000048040003002be002003be00a9
:10320000c4a79f00d5a79f00e6a79f00f7a79f0030
:103210004f989700df9897006f999700ff99970054
:103220000400e1000588e1000690e1000798e10054
:103230000c0039000400200005002a00969929009e
:1032400097fb23000800be000a01be002efb07000a
:103250000004be000205be00cfa897000102e800ee
:10326000190037004fb197004312dd00c3b02000b2
:10327000048241005403be004402be004f989700f0
:10328000df9897006f999700ff9997000400e1007d
:103290000588e1000690e1000798e1000b0031008d
:1032a0006022b80006002000470224000800be008b
:1032b0000a01be0014fb07000004be000205be00a8
:1032c000cfa897000102e900f48f9f003fa9970063
:1032d000650251000e025200b4af9f006382660087
:1032e00003003200bfa997008301e900b3af9f003c
:1032f000648266002c003200e28266006182660011
:10330000e08f520006003200b0022000e00f5200b1
:10331000010032000080e800afa8970004003700e9
:10332000e00f520017003200afa897000002200003
:1033300052f80700e10f4000120032000c06e800ce
:1033400010003700afa897000003200084b79f004b
:1033500095b79f00a6b79f00b7b79f0047f8070033
:103360000fb297009fb297002fb39700bfb397009b
:10337000e10f4000010032000c06e8008904e9007a
:10338000030037000802be000a03be00bfac97006e
:10339000e08f5400ebff3c00b9af9f000404be0077
:1033a0000605be002c0037006882660018003a004f
:1033b0000802be000a03be00bfac97000f00370032
:1033c000afa897000002200084b79f0095b79f0028
:1033d000a6b79f00b7b79f0028f807000fb2970065
:1033e0009fb297002fb39700bfb39700e10f400043
:1033f000010032000c06e8008904e900e08f540067
:10340000efff3c00b9af9f000404be000605be00fc
:10341000e282660061826600e08f520006003200a0
:10342000b0022000e00f5200010032000080e800ee
:10343000afa8970004003700e00f520006003200ea
:10344000afa89700000220000cf80700e10f400031
:10345000010032000c06e8000800be000a01be00b0
:1034600039fa0700809f9f00919f9f008002eb0028
:10347000a59f9f000003eb00b69f9f00af5b9700e6
:103480008703fb00c7a79f00433add00c5b02000bb
:10349000048242003404be002405be000802be00bf
:1034a0000a03be000f9897009f9897002f999700e6
:1034b000bf999700e1fb07000003b000afa8970099
:1034c000eef70700e10f4000010032000c06e800b3
:1034d0000802be000a03be000f9897009f9897004d
:1034e0002f999700bf999700dbfb0700c0af9f00a3
:1034f000d1af9f00e2af9f00f3af9f00e00f5700f6
:103500004e003200afa89700e0022000dbf7070072
:10351000e10f4000300032000c06e8002e003700ba
:10352000e00f5400e08f5c00e00f5d00e08f5d0075
:1035300008003a00c8af9f00d9af9f00eaaf9f00d4
:10354000fbaf9f008040eb00a15f9f000004eb00f9
:10355000380037008502fb00c32add00c2b020001e
:10356000850241003500be002501be00c0af9f00ae
:10357000d1af9f00e2af9f00f3af9f000203be00f8
:103580000002be000800be000a01be00abfb07003f
:103590000403200000024200afa897000400780056
:1035a000b6f70700e10f4000010032000c06e8000a
:1035b0004faa9700dfaa97006fab9700ffab970069
:1035c0000800be000a01be00a3fb07000205be0002
:1035d0000004be00040037004fac9700dfac97003a
:1035e0006fad9700ffad97002f5a97008442e90016
:1035f000a55f9f00e04f5200c9ff3a00c8af9f008f
:10360000d9af9f00eaaf9f00fbaf9f00cfa297000a
:103610000504570007003700afa8970000032000fb
:1036200096f70700e10f4000010032000c06e800a9
:103630000804e900e00f5400f7ff3a000d0278009b
:103640000402b20003003200afa89700500420002b
:1036500002003700afa897005006200087f7070048
:10366000e10f4000010032000c06e8007f8a97005d
:10367000e00f520005003d000402ea00f48f9f00b5
:10368000afa89700d002200002003700afa8970033
:10369000b002200079f70700e10f4000010032007e
:1036a0000c06e8007f8c9700a400200011000900a0
:1036b0000404d8000003b000afa897006ff707001c
:1036c000e10f4000010032000c06e800a4002000d9
:1036d000110009000404d80000032000010040008c
:1036e000afa8970065f70700e10f40000100320026
:1036f0000c06e800e8866600740332003fab9700d2
:10370000e00f53007103340006047800afa897005f
:103710000002200059f70700e10f400001003200cd
:103720000c06e8000804e900f8ff3a0067033700d8
:10373000cfab9700e08f530002003d000782ea0004
:10374000040747000800be000a01be004df907004b
:10375000c0af9f00d1af9f00e2af9f00f3af9f00cb
:10376000c1b020000040eb000802be000a03be000a
:10377000c4a79f00d5a79f00e6a79f00f7a79f00bb
:103780000c0037003102be003103be004fac970081
:10379000dfac97006fad9700ffad97000440e100ec
:1037a00005c8e10006d0e10007d8e10003003900b8
:1037b0000040e800f44f5000f2ff3a004fa4970099
:1037c000dfa497006fa59700ffa597000002fb00fc
:1037d00004075700f80f570009003c000e4078001e
:1037e000effb07000002be000203be000800be009f
:1037f0000a01be00d9f707000004be000205be00a2
:103800000e40780043fc07000002be000203be0029
:10381000c4a79f00d5a79f00e6a79f00f7a79f001a
:103820004fa89700dfa897006fa99700ffa99700fe
:103830006bf907000002be000203be000800be00d4
:103840000a01be0025fa07000002be000203be0006
:103850004fa09700dfa097006fa19700ffa19700ee
:10386000a9f9070007f907000802be000a03be0015
:10387000c4af9f00d5af9f00e6af9f00f7af9f009a
:103880000205be000004be0009003700a4002000ad
:10389000050020006033b8000800be000a01be0029
:1038a000e6fa07000205be000004be000e07e900ac
:1038b000e00f570018003200a4002000050020008f
:1038c0006033b8000800be000a01be00e2fa07003b
:1038d000e00f5000e08f5800e00f5900e08f5900d2
:1038e000eaff32000c003700f80f57000e003c00d2
:1038f0000e407800aafb07000002be000203be00d3
:103900000800be000a01be0094f707000004be00d4
:103910000205be00040037004fac9700dfac9700f3
:103920006fad9700ffad9700ff8a9700c5af9f006e
:10393000e98f520012003c006022b8006033b800ea
:103940000800be000a01be0065f80700e00f500045
:103950002f0032000800be000a01be00c9f80700af
:10396000e00f5000e08f5800e00f5900e08f590041
:1039700027003a004fab9700e10f530024003400ba
:103980000400200005002e00b6e0220017012400ec
:103990000fa097009fa097002fa19700bfa19700ad
:1039a000ebf70700e00f500003003d00cfab97009e
:1039b00073825300020037004fa897007202500034
:1039c000f48f9f006f589700d2fb07000002be00e3
:1039d0000203be0084a79f0095a79f00a6a79f0093
:1039e000b7a79f000800be000a01be00e2f707006b
:1039f000a4f80700c0af9f00d1af9f00e2af9f00c7
:103a0000f3af9f006044b8006055b8001100370064
:103a10000800be000a01be009af80700c0af9f0070
:103a2000d1af9f00e2af9f00f3af9f00ecf807001b
:103a30000002be000203be000800be000a01be0074
:103a4000a6f907000004be000205be000002eb005c
:103a5000f48f9f0041b1200010c0b3000802be00e7
:103a60000a03be00d4b79f00e5b79f00f6b79f00da
:103a700087bf9f00100037003104be003105be0033
:103a8000c8a79f00d9a79f00eaa79f00fba79f0098
:103a90004faa9700dfaa97006fab9700ffab970084
:103aa0000820e10009a8e1000ab0e1000bb8e1003c
:103ab000030039000040e800f44f5000eeff3a00e8
:103ac0005fb49700efb497007fb597008fbd970064
:103ad000a05f9f007f8a9700bfaa970004825200d0
:103ae0008e0252000002fb0004825200b4af9f001d
:103af000e00f5700020032000402e900b4af9f005b
:103b000063826600030032003fab97000603e900c2
:103b1000b6af9f00648266002c003200e28266002d
:103b200061826600e08f520006003200b002200081
:103b3000e00f5200010032000080e800afa89700bb
:103b400004003700e00f520017003200afa89700c2
:103b50000002200049f60700e10f40001200320089
:103b60000c06e80010003700afa897000003200003
:103b700084b79f0095b79f00a6b79f00b7b79f0077
:103b80003ef607000fb297009fb297002fb3970041
:103b9000bfb39700e10f4000010032000c06e800bf
:103ba0008904e900030037000802be000a03be00d2
:103bb000bfac9700e08f5400ebff3c00b9af9f0013
:103bc0000404be000605be0040003700688266009f
:103bd00018003a000802be000a03be00bfac9700fe
:103be0000f003700afa897000002200084b79f00a5
:103bf00095b79f00a6b79f00b7b79f001ff60700b5
:103c00000fb297009fb297002fb39700bfb39700f2
:103c1000e10f4000010032000c06e8008904e900d1
:103c2000e08f5400efff3c00b9af9f000404be00da
:103c30000605be00e282660061826600e08f5200e7
:103c400006003200b0022000e00f520001003200f6
:103c50000080e800afa8970018003700e00f52007e
:103c60001a003200afa897000002200013003700ae
:103c70008502fb00c32add00c7b020008582430017
:103c80005503be004502be004fa89700dfa897006d
:103c90006fa99700ffa99700e8f90700a40020008a
:103ca000050020006033b800ebf907000403200092
:103cb00000024200afa8970004007800eff507006b
:103cc000e10f4000010032000c06e8002f5a970077
:103cd0008442e900a55f9f00e04f5200e4ff3a00f4
:103ce0000802be000a03be0010003700afa897000c
:103cf0000003200084b79f0095b79f00a6b79f00e0
:103d0000b7b79f00ddf507000fb297009fb297008d
:103d10002fb39700bfb39700e10f400001003200be
:103d20000c06e8008904e900f98f9f00ff8c9700da
:103d3000e08f5400edff3c000404be000605be0009
:103d4000f20f57000300340024c1b300a45f9f00aa
:103d500001003700ae5f9f002f5a97008402fb00de
:103d600005075700e04f520006003200afa8970049
:103d7000e0022000c1f50700e10f40000100320021
:103d80000c06e8002f589700e2fa07000002be0078
:103d90000203be000800be000a01be005af8070078
:103da000b8f707000205be000004be00240037007b
:103db0008502fb00c32add00c6b020008502430057
:103dc0003500be002501be00c0af9f00d1af9f00ef
:103dd000e2af9f00f3af9f000203be000002be00ef
:103de0000800be000a01be0094f90700a4002000ec
:103df000050020006033b80097f907000403200095
:103e000000024200afa89700040078009bf507006d
:103e1000e10f4000010032000c06e8004faa9700b5
:103e2000dfaa97006fab9700ffab97000800be00ba
:103e30000a01be0088f907000205be000004be00aa
:103e40002f5a97008442e900a55f9f00e04f52007f
:103e5000d7ff3a00c8af9f00d9af9f00eaaf9f00dd
:103e6000fbaf9f0007003700afa8970000032000ba
:103e700082f50700e10f4000010032000c06e80067
:103e80000e07e900e00f5700f7ff3a00e8866600ea
:103e90008e013200bfaa9700e08f52008b013400e0
:103ea00005047800afa897000002200073f5070012
:103eb000e10f4000010032000c06e8000804e900b0
:103ec000f8ff3a00810137008d027800050cb2003e
:103ed0003c003a00e08f560005003d001fa8970007
:103ee0004005be004004be0090af9f0010003700a8
:103ef00070826600130032001faa97004401be00c2
:103f000094af9f00c2979f00d3979f0084027800d0
:103f1000150290004fa2de00e4979f00f4979f00e7
:103f20004f949700df9497006f959700ff95970047
:103f3000c8af9f00d9af9f00eaaf9f00fbaf9f00c3
:103f40000b0037009fac97004902780099af9f00a3
:103f500004007800cf80de00010178008201780043
:103f6000c0af9f00d1af9f00e2af9f00f3af9f00b3
:103f70004faa9700dfaa97006fab9700ffab97009f
:103f8000e00f5200e08f5a00e00f5b00e08f5b0013
:103f900030003d003d00b3006022b8006033b8003f
:103fa0004fac9700dfac97006fad9700ffad970067
:103fb0000804520089845a000a055b008b855b0067
:103fc00020003700e08f560005003d001faa970033
:103fd0004401be004400be0094af9f000d003700b6
:103fe000f0826600100032001fac97004803be004c
:103ff00098af9f0086979f0097979f00a4979f0078
:10400000b4979f000f9097009f9097002f91970073
:10401000bf919700c0af9f00d1af9f00e2af9f005c
:10402000f3af9f000b0037009fa897004102780074
:1040300091af9f0004047800090020000a002000ce
:104040000b002000c8af9f00d9af9f00eaaf9f00d0
:10405000fbaf9f00e00f57000b003a001e0020004e
:104060004fa89700dfa897006fa99700ffa99700b6
:10407000e00f5000e08f5800e00f5900e08f59002a
:10408000010032000007eb008d047800090cb2003b
:1040900004042000848f54003500320003003c00eb
:1040a000e08f5400070032004b0037000408200066
:1040b000848f540015003200040c2000848f5400bb
:1040c00045003a0041b1200010c0b300090178005a
:1040d0003102be003103be004fac9700dfac970049
:1040e0006fad9700ffad97000440e10005c8e10007
:1040f00006d0e10007d8e100350039000040e800b3
:10410000f44f5000f2ff3a003100370010c0b30006
:1041100004012000050020006033b8000901780088
:104120004fac9700dfac97006fad9700ffad9700e5
:104130000440e10005c8e10006d0e10007d8e10035
:1041400023003900490020000402d0008582d200fb
:104150000683d2008783d2008904e900faff3a007f
:104160000040e800f04f5000edff3a001800370023
:1041700010c0b30084002000050020006033b800a8
:10418000090178004fac9700dfac97006fad970046
:10419000ffad97000440e10005c8e10006d0e10052
:1041a00007d8e1000a003900390020000402d000dd
:1041b0008582d2000683d2008783d2008904e90079
:1041c000faff3a000040e800f54f5000edff3a00da
:1041d00082047800a05f9f002f5d97000a02fb0019
:1041e0008e0f520002003d00ae5f9f0003003700bb
:1041f000840f570001003d00040778003fa8970096
:10420000e00f5000040032006382660002003200ba
:104210000000e900b0af9f000400240004826600a3
:1042200008003200bfa897008e8f500003003400b2
:104230008e805000b1af9f00020037000001eb00fc
:10424000b2af9f00af5997000302fb000004eb00e0
:10425000bfaa9700848f52000100340004845200ea
:10426000648266001c003200e282660061826600a1
:10427000e08f520006003200b0022000e00f520032
:10428000010032000080e800afa89700040037006a
:10429000e00f520006003200afa897000002200095
:1042a00076f40700e10f4000010032000c06e80040
:1042b000e00f540073003200afa897000003200005
:1042c0006ef40700e10f4000010032000c06e80028
:1042d0000804e900f6ff3700e00f54000a0032003e
:1042e0006882660008003a00afa89700000220002c
:1042f00062f40700e10f4000010032000c06e80004
:104300000804e900f8ff3a00e28266006182660074
:10431000e08f520006003200b0022000e00f520091
:10432000010032000080e800afa8970004003700c9
:10433000e00f520053003200afa8970000022000a7
:104340004ef40700e10f40004e0032000c06e8007a
:104350004c0037000e07e9008a8f5400310032000c
:1043600003003c00e08f5400070032003d0037009e
:1043700004082000848f540015003200040c200033
:10438000848f540037003a004372dd00c6b020002d
:10439000060242005403be004402be004fa897002c
:1043a000dfa897006fa99700ffa9970023f80700df
:1043b000a4002000050020006033b80026f80700a4
:1043c00007c3b30087434000a75f9f002500370065
:1043d000d4bb2000bfad9700e08f55000100320034
:1043e000c4ba2000c272dd004fa89700dfa8970072
:1043f0006fa99700ffa997008502e9000500330027
:104400008301d1000281d3008180d3000080d300da
:10441000f9ff37006f00600064407800a05f9f00e4
:10442000100037006372b9004fa89700dfa897000b
:104430006fa99700ffa99700840578008b05e90014
:10444000050033008301d1000281d3008180d300b5
:104450000080d300f9ff3700674260000443b000da
:10446000a45f9f00af5897000100fb00afa8970022
:1044700002f40700e10f4000060032000c06e800dd
:10448000040037000a0420000d0178000202b20087
:10449000b2af9f00e00f5700aeff3a00e88666001b
:1044a0000a003200e00f540008003400afa8970063
:1044b00000022000f1f30700e10f4000010032008c
:1044c0000c06e8000804e900f8ff3a008fa99700fd
:1044d00013407800a05f9f00e04f50007df93a0044
:1044e0000c0078004f0778004f06be004f05be0055
:0c44f0004f04be00af05b1000000060044
:020000040000fa
:1044fc000a4d0000505500003630000035300000e9
:10450c00205300006574000075700000204300000b
:10451c006f6d0000706c0000657400006500000099
:10452c000a4900003243000020520000656100007f
:10453c0064200000546500007374000020500000db
:10454c006173000073650000642c0000204d0000b6
:10455c00505500003630000035300000204100007e
:10456c006464000072650000737300003a20000060
:10457c003078000025780000004500005252000001
:10458c004f5200003a200000493200004320000046
:10459c005265000061640000205400006573000047
:1045ac007420000046610000696c00006564000026
:1045bc002c200000537400006f7000007069000024
:1045cc006e670000000a0000526500006769000079
:1045dc0073740000657200002063000068650000c1
:1045ec00636b000020310000206600006169000050
:1045fc006c650000642c000020760000616c0000eb
:10460c007565000020730000686f0000756c000079
:10461c00642000006265000020300000783000004b
:10462c00312c000020770000617300002030000066
:10463c0078250000780000000a5200006567000031
:10464c00697300007465000072200000636800004c
:10465c00656300006b2000003220000066610000e2
:10466c00696c0000656400002c200000766100007d
:10467c006c75000065200000736800006f75000009
:10468c006c6400002062000065200000307800009f
:10469c00303300002c2000007761000073200000f4
:1046ac003078000025780000000a000052650000f8
:1046bc0067690000737400006572000020630000dd
:1046cc0068650000636b000020330000206600006a
:1046dc00616900006c650000642c0000207600000d
:1046ec00616c00007565000020730000686f0000ad
:1046fc00756c000064200000626500002030000032
:10470c0062300000303000003031000030300000ea
:10471c00302c000020770000617300002030000076
:10472c0078250000780000000a5200006567000040
:10473c00697300007465000072200000636800005b
:10474c00656300006b2000003420000066610000ef
:10475c00696c0000656400002c200000766100008c
:10476c006c75000065200000736800006f75000018
:10477c006c640000206200006520000030620000c4
:10478c00303000003030000031300000303000009c
:10479c002c200000776100007320000030780000ae
:1047ac0025780000000a00005265000067690000cf
:1047bc0073740000657200002063000068650000df
:1047cc00636b00002035000020660000616900006a
:1047dc006c650000642c000020760000616c000009
:1047ec007565000020730000686f0000756c000098
:1047fc00642000006265000020300000783000006a
:10480c00302c000020770000617300002030000085
:10481c0078250000780000000a520000656700004f
:10482c00697300007465000072200000636800006a
:10483c00656300006b2000003620000066610000fc
:10484c00696c0000656400002c200000766100009b
:10485c006c75000065200000736800006f75000027
:10486c006c640000206200006520000030780000bd
:10487c00303000002c200000776100007320000015
:10488c003078000025780000000a00005265000016
:10489c0067690000737400006572000020630000fb
:1048ac0068650000636b0000203700002066000084
:1048bc00616900006c650000642c0000207600002b
:1048cc00616c00007565000020730000686f0000cb
:1048dc00756c000064200000626500002030000050
:1048ec0078300000302c000020770000617300004d
:1048fc002030000078250000780000000a520000eb
:10490c006567000069730000746500007220000088
:10491c0063680000656300006b2000003820000015
:10492c0066610000696c0000656400002c200000ca
:10493c00766100006c750000652000007368000053
:10494c006f7500006c6400002062000065200000a0
:10495c0030780000303000002c200000776100001f
:10496c00732000003078000025780000000a000059
:10497c0052650000676900007374000065720000e6
:10498c002063000068650000636b000020390000a4
:10499c0020660000616900006c650000642c00005a
:1049ac0020760000616c000075650000207300002b
:1049bc00686f0000756c00006420000062650000e8
:1049cc002030000078300000302c000020770000f0
:1049dc006173000020300000782500007800000092
:1049ec000a520000656700006973000074650000de
:1049fc007220000063680000656300006b200000fb
:104a0c003130000020660000616900006c65000018
:104a1c00642c000020760000616c000075650000bd
:104a2c0020730000686f0000756c000064200000ab
:104a3c00626500002030000078300000302c00004f
:104a4c002077000061730000203000007825000002
:104a5c00780000000a5200006567000069730000ce
:104a6c00746500007220000063680000656300003c
:104a7c006b200000313100002066000061690000ed
:104a8c006c650000642c000020760000616c000056
:104a9c007565000020730000686f0000756c0000e5
:104aac0064200000626500002030000078300000b7
:104abc00302c0000207700006173000020300000d3
:104acc0078250000780000000a520000656700009d
:104adc0069730000746500007220000063680000b8
:104aec00656300006b20000031320000206600007e
:104afc00616900006c650000642c000020760000e9
:104b0c00616c00007565000020730000686f000088
:104b1c00756c00006420000062650000203000000d
:104b2c0078300000302c000020770000617300000a
:104b3c002030000078250000780000000a520000a8
:104b4c006567000069730000746500007220000046
:104b5c0063680000656300006b20000031330000c7
:104b6c0020660000616900006c650000642c000088
:104b7c0020760000616c0000756500002073000059
:104b8c00686f0000756c0000642000006265000016
:104b9c002030000078300000302c0000207700001e
:104bac0061730000203000007825000078000000c0
:104bbc000a5200006567000069730000746500000c
:104bcc007220000063680000656300006b20000029
:104bdc003134000020660000616900006c65000043
:104bec00642c000020760000616c000075650000ec
:104bfc0020730000686f0000756c000064200000da
:104c0c00626500002030000078300000302c00007d
:104c1c002077000061730000203000007825000030
:104c2c00780000000a5200006567000069730000fc
:104c3c00746500007220000063680000656300006a
:104c4c006b20000031350000206600006169000017
:104c5c006c650000642c000020760000616c000084
:104c6c007565000020730000686f0000756c000013
:104c7c0064200000626500002030000078300000e5
:104c8c00302c000020770000617300002030000001
:104c9c0078250000780000000a52000065670000cb
:104cac0069730000746500007220000063680000e6
:104cbc00656300006b2000003136000020660000a8
:104ccc00616900006c650000642c00002076000017
:104cdc00616c00007565000020730000686f0000b7
:104cec00756c00006420000062650000203000003c
:104cfc0078300000302c0000207700006173000039
:104d0c002030000078250000780000000a520000d6
:104d1c006567000069730000746500007220000074
:104d2c0063680000656300006b20000031370000f1
:104d3c0020660000616900006c650000642c0000b6
:104d4c0020760000616c0000756500002073000087
:104d5c00686f0000756c0000642000006265000044
:104d6c002030000078300000302c0000207700004c
:104d7c0061730000203000007825000078000000ee
:104d8c000a5200006567000069730000746500003a
:104d9c007220000063680000656300006b20000057
:104dac003138000020660000616900006c6500006d
:104dbc00642c000020760000616c0000756500001a
:104dcc0020730000686f0000756c00006420000008
:104ddc00626500002030000078300000302c0000ac
:104dec00207700006173000020300000782500005f
:104dfc00780000000a52000065670000697300002b
:104e0c007465000072200000636800006563000098
:104e1c006b20000031390000206600006169000041
:104e2c006c650000642c000020760000616c0000b2
:104e3c007565000020730000686f0000756c000041
:104e4c006420000062650000203000007830000013
:104e5c00302c00002077000061730000203000002f
:104e6c0078250000780000000a52000065670000f9
:104e7c006973000074650000722000006368000014
:104e8c00656300006b2000003230000020660000db
:104e9c00616900006c650000642c00002076000045
:104eac00616c00007565000020730000686f0000e5
:104ebc00756c00006420000062650000203000006a
:104ecc0078300000302c0000207700006173000067
:104edc002030000078250000780000000a52000005
:104eec0065670000697300007465000072200000a3
:104efc0063680000656300006b2000003231000025
:104f0c0020660000616900006c650000642c0000e4
:104f1c0020760000616c00007565000020730000b5
:104f2c00686f0000756c0000642000006265000072
:104f3c002030000078300000302c0000207700007a
:104f4c00617300002030000078250000780000001c
:104f5c000a52000065670000697300007465000068
:104f6c007220000063680000656300006b20000085
:104f7c003232000020660000616900006c650000a0
:104f8c00642c000020760000616c00007565000048
:104f9c0020730000686f0000756c00006420000036
:104fac00626500002030000078300000302c0000da
:104fbc00207700006173000020300000782500008d
:104fcc00780000000a520000656700006973000059
:104fdc0074650000722000006368000065630000c7
:104fec006b20000032330000206600006169000075
:104ffc006c650000642c000020760000616c0000e1
:10500c007565000020730000686f0000756c00006f
:10501c006420000062650000203000007830000041
:10502c00302c00002077000061730000203000005d
:10503c0078250000780000000a5200006567000027
:10504c006973000074650000722000006368000042
:10505c00656300006b200000323400002066000005
:10506c00616900006c650000642c00002076000073
:10507c00616c00007565000020730000686f000013
:10508c00756c000064200000626500002030000098
:10509c0078300000302c0000207700006173000095
:1050ac002030000078250000780000000a52000033
:1050bc0065670000697300007465000072200000d1
:1050cc0063680000656300006b200000323500004f
:1050dc0020660000616900006c650000642c000013
:1050ec0020760000616c00007565000020730000e4
:1050fc00686f0000756c00006420000062650000a1
:10510c002030000078300000302c000020770000a8
:10511c00617300002030000078250000780000004a
:10512c000a52000065670000697300007465000096
:10513c007220000063680000656300006b200000b3
:10514c003236000020660000616900006c650000ca
:10515c00642c000020760000616c00007565000076
:10516c0020730000686f0000756c00006420000064
:10517c00626500002030000078300000302c000008
:10518c0020770000617300002030000078250000bb
:10519c00780000000a520000656700006973000087
:1051ac0074650000722000006368000065630000f5
:1051bc006b2000003237000020660000616900009f
:1051cc006c650000642c000020760000616c00000f
:1051dc007565000020730000686f0000756c00009e
:1051ec006420000062650000203000007830000070
:1051fc00302c00002077000061730000203000008c
:10520c0078250000780000000a5200006567000055
:10521c006973000074650000722000006368000070
:10522c00656300006b20000032380000206600002f
:10523c00616900006c650000642c000020760000a1
:10524c00616c00007565000020730000686f000041
:10525c00756c0000642000006265000020300000c6
:10526c0078300000302c00002077000061730000c3
:10527c002030000078250000780000000a52000061
:10528c0065670000697300007465000072200000ff
:10529c0063680000656300006b2000003239000079
:1052ac0020660000616900006c650000642c000041
:1052bc0020760000616c0000756500002073000012
:1052cc00686f0000756c00006420000062650000cf
:1052dc002030000078300000302c000020770000d7
:1052ec006173000020300000782500007800000079
:1052fc000a520000656700006973000074650000c5
:10530c007220000063680000656300006b200000e1
:10531c003330000020660000616900006c650000fd
:10532c00642c000020760000616c000075650000a4
:10533c0020730000686f0000756c00006420000092
:10534c00626500002030000078300000302c000036
:10535c0020770000617300002030000078250000e9
:10536c00780000000a5200006567000069730000b5
:10537c007465000072200000636800006563000023
:10538c006b200000333100002066000061690000d2
:10539c006c650000642c000020760000616c00003d
:1053ac007565000020730000686f0000756c0000cc
:1053bc00642000006265000020300000783000009e
:1053cc00302c0000207700006173000020300000ba
:1053dc0078250000780000000a5200006567000084
:1053ec00697300007465000072200000636800009f
:1053fc00656300006b200000333200002066000063
:10540c00616900006c650000642c000020760000cf
:10541c00616c00007565000020730000686f00006f
:10542c00756c0000642000006265000020300000f4
:10543c0078300000302c00002077000061730000f1
:10544c002030000078250000780000000a5200008f
:10545c00656700006973000074650000722000002d
:10546c0063680000656300006b20000033330000ac
:10547c0020660000616900006c650000642c00006f
:10548c0020760000616c0000756500002073000040
:10549c00686f0000756c00006420000062650000fd
:1054ac002030000078300000302c00002077000005
:1054bc0061730000203000007825000078000000a7
:1054cc000a520000656700006973000074650000f3
:1054dc007220000063680000656300006b20000010
:1054ec003334000020660000616900006c65000028
:1054fc00642c000020760000616c000075650000d3
:10550c0020730000686f0000756c000064200000c0
:10551c00626500002030000078300000302c000064
:10552c002077000061730000203000007825000017
:10553c00780000000a5200006567000069730000e3
:10554c007465000072200000636800006563000051
:10555c006b200000333500002066000061690000fc
:10556c006c650000642c000020760000616c00006b
:10557c007565000020730000686f0000756c0000fa
:10558c0064200000626500002030000078300000cc
:10559c00302c0000207700006173000020300000e8
:1055ac0078250000780000000a52000065670000b2
:1055bc0069730000746500007220000063680000cd
:1055cc00656300006b20000033360000206600008d
:1055dc00616900006c650000642c000020760000fe
:1055ec00616c00007565000020730000686f00009e
:1055fc00756c000064200000626500002030000023
:10560c0078300000302c000020770000617300001f
:10561c002030000078250000780000000a520000bd
:10562c00656700006973000074650000722000005b
:10563c0063680000656300006b20000033370000d6
:10564c0020660000616900006c650000642c00009d
:10565c0020760000616c000075650000207300006e
:10566c00686f0000756c000064200000626500002b
:10567c002030000078300000302c00002077000033
:10568c0061730000203000007825000078000000d5
:10569c000a52000065670000697300007465000021
:1056ac007220000063680000656300006b2000003e
:1056bc003338000020660000616900006c65000052
:1056cc00642c000020760000616c00007565000001
:1056dc0020730000686f0000756c000064200000ef
:1056ec00626500002030000078300000302c000093
:1056fc002077000061730000203000007825000046
:10570c00780000000a520000656700006973000011
:10571c007465000072200000333900002063000023
:10572c0068650000636b0000206600006169000082
:10573c006c650000642c000020760000616c000099
:10574c007565000020730000686f0000756c000028
:10575c0064200000626500002030000078300000fa
:10576c00302c000020770000617300002030000016
:10577c0078250000780000000a52000065670000e0
:10578c0069730000746500007220000063680000fb
:10579c00656300006b2000003430000020660000c0
:1057ac00616900006c650000642c0000207600002c
:1057bc00616c00007565000020730000686f0000cc
:1057cc00756c000064200000626500002030000051
:1057dc0078300000322c000020770000617300004c
:1057ec002030000078250000780000000a520000ec
:1057fc00656700006973000074650000722000008a
:10580c0063680000656300006b2000003431000009
:10581c0020660000616900006c650000642c0000cb
:10582c0020760000616c000075650000207300009c
:10583c00686f0000756c0000642000006265000059
:10584c002030000078300000302c00002077000061
:10585c006173000020300000782500007800000003
:10586c000a5200006567000069730000746500004f
:10587c007220000063680000656300006b2000006c
:10588c003432000020660000616900006c65000085
:10589c00642c000020760000616c0000756500002f
:1058ac0020730000686f0000756c0000642000001d
:1058bc00626500002030000078300000302c0000c1
:1058cc002077000061730000203000007825000074
:1058dc00780000000a520000656700006973000040
:1058ec007465000072200000766100006c75000089
:1058fc006520000063680000656300006b200000f9
:10590c00706100007373000065640000000a000001
:10591c005265000067690000737400006572000036
:10592c0020760000616c00007565000020630000ab
:10593c0068650000636b0000206600006169000070
:10594c006c650000640000000a47000079720000da
:10595c006f200000582000006f6600006673000086
:10596c006574000020730000756d00003a20000083
:10597c00256c00006420000047790000726f000065
:10598c0020580000206f0000666600007365000060
:10599c00743a000020250000640000000a47000053
:1059ac00797200006f200000592000006f66000023
:1059bc00667300006574000020730000756d0000b4
:1059cc003a200000256c000064200000477900009c
:1059dc00726f000020590000206f00006666000006
:1059ec0073650000743a000020250000640000007c
:1059fc000a470000797200006f2000005a20000056
:105a0c006f66000066730000657400002073000070
:105a1c00756d00003a200000256c00006420000029
:105a2c0047790000726f0000205a0000206f0000c0
:105a3c006666000073650000743a000020250000c3
:105a4c00640000000a550000415200005420000080
:105a5c00536500007475000070200000436f000057
:105a6c006d7000006c65000074650000006700003c
:105a7c006574000069640000006900006420000087
:105a8c00647200006f6e0000652000003d20000075
:105a9c00310a0000004b000070000000766100002d
:105aac006c20000064650000204b0000702000009a
:105abc003a0a000000690000642000006e6f0000cc
