:020000040000fa
:080000000002040000000000f2
:020000040000fa
:1000080090020000900200009002000090020000a0
:100018009002000090020000900200009002000090
:10002800900200005a1f0000900200009c2100006e
:1000380090020000a41f000090020000900200003f
:10004800900200009002000090020000941e000040
:10005800b81e00009002000090020000900200000c
:100068009002000090020000900200009002000040
:100078009002000090020000ee1f000038200000ef
:100088009002000090020000900200009002000020
:100098009002000090020000900200009002000010
:1000a8009002000090020000900200009002000000
:1000b80090020000900200009002000090020000f0
:1000c80090020000900200009002000090020000e0
:1000d80090020000900200009002000090020000d0
:1000e80090020000900200009002000090020000c0
:1000f80090020000900200009002000090020000b0
:10010800900200009002000090020000900200009f
:10011800900200009002000090020000900200008f
:10012800900200009002000090020000900200007f
:10013800900200009002000090020000900200006f
:10014800900200009002000090020000900200005f
:10015800900200009002000090020000900200004f
:10016800900200009002000090020000900200003f
:10017800900200009002000090020000900200002f
:10018800900200009002000090020000900200001f
:10019800900200009002000090020000900200000f
:1001a80090020000900200009002000090020000ff
:1001b80090020000900200009002000090020000ef
:1001c80090020000900200009002000090020000df
:1001d80090020000900200009002000090020000cf
:1001e80090020000900200009002000090020000bf
:0801f8009002000090020000db
:020000040000fa
:10020800900200009002000090020000900200009e
:10021800900200009002000090020000900200008e
:10022800900200005a1f0000900200009c2100006c
:1002380090020000a41f000090020000900200003d
:10024800900200009002000090020000941e00003e
:10025800b81e00009002000090020000900200000a
:10026800900200009002000090020000900200003e
:100278009002000090020000ee1f000038200000ed
:10028800900200009002000090020000900200001e
:10029800900200009002000090020000900200000e
:1002a80090020000900200009002000090020000fe
:1002b80090020000900200009002000090020000ee
:1002c80090020000900200009002000090020000de
:1002d80090020000900200009002000090020000ce
:1002e80090020000900200009002000090020000be
:1002f80090020000900200009002000090020000ae
:10030800900200009002000090020000900200009d
:10031800900200009002000090020000900200008d
:10032800900200009002000090020000900200007d
:10033800900200009002000090020000900200006d
:10034800900200009002000090020000900200005d
:10035800900200009002000090020000900200004d
:10036800900200009002000090020000900200003d
:10037800900200009002000090020000900200002d
:10038800900200009002000090020000900200001d
:10039800900200009002000090020000900200000d
:1003a80090020000900200009002000090020000fd
:1003b80090020000900200009002000090020000ed
:1003c80090020000900200009002000090020000dd
:1003d80090020000900200009002000090020000cd
:1003e80090020000900200009002000090020000bd
:0803f8009002000090020000d9
:020000040000fa
:10040000ef9820000e7f24000e01880000000000fd
:100410000c000700c01f220001002000110007008f
:10042000000020000000e000020032000000020096
:1004300000000000da230200000000000040da00a3
:100440000000fe004440a900200920000000e00058
:100450000300320000002000a00188004440a800f2
:100460000000060091018800800078000000eb0089
:1004700015003700e280400032a0b4009101ba00bc
:10048000e280400032a0b4009102ba00e280400055
:1004900032a0b4000002eb00472bde00f507b200eb
:1004a000602ce10004003a000059eb008301e900f0
:1004b000fdff3e00040037006128e100010032002a
:1004c0000082eb00040007001101ba000200e00006
:1004d000e8ff3a00000006003159ba008301e90044
:1004e0000c0032002159ba008301e90008003200f3
:1004f0000400e00003003a00e280400032a0b400b3
:10050000f5ff370011d9ba008301e900faff3a007c
:100510008100e800e180400032a0b4000000060045
:100520000040da000000fe008420a900670160009e
:100530004411dd0023058000f1f82f008180610067
:100540008280700021058800680060004300de00a2
:100550006100600080004000a00480000010a10045
:1005600001007000a00488000000060084a0a9001b
:10057000670160004411dd0033058000f1f82f00b1
:100580008180610082807000310588006800600011
:10059000c300de00e1806000c508dd00a00480002b
:1005a0000050a10001007000a004880000000600b7
:1005b00086c0a900670160004811dd007305800056
:1005c000f18f2f00818061008280700071058800aa
:1005d00068006000c300de00e1806000c608dd0046
:1005e000b00480000060a10001007000b004880029
:1005f0000000060086e0a900670160004c11dd00e4
:1006000073058000f1ff2800818061008280700006
:100610007105880068006000c300de00e1806000b2
:10062000c708dd00b00480000070a1000100700068
:10063000b004880000000600100a880000000600d0
:10064000300a880000000600d00a8800000006007a
:10065000f00a8800000006008440a90067016000dd
:100660004811dd0023058000f18f2f00818061009b
:10067000828070002105880068006000c300de00f1
:10068000e1806000c208dd00a00480000020a1001d
:1006900001007000a00488000000060084c0a900ca
:1006a000670160004811dd0033058000f18f2f00e5
:1006b00081806100828070003105880068006000e0
:1006c000c300de00e1806000c608dd00a0048000f9
:1006d0000060a10001007000a00488000000060076
:1006e0008720a900670160004411dd0083058000b8
:1006f000f1f82f0081806100828070008105880000
:1007000068006000c300de00e1806000c908dd0011
:10071000b00480000090a10001007000b0048800c7
:10072000000006008740a900670160004811dd0055
:1007300083058000f18f2f0081806100828070002e
:100740008105880068006000c300de00e180600071
:10075000ca08dd00b004800000a0a1000100700004
:10076000b00488000000060083ff2f008001fd0018
:100770008421b6008001fd00010c8800120c880065
:10078000200c88000000060083ff2f008001fd0080
:100790008a21b6008001fd00310c8800420c8800df
:1007a000500c88000000060083ff2f008001fd0030
:1007b0009021b6008001fd00610c8800720c880059
:1007c000800c88000000060083ff2f008001fd00e0
:1007d0009621b6008001fd00910c8800a20c8800d3
:1007e000b00c8800000006008460a900670160006a
:1007f0004c11dd0023058000f1ff2800818061009d
:10080000828070002105880068006000a1048000db
:100810000130a10080807000a10488000000060063
:100820000021ef0011088800200888000000060061
:100830000621ef0061088800800888001061a90087
:10084000000006000a21ef00710888009008880067
:10085000000006000008880000000600300888003c
:1008600000000600500888000000060011118000fa
:100870000110b20010c0b300010032000040eb00d4
:10088000000006008560a9008580a900670160005e
:100890004c11dd0043058000f1ff280081806100dc
:1008a0008280700041058800000178000207b200d4
:1008b0004411de005305800081ff2f00818061001c
:1008c0008280700051058800680160004311de00dd
:1008d000610161004b11dd00a104800001b0a100a5
:1008e00082807000a10488000008b2004700de008a
:1008f000610060004c00dd00a104800001c0a10087
:1009000080807000a10488000000060010118000a3
:10091000614060000000060042118800001188005c
:1009200011118800000006000011800066006000c0
:10093000e60f500002003a0030118000000006006f
:1009400030118000f00fb20000000600011180009d
:10095000e6806000e68f500001003200f00fb20028
:10096000201188000000060001118000e680600070
:10097000e68f50000e003a00040037002322ab003f
:10098000feff3a00221188000080e8001001780084
:10099000e00f5100f9ff3a00000006002322ab00ef
:1009a000feff3a008100fb00211188000000e800f2
:1009b00090407800e0cf5000f8ff3a0000000600b9
:1009c00003f0a200889fbe008a9fbe008c1f7800a3
:1009d000ac010700b30133006450e1004f00320066
:1009e0006420e1005200320003826c0007003b00eb
:1009f0000905d0000306d000820f54000c065d00ec
:100a000002003900020032008901780003067800f4
:100a10008582550004003d000003fd008103fd00b8
:100a20008502ea008b854200840f720002003b00c1
:100a300060001000e08018006011b8000005eb00b5
:100a40007a28e1000a00390006007800c75ddd0061
:100a5000f707b200878075002d0037008281710092
:100a60000a017800610560008180d1000080d30018
:100a70008502e900f9ff3b00060440008784480036
:100a800002003b0060041400e0841c000988a300fd
:100a9000070032008a817100828171006101640067
:100aa0008904d1000884d3008b05e80017003700c3
:100ab0000978a30013003a000b00e0001300340093
:100ac0008b05e9000804440089844c000a44740042
:100ad0000978a3000d003a000b00e0000700340085
:100ae0008b05e9000804440089844c0001003a00a9
:100af0000b0020000978a300f7ff32000001eb0093
:100b000002003700828171000a017800220107008b
:100b10000cf0a70001f0a0006b0137006420e10099
:100b200002003a00838f6c006b0133000801be00a5
:100b30000200be0064013700889fbe008a9fbe008d
:100b40008c1f78004f0107001002200002003b00bc
:100b500030458800530137008a0062006408e100d4
:100b600002003a00304588005b0137006108e1006f
:100b7000fcff32000800be0003047800700007008c
:100b800001f0a1000900070008f0a60004003700ea
:100b90000001be0091042400b0fd200088ff070082
:100ba00009f0a70001f0a20047013700889fbe00ae
:100bb0008a9fbe008c9fbe000004be001c0107007f
:100bc0000800be00890678006420e10008003900b2
:100bd000040032000160a0001202200032458800ab
:100be0005300370091fc2300b0fd20004e00370079
:100bf0000006eb0009f0a10003f82300020020002a
:100c00000800be009f0007000600340001f8230022
:100c1000000020000801be00490007000004be00db
:100c20002c0020000800be0093e82300320a2300b5
:100c300094000700120034000801be00d1fd23001b
:100c4000703d2b005fff07000005be00b3f32300db
:100c5000f27a26000800be003101070003f82300e5
:100c60000200200056ff07000801be0055ff0700e4
:100c70000a01be00320007000004be000c06e800b6
:100c80000800be0001f0a10002002000039823002c
:100c90007c0007000800be00160035000801be00f9
:100ca0001f0107000005be0032cd2c0043fb2300ce
:100cb00044ff0700809fbe001269280003d52b0067
:100cc0000a00be0016010700620f210013ef2b007f
:100cd0003cff07000a01be00110107004f01be00e2
:100ce000170007000801be000d0107000801be0043
:100cf00034ff07000c00e0000b0032000c10a700ce
:100d000001f0a200b2fd200093fc23006260e1002c
:100d10000400320022a9200063f023000c10a70079
:100d200063f8230027ff07000df0a70001f0a200e1
:100d30004f06be004f05be004f04be000000060077
:100d4000889fbe008a9fbe008c1f7800cd000700e0
:100d5000d400330003866c006450e1002e003200a2
:100d60006420e100330032006150e1002f003200c6
:100d70006120e1003100320085855500eb07b000ad
:100d80000900200008042000050037000804440082
:100d900089844c000a0031000603430087834b001e
:100da0000001530081815b00f8ff33000203be00a5
:100db0000800a0000804440089844c00f6ff3900b4
:100dc000c639dd00830173000100320013002000ea
:100dd0008904d1000884d3000998a30005003200db
:100de0000800a7000300a0008904d1000884d300f4
:100df0008b05e8008904d1000884d3000001eb00d2
:100e00000281d2006400070001f0a1000cf0a700ed
:100e100001f0a000ac0037006420e100ae00320019
:100e20000801be000200be00f7ff37006120e100ac
:100e3000a90032006000b800f3ff37000000200076
:100e400001f82700f0ff3700839f68000100e000f1
:100e500002003d0060001000e08018000300e00088
:100e600002003d0060011100e0811900150107003a
:100e70004f00e00002003b0060001000e08018001e
:100e8000000006001400200021013700f4ff2f00ad
:100e90001f0137000001be00650007000470a700b5
:100ea00003f0a1006509b100160032000d00350005
:100eb0006828e10006003500f0ff2f00f1ff270051
:100ec0000300e00013003b000100280000000500c3
:100ed00000004000818048008502e900fcff3a00e4
:100ee00008003700f88f420002003c008000eb0051
:100ef000000005008100d1000080d3008502e800d9
:100f0000fcff3a000300e00002003b00600010001c
:100f1000e0801800000006000001be004400070049
:100f20000470a70003f0a10003f8a30013003a0027
:100f30006509b10010003200090035006928e100a0
:100f400002003500010028000000050000004000fc
:100f5000818048008502e900fcff3a00000006009d
:100f6000f88f4200050035008100d1000080d300d9
:100f70008502e800fcff3a00000006008000eb005c
:100f8000000005004f89de0082017800fb00370079
:100f90006011b80009013700810020006180550010
:100fa0000b003d000b00200061fe2f000100e1005e
:100fb0001d00340082817100610164008904d10048
:100fc0000884d3000000e800faff3a007100200016
:100fd000610064000300700002006000090032003c
:100fe00061044400e0844c000988a500050032003b
:100ff0008b05e8006808e10002003a008904d1008e
:101000000884d300f20f20000258e10005003d00e3
:10101000c75ddd00f907b20089807500080078001f
:10102000000006000bf827008b0078000000050088
:10103000c70ade00f107b200f50fb2000800320067
:10104000e1cf4200020032000170a0002400050040
:10105000810f700001003200040805004400050003
:10106000810f700002003a00140005008502e900bb
:101070000000400081c04800fcff3b000170a00060
:10108000240005000004be00e9ff07000003be00c5
:101090000405be000200be00e5ff0700844f750096
:1010a000000006000200be006450e10005003600aa
:1010b0006420e100020036000968a30001003a0044
:1010c0000800be000160a0004f0678004f05be007a
:1010d0004f04be0000000600f0ff2f00f1ff2700c4
:1010e000f9ff3700811f78000100e00002003d0099
:1010f00060001000e08018000300e00002003d00e6
:1011000060011100e08119007e0007004f00e0003f
:1011100002003b0060001000e080180000000600a4
:10112000889fbe008a9fbe008c1f7800d5ff0700f5
:10113000dcff330003866c006450e10024003200c1
:101140006420e100270032006150e10022003200fb
:101150006120e100210032008b854200eb07b100e5
:101160000134b800003ab8000804420089844a00fb
:10117000013ab8000030b8008880400009014a00f8
:101180000400330000004000818048000201490053
:101190008b05e900c909dd00830170000100320000
:1011a00013002000c814de004814dd004709de00eb
:1011b0001200b200c808de000884700076ff070045
:1011c00001f0a1000cf0a70001f0a000beff370065
:1011d0006120e100c0ff32000801be000200be0035
:1011e000f7ff37006150e100fcff3a00baff37001b
:1011f000889fbe008a9fbe008c1f78000004be003e
:101200008bff07000478a30026003a006120e1006c
:101210002500320009f8a30025003a006420e1000f
:1012200021003200f507b1000508a30002003200da
:1012300000004000818048006044b8000310200096
:1012400002002000000040008180480008054400a2
:1012500089854c000a0541008b8549000a0550002c
:101260008b855800030033000a00be00020474009e
:10127000838474008301d1000281d300830f710045
:10128000f0ff3a008904d1000884d30060014900ce
:1012900082017800c1adde00fb07b0003eff070011
:1012a00089ff37000960a0000800be0086ff3700f4
:1012b0001202200032458800f0ff2f00f1ff2700c6
:1012c00081ff37006022b800060220000000d00035
:1012d0008180d2000482d2008582d2000000a0006a
:1012e0000202520083825a000300310002024200cf
:1012f00083824a000000a1000603e900f3ff3a00e0
:1013000000000600efff07000400be00000006001a
:10131000889fbe008a9fbe00841f780059ff070087
:101320004f00780011003300f0ff2f00838f6c0016
:1013300006003b00040565000a00a700080037000e
:1013400009f0a6001000200008003700820f5400aa
:10135000838f5c00030039001000200001003e0074
:101360000000200009f0a7000000ea004f05be00c1
:101370004f04be000000e00000000600881f780057
:10138000030478000300e00007003d006000100047
:10139000e080180060011900e081190002003b00a4
:1013a00001f02d00030037000400070008f0a7003b
:1013b00001f0a0004f04780000000600889fbe00e6
:1013c0008a9fbe00008270000402710004827100d6
:1013d000260032000004be000200be006011b8000a
:1013e0006b092000950220000182cf000a0039001d
:1013f0000541b1000082cf00070039000541b1006e
:101400000982cf00040039000541b1000882cf00f5
:10141000010039000541b1000542520012003200be
:101420000a003b0082817100610164008100d100eb
:101430000080d3008984d3000884d3008b05e800a2
:101440000442e800f7ff3a000700370008044400b0
:1014500089844c0000004800818048008b05e90029
:101460000442e900f9ff3a00cbfe07004f05be0039
:101470004f04be00000006009041780031c15100c9
:1014800004003a00e0cf5100020032000000e80002
:10149000f9ff37000200fb00000006000000fa0020
:1014a00068815700cfb897004095200002000700e0
:1014b0000080fa00000006008f03b000889fbe0085
:1014c0008a9fbe008c9fbe008e1f7800c0b79f0011
:1014d000e1af9f00b2af9f000000eb00b0b79f00ec
:1014e000f2023700efa897008100e800e1af9f000b
:1014f00052c2b300824f500006003a000047eb0092
:1015000003c3b30065415100b1c2b3006fa8970097
:1015100011003700cfb19700330190000204b200f0
:101520000400320013017800004978008209e800c5
:10153000050037000000fb00cfb09700e70207006e
:10154000e10f4000d90232003fb297000402e800e8
:10155000b4b79f00d502370010427800d5c2b3005f
:10156000854f52000c0032008002e800d6c2b30062
:10157000864f520005003c00824f520009003200a5
:10158000814f52000e003a0008003700834f52008e
:101590000b003a00070037000e34a0000000e800fe
:1015a000edff37000e04a000030037000e14a0006a
:1015b000010037000e24a00005007800e6ff370088
:1015c000e0af9f0062006700010032000e04a1003e
:1015d00068006700010032000e24a1000400fb0037
:1015e0000003b100e90f50000d003e000000200094
:1015f0006fa997006a00b9000003b1009200fb00d8
:1016000001004000d200fb000103b100e98f50004f
:10161000f8ff3600c0af9f00e2af9f000c0037001c
:101620000005eb00caaf9f00a3c2b300834f520076
:1016300007003a00bfad97004b067800bbaf9f0094
:10164000ccaf9f006fa897000000e800e0af9f00bc
:101650008000eb00d1af9f00e3c2b3006fa99700f9
:1016600092cf11001c003a00e4c151000201e800d1
:10167000e2af9f0012427800834f52000d003a0003
:10168000bfaa970045037800b5af9f00d6af9f0073
:10169000820378008703e800e7af9f000e00370061
:1016a0006a00b9000003b100020040008301e800b5
:1016b000020037005fa89700efa997001301fb0015
:1016c00001fd2f0082804000e98f5000f4ff3600ba
:1016d000d0af9f00e3af9f0032c6b300c1c6b300d6
:1016e000efaa970035427800c47f9f0038c7b30047
:1016f000884f52001a00320008003c00824f52000e
:1017000097003200814f52000c003200e5af9f007d
:10171000e04f52006a023200b0003700e5af9f0090
:1017200053c7b300834f5200b2003200e3c14100ff
:10173000834f5200a9003a0006003700f00167000d
:101740000040eb0001003a0000c1b3000047770001
:10175000e4ff37000e4178000274a000a7003700b4
:10176000e5af9f003fad97004a027800baaf9f00f7
:10177000f4af9f00e00f520002003a00ec96200008
:10178000fcaf9f000000eb0080b79f007fa8970090
:101790008fb097001fb19700afb1970001003700dd
:1017a0008500e8008102780061427800e04f520035
:1017b000fbff3a00f0af9f0081b79f0092b79f00f8
:1017c000a3b79f00dfaa9700e08f52000500320008
:1017d0000fb39700868f5200020031008503780016
:1017e00087b79f000fb297000006eb004fac970041
:1017f000840f540001003600040654008e04780063
:10180000688764002f003a000c00780008c2b3001b
:10181000cfb69700100037003d0090000004b200e2
:10182000040032001d00780008487800800ee800af
:10183000050037008d007800000220002702070015
:10184000e10f4000030032003fb597000a05e800b1
:10185000bab79f000c0078000c06e900e00f5000ba
:10186000edff3a00170037003d0090000004b20081
:10187000090032009d0178000801780032407800ac
:1018800080497800830ee80002047800e04f5000a1
:1018900008003a0010003700080178003200fb0011
:1018a000020478008d0078000c020700e10f400070
:1018b000090032003fb097000000e800b0b79f0079
:1018c000050037007fac97008fb497001fb59700d5
:1018d000afb59700cfb69700090078008004e90003
:1018e000e00f5000e0ff3a00f8af9f0089b79f007b
:1018f0009ab79f00abb79f00e00f5700eb01320093
:1019000011003700380090000004b20004003200db
:10191000180078000d487800000ce800050037003a
:101920008800780000022000ec010700e10f400071
:1019300003003200bfb297008502e800b5b79f00f0
:101940000e067800020037000dc2b3004fb49700b6
:101950000c07e900e00f5600eaff3a00d301370018
:10196000e5af9f003fab970046047800b6af9f00fd
:10197000cfc4de00090578008a0578000802be00a1
:101980000a03be004822de00482edd000402760075
:10199000c47f9f007006670009003200e04f5200cc
:1019a00007003200e14f420005003200d47f9f0063
:1019b000e87f9f002100200081b79f0003003700cf
:1019c000d87f9f001200200082b79f00d3fb2f001a
:1019d00083814700f3af9f007aff3700c4fb2f00dd
:1019e00004824700f4af9f001500200085b79f00d8
:1019f00074ff370002ccb300024177000281fb0084
:101a0000a2af9f007003610086a79f001200320002
:101a10003fad97004a04be00baaf9f00d8a79f0011
:101a2000e9a79f008005eb00fba79f000006eb00e5
:101a30008caf9f005fa09700efa097007fa1970059
:101a40008fa99700f0af9f0081b79f0092b79f00ca
:101a5000a3b79f000b003700bfa897004102780092
:101a6000b1af9f0004047800090020000a002000a4
:101a70000b002000f8af9f0089b79f009ab79f0026
:101a8000abb79f00dfac9700e08f54000d003a0029
:101a90001a002000daaf9f007fa897008fb0970050
:101aa0001fb19700afb19700e00f5000e08f5800d2
:101ab000e00f5900e08f5900020032008000eb0077
:101ac000d1af9f002fa99700020cb20092af9f00e8
:101ad00004082000840f51001b003200040c200079
:101ae000840f510033003a0012c0b300c27f9f0040
:101af000858a2000100037000400fb004300dd0051
:101b0000008042005001be004000be007fac970044
:101b10008fb497001fb59700afb597000040e10064
:101b200001c8e10002d0e10003d8e1002100390042
:101b30000442e800c47f9f004f7a9700f44f5200a0
:101b4000edff3a001b00370012c0b300c27f9f00b8
:101b500004012000050020006033b80012003700a7
:101b60007fac97008fb497001fb59700afb5970073
:101b70000440e10005c8e10006d0e10007d8e1001b
:101b80000c003900490020000402d0008582d200f8
:101b90000683d2008783d2008904e900faff3a0065
:101ba0000040e800c07f9f004f789700f04f500042
:101bb000ebff3a004f7d97000a02fb00dfad970074
:101bc0008b0f520002003d00cb7f9f0004003700c6
:101bd0005fae9700840f560001003d00d4af9f0018
:101be0004fa89700e00f500005003200afa8970003
:101bf00063826000020032000000e900c0af9f0075
:101c00004f7997000202fb000007eb00cfa9970075
:101c1000848f51000100340004875100afaa97005f
:101c2000648262004a00320062826200050378002a
:101c3000e1026300e00f52001b003200cfb39700b7
:101c4000370290000404b200090032001703780044
:101c5000b4c2b300e08f52000100320004c2e800b9
:101c6000044b78004fb49700060ce8000a003700d8
:101c7000d4022000e08f520001003a000482e90003
:101c8000cfb097000400780014010700000278002c
:101c9000e10f420018003200bfb497008904e80049
:101ca000b9b79f0014003700e08f520012003200d5
:101cb0004fb597003a0290000404b20005003200cc
:101cc0001a02780002c2b300024a7800040de8004c
:101cd00006003700cfb0970000022000ff00070089
:101ce00000027800e10f420003003200bfb5970008
:101cf0008b05e800bbb79f00e00f5700c50032001e
:101d000008c3b300bfb697004fb697003c009000e1
:101d10000004b200040032001c007800084878007b
:101d2000000ee800050037008c007800000320005a
:101d3000ea000700e10f4000010032008d06e800d4
:101d40000e07e900f1ff3a00bdb79f00b100370070
:101d5000e00f5700160032002fae970068026600b1
:101d600013003a0008c2b300bfb697004fb6970001
:101d70003c0090000004b200040032001c00780017
:101d800008487800000ee800050037008c00780055
:101d900000022000d1000700e10f400001003200e6
:101da0008d06e8000e07e900f1ff3a00bdb79f007d
:101db0002fa8970062026000e1026000e00f52006d
:101dc0001b003200cfb09700310290000404b20033
:101dd0000900320011037800b4c2b300e08f520052
:101de0000100320004c2e800044b78004fb19700b4
:101df0000609e8000a003700d4022000e08f5200f4
:101e000001003a000482e900cfb097000400780096
:101e1000b200070000027800e10f42007d003200ae
:101e2000bfb197008301e800b3b79f007900370086
:101e3000e08f520077003200cfb297003502900059
:101e40000404b200050032001502780002c2b3009b
:101e5000024a7800840ae80006003700cfb09700f5
:101e6000000220009d00070000027800e10f420000
:101e7000680032003fb397000603e800b6b79f0042
:101e8000640037000e07e900000820001fac97002f
:101e9000800f540032003200000c2000800f5400ec
:101ea0003e003a004370dd008fa49700e08f54009d
:101eb0001a0032000406be008a8a20000000450095
:101ec0003004be002005be000801be000400be00b4
:101ed000fcfc0700c07f9f000000fb00cf80de00fd
:101ee0000801be00330107000001560081815e0039
:101ef00092a79f00a3a79f008001eb00b3a79f00bc
:101f00000002eb00c4a79f001fa29700afa297009a
:101f10003fa39700cfa397000d003700888a2000c9
:101f200068017800811f7800110009000282d80042
:101f3000cf007800a2002000811f78001100090066
:101f40000280d80001007800cf007800c07f9f0099
:101f5000cf7c97000943b000c97f9f000f00370076
:101f60004270dd000605be000404be0000067800d5
:101f70000c06e900050033008b05d1000a85d3006b
:101f80008984d3000884d300f9ff37006f00640010
:101f90005197200061407800c07f9f004fb19700ab
:101fa000320090000004b200080032008201780084
:101fb000130178004f789700004978008209e80003
:101fc000e04f50000f003a00190037004f7c970097
:101fd0000800fb00cfb09700d4b79f00e5b79f0083
:101fe000f6b79f0087bf9f003c0007005fb29700d5
:101ff000efb297007fb397008fbb9700e10f4000cf
:102000000b003200bfb497008904e800b9b79f0005
:10201000070037000e057800caaf9f005faf97003a
:102020007faa97008fb297001fb39700afb39700b6
:10203000e00f570093ff3a004faf9700f4af9f00b7
:1020400085b79f0096b79f00a7b79f00afa89700de
:102050006881600015003200e00f57001300340063
:1020600008c2b300bfb697004fb697003c0090007f
:102070000004b200040032001c0078000848780018
:10208000000ee800050037008c00780000022000f8
:1020900012000700e10f4000010032008d06e80049
:1020a0000e07e900f1ff3a00bdb79f006fa9970046
:1020b00012407800c07f9f00e04f500009fd3a00b9
:1020c0003fb097004f0778004f06be004f05be0097
:1020d0004f04be008f03b10000000600889fbe00c1
:1020e00001047800b8009000628160008084eb00f9
:1020f0003c003200810178000320b20018019000fa
:1021000002003a00e00f510036003a000190a000b2
:102110003104980080047800f90fb200e00f5100fc
:1021200002003a0028009000000c7800ea8f54006a
:1021300006003a00010078000008b20003003a00ef
:1021400088007800d0002000e4ff0700180090000d
:10215000d8009000810f50000b0032000000e80012
:10216000100498001800780009487800000ce80076
:1021700010c0b3006198200080487800ea8f5400b6
:1021800018003a0005003700880078000940780000
:102190001700070080047800120037003800900014
:1021a0000010b2000f00320018019000a80090004b
:1021b000480090005000070098009000810f5000e8
:1021c00004003200380090000003b300300498008f
:1021d0008084eb000000eb001004980028009000c1
:1021e000000c7800090078004f04be0000000600d3
:1021f0000200fa00889fbe00a0ff9f000104780043
:1022000038009000800078000104b20033003a00ea
:10221000e200600005003a000003b30030049800bb
:10222000110498000080eb002e003700d8049000c5
:10223000e08f540006003a0012002000e6805700ac
:10224000480090002c000700190498002300370074
:10225000a8009000e08f500008003a0091982000fc
:1022600021049800010c78002100200051049800fe
:10227000110498000030a00030049800180190006c
:10228000a8009000480090001b0007002800900064
:102290008080eb0011049800aff8970001487800a7
:1022a000000ce8002ff89700ea4f50000b003a00ae
:1022b000380090000010b2000800320018019000b1
:1022c000a8009000480090000b0007000000eb0001
:1022d00010049800a8009000010c7800aff8970057
:1022e0000100fb004f04be000080fa000000060061
:1022f00000c0da00000006000a00fa00e20f5000f9
:1023000021003e00604c8000e10f500006003200ca
:1023100085232000442320002323200000232000c5
:10232000e08f520004003a00852220004422200061
:1023300023222000002220000600280090036300d2
:1023400002003a00870a780010087300004020005d
:102350001300600001003a0013a0a0000200780002
:1023600006003700930278000510b200fdff32002e
:10237000b102fb00050a78000000e900e00f500000
:10238000f8ff3a000800370033002000b3bf9f0079
:10239000c0bf9f00d1bf9f00e2bf9f006a8057006f
:1023a000d3ff07006fb99700020078000080fa00a1
:1023b00000000600020ab900001bb9000200b800c4
:0c23c00081004200810043000000060084
:020000040000fa
:1023cc006765000074690000640000006964000027
:1023dc0020640000726f00006e650000203d00005c
:1023ec00203100000a0000004b7000000076000055
:1023fc00616c000020640000652000004b70000040
:10240c00203a00000a00000069640000206e000001
:10241c006f74000020720000656300006f6700009d
:10242c006e6900007a650000642100000052000013
:10243c006563000065700000746900006f6e000039
:10244c0020450000727200006f720000210a00002b
:10245c000044000061740000612000006e6f0000f9
:10246c007420000072640000792100000a00000052
:10247c000a4900003243000020530000657400003c
:10248c0075700000204300006f6d0000706c000040
:10249c006574000065000000414300004b20000003
:1024ac00312000006e6f0000742000007265000087
:1024bc00636900006576000065640000004100005f
:1024cc00434b000020320000206e00006f740000af
:1024dc0020720000656300006965000076650000ed
:0424ec006400000088
:020000040000fa
:1024f0000c00fa00889fbe006000b800008fbe008c
:102500006000b80020079800310798006000b8000c
:102510004007980051079800b0448000c1448000f3
:1025200002002600a35e240025f907000200200017
:10253000432b2400fafa070002002000a3572400ce
:10254000fff90700008fbe0018c0b3000200200092
:1025500003f823001e00be004cfa0700e00f5000f5
:1025600001003c000044eb00e04f54000a003a0038
:1025700018c0b3000200200003f82b001e00be00ac
:1025800040fa0700e00f5000010035000044eb0066
:10259000e04f5400020032006000b800008fbe001f
:1025a00018c0b3000200200003f823002e009000a2
:1025b000be00900035fa0700e00f500001003c001b
:1025c0000044eb00e04f54000b003a0018c0b30089
:1025d0000200200003f82b002e009000be009000a7
:1025e00028fa0700e00f5000010035000044eb001e
:1025f000e04f5400030032006000b800200798004c
:102600003107980018c0b3000200200003f823002f
:102610004e009000de0090001cfa0700e00f500012
:1026200001003c000044eb00e04f54000b003a0076
:1026300018c0b3000200200003f82b004e009000e9
:10264000de0090000ffa0700e00f50000100350097
:102650000044eb00e04f5400030032006000b8007b
:102660004007980051079800c0408000d14080008a
:102670006040880071408800e0408000f1408000a8
:102680008040880091408800004180001141800016
:10269000a0408800b1408800a08520001000be0046
:1026a0000001be002e009000be009000c4f807009c
:1026b000c0408800d1408800a0852000b000900074
:1026c000200090000001be004e009000de0090004f
:1026d000bbf80700e0408800f1408800b04280006d
:1026e000c142800002002000833c240094f90700ce
:1026f0000001be001e00be00b1f8070000418800c6
:1027000011418800704280008142800001f0a200e7
:1027100002002000833c240089f907002041880042
:102720003141880090428000a142800001f0a20067
:1027300002002000833c240081f90700404188000a
:1027400051418800b0428000c142800001f0a200e7
:1027500002002000833c240079f9070060418800d2
:1027600071418800008320001004be00c04080003a
:10277000d140800002002000833c240070f9070053
:102780000001be000800be008ef807000283200092
:102790000089be000083200020049000b004900057
:1027a000e0408000f140800002002000833c2400d3
:1027b00063f907000001be000800be0081f80700b1
:1027c000028320002001980031019800c44080005d
:1027d000d540800010438000214380000001be00ee
:1027e0000400be004efa07000004be002441800031
:1027f0003541800050438000614380000001be00ed
:102800000400be0046fa07000001be000800be003a
:102810006cf807000004be00008320001002be0018
:1028200030438000414380000001be000400be0030
:102830003bfa07000001be000800be0061f8070077
:102840000040880011408800e4408000f54080008e
:1028500010438000214380000001be000400be0040
:102860002ffa07000004be0044418000554180005b
:1028700050438000614380000001be000400be00a0
:1028800027fa07000001be000800be004df807004f
:102890000004be000083200020029000b0029000df
:1028a00030438000414380000001be000400be00b0
:1028b0001bfa07000001be000800be0041f8070037
:1028c000204088003140880004418000154180008c
:1028d00070438000814380000001be000400be0000
:1028e0000ffa07000004be006441800075418000bb
:1028f00090438000a14380000001be000400be00a0
:1029000007fa07000001be000800be002df807000e
:102910004040880051408800404080005140800085
:1029200018c0b30002002000a347240057f9070095
:10293000e00f500001003c000044eb00e04f540069
:102940000500320000002000a1472400404088001c
:10295000514088000f003700404080005140800007
:1029600018c0b30002002000a3472c0045f907005f
:10297000e00f5000010035000044eb00e04f540030
:102980000400320000002000a1472c0040408800d5
:10299000514088004f04be000080fa00000006008d
:1029a0000c00fa00889fbe00504480006144800003
:1029b00018c0b30002002800b35b240031f90700ff
:1029c000e00f5000010034000044eb00e04f5400e1
:1029d000030032006000b800008fbe00090037001d
:1029e000504480006144800002002e00b35a24004d
:1029f000f3f7070002002000a3572400d0f80700d7
:102a0000008fbe0018c0b3000200200003f82300ae
:102a10001e00be001df90700e00f500001003c0041
:102a20000044eb00e04f540009003a0018c0b30026
:102a30006011b8001e00be0012f90700e00f500040
:102a4000010035000044eb00e04f5400020032006a
:102a50006000b800008fbe006011b8001e00be000c
:102a600008f90700e00f500009003a008038210003
:102a7000000c880080382100300c8800803821004c
:102a8000600c880080382100900c8800bc00370062
:102a900000408000114080001248200053f32300c2
:102aa0009ff907000004be002040800031408000f4
:102ab0001248200053f32b0099f907000001be00d3
:102ac0000800be00bff707000002be0040408000c3
:102ad000514080000001be000400be00b9f70700ad
:102ae00002002800b35b2400b6f707000004be0014
:102af00002002400c35124001e00be0088f9070014
:102b00000001be000800be00aef70700e1f80700b4
:102b100020079800004080001140800012482000eb
:102b200053f323007ef907000004be00204080001c
:102b3000314080001248200053f3230078f9070049
:102b40000001be000800be009ef707000002be00a4
:102b500040408000514080000001be000400be00e3
:102b600097f7070002002800b35b240095f70700e1
:102b70000004be0002002400c35124001e00be0059
:102b800067f907000001be000800be008df70700ce
:102b9000c0f8070030079800004080001140800016
:102ba0001248200053f32b005df907000004be001b
:102bb00020408000314080001248200053f3230061
:102bc00057f907000001be000800be007df70700ae
:102bd0000002be0040408000514080000001be0065
:102be0000400be0077f7070002002800b35b240052
:102bf00074f707000004be0002002400c351240043
:102c00001e00be0046f907000001be000800be001d
:102c10006cf707009ff8070040079800004080000d
:102c2000114080001248200053f32b003cf90700ac
:102c30000004be0020408000314080001248200087
:102c400053f32b0036f907000001be000800be0058
:102c50005cf707000002be00404080005140800049
:102c60000001be000400be0055f707000200280066
:102c7000b35b240053f707000004be0002002400e9
:102c8000c35124001e00be0025f907000001be004c
:102c90000800be004bf707007ef8070050079800b9
:102ca000ae00900040132200808f500002003400dc
:102cb0004013220020079800be009000401322001d
:102cc000808f50000200340040132200300798002b
:102cd000ce00900040132200808f5000020034008c
:102ce0004013220040079800de00900040132200ad
:102cf000808f5000020034004013220050079800db
:102d0000ae009000f0762100808f500002003c0061
:102d10000077210020079800be009000f076210087
:102d2000808f500002003c0000772100300798009f
:102d3000ce009000f0762100808f500002003c0011
:102d40000077210040079800de009000f076210017
:102d5000808f500002003c0000772100500798004f
:102d60002e009000000c88003e009000300c88007f
:102d70004e009000600c88005e009000900c88006f
:102d80004f04be000080fa00000006000000fa00b8
:102d900050448000614480005ff807000000780024
:102da000000c880050448000614480005af80700fd
:102db00000007800300c880050448000614480009e
:102dc00055f8070000007800600c8800504480002f
:102dd0006144800050f8070000007800900c8800e3
:102de0000080fa00000006000200fa000040eb003c
:102df000004f7800a2c0b30011c3b30060cab30093
:102e00007c020700004078001e4f400082c0b300e3
:102e1000d1c2b30060cab300760207000040780058
:102e20001e4f4000a2c0b300c1c2b30060cab300cd
:102e300070020700004078001e4f40001e407800de
:102e40000080fa00000006000400fa001007980055
:102e50001e00900063c0b3000001780021c3b300de
:102e600060cab30087020700004f78001e40780058
:102e70000080fa00000006000400fa00889fbe00ef
:102e80008a1f7800000f7800110798001e80e80064
:102e9000900078001e80e800100078000088b900db
:102ea000000178009e007800648040009000780067
:102eb0009e01780064804100100078000088b9000d
:102ec0000000780000004100cf80de002df80700f0
:102ed000c7f807000004be001e007800100078004c
:102ee000cf80de0027f807000801be0012f70700b8
:102ef00042e122005326240089f807001e019000b9
:102f00000089be001e009000640540001e0078008d
:102f1000900078001e007800100078000088b9004a
:102f2000000178009e0078006480400090007800e6
:102f30009e01780064804100100078000088b9008c
:102f40000000780000004100cf80de000df807008f
:102f5000a7f807000004be001e80e80010007800fb
:102f6000cf80de0007f807000801be00f2f6070078
:102f700042e122005326240069f80700008dbe00bc
:102f80004f0578004f04be000080fa0000000600e4
:102f90000200fa000040eb00004f7800b2c1b3001d
:102fa00061c1b30000cdb3001202070000407800f9
:102fb0001e4f400092c0b30051c1b30000cdb3001a
:102fc0000c020700004078001e4f40001e407800b1
:102fd0000080fa00000006000c00fa00500798007c
:102fe0000e00e80083c0b30000017800b1c1b30057
:102ff00000cdb30023020700004f78001e40900070
:103000000080fb00c800dd002e4090000080fb0027
:10301000808070005e009000010878005e009000e3
:103020000080e800500798003e4090000080fb00c0
:10303000c800dd004e4090000080fb0080807000e2
:103040005e009000010878005e0090000080e800bb
:10305000500798005e4090000080fb00c800dd0033
:103060006e4090000080fb00808070005e00900049
:10307000010878005e0090000080e800500798008a
:103080007e4090000080fb00c800dd000e489000ec
:103090000080fb00808070005e00900001087800d6
:1030a0005e0090000080e800500798001e40780005
:1030b0000080fa00000006000400fa00889fbe00ad
:1030c000100798000000eb00000f78005400370054
:1030d0001e009000c0ff0700d8448000e944800033
:1030e0001e0090000080e80010007800cf80de0015
:1030f000a4f707000001be000800be0031f607007b
:10310000d0448800e1448800f844800009458000ec
:103110001e0090006400400010007800cf80de00a8
:1031200098f707000001be000800be0025f6070062
:10313000f04488000145880018458000294580003a
:103140001e0090006600400010007800cf80de0076
:103150008cf707000001be000800be0019f607004a
:10316000104588002145880000982b00a10220000e
:103170008205070020168000e800600010c0b30040
:10318000e08f5000010032000040eb000080fb00a7
:10319000610060004200dd0022168000b1ff2f00b8
:1031a00081006100008070002016880020168000d9
:1031b000e400600010c0b300e08f50000100320056
:1031c0000040eb000080fb00610060004400dd0077
:1031d00022168000f1fe2f00810061000080700047
:1031e0002016880020168000f000600010c0b30098
:1031f000e08f5000010032000040eb000080fb0037
:10320000610060004300dd002216800071ff2f0086
:103210008100610000807000201688001e0fe80009
:10322000100320009e007800808f5000a8ff34001b
:10323000d0448000e1448000020020008324240068
:10324000bff60700d0448800e1448800f0448000c5
:10325000014580000200200083242400b8f6070006
:10326000f044880001458800104580002145800019
:103270000200200083242400b1f6070010458800d6
:10328000214588004f04be000080fa0000000600bf
:103290000a00fa00889fbe008a9fbe008c1f78003b
:1032a0003007980041079800e0002000000f7800e8
:1032b00020ff2f0010079800e00020002007980052
:1032c0004e0090001004be003e0090000080e80018
:1032d00010007800cf80de002af707000002be0051
:1032e000d0448000e14480000001be000400be0024
:1032f000b3f507000005be001e007800cf80de0099
:1033000020f707000001be000a00be008cf607008f
:1033100002002000833c240089f607000001be0063
:103320000800be00a7f507004e0190000089be000e
:103330004e009000640640004e0090006400400083
:103340001004be003e0090006400400010007800b1
:10335000cf80de000bf707000002be00f0448000c3
:10336000014580000001be000400be0094f5070086
:103370000005be001e009000cf80de0001f70700b0
:103380000001be000a00be006df60700020020002a
:10339000833c24006af607000001be000800be005e
:1033a00088f50700008ebe004e00900068064000c1
:1033b0004e009000680040001004be003e009000e7
:1033c0006600400010007800cf80de00edf60700b8
:1033d0000002be0010458000214580000001be00b3
:1033e0000400be0076f507000005be002e00900028
:1033f000cf80de00e3f607000001be000a00be0039
:103400004ff6070002002000833c24004cf6070022
:103410000001be000800be006af50700008ebe0075
:103420004f0678004f05be004f04be000080fa0032
:10343000000006000000fa00c922a800c902a80086
:10344000d00520002010880007e2a90007a2a900eb
:103450000782a8000762a9000742a9000722a80066
:103460000702a90006e2a90006c2a90006a2a90057
:103470000682a9000662a9000642a9000622a90048
:103480000602a9000000eb00001088000000eb001d
:103490001010880007e2a800e0232900801f7800b0
:1034a000fef707008f87e9000080fa0000000600a1
:1034b0000000fa000602a800000000000000000062
:1034c0003010800061006000e00f5000fcff3a0007
:1034d0000080fa00000006000000fa000622a800a2
:1034e000000000000000000030108000620060005a
:1034f000e00f5000fcff3a000080fa0000000600d8
:103500000000fa000642a8000000000000000000d1
:103510003010800064006000e00f5000fcff3a00b3
:103520000080fa00000006000200fa00004f780058
:103530009e4078000180fb00101088000000000011
:10354000000000004010800061006000e00f5000ab
:10355000fcff3a000080fa00000006000000fa00bc
:103560000000000041108000000024000080600086
:10357000e00f5000fbff3a000080fa000000060058
:103580000000fa00401080000080ea004f00de00da
:103590000080fa00000006000000fa0006a2a80061
:1035a0000682a8000000000030108000700060005b
:1035b000e00f5000fcff3a0006a2a9000080fa00cc
:1035c000000006000000fa0006a2a9000682a8007a
:1035d000000000003010800070006000e00f50001c
:1035e000fcff3a000080fa00000006000000fa002c
:1035f0000662a800000000000000000040108000eb
:1036000062006000e00f5000fcff320000108000fc
:103610000080fa00000006000400fa00000f7800a5
:103620002147980010003700f0ff070000407800a5
:103630009e007800804878001e0fe800411080004e
:103640000040200000806000e00f500002003200c7
:103650000080eb000f0037002e409000e04f50003c
:1036600001003200d7ff07002e4090000080fb00d1
:103670000000ea004f00de0000407800ae409000fd
:103680008140e90021479800e04f5000e6ff3a00f2
:103690000000eb000080fa00000006000200fa00c3
:1036a000004f7800adff070081ff07004110800048
:1036b0000040200000806000e00f50000200320057
:1036c0000080eb002b0037001e40780096ff0700bb
:1036d000e00f500002003200d0ff2f00250037001d
:1036e0009eff070041108000004020000080600025
:1036f000e00f5000120032000080eb001d00370088
:1037000075ff07004110800000402000008060002d
:10371000e00f5000020032000080eb00150037007f
:103720001e40780080ff0700e00f500002003200ca
:10373000d0ff2f000f00370088ff0700010037007f
:10374000000000008eff0700e00f5000ecff3a0081
:103750006bff0700411080000040200000806000e7
:10376000e00f5000020032000080eb000100370043
:103770000000eb000080fa00000006000400fa00e0
:10378000100798000040eb00004f7800130037004e
:103790001e0090001040780063ff0700e00f50000b
:1037a00002003200d0ff2f00100037006bff07002f
:1037b000411080000000280000806000e00f5000f1
:1037c00002003200e0ff2f00080037001e009000ca
:1037d0000000e800100798001e4fe8001e40780027
:1037e000e14f4000eaff3a000000eb000080fa00e1
:1037f000000006000800fa00404798005147980072
:103800006247980055ff070029ff07004e409000cf
:1038100045ff070051ff070059ff0700000f780020
:103820005e40900040ff07004cff070054ff070078
:10383000100798006e4090003bff070047ff07000d
:103840002fff07001e007800e00f500004003a0030
:1038500020252900801f780010f707008f87e900d6
:103860001e009000e00f500004003a00502629008e
:10387000801f780009f707008f87e9000080fa00b1
:10388000000006000600fa00004f7800114798007b
:10389000120798004347980030ff070004ff070015
:1038a0001e40780020ff07002cff07001e409000fc
:1038b0001dff070029ff070007ff07001e407800d3
:1038c0000004a00018ff070024ff0700ce4090006e
:1038d0001e00900050ff07002fff070008ff0700a1
:1038e0000080fa00000006000400fa00004f780093
:1038f000114798001207980018ff0700ecfe070018
:103900001e40780008ff070014ff07001e409000cb
:1039100005ff070011ff07001e00900097ff07003a
:103920000eff0700f6fe07000000eb000080fa0023
:10393000000006000600fa00004f780011479800ca
:10394000120798004347980004ff0700d8fe0700bd
:103950001e407800f4fe070000ff07001e409000a4
:10396000f1fe0700fdfe0700dbfe07001e407800a9
:103970000004a000ecfe0700f8fe0700ce40900017
:103980001e00900024ff070003ff0700dcfe070075
:103990000000eb000080fa00000006000000fa00c2
:1039a00042012000d155290000402c00daf3070025
:1039b000c0f42f00b3f30700113a8000f00b200091
:1039c0000081600060042000710520002374200045
:1039d000804978008149780082497800213580004b
:1039e00000fe2f00008060009001b30020358800a9
:1039f000c136800000fe2f00008060003000b30060
:103a0000c0368800113a8000000420000081700058
:103a10006004200071052000237420008049780094
:103a200081497800824978000080fa000000060091
:103a30000600fa000000eb00100798005300370062
:103a4000b9f307004047980040448000e00f500061
:103a50000e003a00608720001e004000ce4090001b
:103a6000014878001e0fe800ce40900000c2b3006d
:103a700080cf500045003a001000200040448800ec
:103a80000000eb00000f7800400037004044800049
:103a9000e10f500008003a004e40900080e8b70067
:103aa000200020004044880080c8bf000080fb0048
:103ab000000f78003500370040448000e20f5000ce
:103ac00023003a001e007800e00f500003003a0087
:103ad00030002000404488002c0037001e00780091
:103ae000e00f500011003400ce40900000c2b3003f
:103af00080cf50000d003a0080c8bf000080fb005e
:103b00001e005000660040008000400060872000da
:103b1000008040009e009000010878001e0fe90020
:103b20000000eb0010079800180037001e009000fe
:103b30006a00b900800078004e4090000080fb00d1
:103b4000008040000003b100100798000f0037000c
:103b500040448000e30f500008003a004e409000bf
:103b6000ea4f500005003a00100020003044880061
:103b70000000eb0040448800040037000080eb00a8
:103b8000304488000000eb00404488005ff30700e9
:103b9000e04f5000aaff3a000080fa000000060043
:103ba0000200fa00004f7800000000002ff3070029
:103bb000e04f5000fdff3a009e4078000180fb007e
:103bc00062f307000080fa00000006000800fa0017
:103bd00020079800310798002e009000be0090004a
:103be000e00f5000e08f580015003d00d0c2b30038
:103bf000ebff07002e019000be01900050dc290071
:103c0000c1112800800f5100818f59000600320039
:103c10002e009000be00900060001000e0801800b0
:103c2000008fbe000900370020c3b300dcff07008f
:103c300000c02600a18c2000008fbe0003003700ca
:103c40002e009000be009000008fbe001e00be003f
:103c500069014000e08148002001200001002000af
:103c6000800f5100818f5900050036001e00be00f4
:103c7000a20020000300200073f40700d3ff070018
:103c80001e00be00a20020000300200015f5070062
:103c9000004078000043b000c1ff07000080fa0038
:103ca000000006000000fa0030448000e10f5000e0
:103cb00013003a0060872000611e2900eef507001e
:103cc000e00f500003003a00c01e290026f3070051
:103cd0001300370060872000a11f2900e6f50700c8
:103ce000e00f500003003a00d01f29001ef3070028
:103cf0000b003700a02029001bf307000800370045
:103d000030448000e10f400003003a00d021290038
:103d100015f3070002003700f022290012f3070014
:103d20000080fa00000006003600f800809fbe0008
:103d3000829fbe00849fbe00869fbe000000fa00e6
:103d40000000eb003044880039ff0700d5ff070072
:103d50008560a9000080fa004f03be004f02be003c
:103d60004f01be004f00be003600f90000400600c3
:103d70000000fa008580a9000080fa0000400600db
:103d80000000fa008080eb00d0f92700a8f20700bd
:103d900094e0a9000080fa00000006000000fa008c
:103da00011e1a9000000eb00acf2070011e1a8004e
:103db0000080fa00000006000000fa00113a8000be
:103dc000f00b2000008160006004200071052000dd
:103dd0002374200080497800814978008249780066
:103de0007134800000fe2f00008060005000b3009e
:103df0007034880071348000f00f2e0080806000e5
:103e0000006020000080700070348800a1348000c1
:103e100000fe2f00008060007000b300a034880016
:103e2000a1348000f00f2e0080806000003021005f
:103e300000807000a0348800113a80000004200047
:103e400000817000600420007105200023742000b0
:103e5000804978008149780082497800c8a2a8008a
:103e6000c8c2a800c8e2a800d082a80090f92d001e
:103e7000f1f1070090f92d00f1f1070090f92d0004
:103e8000f1f1070090f92d00f1f10700e0ff2f009c
:103e9000a5f10700e0ff2f00b4f10700e0ff2f00bd
:103ea000c3f10700e0ff2f00d2f107000080fa0005
:103eb000000006003600f800809fbe00829fbe0012
:103ec000849fbe00869fbe003400f80000002000e2
:103ed000a00188000200fa005116800000022000b4
:103ee00000806000e00f500004003200abff0700cc
:103ef000000a8000000f78000a0037005116800089
:103f00000002200000806000e00f500005003a0031
:103f1000000a8000010020001df4070050448800c2
:103f2000614488008420a9000080fa003400f90070
:103f30004f03be004f02be004f01be004f00be0047
:103f40003600f900004006003600f800809fbe00f1
:103f5000829fbe00849fbe00869fbe003400f80092
:103f600000002000a00188000200fa005116800025
:103f70000004200000806000e00f500004003200c8
:103f800086ff0700200a8000000f78000a00370033
:103f9000511680000004200000806000e00f5000f7
:103fa00005003a00200a800001002000f8f3070015
:103fb000704488008144880084a0a9000080fa0031
:103fc0003400f9004f03be004f02be004f01be0097
:103fd0004f00be003600f900004006003600f80031
:103fe000809fbe00829fbe00849fbe00869fbe0051
:103ff0003400f80000002000a00188000200fa0050
:10400000511680000008200000806000e00f500082
:104010000400320061ff0700c00a8000000f780032
:104020000a00370051168000000820000080600060
:10403000e00f500005003a00c00a80000100200097
:10404000d3f3070090448800a144880086c0a900eb
:104050000080fa003400f9004f03be004f02be009a
:104060004f01be004f00be003600f90000400600c0
:104070003600f800809fbe00829fbe00849fbe0075
:10408000869fbe003400f80000002000a0018800d8
:104090000200fa009016800068006000e00f5000f7
:1040a000040032003dff0700e00a8000000f7800a6
:1040b000090037009016800068006000e00f500093
:1040c00005003a00e00a800001002000b0f307007c
:1040d000b0448800c144880086e0a9000080fa004e
:1040e0003400f9004f03be004f02be004f01be0076
:1040f0004f00be003600f900004006000000fa0044
:10410000313a800000e02f008080600090022000a3
:1041100000807000303a8800213a8000f0f32f00d0
:1041200000806000203a8800213a800000fe2f00c5
:1041300000806000203a88000080fa00000006003d
:104140000000fa00c042a900c062a900c082a90014
:1041500081e0a900f01f200060198800b5fc07006d
:1041600000d0220011132000840107001efb07006d
:1041700087fb0700e0832000cffb070000ff07005c
:104180000dff070014010700210107002e000700a2
:10419000c442a800c462a800c482a80000d02200c3
:1041a0001113200075010700c442a900c462a900d0
:1041b000c482a90000d02200111320006f01070063
:1041c000c442a800c462a800c482a80000d0220093
:1041d0001113200069010700c442a900c462a900ac
:1041e000c482a90000d0220011132000630107003f
:1041f000c442a800c462a800c482a80000d0220063
:10420000111320005d010700c442a900c462a90087
:10421000c482a90000d0220011132000570107001a
:10422000c442a800c462a800c482a80000a025005f
:104230002126200051010700380107000a0007006d
:104240000080fa00000006000000fa00410d230083
:10425000d0f9270072f10700b0ff2f0062f10700cc
:104260000080fa00000006000000fa0005e1a90045
:104270000000eb0077f1070005e1a8000080fa00dc
:10428000000006000600fa00889fbe008a1f780022
:10429000000f780011079800220798001e00900078
:1042a0001000be0002cd2c00c3d423009cf30700f5
:1042b0000004be002e0090001000be003233230028
:1042c00033f7230096f307000001be000800be008c
:1042d000bcf107001e0178000089be001e007800b6
:1042e000640540001e009000640040001000be0005
:1042f00002cd2c00c3d4230089f307000004be00c4
:104300002e009000640040001000be0032332300f5
:1043100033f7230082f307000001be000800be004f
:10432000a8f10700008dbe004f0578004f04be00c5
:104330000080fa00000006003600f800809fbe00f2
:10434000829fbe00849fbe00869fbe003400f8009e
:1043500000002000a00188000000fa008460a9008d
:1043600080832000b8fa0700e08320001afb0700d2
:104370006184200080832000bffa0700e1842000d0
:10438000e0832000c2fb070062842000e18420005b
:10439000a0852000bbff070055f8070080f9070043
:1043a00020168000e400600010c0b300e08f5000d1
:1043b000010032000040eb000080fb006100600063
:1043c0004200dd0022168000b1ff2f008100610055
:1043d00000807000201688000080fa003400f90088
:1043e0004f03be004f02be004f01be004f00be0093
:0843f0003600f9000040060050
:020000040000fa
:1043f8008a08000010000000000000009a08000071
:104408000c00000000000000380800002a0000002e
:104418000000000000080000380000000000000054
:1044280062080000140000000200000000008c0078
:104438004200000000000000000000000000000032
:1044480000000000000000007608000014000000d2
:1044580000000000a60800000200000000000000a4
:10446800860900000600000000000000480900005e
:1044780026000000020000008709000000870900ec
:1044880009000000000200008909000000890900f5
:104498000e02010000000000000000000000000003
:1044a8000602020000000000480900006e09000032
:1044b8001800000002000000286e75006c6c2900ce
:1044c8000030310032333400353637003839610076
:1044d8006263640065660000a8080000a000000090
:1044e80002000000010000000000000000000a00b7
:1044f8000000000000000000006400000000000050
:1045080000000000e80300000000000000001000a8
:10451800270000000000000000a086000100000045
:104528000000000040420f00000000000000800072
:1045380096980000000000000000e100f50500006a
:104548000000000000ca9a003b00000000000000c4
:10455800e40b5400020000000000e8007648170051
:10456800000000000010a500d4e8000000000000d2
:10457800a0724e0018090000000040007a10f300f5
:104588005a0000000080c600a47e8d0003000000d1
:1045980000c16f00f2862300000000008a5d7800e9
:1045a8004563010000006400a7b3b600e00d0000f9
:1045b80000e889000423c7008a0000008c09000075
:1045c80002000000020000000100000000000000de
:020000040000fa
:1045d8000000fa00410d2300d0f9270097f00700ea
:1045e8009500a9000080fa00000006000000fa000b
:1045f80013e1a9000000eb0098f0070013e1a80000
:104608000080fa00000006000000fa00113a80005d
:10461800f00b20000081600060042000710520007c
:104628002374200080497800814978008249780005
:104638005136800000fe2f00008060002001b3008a
:104648005036880051368000f00f2e0080806000c0
:1046580000302100008070005036880061368000ec
:1046680000fe2f00008060004001b3006036880023
:1046780061368000f00f2e0080806000005021001d
:104688000080700060368800113a80000004200025
:104698000081700060042000710520002374200050
:1046a8008049780081497800824978000001eb0050
:1046b800813e200080ff2d0029f007000001eb005b
:1046c800813e200080ff2d002df007000001eb0047
:1046d800813e200080ff2d0031f007000001eb0033
:1046e800813e200080ff2d0035f0070020ff2f00bd
:1046f800d7ef070020ff2f00e6ef070020ff2f006d
:10470800f5ef070020ff2f0004f007000080fa00f3
:10471800000006000000fa00210c800080ff2f0036
:10472800008060006000b300200c8800510c8000fd
:1047380080ff2f00008060006000b300500c8800ec
:10474800810c800080ff2f00008060006000b300b3
:10475800800c8800b10c800080ff2f000080600072
:104768006000b300b00c8800a0ff07000080fa00ca
:044778000000060037
:020000040000fa
:10477c00f03fb1000180b10006003500ee030900e6
:10478c0000000000403fb1000180b100fbff3d0084
:10479c001000b000203fb00002003500008009007e
:0847ac000000000000000600ff
:020000040000fa
:1047b4000000fa0050fe070060fe0700ffff37000c
:020000040000fa
:0200000401f009
:04000c0079ff000078
:020000040000fa
:0200000401f009
:040010009bff000052
:020000040000fa
:0200000401f009
:040014007fff00006a
:020000040000fa
:0200000401f009
:04001c00dfff000002
:00000001FF
