:020000040000fa
:080000000002040000000000f2
:020000040000fa
:1000080090020000900200009002000090020000a0
:100018009002000090020000900200009002000090
:10002800900200007217000090020000a416000061
:1000380090020000aa170000900200009002000041
:100048009002000090020000900200009002000060
:100058009002000090020000900200009002000050
:100068009002000090020000900200009002000040
:100078009002000090020000e21700001a18000029
:100088009002000090020000900200009002000020
:100098009002000090020000900200009002000010
:1000a8009002000090020000900200009002000000
:1000b80090020000900200009002000090020000f0
:1000c80090020000900200009002000090020000e0
:1000d80090020000900200009002000090020000d0
:1000e80090020000900200009002000090020000c0
:1000f80090020000900200009002000090020000b0
:10010800900200009002000090020000900200009f
:10011800900200009002000090020000900200008f
:10012800900200009002000090020000900200007f
:10013800900200009002000090020000900200006f
:10014800900200009002000090020000900200005f
:10015800900200009002000090020000900200004f
:10016800900200009002000090020000900200003f
:10017800900200009002000090020000900200002f
:10018800900200009002000090020000900200001f
:10019800900200009002000090020000900200000f
:1001a80090020000900200009002000090020000ff
:1001b80090020000900200009002000090020000ef
:1001c80090020000900200009002000090020000df
:1001d80090020000900200009002000090020000cf
:1001e80090020000900200009002000090020000bf
:0801f8009002000090020000db
:020000040000fa
:10020800900200009002000090020000900200009e
:10021800900200009002000090020000900200008e
:10022800900200007217000090020000a41600005f
:1002380090020000aa17000090020000900200003f
:10024800900200009002000090020000900200005e
:10025800900200009002000090020000900200004e
:10026800900200009002000090020000900200003e
:100278009002000090020000e21700001a18000027
:10028800900200009002000090020000900200001e
:10029800900200009002000090020000900200000e
:1002a80090020000900200009002000090020000fe
:1002b80090020000900200009002000090020000ee
:1002c80090020000900200009002000090020000de
:1002d80090020000900200009002000090020000ce
:1002e80090020000900200009002000090020000be
:1002f80090020000900200009002000090020000ae
:10030800900200009002000090020000900200009d
:10031800900200009002000090020000900200008d
:10032800900200009002000090020000900200007d
:10033800900200009002000090020000900200006d
:10034800900200009002000090020000900200005d
:10035800900200009002000090020000900200004d
:10036800900200009002000090020000900200003d
:10037800900200009002000090020000900200002d
:10038800900200009002000090020000900200001d
:10039800900200009002000090020000900200000d
:1003a80090020000900200009002000090020000fd
:1003b80090020000900200009002000090020000ed
:1003c80090020000900200009002000090020000dd
:1003d80090020000900200009002000090020000cd
:1003e80090020000900200009002000090020000bd
:0803f8009002000090020000d9
:020000040000fa
:10040000ef9220000e7f24000e0188000000000003
:100410000c000700008521000100200011000700ea
:10042000000020000000e000020032000000020096
:1004300000000000f6190200000000000040da0091
:100440000000fe004440a900a00320000000e000de
:100450000300320000002000a00188004440a800f2
:100460000000060091018800800078000000eb0089
:1004700015003700e280400032a0b4009101ba00bc
:10048000e280400032a0b4009102ba00e280400055
:1004900032a0b4000002eb00472bde00f507b200eb
:1004a000602ce10004003a000059eb008301e900f0
:1004b000fdff3e00040037006128e100010032002a
:1004c0000082eb00040007001101ba000200e00006
:1004d000e8ff3a00000006003159ba008301e90044
:1004e0000c0032002159ba008301e90008003200f3
:1004f0000400e00003003a00e280400032a0b400b3
:10050000f5ff370011d9ba008301e900faff3a007c
:100510008100e800e180400032a0b4000000060045
:100520000040da000000fe008420a900670160009e
:100530004411dd0023058000f1f82f008180610067
:100540008280700021058800680060004300de00a2
:100550006100600080004000a00480000010a10045
:1005600001007000a00488000000060084a0a9001b
:10057000670160004411dd0033058000f1f82f00b1
:100580008180610082807000310588006800600011
:10059000c300de00e1806000c508dd00a00480002b
:1005a0000050a10001007000a004880000000600b7
:1005b00086c0a900670160004811dd007305800056
:1005c000f18f2f00818061008280700071058800aa
:1005d00068006000c300de00e1806000c608dd0046
:1005e000b00480000060a10001007000b004880029
:1005f0000000060086e0a900670160004c11dd00e4
:1006000073058000f1ff2800818061008280700006
:100610007105880068006000c300de00e1806000b2
:10062000c708dd00b00480000070a1000100700068
:10063000b004880000000600100a880000000600d0
:10064000300a880000000600d00a8800000006007a
:10065000f00a8800000006008440a90067016000dd
:100660004811dd0023058000f18f2f00818061009b
:10067000828070002105880068006000c300de00f1
:10068000e1806000c208dd00a00480000020a1001d
:1006900001007000a00488000000060084c0a900ca
:1006a000670160004811dd0033058000f18f2f00e5
:1006b00081806100828070003105880068006000e0
:1006c000c300de00e1806000c608dd00a0048000f9
:1006d0000060a10001007000a00488000000060076
:1006e0008720a900670160004411dd0083058000b8
:1006f000f1f82f0081806100828070008105880000
:1007000068006000c300de00e1806000c908dd0011
:10071000b00480000090a10001007000b0048800c7
:10072000000006008740a900670160004811dd0055
:1007300083058000f18f2f0081806100828070002e
:100740008105880068006000c300de00e180600071
:10075000ca08dd00b004800000a0a1000100700004
:10076000b00488000000060083ff2f008001fd0018
:100770008421b6008001fd00010c8800120c880065
:10078000200c88000000060083ff2f008001fd0080
:100790008a21b6008001fd00310c8800420c8800df
:1007a000500c88000000060083ff2f008001fd0030
:1007b0009021b6008001fd00610c8800720c880059
:1007c000800c88000000060083ff2f008001fd00e0
:1007d0009621b6008001fd00910c8800a20c8800d3
:1007e000b00c8800000006008460a900670160006a
:1007f0004c11dd0023058000f1ff2800818061009d
:10080000828070002105880068006000a1048000db
:100810000130a10080807000a10488000000060063
:100820000021ef0011088800200888000000060061
:100830000621ef0061088800800888001061a90087
:10084000000006000a21ef00710888009008880067
:10085000000006000008880000000600300888003c
:1008600000000600500888000000060003f0a20007
:10087000889fbe008a9fbe008c1f78005d01070024
:10088000640133006450e1004f0032006420e10055
:100890005200320003826c0007003b000905d000c3
:1008a0000306d000820f54000c065d0002003900e0
:1008b0000200320089017800030678008582550025
:1008c00004003d000003fd008103fd008502ea00f5
:1008d0008b854200840f720002003b006000100014
:1008e000e08018006011b8000005eb007a28e100f4
:1008f0000a00390006007800c75ddd00f707b20086
:10090000878075002d003700828171000a01780010
:10091000610560008180d1000080d3008502e9007c
:10092000f9ff3b00060440008784480002003b00ba
:1009300060041400e0841c000988a3000700320052
:100940008a81710082817100610164008904d10093
:100950000884d3008b05e800170037000978a3004e
:1009600013003a000b00e000130034008b05e9008f
:100970000804440089844c000a4474000978a300e8
:100980000d003a000b00e000070034008b05e90081
:100990000804440089844c0001003a000b00200048
:1009a0000978a300f7ff32000001eb0002003700d6
:1009b000828171000a017800d30007000cf0a700c3
:1009c00001f0a0001c0137006420e10002003a00a1
:1009d000838f6c001c0133000801be000200be00c2
:1009e00015013700889fbe008a9fbe008c1f7800cb
:1009f000000107001002200002003b003042880086
:100a0000040137008a0062006408e10002003a0035
:100a1000304288000c0137006108e100fcff320021
:100a20000800be00030478007000070001f0a10078
:100a30000900070008f0a600040037000001be000e
:100a400091042400b0fd200088ff070009f0a700f2
:100a500001f0a200f8003700889fbe008a9fbe0008
:100a60008c9fbe000004be00cd0007000800be0041
:100a7000890678006420e100080039000400320093
:100a80000160a000120220003242880053003700ab
:100a900091fc2300b0fd20004e0037000006eb0063
:100aa00009f0a10003f82300020020000800be00a6
:100ab000900007000600340001f823000000200029
:100ac0000801be00490007000004be002c00200001
:100ad0000800be0093e82300320a230085000700c7
:100ae000120034000801be00d1fd2300703d2b0030
:100af0005fff07000005be00b3f32300f27a260073
:100b00000800be00d300070003f823000200200005
:100b100056ff07000801be0055ff07000a01be008e
:100b2000320007000004be000c06e8000800be000a
:100b300001f0a10002002000039823006d000700cf
:100b40000800be00160035000801be00c100070005
:100b50000005be0032cd2c0043fb230044ff0700fc
:100b6000809fbe001269280003d52b000a00be003a
:100b7000b8000700620f210013ef2b003cff0700b5
:100b80000a01be00b30007004f01be0017000700b6
:100b90000801be00af0007000801be0034ff0700d7
:100ba0000c00e0000b0032000c10a70001f0a200c6
:100bb000b2fd200093fc23006260e10004003200db
:100bc00022a9200063f023000c10a70063f8230083
:100bd00027ff07000df0a70001f0a2004f06be009e
:100be0004f05be004f04be0000000600889fbe00f7
:100bf0008a9fbe008c1f78007e00070085003300ae
:100c000003866c006450e1002e0032006420e10095
:100c1000330032006150e1002f0032006120e1001a
:100c20003100320085855500eb07b0000900200037
:100c300008042000050037000804440089844c00a3
:100c40000a0031000603430087834b000001530074
:100c500081815b00f8ff33000203be000800a000a2
:100c60000804440089844c00f6ff3900c639dd00d1
:100c70008301730001003200130020008904d100b9
:100c80000884d3000998a300050032000800a700db
:100c90000300a0008904d1000884d3008b05e8007c
:100ca0008904d1000884d3000001eb000281d20046
:100cb0001500070001f0a1000cf0a70001f0a00052
:100cc0005d0037006420e1005f0032000801be00d3
:100cd0000200be00f7ff37006120e1005a00320039
:100ce0006000b800f3ff37000000200001f8270083
:100cf000f0ff3700140020008a0037004f89de0023
:100d000082017800a2003700810020006180550038
:100d10000b003d000b00200061fe2f000100e100f0
:100d20001d00340082817100610164008904d100da
:100d30000884d3000000e800faff3a0071002000a8
:100d400061006400030070000200600009003200ce
:100d500061044400e0844c000988a50005003200cd
:100d60008b05e8006808e10002003a008904d10020
:100d70000884d300f20f20000258e10005003d0076
:100d8000c75ddd00f907b2008980750008007800b2
:100d9000000006000bf827008b007800000005001b
:100da000c70ade00f107b200f50fb20008003200fa
:100db000e1cf4200020032000170a00024000500d3
:100dc000810f700001003200040805004400050096
:100dd000810f700002003a00140005008502e9004e
:100de0000000400081c04800fcff3b000170a000f3
:100df000240005000004be00e9ff07000003be0058
:100e00000405be000200be00e5ff0700844f750028
:100e1000000006000200be006450e100050036003c
:100e20006420e100020036000968a30001003a00d6
:100e30000800be000160a0004f0678004f05be000c
:100e40004f04be0000000600f0ff2f00f1ff270056
:100e5000f9ff3700889fbe008a9fbe008c1f780074
:100e6000e4ff0700ebff330003866c006450e100f1
:100e7000240032006420e100270032006150e100cc
:100e8000220032006120e100210032008b85420007
:100e9000eb07b1000134b800003ab8000804420082
:100ea00089844a00013ab8000030b80088804000c8
:100eb00009014a000400330000004000818048001e
:100ec000020149008b05e900c909dd0083017000ba
:100ed0000100320013002000c814de004814dd00b9
:100ee0004709de001200b200c808de000884700066
:100ef00085ff070001f0a1000cf0a70001f0a000a1
:100f0000cdff37006120e100cfff32000801be00b5
:100f10000200be00f7ff37006150e100fcff3a001d
:100f2000c9ff3700889fbe008a9fbe00841f7800db
:100f3000b0ff07004f00780011003300f0ff2f00d2
:100f4000838f6c0006003b00040565000a00a700c3
:100f50000800370009f0a600100020000800370044
:100f6000820f5400838f5c000300390010002000c2
:100f700001003e000000200009f0a7000000ea0088
:100f80004f05be004f04be000000e0000000060058
:100f9000881f7800030478000300e00007003d008c
:100fa00060001000e080180060011900e081190065
:100fb00002003b0001f02d00030037000400070091
:100fc00008f0a70001f0a0004f0478000000060020
:100fd000889fbe008a9fbe000082700004027100dc
:100fe00004827100260032000004be000200be0030
:100ff0006011b8006b092000950220000182cf002b
:101000000a0039000541b1000082cf000700390015
:101010000541b1000982cf00040039000541b1004b
:101020000882cf00010039000541b100054252009d
:10103000120032000a003b008281710061016400ed
:101040008100d1000080d3008984d3000884d300bc
:101050008b05e8000442e800f7ff3a00070037007c
:101060000804440089844c00000048008180480046
:101070008b05e9000442e900f9ff3a0022ff07006e
:101080004f05be004f04be00000006000000fa003d
:1010900068815700cfb89700408f200002000700fa
:1010a0000080fa00000006008f03b000889fbe0099
:1010b0008a9fbe008c9fbe008e1f7800c0b79f0025
:1010c000e1af9f00b2af9f000000eb00b0b79f0000
:1010d000f2023700efa897008100e800e1af9f001f
:1010e00052c2b300824f500006003a000047eb00a6
:1010f00003c3b30065415100b1c2b3006fa89700ac
:1011000011003700cfb19700330190000204b20004
:101110000400320013017800004978008209e800d9
:10112000050037000000fb00cfb09700e702070082
:10113000e10f4000d90232003fb297000402e800fc
:10114000b4b79f00d502370010427800d5c2b30073
:10115000854f52000c0032008002e800d6c2b30076
:10116000864f520005003c00824f520009003200b9
:10117000814f52000e003a0008003700834f5200a2
:101180000b003a00070037000e34a0000000e80012
:10119000edff37000e04a000030037000e14a0007e
:1011a000010037000e24a00005007800e6ff37009c
:1011b000e0af9f0062006700010032000e04a10052
:1011c00068006700010032000e24a1000400fb004b
:1011d0000003b100e90f50000d003e0000002000a8
:1011e0006fa997006a00b9000003b1009200fb00ec
:1011f00001004000d200fb000103b100e98f500064
:10120000f8ff3600c0af9f00e2af9f000c00370030
:101210000005eb00caaf9f00a3c2b300834f52008a
:1012200007003a00bfad97004b067800bbaf9f00a8
:10123000ccaf9f006fa897000000e800e0af9f00d0
:101240008000eb00d1af9f00e3c2b3006fa997000d
:1012500092cf11001c003a00e4c151000201e800e5
:10126000e2af9f0012427800834f52000d003a0017
:10127000bfaa970045037800b5af9f00d6af9f0087
:10128000820378008703e800e7af9f000e00370075
:101290006a00b9000003b100020040008301e800c9
:1012a000020037005fa89700efa997001301fb0029
:1012b00001fd2f0082804000e98f5000f4ff3600ce
:1012c000d0af9f00e3af9f0032c6b300c1c6b300ea
:1012d000efaa970035427800c47f9f0038c7b3005b
:1012e000884f52001a00320008003c00824f520022
:1012f00097003200814f52000c003200e5af9f0092
:10130000e04f52006a023200b0003700e5af9f00a4
:1013100053c7b300834f5200b2003200e3c1410013
:10132000834f5200a9003a0006003700f001670021
:101330000040eb0001003a0000c1b3000047770015
:10134000e4ff37000e4178000274a000a7003700c8
:10135000e5af9f003fad97004a027800baaf9f000b
:10136000f4af9f00e00f520002003a00ec90200022
:10137000fcaf9f000000eb0080b79f007fa89700a4
:101380008fb097001fb19700afb1970001003700f1
:101390008500e8008102780061427800e04f520049
:1013a000fbff3a00f0af9f0081b79f0092b79f000c
:1013b000a3b79f00dfaa9700e08f5200050032001c
:1013c0000fb39700868f520002003100850378002a
:1013d00087b79f000fb297000006eb004fac970055
:1013e000840f540001003600040654008e04780077
:1013f000688764002f003a000c00780008c2b30030
:10140000cfb69700100037003d0090000004b200f6
:10141000040032001d00780008487800800ee800c3
:10142000050037008d007800000220002702070029
:10143000e10f4000030032003fb597000a05e800c5
:10144000bab79f000c0078000c06e900e00f5000ce
:10145000edff3a00170037003d0090000004b20095
:10146000090032009d0178000801780032407800c0
:1014700080497800830ee80002047800e04f5000b5
:1014800008003a0010003700080178003200fb0025
:10149000020478008d0078000c020700e10f400084
:1014a000090032003fb097000000e800b0b79f008d
:1014b000050037007fac97008fb497001fb59700e9
:1014c000afb59700cfb69700090078008004e90017
:1014d000e00f5000e0ff3a00f8af9f0089b79f008f
:1014e0009ab79f00abb79f00e00f5700eb013200a7
:1014f00011003700380090000004b20004003200f0
:10150000180078000d487800000ce800050037004e
:101510008800780000022000ec010700e10f400085
:1015200003003200bfb297008502e800b5b79f0004
:101530000e067800020037000dc2b3004fb49700ca
:101540000c07e900e00f5600eaff3a00d30137002c
:10155000e5af9f003fab970046047800b6af9f0011
:10156000cfc4de00090578008a0578000802be00b5
:101570000a03be004822de00482edd000402760089
:10158000c47f9f007006670009003200e04f5200e0
:1015900007003200e14f420005003200d47f9f0077
:1015a000e87f9f002100200081b79f0003003700e3
:1015b000d87f9f001200200082b79f00d3fb2f002e
:1015c00083814700f3af9f007aff3700c4fb2f00f1
:1015d00004824700f4af9f001500200085b79f00ec
:1015e00074ff370002ccb300024177000281fb0098
:1015f000a2af9f007003610086a79f001200320017
:101600003fad97004a04be00baaf9f00d8a79f0025
:10161000e9a79f008005eb00fba79f000006eb00f9
:101620008caf9f005fa09700efa097007fa197006d
:101630008fa99700f0af9f0081b79f0092b79f00de
:10164000a3b79f000b003700bfa8970041027800a6
:10165000b1af9f0004047800090020000a002000b8
:101660000b002000f8af9f0089b79f009ab79f003a
:10167000abb79f00dfac9700e08f54000d003a003d
:101680001a002000daaf9f007fa897008fb0970064
:101690001fb19700afb19700e00f5000e08f5800e6
:1016a000e00f5900e08f5900020032008000eb008b
:1016b000d1af9f002fa99700020cb20092af9f00fc
:1016c00004082000840f51001b003200040c20008d
:1016d000840f510033003a0012c0b300c27f9f0054
:1016e00085842000100037000400fb004300dd006b
:1016f000008042005001be004000be007fac970059
:101700008fb497001fb59700afb597000040e10078
:1017100001c8e10002d0e10003d8e1002100390056
:101720000442e800c47f9f004f7a9700f44f5200b4
:10173000edff3a001b00370012c0b300c27f9f00cc
:1017400004012000050020006033b80012003700bb
:101750007fac97008fb497001fb59700afb5970087
:101760000440e10005c8e10006d0e10007d8e1002f
:101770000c003900490020000402d0008582d2000c
:101780000683d2008783d2008904e900faff3a0079
:101790000040e800c07f9f004f789700f04f500056
:1017a000ebff3a004f7d97000a02fb00dfad970088
:1017b0008b0f520002003d00cb7f9f0004003700da
:1017c0005fae9700840f560001003d00d4af9f002c
:1017d0004fa89700e00f500005003200afa8970017
:1017e00063826000020032000000e900c0af9f0089
:1017f0004f7997000202fb000007eb00cfa997008a
:10180000848f51000100340004875100afaa970073
:10181000648262004a00320062826200050378003e
:10182000e1026300e00f52001b003200cfb39700cb
:10183000370290000404b200090032001703780058
:10184000b4c2b300e08f52000100320004c2e800cd
:10185000044b78004fb49700060ce8000a003700ec
:10186000d4022000e08f520001003a000482e90017
:10187000cfb0970004007800140107000002780040
:10188000e10f420018003200bfb497008904e8005d
:10189000b9b79f0014003700e08f520012003200e9
:1018a0004fb597003a0290000404b20005003200e0
:1018b0001a02780002c2b300024a7800040de80060
:1018c00006003700cfb0970000022000ff0007009d
:1018d00000027800e10f420003003200bfb597001c
:1018e0008b05e800bbb79f00e00f5700c500320032
:1018f00008c3b300bfb697004fb697003c009000f6
:101900000004b200040032001c007800084878008f
:10191000000ee800050037008c007800000320006e
:10192000ea000700e10f4000010032008d06e800e8
:101930000e07e900f1ff3a00bdb79f00b100370084
:10194000e00f5700160032002fae970068026600c5
:1019500013003a0008c2b300bfb697004fb6970015
:101960003c0090000004b200040032001c0078002b
:1019700008487800000ee800050037008c00780069
:1019800000022000d1000700e10f400001003200fa
:101990008d06e8000e07e900f1ff3a00bdb79f0091
:1019a0002fa8970062026000e1026000e00f520081
:1019b0001b003200cfb09700310290000404b20047
:1019c0000900320011037800b4c2b300e08f520066
:1019d0000100320004c2e800044b78004fb19700c8
:1019e0000609e8000a003700d4022000e08f520008
:1019f00001003a000482e900cfb0970004007800ab
:101a0000b200070000027800e10f42007d003200c2
:101a1000bfb197008301e800b3b79f00790037009a
:101a2000e08f520077003200cfb29700350290006d
:101a30000404b200050032001502780002c2b300af
:101a4000024a7800840ae80006003700cfb0970009
:101a5000000220009d00070000027800e10f420014
:101a6000680032003fb397000603e800b6b79f0056
:101a7000640037000e07e900000820001fac970043
:101a8000800f540032003200000c2000800f540000
:101a90003e003a004370dd008fa49700e08f5400b1
:101aa0001a0032000406be008a84200000004500af
:101ab0003004be002005be000801be000400be00c8
:101ac00038010700c07f9f000000fb00cf80de00d0
:101ad0000801be00430107000001560081815e003d
:101ae00092a79f00a3a79f008001eb00b3a79f00d0
:101af0000002eb00c4a79f001fa29700afa29700af
:101b00003fa39700cfa397000d00370088842000e3
:101b100068017800811f7800110009000282d80056
:101b2000cf007800a2002000811f7800110009007a
:101b30000280d80001007800cf007800c07f9f00ad
:101b4000cf7c97000943b000c97f9f000f0037008a
:101b50004270dd000605be000404be0000067800e9
:101b60000c06e900050033008b05d1000a85d3007f
:101b70008984d3000884d300f9ff37006f00640024
:101b80005191200061407800c07f9f004fb19700c5
:101b9000320090000004b200080032008201780098
:101ba000130178004f789700004978008209e80017
:101bb000e04f50000f003a00190037004f7c9700ab
:101bc0000800fb00cfb09700d4b79f00e5b79f0097
:101bd000f6b79f0087bf9f003c0007005fb29700e9
:101be000efb297007fb397008fbb9700e10f4000e3
:101bf0000b003200bfb497008904e800b9b79f001a
:101c0000070037000e057800caaf9f005faf97004e
:101c10007faa97008fb297001fb39700afb39700ca
:101c2000e00f570093ff3a004faf9700f4af9f00cb
:101c300085b79f0096b79f00a7b79f00afa89700f2
:101c40006881600015003200e00f57001300340077
:101c500008c2b300bfb697004fb697003c00900093
:101c60000004b200040032001c007800084878002c
:101c7000000ee800050037008c007800000220000c
:101c800012000700e10f4000010032008d06e8005d
:101c90000e07e900f1ff3a00bdb79f006fa997005a
:101ca00012407800c07f9f00e04f500009fd3a00cd
:101cb0003fb097004f0778004f06be004f05be00ab
:101cc0004f04be008f03b10000000600889fbe00d5
:101cd00001047800b8009000628160008084eb000d
:101ce0003c003200810178000320b200180190000e
:101cf00002003a00e00f510036003a000190a000c7
:101d00003104980080047800f90fb200e00f510010
:101d100002003a0028009000000c7800ea8f54007e
:101d200006003a00010078000008b20003003a0003
:101d300088007800d0002000e4ff07001800900021
:101d4000d8009000810f50000b0032000000e80026
:101d5000100498001800780009487800000ce8008a
:101d600010c0b3006192200080487800ea8f5400d0
:101d700018003a0005003700880078000940780014
:101d80001700070080047800120037003800900028
:101d90000010b2000f00320018019000a80090005f
:101da000480090005000070098009000810f5000fc
:101db00004003200380090000003b30030049800a3
:101dc0008084eb000000eb001004980028009000d5
:101dd000000c7800090078004f04be0000000600e7
:101de0000200fa00889fbe00a0ff9f000104780057
:101df00038009000800078000104b20033003a00ff
:101e0000e200600005003a000003b30030049800cf
:101e1000110498000080eb002e003700d8049000d9
:101e2000e08f540006003a0012002000e6805700c0
:101e3000480090002c000700190498002300370088
:101e4000a8009000e08f500008003a009192200016
:101e500021049800010c7800210020005104980012
:101e6000110498000030a000300498001801900080
:101e7000a8009000480090001b0007002800900078
:101e80008080eb0011049800aff8970001487800bb
:101e9000000ce8002ff89700ea4f50000b003a00c2
:101ea000380090000010b2000800320018019000c5
:101eb000a8009000480090000b0007000000eb0015
:101ec00010049800a8009000010c7800aff897006b
:101ed0000100fb004f04be000080fa000000060075
:101ee00000c0da00000006000a00fa00e20f50000d
:101ef00021003e0060498000e10f500006003200e2
:101f000085232000442320002323200000232000d9
:101f1000e08f520004003a00852220004422200075
:101f200023222000002220000600280090036300e6
:101f300002003a00870a7800100873000040200071
:101f40001300600001003a0013a0a0000200780016
:101f500006003700930278000510b200fdff320042
:101f6000b102fb00050a78000000e900e00f500014
:101f7000f8ff3a000800370033002000b3bf9f008d
:101f8000c0bf9f00d1bf9f00e2bf9f006a80570083
:101f9000d3ff07006fb99700020078000080fa00b5
:101fa000000006006022b800060220000000d000f9
:101fb0008180d2000482d2008582d2000000a0007d
:101fc0000202520083825a000300310002024200e2
:101fd00083824a000000a1000603e900f3ff3a00f3
:101fe00000000600020ab900001bb9000200b80098
:0c1ff00081004200810043000000060058
:020000040000fa
:101ffc000a490000324300002053000065740000c1
:10200c0075700000204300006f6d0000706c0000c4
:10201c006574000065000000414300004b20000087
:10202c00312000006e6f000074200000726500000b
:10203c0063690000657600006564000000410000e3
:10204c00434b000020320000206e00006f74000033
:10205c002072000065630000696500007665000071
:04206c00640000000c
:020000040000fa
:102070000000fa00c922a800c902a800d00520006b
:102080002010880007e2a90007a2a9000782a80083
:102090000762a9000742a9000722a8000702a900b9
:1020a00006e2a90006c2a90006a2a9000682a900ac
:1020b0000662a9000642a9000622a9000602a9009c
:1020c0000000eb00001088000000eb0010108800fa
:1020d00007e2a800e0ff2800801f7800ebfb070064
:1020e0008f87e9000080fa00000006000000fa0077
:1020f0000602a80000000000000000003010800070
:1021000061006000e00f5000fcff3a000080fa0020
:10211000000006000000fa000622a80000000000ef
:10212000000000003010800062006000e00f5000ee
:10213000fcff3a000080fa00000006000000fa00f0
:102140000642a800000000000000000030108000df
:1021500064006000e00f5000fcff3a000080fa00cd
:10216000000006000200fa00004f78009e40780050
:102170000180fb001010880000000000000000003b
:102180004010800061006000e00f5000fcff3a004a
:102190000080fa00000006000000fa0000000000c5
:1021a000411080000000240000806000e00f50001b
:1021b000fbff3a000080fa00000006000000fa0071
:1021c000401080000080ea004f00de000080fa002e
:1021d000000006000000fa0006a2a8000682a8007f
:1021e000000000003010800070006000e00f500020
:1021f000fcff3a0006a2a9000080fa0000000600d9
:102200000000fa0006a2a9000682a8000000000053
:102210003010800070006000e00f5000fcff3a00ba
:102220000080fa00000006000000fa000662a80024
:10223000000000000000000040108000620060000c
:10224000e00f5000fcff3200001080000080fa0018
:10225000000006000400fa00000f780021479800f3
:1022600010003700f0ff0700004078009e00780063
:10227000804878001e0fe8004110800000402000d8
:1022800000806000e00f5000020032000080eb0090
:102290000f0037002e409000e04f50000100320048
:1022a000d7ff07002e4090000080fb000000ea00ee
:1022b0004f00de0000407800ae4090008140e90011
:1022c00021479800e04f5000e6ff3a000000eb0085
:1022d0000080fa00000006000200fa00004f7800bb
:1022e000adff070081ff0700411080000040200083
:1022f00000806000e00f5000020032000080eb0020
:102300002b0037001e40780096ff0700e00f5000ba
:1023100002003200d0ff2f00250037009eff07008b
:10232000411080000040200000806000e00f50005d
:10233000120032000080eb001d00370075ff07001f
:10234000411080000040200000806000e00f50003d
:10235000020032000080eb00150037001e407800bc
:1023600080ff0700e00f500002003200d0ff2f0076
:102370000f00370088ff0700010037000000000051
:102380008eff0700e00f5000ecff3a006bff0700e4
:10239000411080000040200000806000e00f5000ed
:1023a000020032000080eb00010037000000eb006b
:1023b0000080fa00000006000400fa0010079800f0
:1023c0000040eb00004f7800130037001e00900023
:1023d0001040780063ff0700e00f50000200320059
:1023e000d0ff2f00100037006bff07004110800066
:1023f0000000280000806000e00f50000200320062
:10240000e0ff2f00080037001e0090000000e800e9
:10241000100798001e4fe8001e407800e14f400072
:10242000eaff3a000000eb000080fa00000006001e
:102430000800fa004047980051479800624798000a
:1024400055ff070029ff07004e40900045ff070099
:1024500051ff070059ff0700000f78005e40900011
:1024600040ff07004cff070054ff070010079800cb
:102470006e4090003bff070047ff07002fff07005b
:102480001e007800e00f500004003a0020012900ef
:10249000801f7800fdfa07008f87e9001e0090007a
:1024a000e00f500004003a0050022900801f78001d
:1024b000f6fa07008f87e9000080fa0000000600a6
:1024c0000600fa00004f78001147980012079800a4
:1024d0004347980030ff070004ff07001e407800c4
:1024e00020ff07002cff07001e4090001dff070083
:1024f00029ff070007ff07001e4078000004a00026
:1025000018ff070024ff0700ce4090001e00900037
:1025100050ff07002fff070008ff07000080fa00a8
:10252000000006000400fa00004f780011479800f0
:102530001207980018ff0700ecfe07001e40780005
:1025400008ff070014ff07001e40900005ff07006a
:1025500011ff07001e00900097ff07000eff070005
:10256000f6fe07000000eb000080fa000000060005
:102570000600fa00004f78001147980012079800f3
:102580004347980004ff0700d8fe07001e4078006c
:10259000f4fe070000ff07001e409000f1fe070058
:1025a000fdfe0700dbfe07001e4078000004a000cf
:1025b000ecfe0700f8fe0700ce4090001e009000e1
:1025c00024ff070003ff0700dcfe07000000eb000c
:1025d0000080fa00000006000200fa000040eb0054
:1025e000004f7800a2c0b30011c3b30060cab300ab
:1025f0008fff0700004078001e4f400082c0b300ec
:10260000d1c2b30060cab30089ff07000040780060
:102610001e4f4000a2c0b300c1c2b30060cab300e5
:1026200083ff0700004078001e4f40001e407800e6
:102630000080fa00000006000400fa00100798006d
:102640001e00900063c0b3000001780021c3b300f6
:1026500060cab3009aff0700004f78001e40780060
:102660000080fa00000006000400fa00889fbe0007
:102670008a1f7800000f7800110798009e007800ec
:102680006480400010007800cf80de009bf90700d6
:102690000004be001e80e80010007800cf80de003d
:1026a00096f907000801be00cef8070042e12200bb
:1026b00053262400e7f907001e0190000089be00a0
:1026c0001e009000640540009e0078006480400079
:1026d00010007800cf80de0088f907000004be00fb
:1026e0001e00780010007800cf80de0083f907001c
:1026f0000801be00bbf8070001f0a20042e1220081
:1027000053262400d3f90700008dbe004f05780042
:102710004f04be000080fa00000006000200fa002c
:102720000040eb00004f7800b2c1b30061c1b300bc
:1027300000cdb3003eff0700004078001e4f400070
:1027400092c0b30051c1b30000cdb30038ff070001
:10275000004078001e4f40001e4078000080fa00c4
:10276000000006000c00fa00500798000e00e80078
:1027700083c0b30000017800b1c1b30000cdb30045
:102780004fff0700004f78001e4090000080fb00c4
:10279000c800dd002e4090000080fb0080807000ab
:1027a0005e009000010878005e0090000080e80064
:1027b000500798003e4090000080fb00c800dd00fc
:1027c0004e4090000080fb00808070005e00900012
:1027d000010878005e0090000080e8005007980033
:1027e0005e4090000080fb00c800dd006e4090005d
:1027f0000080fb00808070005e009000010878007f
:102800005e0090000080e800500798007e40900035
:102810000080fb00c800dd000e4890000080fb0037
:10282000808070005e009000010878005e009000db
:102830000080e800500798001e4078000080fa00f1
:10284000000006000400fa00889fbe0010079800f0
:102850000000eb00000f7800270037001e009000fa
:10286000c0ff0700d8418000e94180001e009000b1
:102870000080e80010007800cf80de001ff907001c
:102880000001be000800be00f9f70700d041880033
:10289000e1418800f8418000094280001e0090005c
:1028a0006400400010007800cf80de0013f90700bc
:1028b0000001be000800be00edf70700f0418800ef
:1028c0000142880018428000294280001e009000ca
:1028d0006600400010007800cf80de0007f9070096
:1028e0000001be000800be00e1f7070010428800aa
:1028f000214288001e0fe800100320009e0078008f
:10290000808f5000d5ff3400d0418000e14180002d
:102910000200200083242400b4f80700d04188007e
:10292000e1418800f0418000014280000200200067
:1029300083242400adf80700f0418800014288009c
:1029400010428000214280000200200083242400e5
:10295000a6f8070010428800214288004f04be00fc
:102960000080fa00000006000a00fa00889fbe00fe
:102970008a9fbe008c1f780030079800410798009e
:10298000e0002000000f7800e00020001007980011
:10299000e0002000200798004e0090001004be00c8
:1029a0003e0090000080e80010007800cf80de003c
:1029b000d2f807000002be00d0418000e141800053
:1029c0000001be000400be00a8f707000005be001d
:1029d0001e007800cf80de00c8f807000001be00ae
:1029e0000a00be0081f8070002002000833c24009a
:1029f0007ef807000001be000800be009cf707003b
:102a00004e0190000089be004e0090006406400018
:102a10004e009000640040001004be003e00900094
:102a20006400400010007800cf80de00b3f807009b
:102a30000002be00f0418000014280000001be00a3
:102a40000400be0089f707000005be001e009000cc
:102a5000cf80de00a9f807000001be000a00be001a
:102a600062f8070002002000833c24005ff80700a2
:102a70000001be000800be007df70700008ebe000a
:102a80004e009000680640004e0090006800400034
:102a90001004be003e009000660040001000780068
:102aa000cf80de0095f807000002be0010428000d3
:102ab000214280000001be000400be006bf7070049
:102ac0000005be002e009000cf80de008bf80700ce
:102ad0000001be000a00be0044f80700020020000a
:102ae000833c240041f807000001be000800be003e
:102af0005ff70700008ebe004f0678004f05be004e
:102b00004f04be000080fa00000006000000fa003a
:102b1000313a800000e02f008080600090022000a9
:102b200000807000303a8800213a8000f0f32f00d6
:102b300000806000203a8800213a800000fe2f00cb
:102b400000806000203a88000080fa000000060043
:102b50000000fa00c042a900c062a900c082a9001a
:102b600081e0a900f01f20006019880040fd0700e7
:102b700000d02200111320000802070096fe070073
:102b8000e6fe0700608020002eff07009e00070081
:102b9000ab000700aa010700b70107002e000700dd
:102ba000c442a800c462a800c482a80000d02200c9
:102bb00011132000f9010700c442a900c462a90052
:102bc000c482a90000d0220011132000f3010700e5
:102bd000c442a800c462a800c482a80000d0220099
:102be00011132000ed010700c442a900c462a9002e
:102bf000c482a90000d0220011132000e7010700c1
:102c0000c442a800c462a800c482a80000d0220068
:102c100011132000e1010700c442a900c462a90009
:102c2000c482a90000d0220011132000db0107009c
:102c3000c442a800c462a800c482a80000a0250065
:102c400021262000d5010700bc0107000a0007006b
:102c50000080fa00000006000000fa00410d230089
:102c6000d0f92700eef60700b0ff2f00def60700d0
:102c70000080fa00000006000000fa0005e1a9004b
:102c80000000eb00f3f6070005e1a8000080fa0061
:102c9000000006000600fa00889fbe008a1f780028
:102ca000000f780011079800220798001e0090007e
:102cb0001000be003233230033f7230065f807000d
:102cc0000004be002e0090001000be0002cd2c00bb
:102cd000c3d423005ff807000001be000800be0057
:102ce000e3f607001e0178000089be001e00780090
:102cf000640540001e009000640040001000be000b
:102d00003233230033f7230052f807000004be00db
:102d10002e009000640040001000be0002cd2c0088
:102d2000c3d423004bf807000001be000800be001a
:102d3000cff60700008dbe004f0578004f04be009f
:102d40000080fa00000006003600f800809fbe00f8
:102d5000829fbe00849fbe00869fbe003400f800a4
:102d600000002000a00188000000fa000080200080
:102d700031fe0700608020007afe0700e18020001d
:102d80000080200038fe0700618120006080200064
:102d9000f5fe0700e28020006181200020822000f3
:102da000bcff0700005e2100000c88002016800098
:102db000e400600010c0b300e08f5000010032005a
:102dc0000040eb000080fb00610060004200dd007d
:102dd00022168000b1ff2f0081006100008070008a
:102de000201688008460a9000080fa003400f900f1
:102df0004f03be004f02be004f01be004f00be0099
:102e00003600f900004006000000fa008080eb0068
:102e1000d0f9270086f6070094e0a9000080fa00a8
:102e2000000006000000fa0011e1a9000000eb001c
:102e30008af6070011e1a8000080fa0000000600f1
:102e40000000fa007134800000fe2f000080600056
:102e50005000b3007034880071348000f00f2e00f1
:102e60008080600000602000008070007034880066
:102e7000a134800000fe2f00008060007000b300cd
:102e8000a0348800a1348000f00f2e008080600004
:102e90000040210000807000a034880090f92d00cf
:102ea000e5f5070090f92d00e5f5070090f92d00f4
:102eb000e5f5070090f92d00e5f50700e0ff2f008c
:102ec00099f50700e0ff2f00a8f50700e0ff2f00ad
:102ed000b7f50700e0ff2f00c6f507000080fa00f5
:102ee000000006003600f800809fbe00829fbe00f2
:102ef000849fbe00869fbe003400f80000002000c2
:102f0000a00188000200fa00511680000002200093
:102f100000806000e00f500004003200c1ff070095
:102f2000000a8000000f7800010037005016800072
:102f30008420a9000080fa003400f9004f03be008d
:102f40004f02be004f01be004f00be003600f90028
:102f5000004006003600f800809fbe00829fbe0041
:102f6000849fbe00869fbe003400f8000000200051
:102f7000a00188000200fa00511680000004200021
:102f800000806000e00f500004003200a5ff070041
:102f9000200a8000000f78000100370050168000e2
:102fa00084a0a9000080fa003400f9004f03be009d
:102fb0004f02be004f01be004f00be003600f900b8
:102fc000004006003600f800809fbe00829fbe00d1
:102fd000849fbe00869fbe003400f80000002000e1
:102fe000a00188000200fa005116800000082000ad
:102ff00000806000e00f50000400320089ff0700ed
:10300000c00a8000000f78000100370050168000d1
:1030100086c0a9000080fa003400f9004f03be000a
:103020004f02be004f01be004f00be003600f90047
:10303000004006003600f800809fbe00829fbe0060
:10304000849fbe00869fbe003400f8000000200070
:10305000a00188000200fa00901680007000600055
:10306000e00f5000040032006eff0700e00a80000d
:10307000000f7800010037009016800086e0a9005c
:103080000080fa003400f9004f03be004f02be007a
:103090004f01be004f00be003600f90000400600a0
:020000040000fa
:1030a0002a08000010000000000000003a0800009c
:1030b0000c00000000000000000800002a000000d2
:1030c00000000000460800000200000000000000b0
:1030d000260900000600000000000000e8080000cb
:1030e0002600000002000000270900000027090058
:1030f0000900000000020000290900000029090061
:103100000e020100000000000000000000000000ae
:103110000602020000000000e80800000e0900009e
:103120001800000002000000286e75006c6c290079
:103130000030310032333400353637003839610021
:10314000626364006566000048080000a00000009b
:1031500002000000010000000000000000000a0062
:1031600000000000000000000064000000000000fb
:1031700000000000e8030000000000000000100054
:10318000270000000000000000a0860001000000f1
:103190000000000040420f0000000000000080001e
:1031a00096980000000000000000e100f505000016
:1031b0000000000000ca9a003b0000000000000070
:1031c000e40b5400020000000000e80076481700fd
:1031d000000000000010a500d4e80000000000007e
:1031e000a0724e0018090000000040007a10f300a1
:1031f0005a0000000080c600a47e8d00030000007d
:1032000000c16f00f2862300000000008a5d780094
:103210004563010000006400a7b3b600e00d0000a4
:1032200000e889000423c7008a0000002c09000080
:103230000200000002000000010000000000000089
:020000040000fa
:103240000000fa00410d2300d0f927007df50700aa
:103250009500a9000080fa00000006000000fa00b6
:1032600013e1a9000000eb007ef5070013e1a800c0
:103270000080fa00000006000000fa0051368000cd
:1032800000fe2f00008060002001b300503688004f
:1032900051368000f00f2e00808060000030210049
:1032a00000807000503688006136800000fe2f00dc
:1032b000008060004001b300603688006136800005
:1032c000f00f2e0080806000005021000080700010
:1032d000603688000001eb00813e200080ff2d0059
:1032e00021f507000001eb00813e200080ff2d004a
:1032f00025f507000001eb00813e200080ff2d0036
:1033000029f507000001eb00813e200080ff2d0021
:103310002df5070020ff2f00cff4070020ff2f001e
:10332000def4070020ff2f00edf4070020ff2f0040
:10333000fcf407000080fa00000006000000fa001c
:10334000210c800080ff2f00008060006000b3002f
:10335000200c8800510c800080ff2f00008060004e
:103360006000b300500c8800810c800080ff2f00ab
:10337000008060006000b300800c8800b10c800009
:1033800080ff2f00008060006000b300b00c880058
:0c339000b2ff07000080fa0000000600f9
:020000040000fa
:10339c00f03fb1000180b10006003500ee030900da
:1033ac0000000000403fb1000180b100fbff3d0078
:1033bc001000b000203fb000020035000080090072
:0833cc000000000000000600f3
:020000040000fa
:1033d4000000fa000080fa00000006000000fa0075
:1033e4000080fa00000006000000fa00c6fd070095
:0833f400d6fd0700ffff3700c2
:020000040000fa
:0200000401f009
:04000c0079ff000078
:020000040000fa
:0200000401f009
:040010009bff000052
:020000040000fa
:0200000401f009
:040014007fff00006a
:020000040000fa
:0200000401f009
:04001c00dfff000002
:00000001FF
