:020000040000fa
:080000000002040000000000f2
:020000040000fa
:1000080090020000900200009002000090020000a0
:100018009002000090020000900200009002000090
:10002800900200004606000090020000c60700008b
:10003800900200007e06000090020000900200007e
:100048009002000090020000900200009002000060
:100058009002000090020000900200009002000050
:100068009002000090020000900200009002000040
:100078009002000090020000b6060000ee060000a4
:100088009002000090020000900200009002000020
:100098009002000090020000900200009002000010
:1000a8009002000090020000900200009002000000
:1000b80090020000900200009002000090020000f0
:1000c80090020000900200009002000090020000e0
:1000d80090020000900200009002000090020000d0
:1000e80090020000900200009002000090020000c0
:1000f80090020000900200009002000090020000b0
:10010800900200009002000090020000900200009f
:10011800900200009002000090020000900200008f
:10012800900200009002000090020000900200007f
:10013800900200009002000090020000900200006f
:10014800900200009002000090020000900200005f
:10015800900200009002000090020000900200004f
:10016800900200009002000090020000900200003f
:10017800900200009002000090020000900200002f
:10018800900200009002000090020000900200001f
:10019800900200009002000090020000900200000f
:1001a80090020000900200009002000090020000ff
:1001b80090020000900200009002000090020000ef
:1001c80090020000900200009002000090020000df
:1001d80090020000900200009002000090020000cf
:1001e80090020000900200009002000090020000bf
:0801f8009002000090020000db
:020000040000fa
:10020800900200009002000090020000900200009e
:10021800900200009002000090020000900200008e
:10022800900200004606000090020000c607000089
:10023800900200007e06000090020000900200007c
:10024800900200009002000090020000900200005e
:10025800900200009002000090020000900200004e
:10026800900200009002000090020000900200003e
:100278009002000090020000b6060000ee060000a2
:10028800900200009002000090020000900200001e
:10029800900200009002000090020000900200000e
:1002a80090020000900200009002000090020000fe
:1002b80090020000900200009002000090020000ee
:1002c80090020000900200009002000090020000de
:1002d80090020000900200009002000090020000ce
:1002e80090020000900200009002000090020000be
:1002f80090020000900200009002000090020000ae
:10030800900200009002000090020000900200009d
:10031800900200009002000090020000900200008d
:10032800900200009002000090020000900200007d
:10033800900200009002000090020000900200006d
:10034800900200009002000090020000900200005d
:10035800900200009002000090020000900200004d
:10036800900200009002000090020000900200003d
:10037800900200009002000090020000900200002d
:10038800900200009002000090020000900200001d
:10039800900200009002000090020000900200000d
:1003a80090020000900200009002000090020000fd
:1003b80090020000900200009002000090020000ed
:1003c80090020000900200009002000090020000dd
:1003d80090020000900200009002000090020000cd
:1003e80090020000900200009002000090020000bd
:0803f8009002000090020000d9
:020000040000fa
:100400000f8020000e7f24000e01880000000000f5
:100410000c000700a08d2000010020001100070043
:10042000000020000000e000020032000000020096
:1004300000000000c8080200000000000040da00d0
:100440000000fe004440a900000020000000e00081
:100450000300320000002000a00188004440a800f2
:100460000000060091018800800078000000eb0089
:1004700015003700e280400032a0b4009101ba00bc
:10048000e280400032a0b4009102ba00e280400055
:1004900032a0b4000002eb00472bde00f507b200eb
:1004a000602ce10004003a000059eb008301e900f0
:1004b000fdff3e00040037006128e100010032002a
:1004c0000082eb00040007001101ba000200e00006
:1004d000e8ff3a00000006003159ba008301e90044
:1004e0000c0032002159ba008301e90008003200f3
:1004f0000400e00003003a00e280400032a0b400b3
:10050000f5ff370011d9ba008301e900faff3a007c
:100510008100e800e180400032a0b4000000060045
:100520000040da000000fe008440a900670160007e
:100530004811dd0023058000f18f2f0081806100cc
:10054000828070002105880068006000c300de0022
:10055000e1806000c208dd00a00480000020a1004e
:1005600001007000a00488000000060084c0a900fb
:10057000670160004811dd0033058000f18f2f0016
:100580008180610082807000310588006800600011
:10059000c300de00e1806000c608dd00a00480002a
:1005a0000060a10001007000a004880000000600a7
:1005b0008720a900670160004411dd0083058000e9
:1005c000f1f82f0081806100828070008105880031
:1005d00068006000c300de00e1806000c908dd0043
:1005e000b00480000090a10001007000b0048800f9
:1005f000000006008740a900670160004811dd0087
:1006000083058000f18f2f0081806100828070005f
:100610008105880068006000c300de00e1806000a2
:10062000ca08dd00b004800000a0a1000100700035
:10063000b00488000000060083ff2f008001fd0049
:100640008421b6008001fd00010c8800120c880096
:10065000200c88000000060083ff2f008001fd00b1
:100660008a21b6008001fd00310c8800420c880010
:10067000500c88000000060083ff2f008001fd0061
:100680009021b6008001fd00610c8800720c88008a
:10069000800c88000000060083ff2f008001fd0011
:1006a0009621b6008001fd00910c8800a20c880004
:1006b000b00c8800000006008460a900670160009b
:1006c0004c11dd0023058000f1ff280081806100ce
:1006d000828070002105880068006000a10480000d
:1006e0000130a10080807000a10488000000060095
:1006f0000021ef0011088800200888000000060093
:100700000621ef0061088800800888001061a900b8
:10071000000006000a21ef00710888009008880098
:10072000000006000008880000000600300888006d
:1007300000000600500888000000060003f0a20038
:10074000889fbe008a9fbe008c1f78007f00070034
:10075000860033006450e1004f0032006420e10065
:100760005200320003826c0007003b000905d000f4
:100770000306d000820f54000c065d000200390011
:100780000200320089017800030678008582550056
:1007900004003d000003fd008103fd008502ea0026
:1007a0008b854200840f720002003b006000100045
:1007b000e08018006011b8000005eb007a28e10025
:1007c0000a00390006007800c75ddd00f707b200b7
:1007d000878075002d003700828171000a01780042
:1007e000610560008180d1000080d3008502e900ae
:1007f000f9ff3b00060440008784480002003b00ec
:1008000060041400e0841c000988a3000700320083
:100810008a81710082817100610164008904d100c4
:100820000884d3008b05e800170037000978a3007f
:1008300013003a000b00e000130034008b05e900c0
:100840000804440089844c000a4474000978a30019
:100850000d003a000b00e000070034008b05e900b2
:100860000804440089844c0001003a000b00200079
:100870000978a300f7ff32000001eb000200370007
:10088000828171000a0178000a0007000cf0a700bd
:1008900001f0a0003e0037006420e10002003a00b1
:1008a000838f6c003e0033000801be000200be00d2
:1008b0003700370081002000618055000b003d00ab
:1008c0000b00200061fe2f000100e1001d0034003c
:1008d00082817100610164008904d1000884d30021
:1008e0000000e800faff3a00710020006100640097
:1008f000030070000200600009003200610444003f
:10090000e0844c000988a500050032008b05e80052
:100910006808e10002003a008904d1000884d3008d
:10092000f20f20000258e10005003d00c75ddd0028
:10093000f907b20089807500080078000000060001
:100940000bf827008b007800000005000004be00b3
:100950004a0007000003be000405be000200be00fe
:1009600046000700844f7500000006000200be002c
:100970006450e100050036006420e100020036000a
:100980000968a30001003a000800be000160a00051
:100990004f0678004f05be004f04be000000060061
:1009a000f0ff2f00f1ff2700f9ff3700889fbe00fe
:1009b0008a9fbe008c1f7800e4ff0700ebff330026
:1009c00003866c006450e100240032006420e100e2
:1009d000270032006150e100220032006120e10076
:1009e000210032008b854200eb07b1000134b800d2
:1009f000003ab8000804420089844a00013ab8006d
:100a00000030b8008880400009014a00040033002b
:100a10000000400081804800020149008b05e90088
:100a2000c909dd00830170000100320013002000bd
:100a3000c814de004814dd004709de001200b200d1
:100a4000c808de00088470009aff070001f0a100ca
:100a50000cf0a70001f0a000cdff37006120e100fd
:100a6000cfff32000801be000200be00f7ff3700d2
:100a70006150e100fcff3a00c9ff3700c70ade0001
:100a8000f107b200f50fb20008003200e1cf4200da
:100a9000020032000170a00024000500810f7000e8
:100aa000010032000408050044000500810f7000b9
:100ab00002003a00140005008502e9000000400031
:100ac00081c04800fcff3b000170a000240005002d
:020000040000fa
:100ad0000000fa008080eb00d0f8270008ff070034
:100ae00094e0a9000080fa00000006000000fa006f
:100af00011e1a9000000eb000cff070011e1a800c4
:100b00000080fa00000006000000fa007134800046
:100b100000fe2f00008060005000b3007034880099
:100b200071348000f00f2e00808060000060200093
:100b30000080700070348800a134800000fe2f0017
:100b4000008060007000b300a0348800a1348000f1
:100b5000f00f2e00808060000040210000807000b7
:100b6000a034880043a1a90042e1a800110a800036
:100b7000f0f92f0000806000100a8800110a800040
:100b800080ff2f00008060000000a000100a880095
:100b900047a1a90046e1a800310a8000f0f92f0022
:100ba00000806000300a8800310a800080ff2f003a
:100bb000008060000000a000300a88005ba1a9004e
:100bc0005ae1a800d10a8000f0f92f0000806000ef
:100bd000d00a8800d10a800080ff2f0000806000ca
:100be0000000a000d00a88005fa1a9005ee1a80073
:100bf000f10a8000f0f92f0000806000f00a880000
:100c0000f10a800080ff2f00008060000000a0003b
:100c1000f00a88009420a80021058000f0f82f0039
:100c200080806000000620000080700020058800a1
:100c300094a0a80031058000f0f82f0080806000ab
:100c400000062000008070003005880096c0a800d3
:100c500071058000f08f2f00808060000060200010
:100c6000008070007005880096e0a8007105800083
:100c7000f0ff2800808060000000260000807000e7
:100c8000700588000080fa00000006003600f800b9
:100c9000809fbe00829fbe00849fbe00869fbe00d4
:100ca0003400f80000002000a00188000200fa00d3
:100cb000511680000002200000806000e00f50000c
:100cc0000400320089ff0700000a8000000f78004e
:100cd00001003700501680008420a9000080fa002f
:100ce0003400f9004f03be004f02be004f01be00aa
:100cf0004f00be003600f900004006003600f80044
:100d0000809fbe00829fbe00849fbe00869fbe0063
:100d10003400f80000002000a00188000200fa0062
:100d2000511680000004200000806000e00f500099
:100d3000040032006dff0700200a8000000f7800d9
:100d4000010037005016800084a0a9000080fa003e
:100d50003400f9004f03be004f02be004f01be0039
:100d60004f00be003600f900004006003600f800d3
:100d7000809fbe00829fbe00849fbe00869fbe00f3
:100d80003400f80000002000a00188000200fa00f2
:100d9000511680000008200000806000e00f500025
:100da0000400320051ff0700c00a8000000f7800e5
:100db000010037005016800086c0a9000080fa00ac
:100dc0003400f9004f03be004f02be004f01be00c9
:100dd0004f00be003600f900004006003600f80063
:100de000809fbe00829fbe00849fbe00869fbe0083
:100df0003400f80000002000a00188000200fa0082
:100e00009016800070006000e00f50000400320077
:100e100036ff0700e00a8000000f7800010037006d
:100e20009016800086e0a9000080fa003400f900e6
:100e30004f03be004f02be004f01be004f00be0078
:100e40003600f900004006000000fa00313a800048
:100e500000e02f0080806000900220000080700081
:100e6000303a8800213a8000f0f32f0000806000c3
:100e7000203a8800213a800000fe2f0000806000a8
:100e8000203a88000080fa00000006000000fa0006
:100e9000c042a900c062a900c082a90081e0a900e7
:100ea0000080fa00000006000000fa008080eb00dd
:100eb000d0f827000efe0700b0ff2f00fefd070050
:100ec0000080fa00000006000000fa0005e1a90019
:100ed0000000eb0013fe070005e1a8000080fa0007
:100ee000000006001800fa00889fbe006007980006
:100ef00071079800020f9800130f9800240f9800b4
:100f0000350f9800e08a2d00f1f72300008fbe0016
:100f10006000b80020079800310798002e0190006b
:100f2000be0190000e0890009e0890009ffe0700f2
:100f30006e019000fe01900001fe07001e01be0040
:100f40009afe07000004be001e01be000000200043
:100f500001f82300f9fd07002e099000be0990005a
:100f600092fe07000001be000800be00f4fd07006d
:100f700040079800510798004e009000de00900056
:100f80004f04be000080fa0000000600809fbe00f3
:100f9000821f78003400f80000002000a0018800c3
:100fa0000000fa0020168000e400600010c0b300ca
:100fb000e08f5000010032000040eb000080fb0099
:100fc000610060004200dd0022168000b1ff2f00aa
:100fd0008100610000807000201688008460a900f4
:100fe0000080fa003400f9004f0178004f00be0085
:100ff000004006000000fa008080eb00d0f82700d7
:10100000c4fd07009500a9000080fa00000006005a
:101010000000fa0013e1a9000000eb00c5fd070085
:1010200013e1a8000080fa00000006000000fa00aa
:101030005136800000fe2f00008060002001b300c8
:101040005036880051368000f00f2e0080806000fe
:10105000003021000080700050368800613680002a
:1010600000fe2f00008060004001b3006036880061
:1010700061368000f00f2e0080806000005021005b
:101080000080700060368800c22b20008080eb005a
:1010900080ff2d0068fd0700c22b20008080eb0040
:1010a00080ff2d006cfd0700c22b20008080eb002c
:1010b00080ff2d0070fd0700c22b20008080eb0018
:1010c00080ff2d0074fd070020ff2f0016fd070094
:1010d00020ff2f0025fd070020ff2f0034fd070013
:1010e00020ff2f0043fd070070002000100c880037
:1010f0000080fa00000006000000fa00210c8000c9
:1011000080ff2f00008060006000b300200c88008a
:10111000510c800080ff2f00008060006000b30051
:10112000500c8800810c800080ff2f000080600040
:101130006000b300800c8800b10c800080ff2f009d
:10114000008060006000b300b00c8800b0ff0700b2
:081150000080fa000000060017
:020000040000fa
:10115800f03fb1000180b10006003500ee03090040
:1011680000000000403fb1000180b100fbff3d00de
:101178001000b000203fb0000200350000800900d8
:08118800000000000000060059
:020000040000fa
:101190000000fa002cff07003cff0700c02b2000d6
:1011a000100c88000088230011002000eaff0700cf
:0411b000faff37000b
:020000040000fa
:0411b4000000000037
:020000040000fa
:0200000401f009
:04000c0079ff000078
:020000040000fa
:0200000401f009
:04001000bbff000032
:020000040000fa
:0200000401f009
:040014007fff00006a
:020000040000fa
:0200000401f009
:04001c00dfff000002
:00000001FF
