:020000040000fa
:080000000002040000000000f2
:020000040000fa
:100008009a0200009a0200009a0200009a02000078
:100018009a0200009a0200009a0200009a02000068
:100028009a020000105600009a020000844d000059
:100038009a0200005e5600009a0200009a02000030
:100048009a0200009a0200009a0200003053000051
:10005800545300009a0200009a0200009a0200001d
:100068009a0200009a0200009a0200009a02000018
:100078009a0200009a020000ac560000fa560000ee
:100088009a0200009a0200009a0200009a020000f8
:100098009a0200009a0200009a0200009a020000e8
:1000a8009a0200009a0200009a0200009a020000d8
:1000b8009a0200009a0200009a0200009a020000c8
:1000c8009a0200009a0200009a0200009a020000b8
:1000d8009a0200009a0200009a0200009a020000a8
:1000e8009a0200009a0200009a0200009a02000098
:1000f8009a0200009a0200009a0200009a02000088
:100108009a0200009a0200009a0200009a02000077
:100118009a0200009a0200009a0200009a02000067
:100128009a0200009a0200009a0200009a02000057
:100138009a0200009a0200009a0200009a02000047
:100148009a0200009a0200009a0200009a02000037
:100158009a0200009a0200009a0200009a02000027
:100168009a0200009a0200009a0200009a02000017
:100178009a0200009a0200009a0200009a02000007
:100188009a0200009a0200009a0200009a020000f7
:100198009a0200009a0200009a0200009a020000e7
:1001a8009a0200009a0200009a0200009a020000d7
:1001b8009a0200009a0200009a0200009a020000c7
:1001c8009a0200009a0200009a0200009a020000b7
:1001d8009a0200009a0200009a0200009a020000a7
:1001e8009a0200009a0200009a0200009a02000097
:0801f8009a0200009a020000c7
:020000040000fa
:100208009a0200009a0200009a0200009a02000076
:100218009a0200009a0200009a0200009a02000066
:100228009a020000105600009a020000844d000057
:100238009a0200005e5600009a0200009a0200002e
:100248009a0200009a0200009a020000305300004f
:10025800545300009a0200009a0200009a0200001b
:100268009a0200009a0200009a0200009a02000016
:100278009a0200009a020000ac560000fa560000ec
:100288009a0200009a0200009a0200009a020000f6
:100298009a0200009a0200009a0200009a020000e6
:1002a8009a0200009a0200009a0200009a020000d6
:1002b8009a0200009a0200009a0200009a020000c6
:1002c8009a0200009a0200009a0200009a020000b6
:1002d8009a0200009a0200009a0200009a020000a6
:1002e8009a0200009a0200009a0200009a02000096
:1002f8009a0200009a0200009a0200009a02000086
:100308009a0200009a0200009a0200009a02000075
:100318009a0200009a0200009a0200009a02000065
:100328009a0200009a0200009a0200009a02000055
:100338009a0200009a0200009a0200009a02000045
:100348009a0200009a0200009a0200009a02000035
:100358009a0200009a0200009a0200009a02000025
:100368009a0200009a0200009a0200009a02000015
:100378009a0200009a0200009a0200009a02000005
:100388009a0200009a0200009a0200009a020000f5
:100398009a0200009a0200009a0200009a020000e5
:1003a8009a0200009a0200009a0200009a020000d5
:1003b8009a0200009a0200009a0200009a020000c5
:1003c8009a0200009a0200009a0200009a020000b5
:1003d8009a0200009a0200009a0200009a020000a5
:1003e8009a0200009a0200009a0200009a02000095
:0803f8009a0200009a020000c5
:020000040000fa
:100400006fc020000e7f24000e0188000000000055
:10041000000020000000e000020032000001200087
:10042000200288000c000700c035250001002000d4
:1004300011000700000020000000e0000200320070
:10044000000002000000000032580200000000001e
:100450000040da000000fe004440a90000b820007f
:100460000000e0000300320000002000a00188002e
:100470004440a80000000600910188008000780038
:100480000000eb0015003700e280400032a0b4000d
:100490009101ba00e280400032a0b4009102ba009b
:1004a000e280400032a0b4000002eb00472bde00e7
:1004b000f507b200602ce10004003a000059eb009f
:1004c0008301e900fdff3e00040037006128e100e0
:1004d000010032000082eb00040007001101ba00a5
:1004e0000200e000e8ff3a00000006003159ba00bf
:1004f0008301e9000c0032002159ba008301e900b0
:10050000080032000400e00003003a00e2804000ee
:1005100032a0b400f5ff370011d9ba008301e90019
:10052000faff3a008100e800e180400032a0b40008
:10053000000006000040da000000fe000a00fa0099
:10054000e20f500022003e0024608000e10f5200c4
:1005500006003200872320004623200024232000a9
:1005600005232000e08f530004003a00872220007a
:10057000462220002422200005222000000028001e
:100580001500600003003a00800b78000700280087
:10059000958a7300054020009482620001003a00b1
:1005a00014a0a000820278000600370094037800af
:1005b0000710b200fdff3200b103fb00070b78000b
:1005c0008502e900e08f5200f8ff3a00080037008a
:1005d00034002000c0bf9f00e2bf9f00b4bf9f0057
:1005e000d1bf9f006a8057005d0407006fb9970074
:1005f000020078000080fa00000006008420a900b4
:1006000067026000f5f82f004422dd002605800017
:100610008682620068006000850272004300de008e
:100620002505880061006000d4ff2f000000400015
:10063000a50480000502620004027000a404880082
:100640000000060084a0a90067026000f5f82f00f2
:100650004422dd003605800086826200680060006a
:10066000850272004300de003505880061006000ed
:10067000f4fd2f004500dd00a504800005026200a6
:1006800004027000a40488000000060086c0a900cf
:1006900067026000f58f2f004822dd00760580009c
:1006a0008682620068006000850272004300de00fe
:1006b0007505880061006000f4fb2f004600dd0036
:1006c000b50480000502620004027000b4048800d2
:1006d0000000060086e0a90067026000f5ff280020
:1006e0004c22dd0076058000868262006800600092
:1006f000850272004300de0075058800610060001d
:10070000f4f72f004700dd00b50480000502620009
:1007100004027000b404880000000600100a88007b
:1007200000000600300a880000000600d00a880099
:1007300000000600f00a8800000006008440a900be
:1007400067026000f58f2f004822dd00260580003b
:100750008682620068006000850272004300de004d
:100760002505880061006000b4ff2f004200dd0015
:10077000a50480000502620004027000a404880041
:100780000000060084c0a90067026000f58f2f00fa
:100790004822dd0036058000868262006800600025
:1007a000850272004300de003505880061006000ac
:1007b000f4fb2f004600dd00a50480000502620066
:1007c00004027000a4048800000006008720a9002d
:1007d00067026000f5f82f004422dd0086058000e6
:1007e0008682620068006000850272004300de00bd
:1007f0008505880061006000f4df2f004900dd00fe
:10080000b50480000502620004027000b404880090
:10081000000006008740a90067026000f58f2f00e6
:100820004822dd0086058000868262006800600044
:10083000850272004300de008505880061006000cb
:10084000f4bf2f004a00dd00b504800005026200fd
:1008500004027000b40488000000060084ff2f002a
:1008600045182000950a6200010c8800120c8800cf
:10087000200c88000000060084ff2f00a51820002f
:10088000950a6200310c8800420c8800500c8800e8
:100890000000060084ff2f0005192000950a620061
:1008a000610c8800720c8800800c88000000060033
:1008b00084ff2f0065192000950a6200910c8800c2
:1008c000a20c8800b00c8800000006008460a9001b
:1008d00067026000f5ff28004c22dd00260580003d
:1008e00086826200680060008502720074ff2f003b
:1008f00025058800a504800005026200040270003e
:10090000a4048800000006000021ef001108880000
:1009100020088800000006000621ef00610888001a
:10092000800888001061a900000006000a21ef007d
:100930007108880090088800000006000008880000
:1009400000000600300888000000060050088800fb
:1009500000000600001020002202b6000000e9009e
:100960004f00de00000006001011800061406000b2
:10097000000006000411800066026200e60f5200cb
:100980000c003a00030037002322ab00feff3a00c0
:1009900025118800b0027800e08f5200faff3a007b
:1009a000000006002322ab00feff3a008502fb0098
:1009b00025118800b0427800e0cf5200f9ff3a00dc
:1009c000000006000411800066026200e60f52007b
:1009d00002003a0030118000000006003011800053
:1009e000f00fb200000006000411800066026200f1
:1009f000e60f520001003200f00fb2002011880013
:100a00000000060003f0a200889fbe008a9fbe007f
:100a10008c1f7800ac010700b30133006450e10083
:100a20004f0032006420e1005200320003826c006b
:100a300007003b000905d0000306d000820f5400d8
:100a40000c065d00020039000200320089017800c6
:100a5000030678008582550004003d000003fd0078
:100a60008103fd008502ea008b854200840f72003d
:100a700002003b0060001000e08018006011b80028
:100a80000005eb007a28e1000a0039000600780032
:100a9000c75ddd00f707b200878075002d003700c5
:100aa000828171000a017800610560008180d100b7
:100ab0000080d3008502e900f9ff3b0006044000f6
:100ac0008784480002003b0060041400e0841c009e
:100ad0000988a300070032008a81710082817100b9
:100ae000610164008904d1000884d3008b05e8000b
:100af000170037000978a30013003a000b00e0004c
:100b0000130034008b05e9000804440089844c007c
:100b10000a4474000978a3000d003a000b00e000bd
:100b2000070034008b05e9000804440089844c0068
:100b300001003a000b0020000978a300f7ff320003
:100b40000001eb0002003700828171000a01780089
:100b5000220107000cf0a70001f0a0006b01370094
:100b60006420e10002003a00838f6c006b013300c7
:100b70000801be000200be0064013700889fbe006d
:100b80008a9fbe008c1f78004f01070010022000d2
:100b900002003b00604d8800530137008a0062006c
:100ba0006408e10002003a00604d88005b013700f4
:100bb0006108e100fcff32000800be000304780079
:100bc0007000070001f0a1000900070008f0a6006e
:100bd000040037000001be0091042400b0fd200095
:100be00088ff070009f0a70001f0a20047013700c5
:100bf000889fbe008a9fbe008c9fbe000004be007e
:100c00001c0107000800be00890678006420e1008e
:100c100008003900040032000160a0001202200028
:100c2000624d88005300370091fc2300b0fd200086
:100c30004e0037000006eb0009f0a10003f8230086
:100c4000020020000800be009f00070006003400dc
:100c500001f82300000020000801be004900070041
:100c60000004be002c0020000800be0093e8230012
:100c7000320a230094000700120034000801be006d
:100c8000d1fd2300703d2b005fff07000005be0073
:100c9000b3f32300f27a26000800be0031010700fa
:100ca00003f823000200200056ff07000801be00e1
:100cb00055ff07000a01be00320007000004be0015
:100cc0000c06e8000800be0001f0a10002002000b0
:100cd000039823007c0007000800be0016003500c2
:100ce0000801be001f0107000005be0032cd2c0028
:100cf00043fb230044ff0700809fbe0012692800c9
:100d000003d52b000a00be0016010700620f210068
:100d100013ef2b003cff07000a01be001101070082
:100d20004f01be00170007000801be000d010700bb
:100d30000801be0034ff07000c00e0000b00320089
:100d40000c10a70001f0a200b2fd200093fc2300cc
:100d50006260e1000400320022a9200063f0230059
:100d60000c10a70063f8230027ff07000df0a70071
:100d700001f0a2004f06be004f05be004f04be00aa
:100d800000000600889fbe008a9fbe008c1f78006e
:100d9000cd000700d400330003866c006450e100ee
:100da0002e0032006420e100330032006150e10087
:100db0002f0032006120e1003100320085855500ae
:100dc000eb07b000090020000804200005003700f0
:100dd0000804440089844c000a00310006034300e3
:100de00087834b000001530081815b00f8ff3300d3
:100df0000203be000800a0000804440089844c00df
:100e0000f6ff3900c639dd008301730001003200ae
:100e1000130020008904d1000884d3000998a3009e
:100e2000050032000800a7000300a0008904d100db
:100e30000884d3008b05e8008904d1000884d3001e
:100e40000001eb000281d2006400070001f0a10064
:100e50000cf0a70001f0a000ac0037006420e10016
:100e6000ae0032000801be000200be00f7ff3700ee
:100e70006120e100a90032006000b800f3ff3700f4
:100e80000000200001f82700f0ff3700839f680072
:100e90000100e00002003d0060001000e08018004a
:100ea0000300e00002003d0060011100e081190034
:100eb000150107004f00e00002003b006000100039
:100ec000e080180000000600140020002101370017
:100ed000f4ff2f001f0137000001be00650007006e
:100ee0000470a70003f0a1006509b10016003200ec
:100ef0000d0035006828e10006003500f0ff2f00e6
:100f0000f1ff27000300e00013003b000100280070
:100f10000000050000004000818048008502e900d3
:100f2000fcff3a0008003700f88f420002003c0046
:100f30008000eb00000005008100d1000080d3009c
:100f40008502e800fcff3a000300e00002003b00dd
:100f500060001000e0801800000006000001be00e4
:100f6000440007000470a70003f0a10003f8a300e9
:100f700013003a006509b100100032000900350085
:100f80006928e1000200350001002800000005008a
:100f900000004000818048008502e900fcff3a0023
:100fa00000000600f88f4200050035008100d100e6
:100fb0000080d3008502e800fcff3a000000060034
:100fc0008000eb00000005004f89de008201780000
:100fd000fb0037006011b8000901370081002000d4
:100fe000618055000b003d000b00200061fe2f00ca
:100ff0000100e1001d003400828171006101640084
:101000008904d1000884d3000000e800faff3a0008
:1010100071002000610064000300700002006000a5
:101020000900320061044400e0844c000988a500f6
:10103000050032008b05e8006808e10002003a0074
:101040008904d1000884d300f20f20000258e10087
:1010500005003d00c75ddd00f907b200898075001d
:1010600008007800000006000bf827008b007800cd
:1010700000000500c70ade00f107b200f50fb2005c
:1010800008003200e1cf4200020032000170a000ef
:1010900024000500810f70000100320004080500e3
:1010a00044000500810f700002003a0014000500a2
:1010b0008502e9000000400081c04800fcff3b00c1
:1010c0000170a000240005000004be00e9ff070035
:1010d0000003be000405be000200be00e5ff0700dd
:1010e000844f7500000006000200be006450e1005d
:1010f000050036006420e100020036000968a30004
:1011000001003a000800be000160a0004f06780010
:101110004f05be004f04be0000000600f0ff2f0088
:10112000f1ff2700f9ff3700811f78000100e00080
:1011300002003d0060001000e08018000300e000a5
:1011400002003d0060011100e08119007e000700ef
:101150004f00e00002003b0060001000e08018003b
:1011600000000600889fbe008a9fbe008c1f78008a
:10117000d5ff0700dcff330003866c006450e100fc
:10118000240032006420e100270032006150e100b9
:10119000220032006120e100210032008b854200f4
:1011a000eb07b1000134b800003ab800080442006f
:1011b00089844a00013ab8000030b80088804000b5
:1011c00009014a000400330000004000818048000b
:1011d000020149008b05e900c909dd0083017000a7
:1011e0000100320013002000c814de004814dd00a6
:1011f0004709de001200b200c808de000884700053
:1012000076ff070001f0a1000cf0a70001f0a0009c
:10121000beff37006120e100c0ff32000801be00c0
:101220000200be00f7ff37006150e100fcff3a000a
:10123000baff3700889fbe008a9fbe008c1f7800cf
:101240000004be008bff07000478a30026003a00cc
:101250006120e1002500320009f8a30025003a00d2
:101260006420e10021003200f507b1000508a30069
:101270000200320000004000818048006044b80055
:101280000310200002002000000040008180480080
:101290000805440089854c000a0541008b854900fa
:1012a0000a0550008b855800030033000a00be0079
:1012b00002047400838474008301d1000281d3008e
:1012c000830f7100f0ff3a008904d1000884d30035
:1012d0006001490082017800c1adde00fb07b0006b
:1012e0003eff070089ff37000960a0000800be002c
:1012f00086ff370012022000624d8800f0ff2f00a9
:10130000f1ff270081ff37006022b80006022000ad
:101310000000d0008180d2000482d2008582d200f9
:101320000000a0000202520083825a000300310034
:101330000202420083824a000000a1000603e90085
:10134000f3ff3a0000000600efff07000400be00b4
:1013500000000600889fbe008a9fbe00841f7800a0
:1013600059ff07004f00780011003300f0ff2f00f5
:10137000838f6c0006003b00040565000a00a7008f
:101380000800370009f0a600100020000800370010
:10139000820f5400838f5c0003003900100020008e
:1013a00001003e000000200009f0a7000000ea0054
:1013b0004f05be004f04be000000e0000000060024
:1013c000881f7800030478000300e00007003d0058
:1013d00060001000e080180060011900e081190031
:1013e00002003b0001f02d0003003700040007005d
:1013f00008f0a70001f0a0004f04780000000600ec
:10140000889fbe008a9fbe000082700004027100a7
:1014100004827100260032000004be000200be00fb
:101420006011b8006b092000950220000182cf00f6
:101430000a0039000541b1000082cf0007003900e1
:101440000541b1000982cf00040039000541b10017
:101450000882cf00010039000541b1000542520069
:10146000120032000a003b008281710061016400b9
:101470008100d1000080d3008984d3000884d30088
:101480008b05e8000442e800f7ff3a000700370048
:101490000804440089844c00000048008180480012
:1014a0008b05e9000442e900f9ff3a00cbfe070092
:1014b0004f05be004f04be0000000600b042780099
:1014c00031c2520002003a00e0cf5200fbff3a0066
:1014d0000400fb000000060040be20000000fa00ef
:1014e00068815700cfb89700930507000080fa0085
:1014f0000000060040be20000000fa00688157008e
:10150000cfb897008c0507000080fa0000000600a5
:1015100040be20000000fa0068815700cfb8970055
:10152000850507000080fa000000060040be20008c
:101530000000fa0068815700cfb897007e050700c9
:101540000080fa0000000600889fbe0001047800b9
:101550008084eb0038029000e20262003b0032001f
:1015600004037800980290000620b20002003a00be
:10157000e08f520035003a000490a000800478000b
:1015800034049800f90fb200e08f520002003a00d4
:10159000a8029000050c7800ea8f540005003a007c
:1015a0000408b20003003a0088007800d000200050
:1015b000e5ff070018029000d8029000850f520046
:1015c0000b0032000402e80015c0b30014049800b8
:1015d00018027800094a7800040ce800e4bf2000f3
:1015e000054a7800ea8f540018003a0005003700d9
:1015f0000940780088007800170007008004780010
:1016000012003700380290000410b2000f003200c0
:1016100018019000a800900048009000c7fb070048
:1016200018029000840f500004003200380290002d
:101630000403b300340498008084eb000002eb0044
:101640001404980028029000040c78000900780027
:101650004f04be00000006000200fa00889fbe0092
:1016600001047800a0ff9f003802900084027800f7
:101670000504b200020032000000fb003500370014
:10168000e202620005003a000403b300150498006a
:10169000340498000080eb002e003700d80490003e
:1016a000e08f540006003a0012002000e680570048
:1016b00048009000a1fb07001904980023003700a0
:1016c000a8029000e08f520008003a0025c02000d8
:1016d0000430a00025049800050c7800340498001c
:1016e000250020005504980015049800180190006a
:1016f000a80090004800900090fb0700280290008e
:101700008082eb0015049800affa9700054a780034
:10171000040ce8002ffa9700ea4f52000b003a0041
:10172000380290000410b200080032001801900046
:10173000a80090004800900080fb07000002eb002a
:10174000a802900014049800050c78002ffa970066
:101750000400fb004f04be000080fa0000000600f9
:1017600000c0da00000006002800fa00889fbe00d2
:101770008a9fbe008c9fbe0007067800878669009e
:101780000c003b00030478008704780008f0a100f7
:1017900009f0a100840f5000858f5800860f590072
:1017a000890f5c00030033000cf0a20001003a0036
:1017b0000cf0a100fe0007006400e1005f003200b1
:1017c000780147006408e100610032006c014700c5
:1017d000748557003200be001201be003a04be00fc
:1017e0001a05be001e039000be0a90008503530038
:1017f00006003d000004fd008104fd000205fd001f
:101800008305fd008703ea00050378000df8a300b7
:101810000400320060041400e0841c0060051d0018
:10182000e0851d006022b8007d0320000d38e10036
:101830008006eb000b0039004433dd00f300b200fa
:101840008301730039003700848272000d02780032
:10185000e10664008b85d1000a85d3008984d3001a
:101860000884d3008703e900f7ff3b00080040002d
:10187000898048000a0149008b81490004003b002f
:1018800060001000e080180060011900e08119007c
:101890000358a300090032008d8272008482720016
:1018a000610260008301d1000281d3008180d300f6
:1018b0000080d3000603e8001b0037000348a300a4
:1018c00017003a000600e000170034000603e900a4
:1018d0000d00a3000000480081804800020149007b
:1018e000838149000348a3000f003a000600e0008e
:1018f000090034000603e900000040008180480030
:10190000020149008381490001003a000003eb0015
:101910000348a300f5ff32006022b8000200370040
:1019200084827200618266007500070003f0a100e6
:101930000cf0a70003f0a000b100370064014700dd
:101940006408e10002003a000df8a300a9003a0083
:101950003200be001201be00a90037008f1fd10067
:10196000260307008f87e9000000e0000000060062
:10197000809feb00210307008f87e9000000e00053
:10198000000006002800fa00889fbe008a9fbe0063
:101990008c9fbe0003866b00850007006400e10099
:1019a000440032006408e1004a0032006100e100b6
:1019b000460032006108e10049003200ec064700b1
:1019c0006000b8003d02be003d03be00f486570033
:1019d0006011b8003d04be003d05be007d0320003f
:1019e0000b0037000000a0008d06e9001300320054
:1019f0000402420085824a0006034b0087834b00a5
:101a000000004000818048000201490083814900b4
:101a10000802520089825a000a035b008b835b0034
:101a2000f0ff3b000802420089824a000a034b0093
:101a30008b834b008d06e900edff3a008482720033
:101a400086827200f707b2008782720001003200be
:101a5000150020001e0490003e0b90000603540069
:101a6000e63fb0000368a300070032000000a700b3
:101a70000500a0008301d1000281d3008180d30042
:101a80000080d3000603e8008301d1000281d30067
:101a90008180d3000080d3000002eb000482d200da
:101aa0001700070003f0a1000cf0a70003f0a0004e
:101ab00053003700640247006408e1004d00320023
:101ac0003400be003401be00f6ff37006108e100bb
:101ad000480032006011b8006000b800f1ff370024
:101ae00003ff270002002000fbff3700801feb00f0
:101af000c20207008f87e9000000e0000000060036
:101b00001800200057002000080453000d003d007d
:101b10000600200097fc2f000740e1001e00340063
:101b200084827200610260008301d1000281d300cf
:101b30008180d3000080d3000804e800f8ff3a0059
:101b40004700200061046000050474000404640080
:101b50000d00320061004000e08048006001490053
:101b6000e081490003b8a500070032000603e80041
:101b70006538e10004003a008301d1000281d300fe
:101b80008180d3000080d300f87f20000830e1007e
:101b900003003500080378006000b8006011b80049
:101ba0004433dd00f300b20083017300000006003f
:101bb000680447000294be000094be00fc04470085
:101bc0008694be008494be0009007800d402070009
:101bd00008007800d202070099007800814f700059
:101be0000b003b000800be00ad0207004f00b10033
:101bf00003003700f3ff2700f2ff2f006110b90048
:101c00004f06be004f05be004f04be000080fa0024
:101c1000000006008103780016fd07000001be00e9
:101c20006000b8000478a30013003a006220e100cd
:101c300015003e000d0039008301d1000281d30060
:101c40008180d3008301d1000281d3008180d30041
:101c50008301d1000281d3008180d3000538b00018
:101c6000c42add00f300b2008381720007f0a700f0
:101c700003f0a00000000600f3ff2700f2ff2f0092
:101c80006110b900fbff370003ff2700f7ff3700a3
:101c90001400fa00889fbe008a9fbe008c9fbe0081
:101ca0000004be000205be00680047000a90be00a6
:101cb0000890be009a0207000070a7000bf0a10078
:101cc0000bf8a30020003a009e0990000e09900036
:101cd000fe0090006e0090009e02900034432000b1
:101ce00084825200c6ff32000a003c00b4fc2f0080
:101cf0000428e100140034008301d1000281d300e4
:101d00008180d3000080d3008502e800faff3a000a
:101d1000bbff3700b40020000428e10007003c00ae
:101d20000000400081804800020149008381490091
:101d30008502e900faff3a00b1ff370003002800ee
:101d400002002000010037006011b8006000b800f8
:101d5000abff37001400fa00889fbe008a9fbe00c8
:101d60008c9fbe000004be000205be006800470054
:101d70000a90be000890be00690207000070a7002c
:101d80000bf0a1000bf8a30016003a009e02900091
:101d90003043200080825200b0fe2f000028e10076
:101da0000d003c00b0fc2f000028e1000d003400c5
:101db0001e0990008e0890007e0090000501b00082
:101dc0000201d1008180d3000080d3008502e800a9
:101dd000fbff3a008aff37000100280000002000c6
:101de00087ff37006000b80085ff3700889fbe007e
:101df000008270000402710004827100240032002d
:101e000036432000c50020008383cf000a0039003c
:101e10000541b1008283cf00070039000541b100c0
:101e20008183cf00040039000541b1008083cf00d9
:101e3000010039000541b10085c353006022b8009c
:101e4000120032000a003b008482720061026000ce
:101e50008301d1000281d3008180d3000080d300b0
:101e60000603e8008743e800f7ff3a000700370061
:101e70000000400081804800020149008381490040
:101e80000603e9008743e900f9ff3a001cff070059
:101e90004f04be00000006006011b800d3ff3700f9
:101ea0001400fa00889fbe008a9fbe008c9fbe006f
:101eb000040678000004be000205be00680047006a
:101ec0000a90be000890be00150207006200e10003
:101ed0000800be000a01be00040020000b003a000a
:101ee0001e029000e43fb1006e009000fe009000e2
:101ef0000e0990009e099000f300b20005fe230039
:101f0000858171000bf0a70003f0a000040e78009b
:101f10003bff37002800fa00889fbe008a9fbe0062
:101f20008c9fbe0003866b0021ff07000028a300e2
:101f300064003a000128a30067003a000008a300eb
:101f400062003a000108a30065003a001e009000fc
:101f5000be08900081064000ed3fb100f4805700bc
:101f6000ee019000111ab8008e099000311bb800e4
:101f70009e099000311cb800511db800f48557002f
:101f800046000700fe0190003a0007008b85e8003c
:101f90003e0007008e09900040000700ee0190000f
:101fa000340007008b85e800380007008e09900098
:101fb000400007009e0990001b18b80089044000eb
:101fc0000a854800fe019000340007008b85e80078
:101fd00038000700ee019000300007008e099000e5
:101fe0001b18b800890440000a8548000a98a3001d
:101ff00008003a000402420085824a0006034b00b2
:1020000087834b0008044c0089844c000a054d006e
:102010008d06e90084827200850273004c3add006f
:10202000850272000100320015002000443ade00f3
:102030001400b2004538de00cb45dd000b00700017
:10204000c540de00cb4ddd008b8070004549de00d1
:10205000cb55dd000b017100c551de000d0378008a
:10206000a7fe070003f0a1000cf0a70003f0a000fa
:10207000e3fe37001b18b8008502400006834800c5
:10208000e0834b0060044c00070037001b18b800c9
:102090000603400087834800faff37001b18b8008a
:1020a0008703400008844800e0844c0060054d0030
:1020b000000006001b18b80008044000898448008e
:1020c000faff37000108a300cafe3a005800be001c
:1020d0005801be00e3ff37000008a300c5fe3a0028
:1020e00009047800f9ff370007f0a2009efd3700d1
:1020f000020ab900001bb9000200b80081004200ca
:102100008100430000000600889fbe008a9fbe0039
:102110003004be002005be000404440085844c0049
:1021200006054d0087854d000898be000a90be0048
:102130000440e10005c8e10006d0e10007d8e10055
:1021400002003100680040001008e8004f05be00a2
:102150004f04be00000006001000fa00889fbe0079
:102160008a9fbe00110020000605be000404be00c8
:102170003002be002003be00c4b79f00d5b79f0049
:10218000e6b79f00f7b79f000802520089825a0005
:102190000a035b008b835b0084bf9f0095bf9f0099
:1021a000a6bf9f00b7bf9f000498be000698be0060
:1021b0004fb29700dfb297006fb39700ffb397005d
:1021c0000820e10009a8e1000ab0e1000bb8e10035
:1021d000010039008000eb004f05be0010881000a0
:1021e0004f04be000080fa00000006001400fa0050
:1021f000889fbe008a9fbe008c9fbe000006eb0039
:102200003e000700ccb79f00bcb79f00acb79f0053
:102210009cb79f008cb79f000605be000404be005b
:102220000d0420004fb39700bfb297008603430010
:102230002fb29700e00f530004003d003d0007005f
:102240000f004000b0ff070003003700390007000f
:102250000f004000c0ff0700cfb2970095bf9f005e
:10226000e08f5200090035002b0007001400200009
:10227000050020006033b800000072008180720009
:1022800002017300838173001c0007000c06e80044
:102290008d0f5600e3ff3a001fba9700e00f52007f
:1022a00005003d000802be000a03be0000fe2f002c
:1022b0000f00400094ff07004faa9700e00f520064
:1022c00008003a000fb497009fb497002fb597000d
:1022d000bfb59700d8b79f00e9b79f00fab79f0036
:1022e0008bbf9f000c0007004f06be004f05be00cd
:1022f0004f04be000080fa00000006000100070045
:102300000000060090b79f00a1b79f00b2b79f00e2
:10231000c3b79f0000000600010007000000060090
:102320001fb09700afb097003fb19700cfb19700b3
:10233000000006004f2bde00f9ff070086837300c4
:10234000858242004f23de00a7b79f00868272007d
:102350000402420095b79f00ffaa97004f2bde00b2
:10236000858242000602720084b79f006faa970020
:102370004f23de000402420086827200f5af9f0008
:102380004f18de0000027200e5ff0700e4af9f0077
:10239000000040008180480002014900838149001b
:1023a0000802be000a03be00d6ff070000fe2f0091
:1023b00000000600881f780018002000881f7800a1
:1023c0008aff07008f87e9004f04780000000600ad
:1023d000801feb0085ff07008f87e90000000600e3
:1023e000889fbe008a9fbe00e00f5000e08f58001b
:1023f000e00f5900e08f59000c003d006044b80028
:102400006055b8000000540081805c0002015d004e
:1024100083815d00180020001500070008003d00c2
:10242000180007000004eb00050037000004eb0073
:102430000f00070002003d001200070018002000f6
:10244000dcff0700e00f5400060032006022b800f5
:102450006033b8000000520081805a0002015b0026
:1024600083815b004f05be004f04be0000000600e4
:10247000e00f5200e08f5a00e00f5b00e08f5b003e
:10248000000006006044b8006055b8000402540023
:1024900085825c0006035d0087835d000000060006
:1024a000889fbe008a9fbe008c1f7800e00f5000fe
:1024b000e08f5800e00f5900e08f59000d003d00fb
:1024c0006044b8006055b8001c00200000005400b3
:1024d00081805c0002015d0083815d000820e100d5
:1024e00009a8e1000ab0e1000bb8e1000d003d00d1
:1024f000080037000006eb00e00f5200e08f5a00a2
:10250000e00f5b00e08f5b0006003d006044b80018
:102510006055b8000402540085825c0006035d002b
:1025200087835d00aaff0700e00f56000600320017
:102530006022b8006033b8000000520081805a0069
:1025400002015b0083815b004f0678004f05be00ef
:102550004f04be0000000600889fbe008a9fbe0098
:102560008c1f78000006eb00e00f5000e08f580051
:10257000e00f5900e08f590007003d006044b800ab
:102580006055b8001c0020000000540081805c00f1
:1025900002015d0083815d00e00f5200e08f5a0070
:1025a000e00f5b00e08f5b0007003d006044b80077
:1025b0006055b8000c00a2000402540085825c0043
:1025c00006035d0087835d007c000700e00f560076
:1025d000060032006022b8006033b80000005200ec
:1025e00081805a0002015b0083815b004f06780006
:1025f0004f05be004f04be0000000600889fbe00cd
:102600008a9fbe008c9fbe000404be000605be006b
:10261000809fbe00829fbe002f0007000406780046
:102620000800be000a01be002b00070084067800e7
:102630004f03be004f02be008d4f76007fb0970063
:1026400013003300f0ff2f008b8f6b0006003b0060
:102650000d0666000c00a7000a00370007f0a60070
:10266000100020000a003700880f5200898f5a009e
:102670008a0f5b008b8f5b00030039001000200085
:1026800001003e000000200007f0a7000000ea0063
:102690004f06be004f05be004f04be0000000600fe
:1026a000e48240001078a30007003200640240007a
:1026b0001178a3003400be001401be0004003200f3
:1026c0000330a700000006003500be001501be0063
:1026d0000330a0000000060005ff2700058261000e
:1026e000070032000428e100010032002400050048
:1026f0000600070001003a00440005000408050038
:1027000002000700f9ff3a00140005006f82610023
:1027100081027000850271008502720000000600cf
:10272000800078005002be005003be004439de0035
:10273000f700b200f37f20000301610009003200be
:102740000218e10016003a0085017200830173004f
:10275000838173000008200015003a00400020002b
:1027600013003700850172008301730083817300b9
:1027700005003a0004a8be0006a8be001000200014
:102780000b0037000201e9000402420085824a0082
:1027900006034b0087834b000748a300f9ff320074
:1027a0000740a00004a8be0006a8be00200020002c
:1027b000800098009200980000000600889fbe00ec
:1027c0008a9fbe008c9fbe000404b8000506b800b6
:1027d0008904460060854e000606b8000a054600da
:1027e000e0854e000706b8008b054600040eb800d1
:1027f000890446000a854e00e0854d00050eb800ac
:102800000a0546008b854e00060eb8008b05460073
:102810000416b8000a0546008b854e000516b80060
:102820008b054600041eb8008b0546000800be005c
:102830000a01be004f06be004f05be004f04be0099
:1028400000000600d4c6b3000800fa00889fbe004e
:102850000084fb008a9fbe00844f50003400360085
:10286000e9a520004b062000110009000b84d800c8
:10287000720040004300dd000080440081057800c4
:102880006022b8000600200007fe2300aa002000f6
:102890005001be004000be009efd07000002be00c9
:1028a000110009008a85d80080057800e985450077
:1028b000c35ddd008b8544000203be0084bf9f0022
:1028c00095bf9f00a6bf9f00b7bf9f003b02be0001
:1028d0002b03be000fb897009fb897002fb9970041
:1028e000bfb997008bfd07000002be001100090070
:1028f0000a84d800010478004344dd008884440041
:102900000203be0084bf9f0095bf9f00a6bf9f002b
:10291000b7bf9f003902be002903be000fb8970061
:102920009fb897002fb99700bfb997001d003700d7
:10293000ea4f500013003600aa002000e9a520004d
:10294000110009000a84d8000105780069044000dc
:102950004355dd004344dd00088444008a8444007c
:102960006022b8000600200007fe23003800be00e9
:102970002801be0067fd07003902be002903be0022
:1029800008003700e4a520004344dd0008044200ad
:102990006022b8000600200007fe23003800be00b9
:1029a0002801be005bfd07004f05be004f04be00be
:1029b0000080fa0000000600d4c6b3000800fa0048
:1029c000889fbe008a9fbe00e04f500022003d005d
:1029d0000040ea000004fb00844f50000a0034006d
:1029e00044062000a9002000110009000404d800ba
:1029f000eaa52000110009008900d800e900400084
:102a0000c308dd0020003700ea4f50000f003400fb
:102a1000a4002000110009000404d800e4a520004f
:102a2000690040004300dd0000004200430cdd006f
:102a3000080242005001be004000be005403be0028
:102a40004402be0033fd0700370037004344dd0079
:102a5000e4a52000310037000004fb00844f500043
:102a60002300340044062000a900200011000900c2
:102a70000404d800ea9a2000110009008900d80057
:102a8000e9004000c308dd00810045008b092000fb
:102a90008a8545003102be002103be003b00be0016
:102aa0002b01be001bfd07000002be001100090043
:102ab0000904d800010478004344dd0008054500fe
:102ac0000203be0084bf9f0095bf9f00a6bf9f006a
:102ad000b7bf9f003a02be002a03be000fb897009e
:102ae0009fb897002fb99700bfb99700d5ff37005f
:102af000ea4f500007003400a40020001100090034
:102b00000404d800e49a2000690040004300dd007e
:102b1000c5ff37004344dd00e49a2000080442006a
:102b20003800be002801be004f05be004f04be00a5
:102b30000080fa00000006000f07b000889fbe006a
:102b40008a9fbe008c9fbe00000678008e1f780012
:102b50008006eb0091a79f00e2a79f006000b800ed
:102b60006011b800d09f9f00e19f9f00f29f9f00df
:102b700083a79f00a30837009fa0970054c2b3000b
:102b80008100e80091a79f00844f500006003a00a2
:102b9000010278008002eb0000c3b30001c2b30061
:102ba000b2c2b3000e0037003c0290000404b20031
:102bb000040032001c027800004a7800040ee8008d
:102bc000050037000000fb008c0078005efa07006b
:102bd000e10f40008b0832008d06e80089083700bd
:102be00004037800d3c2b300b443780083cf53000a
:102bf0000900320005003c0081cf5300080032007c
:102c000082cf53000c003a000700370080cf5300fa
:102c100009003a00060037000530a000f0ff370039
:102c20000500a000eeff37000510a000ecff370004
:102c30000520a000eaff3700628262000100320036
:102c40000500a10068826200010032000520a10099
:102c50000702fb000403b100e90f52000d003e0023
:102c6000860378000000eb003702fb006a00b90021
:102c70000403b10007037800000042001702fb00c4
:102c80000403b100e90f5200f7ff3600f0a79f00e0
:102c90000a0037000004eb00a4c2b300f8a79f00ad
:102ca00084cf530005003a00efa497000603e80024
:102cb00049057800e9a79f00faa79f00e4c2b30086
:102cc000964f12001b003a0005e0a000644252003b
:102cd000c5af9f00d64f1200030032008603780074
:102ce0000000eb000c0037006fa097000603e8001f
:102cf000c0007800e0a79f00b1af9f0095c6b30069
:102d000007c7b300c1c6b3004fa997000e00370034
:102d10006a00b90000004200070378003702fb0098
:102d20000403b100e90f5200f9ff3600b0af9f0075
:102d3000f2ff370005c0a0000001eb00c5af9f0007
:102d4000b2af9f00edff37000600780030427800f8
:102d500000037800854f52003200320016003c001c
:102d6000c2af9f0090a79f0035c6b300854f5200a9
:102d7000bf00320009003c00fcc25200854f5200e7
:102d800032003200f1c24200854f52003e00320054
:102d9000e04f520020083200d500370045c6b3008e
:102da000854f520021003200e3c24200854f52009d
:102db000cf003a0019003700874f52003000320030
:102dc00008003c00814f52001a003200c2af9f0041
:102dd00090a79f00f5c6b300854f5200c4003a008b
:102de00022003700c2af9f0090a79f0055c7b300d5
:102df000854f5200c5003200e3c24200854f5200a9
:102e000004003200e5c25200854f5200b8003a007b
:102e100025003700c4479f001f003700c4479f00ac
:102e20000e003700c2af9f0090a79f00c4479f00cd
:102e3000ba00370070006100040120000100320078
:102e40000400280002017200bfff3700cfa99700dd
:102e50000350a000c3af9f00c4479f004faa970034
:102e60000490a000c4af9f00ac003700cfaa970029
:102e7000c4479f000560a000c5af9f00a7003700b2
:102e8000c2af9f0090a79f004fab97000650a000d5
:102e9000c6af9f00c4479f00cfab97000770a0004c
:102ea000c7af9f009d0037006fa49700c4479f00e5
:102eb00048027800e8a79f00d4af9f00e00f5200bf
:102ec00002003a000abd2000daaf9f005fab970016
:102ed0000002eb00010037000402e800e6427a003d
:102ee000e0cf5200fcff3a00e4af9f00bfad970077
:102ef000e08f5500050032006fa89700808f5500c5
:102f0000020031008b007800e1af9f006faa9700ac
:102f10000004eb007fa19700840f510001003600f0
:102f200004045100cfa997000ec2b300e8846100e9
:102f30000f003200290037003c0290000404b20068
:102f4000040032001c0278000e4a7800040ee800eb
:102f5000050037008c007800000220007af9070095
:102f6000e10f4000010032008d06e8000804e9008e
:102f7000e00f5400f0ff3a000084eb001700370028
:102f8000bc0290000504b2000900320088027800fb
:102f90009c03780035437800864b78000504780060
:102fa000070ee800e04f53000a003a001100370016
:102fb000880278008c0078003500fb00b4b79f00d1
:102fc0000504780060f907003fb29700e10f400068
:102fd000080032008d06e800060037000807780078
:102fe000090278005fac9700efac97007fad9700c7
:102ff0008fb59700890278008504e900e08f5200c0
:10300000dfff3a00d8af9f00e9af9f00faaf9f0003
:103010008bb79f000e04780084047800e08f540082
:103020007807320009c2b3000e0037003c0290005e
:103030000404b200040032001c027800094a78003f
:10304000040ee800050037008c0078000002200024
:103050003df90700e10f4000010032008d06e80055
:103060000804e900e00f5400f0ff3a00650737005c
:10307000efa097004fab970041027800040478005e
:10308000cfc4de00090578008a057800e1a79f001b
:103090000800be000a01be004800de00480add004c
:1030a0000000720070026300c0479f0009003200f8
:1030b000e04f500007003200e14f400005003200b1
:1030c00027002000d0479f00e8479f00e7af9f0000
:1030d00003003700d8479f0018002000e8af9f008a
:1030e00059f82f0089844700d9af9f007fff370030
:1030f0004af82f001b0020000a854700c4479f00a4
:10310000daaf9f00ebaf9f0078ff37004fa8970022
:10311000000cb300c0af9f00c4479f0004702000a4
:10312000cfa897000482600002053200040021004d
:10313000048260000200320062002000b2af9f00f3
:10314000cfa9970070826100050032006fa297003e
:103150004405be004404be00e4a79f0006003700fb
:10316000efa297004500be00e5a79f00a9fa07005f
:103170000004be000205be006022b8006033b80043
:103180000800be000a01be00f4f90700e00f50007d
:1031900004003d004fab97003600b300c6af9f0060
:1031a0000bf0a2000002eb000800be00c4879f00e5
:1031b0000a01be006022b8006033b8004bfa070075
:1031c000e00f50003000320084f82f000f02420060
:1031d0000800be000a01be0031fb07004f839700c4
:1031e000a40020000603e9006333b90011000900c0
:1031f0000403d800c0879f00e00f500002003d008c
:103200000000e900c0879f004f8797000e40ea004a
:10321000e9fd07000802be000a03be003dfb0700ef
:103220000002be000203be00d49f9f00e59f9f00e6
:10323000f69f9f0087a79f006022b800060020002d
:1032400007ff2300c5f90700e00f500002003d0012
:103250000e07e9000b0037006022b80006002000ce
:10326000470224005f989700ef9897007f99970096
:103270008fa19700bef90700e00f50000200350053
:103280000e07e800ce879f004faa97004f87970050
:103290000420b200b9023200e40f470003003500f9
:1032a000bfaa9700850f5700400235003fab97003b
:1032b000e00f5300020032000603e900b6af9f00a2
:1032c000bfab9700f28f53000300360024c1b30058
:1032d000c4479f00020037006fd09700c0479f008f
:1032e0006022b8006033b8000800be000a01be00ca
:1032f000fef90700e00f500063003200cf40970056
:10330000a1df9f0001405700abfd07000002be0097
:103310000203be000800be000a01be0099f90700c2
:103320000205be000004be008afa0700dafa0700b0
:103330000002be000203be000800be000a01be007b
:1033400069fb07006022b8000600200007fe23008a
:1033500087f90700e00f5000080035000800be00a4
:103360000a01be006022b8000600200007fe23000c
:10337000fdf807000004be000205be000a01be0001
:103380000800be0073fa0700afdb9700d0979f00dc
:10339000e1979f008703fb00e1b020000702e800ef
:1033a0004322dd00048040008002eb000003eb00bc
:1033b000f5979f00869f9f00a7a79f003002be0041
:1033c0002003be005f909700ef9097007f919700d9
:1033d0008f999700d4af9f00e5af9f00f6af9f0095
:1033e00087b79f000400e1000588e1000690e10036
:1033f0000798e1000b0039000800be000a01be007a
:103400000400200005002a009699290097fb23005c
:10341000c0fa07000e07e8000004be000205be0067
:1034200018003700afa09700e2b02000430add008b
:10343000040241005f909700ef9097007f91970002
:103440008f9997005403be004402be000400e100bf
:103450000588e1000690e1000798e1000a003100cc
:103460000800be000a01be006022b800060020006d
:1034700047022400a7fa07000e07e9000004be0077
:103480000205be00ce879f00ffa097003fa99700ce
:1034900065825000cfa9970002025200f4a79f0056
:1034a00063826100030032007fa297000402e900fa
:1034b000f4a79f00cfaa9700648262004700320001
:1034c00062836200850378003c029000e182630021
:1034d000e00f5300100032000404b2000800320074
:1034e0001c037800b4c2b300e08f52000100320028
:1034f00004c2e800044b7800060ee8001400370010
:10350000b0022000e08f5200010032000080e8008d
:103510008c0078000b003700e08f5200250032004d
:103520000404b200050032009c02780004c2b3001b
:10353000844a7800050ee800050037008c0078000a
:103540000002200000f80700e10f400019003200df
:103550008d06e800170037003c0090000004b20020
:10356000040032001c0078000e487800000ee800cd
:103570000d003700b4b79f00c5b79f0096b79f00f6
:10358000a7b79f008c00780000032000eef707002b
:103590003fb29700cfb297001fb39700afb3970029
:1035a000e10f4000010032008d06e8008904e900c7
:1035b000040037000802be00ffa497000ec3b3004a
:1035c0000a03be00e08f5400e3ff3c00f9a79f0010
:1035d0000605be000404be00490037004fa897004e
:1035e0006802600021003a00170037003c0090009c
:1035f0000004b200040032001c0078000e4878007d
:10360000000ee8000d003700b4b79f00c5b79f005b
:1036100096b79f00a7b79f008c007800000220009b
:10362000c9f707003fb29700cfb297001fb39700ca
:10363000afb39700e10f4000010032008d06e800b3
:103640008904e900040037000802be00ffa49700c7
:103650000ec2b3000a03be00e08f5400e3ff3c003b
:10366000f9a79f000605be000404be00cfa897007e
:103670003c02900062836000e1826000e00f530032
:10368000100032000404b200080032001c0378006d
:10369000b4c2b300e08f52000100320004c2e8005f
:1036a000044b7800060ee80014003700b00220003a
:1036b000e08f5200010032000080e8008c007800aa
:1036c0000b003700e08f52000d0032000404b200fe
:1036d000050032009c02780004c2b300844a7800de
:1036e000050ee800050037008c007800000220007d
:1036f00095f70700e10f4000010032008d06e80059
:103700000a01be000800be0092f907000002eb00ab
:103710008001eb00c49f9f00bc0290004f439700c4
:10372000909f9f00a19f9f00b39f9f000504b20040
:103730000602fb00838f520011003200e5b020002a
:103740004322dd00048242001c0478001f98970089
:10375000af9897003f999700cf9997005403be0008
:103760004402be0013fb07000043b000004c780089
:10377000080ee800e04f500010003a00100037003b
:10378000e5b020004322dd00048242001f9897002c
:10379000af9897003f999700cf9997005403be00c8
:1037a0004402be0003fb07008c0078000003b00059
:1037b00065f70700e10f4000010032008d06e800c8
:1037c000cf439700e5b020000702fb004322dd0055
:1037d000048242001f989700af9897003f99970086
:1037e000cf9997005403be004402be00f8fa0700c8
:1037f000bfac9700d0af9f00e1af9f00f2af9f003a
:1038000083b79f00e08f54006b0032003c029000b1
:103810000404b200050032009c027800e4c2b30048
:10382000844a7800050ee800050037008c00780017
:10383000e002200044f70700e10f400001003200e1
:103840008d06e8004f479700e9b020003f003700a1
:103850005fa89700efa897007fa997008fb1970006
:10386000e00f5000e08f5800e00f5900e08f590042
:1038700004003a008040eb000004eb00c1479f00c9
:103880004a0037003c0290008502fb000404b200ad
:1038900010003200c32add00858244001c04780039
:1038a0005fa89700efa897007fa997008fb19700b6
:1038b0005503be004502be00befa07000043b0003b
:1038c000004c7800080ee800e04f50000f003a006e
:1038d0000f003700c32add00858244005fa89700ef
:1038e000efa897007fa997008fb197005503be00fe
:1038f0004502be00affa07008c0078000003b0005c
:1039000011f70700e10f4000010032008d06e800ca
:103910004f4197000202fb004322dd000482440075
:103920005fa89700efa897007fa997008fb1970035
:103930005403be004402be00a5fa0700d0af9f00aa
:10394000e1af9f00f2af9f0083b79f004f42970007
:103950008442e900c5479f00e04f5200bcff3a0097
:103960000e04fb00bfaa9700088452000f00370026
:103970003c0290000404b200040032001c027800f3
:10398000094a7800040ee800050037008c00780032
:1039900000032000ecf60700e10f400001003200b8
:1039a0008d06e8000804e9000100370009c3b300f0
:1039b000e00f5400eeff3a00cfaa97003c029000bf
:1039c0000502b200080032000404b2000300320015
:1039d0009c02780054c4b300070037008c007800c4
:1039e00050042000090037000404b2000500320032
:1039f0009c02780054c6b300844a7800050ee800a3
:103a0000050037008c00780050062000cef6070035
:103a1000e10f4000010032008d06e8004f82970060
:103a2000bc029000e00f52000c003d000402ea00ce
:103a30000504b200c4879f00050032001c02780014
:103a4000d6c2b300064a7800040ee8000f00370023
:103a50008c007800d0022000090037000504b20075
:103a6000050032009c027800b4c2b300844a78009a
:103a7000050ee800050037008c007800b002200039
:103a8000b1f60700e10f4000010032008d06e800aa
:103a90003c0290004f8097000404b2000a003200fc
:103aa0009c027800a4002000110009000400d80046
:103ab0000043b000804a7800050ee800e04f500057
:103ac00009003a0009003700a40020001100090095
:103ad0000400d8008c0078000003b0009af60700bc
:103ae000e10f4000010032008d06e8003c0290002a
:103af0004f8097000404b2000a0032009c02780054
:103b0000a4002000110009000400d8000143b00007
:103b1000814a7800050ee800e0cf50000a003a0024
:103b20000a003700a4002000110009000400d8009a
:103b300000032000010040008c00780082f607009e
:103b4000e10f4000010032008d06e800cfab970086
:103b5000e8826300ab0432007fa49700e00f5400ba
:103b6000a8043400ffa4970008c2b3003c029000f0
:103b70000404b200040032001c027800084a7800f5
:103b8000040ee800050037008c00780000022000d9
:103b90006df60700e10f4000010032008d06e800dd
:103ba0008904e900f1ff3a0096043700e00f57005e
:103bb00004003d003fa897000e87ea000e00400079
:103bc000b0af9f000800be000a01be0030f8070039
:103bd0000802be00d0af9f00e1af9f00f2af9f0090
:103be00083b79f000a03be00e1b020000040eb0055
:103bf000a4a79f00b5a79f00c6a79f00d7a79f00b7
:103c00000c0037003102be003103be005fac9700ec
:103c1000efac97007fad97008fb597000440e100af
:103c200005c8e10006d0e10007d8e1000300390033
:103c30000040e800f44f5000f2ff3a000002fb00a1
:103c40002fa49700bfa497004fa59700dfa597006a
:103c50003fa8970004005000b0af9f00f80f50003d
:103c600009003c006fd09700f6fa07000002be0082
:103c70000203be000800be000a01be00baf607003b
:103c80000004be000205be006fd097004afb07008b
:103c90000002be000203be005fa89700efa89700d5
:103ca0007fa997008fb19700a4a79f00b5a79f0099
:103cb000c6a79f00d7a79f004cf807000002be00d0
:103cc0000203be000800be000a01be0006f907009c
:103cd0000002be000203be002fa09700bfa0970005
:103ce0004fa19700dfa197008af80700e8f70700c7
:103cf0000802be000a03be003faf9700d4af9f008a
:103d0000e5af9f00f6af9f0087b79f000205be009a
:103d10000004be00090037000800be000a01be0012
:103d2000a4002000050020006033b800a1f90700be
:103d30000e07e9000205be000004be00e00f5700b8
:103d40001b003200a4002000050020006033b800f2
:103d50000800be000a01be009df90700e00f5000f8
:103d6000e08f5800e00f5900e08f5900eaff320061
:103d70008e027800b5af9f000f0037003fab970071
:103d8000f80f530010003c0006407800adfa070021
:103d90000002be000203be000800be000a01be0011
:103da00071f607000004be000205be0006003700e1
:103db0008e037800b7af9f005fac9700efac970021
:103dc0007fad97008fb597004f879700e90f570099
:103dd00011003c006022b8006033b8000800be004b
:103de0000a01be0041f70700e00f50002c0032002e
:103df0000800be000a01be00a5f70700e00f500052
:103e0000e08f5800e00f5900e08f590024003a007d
:103e1000e10f5700220034000400200005002e00ae
:103e2000b6e02200170124005f989700ef989700f2
:103e30007f9997008fa19700c8f60700e00f500008
:103e400002003d007307570001003700720757005a
:103e5000ce879f000f489700d7fa07000002be00e8
:103e60000203be000800be00d49f9f00e59f9f0094
:103e7000f69f9f0087a79f000a01be006044b8001c
:103e80006055b800bff6070081f70700d0af9f006c
:103e9000e1af9f00f2af9f0083b79f001100370092
:103ea0000800be000a01be0079f70700d0af9f00ee
:103eb000e1af9f00f2af9f0083b79f00cbf70700f1
:103ec0000002be000203be000800be000a01be00e0
:103ed00085f807000002eb00c4879f000004be00c5
:103ee0000205be000802be000a03be0061b1200048
:103ef00010c0b300d4b79f00e5b79f00f6b79f008e
:103f000087bf9f00100037003104be003105be009e
:103f10005faa9700efaa97007fab97008fb3970037
:103f2000a8a79f00b9a79f00caa79f00dba79f0073
:103f30000820e10009a8e1000ab0e1000bb8e100a7
:103f4000030039000040e800f44f5000eeff3a0053
:103f50004f829700ffa297003fab97000482520068
:103f60005fb49700efb497007fb597008fbd9700bf
:103f700006075200c0479f000002fb0004075700dd
:103f8000e00f5300010032000e07e900cfab9700ad
:103f900063826300010032000e07e9004fa897001a
:103fa000640260003b00320062026000e1026000d7
:103fb000e00f5200110032003c0290000404b200f5
:103fc000080032001c037800b4c2b300e08f520036
:103fd0000100320004c2e800044b7800060ee8003d
:103fe00015003700b0022000e08f520001003200bf
:103ff0000080e8008c0078000c003700e08f520051
:10400000200032003c0290000404b200050032009f
:104010009c02780004c2b300844a7800050ee800d0
:10402000050037008c0078000002200046f50700ec
:10403000e10f4000130032008d06e8001100370048
:104040003c0290000404b200040032001c0278001c
:10405000054a7800040ee80007003700c5b79f0046
:104060008c0078000003200037f50700cfb29700de
:10407000e10f4000010032008d06e8000e07e90064
:104080000100370005c3b300e00f5700ecff3c0010
:104090006b003700cfa897006882600015003a00d7
:1040a000110037003c0290000404b200040032000a
:1040b0001c027800054a7800040ee800070037006b
:1040c000c5b79f008c007800000220001ef5070095
:1040d000cfb29700e10f4000010032008d06e800ea
:1040e0000e07e9000100370005c2b300e00f5700da
:1040f000ecff3c004fa9970062026100e102610001
:10410000e00f5200110032003c0290000404b200a3
:10411000080032001c037800b4c2b300e08f5200e4
:104120000100320004c2e800044b7800060ee800eb
:1041300015003700b0022000e08f5200010032006d
:104140000080e8008c0078000c003700e08f5200ff
:104150003b0032003c0290000404b2000500320033
:104160009c02780004c2b300844a7800050ee8007f
:10417000050037008c00780000022000f2f40700f0
:10418000e10f40002e0032008d06e8002c003700c1
:104190003c0290008502fb000404b20013003200d0
:1041a000e4b02000c32add00850242009c017800b3
:1041b0005503be004502be00d3af9f000800be00fd
:1041c0000a01be007bf80700a400200005002000c3
:1041d0006033b8007ef80700dfaa970006c3b3007b
:1041e000864a4000050ee80013003700e7b02000c3
:1041f000c32add00858243000800be000a01be001c
:104200005503be004502be006af80700a400200066
:10421000050020006033b8006df807008c007800be
:10422000040320000002420004007800c6f40700e6
:10423000e10f40000c0032008d06e8000a00370054
:104240000800be000a01be005fac9700efac97000b
:104250007fad97008fb59700f0a79f0081af9f00bb
:1042600092af9f00a3af9f004f4297008442e900a6
:10427000c5479f00e04f5200c5ff3a0013003700ca
:104280003c0290000404b200040032001c027800da
:10429000054a7800040ee80007003700c5b79f0004
:1042a0008c00780000032000a7f40700cfb297002d
:1042b000e10f4000010032008d06e8004f829700b8
:1042c0000402e900c4879f00050037007fa497001f
:1042d0008fac97001fad9700afad970005c3b3003b
:1042e0004f829700e00f5200e5ff3c00bfa8970007
:1042f000f28f50000300340024c1b300c4479f0074
:10430000020037006fd19700c2479f00bfa99700f6
:10431000cf4297000502fb0004825100b4af9f001a
:10432000e0cf52000e0032003c0290000404b200c4
:10433000050032009c027800e4c2b300844a780091
:10434000050ee800050037008c007800e002200030
:104350007df40700e10f4000010032008d06e80007
:104360004f40970094f907000002be000203be0010
:104370000800be000a01be00e9b02000e5f6070013
:1043800043f60700d0af9f00e1af9f00f2af9f0060
:1043900083b79f00380037003c0290008502fb0085
:1043a0000404b20012003200c32add0085824400fa
:1043b0001c0478005503be004502be005fa89700ac
:1043c000efa897007fa997008fb19700f9f7070032
:1043d000a4002000050020006033b800fcf70700af
:1043e00005c3b300054c4000080ee800120037007a
:1043f000c32add00858244005fa89700efa89700dc
:104400007fa997008fb197005503be004502be00fb
:10441000e8f70700a4002000050020006033b80082
:10442000ebf707008c0078000003b00046f40700ab
:10443000e10f4000010032008d06e8004f43970075
:104440000602fb004322dd00048244005fa89700bf
:10445000efa897007fa997008fb197005403be0083
:104460004402be00daf70700d0af9f00e1af9f0023
:10447000f2af9f0083b79f004f4297008442e9004c
:10448000c5479f00e04f5200c3ff3a000f003700be
:104490003c0290000404b200040032001c027800c8
:1044a000084a7800040ee800050037008c00780008
:1044b0000003200024f40700e10f40000100320057
:1044c0008d06e8008904e90002003700bfac9700c0
:1044d00008c3b300e08f5400edff3a004fab9700e4
:1044e000e802630047023200e00f57004502340043
:1044f00008c2b3003c0290000404b2000400320081
:104500001c027800084a7800040ee8000500370015
:104510008c007800000220000bf40700e10f40003f
:10452000010032008d06e8000e07e900f1ff3a00b5
:1045300034023700cfaa9700050cb20040003a00c1
:10454000cfab9700e08f530005003d006fa09700b0
:104550004005be004004be00e0a79f0011003700e8
:10456000cfa8970070826000130032006fa29700fe
:104570004401be0084027800c28f9f00d38f9f0049
:10458000e4a79f00150290004fa2de00e48f9f0079
:10459000f48f9f004f8c9700df8c97006f8d9700f2
:1045a000ff8d9700d8af9f00e9af9f00faaf9f0043
:1045b0008bb79f000b003700efa4970049027800eb
:1045c00004007800cf80de000101780082017800cd
:1045d000e9a79f00d0af9f00e1af9f00f2af9f001f
:1045e00083b79f005faa9700efaa97007fab970061
:1045f0008fb39700e00f5200e08f5a00e00f5b008e
:10460000e08f5b0034003d00cfaa97005fac9700bd
:10461000efac97007fad97008fb597003500b300e2
:10462000c5af9f006022b8006033b8000804520094
:1046300089845a000a055b008b855b0022003700e5
:10464000cfac9700e08f540005003d006fa29700ab
:104650004401be004400be00e4a79f000e003700e6
:104660004fab9700f0026300100032006fa5970077
:104670004a04be00a48f9f00888f9f00998f9f00df
:10468000b48f9f000f8897009f8897002f8997000d
:10469000bf899700eaa79f00d0af9f00e1af9f00be
:1046a000f2af9f0083b79f000b003700efa0970089
:1046b00041027800e1a79f0004047800090020006f
:1046c0000a0020000b002000d8af9f00e9af9f0038
:1046d000faaf9f008bb79f00bfac9700e08f5400ec
:1046e0000d003a001a0020005fa89700efa897007d
:1046f0007fa997008fb19700baaf9f00e00f5000dd
:10470000e08f5800e00f5900e08f5900020032009e
:104710008000eb00b1af9f004fa997000404200078
:10472000020cb200a2a79f00840f51003400320097
:1047300003003c00e00f5100080032004800370041
:1047400004082000afa19700848f510014003200ac
:10475000040c2000848f510041003a0061b1200018
:1047600010c0b3003102be003103be005fac970041
:10477000efac97007fad97008fb597000440e10044
:1047800005c8e10006d0e10007d8e1003300390098
:104790000040e800f44f5000f2ff3a002f003700cd
:1047a00010c0b30004012000050020006033b800f1
:1047b0005fac9700efac97007fad97008fb5970087
:1047c0000440e10005c8e10006d0e10007d8e1009f
:1047d00022003900490020000402d0008582d20066
:1047e0000683d2008783d2008904e900faff3a00e9
:1047f0000040e800f04f5000edff3a00170037008e
:1048000010c0b30084002000050020006033b80011
:104810005fac9700efac97007fad97008fb5970026
:104820000440e10005c8e10006d0e10007d8e1003e
:104830000a003900390020000402d0008582d2002d
:104840000683d2008783d2008904e900faff3a0088
:104850000040e800f54f5000edff3a00c0479f00d0
:104860004f459700bfad97000a02fb008b0f520027
:1048700002003d00cb479f00040037003fa897008f
:10488000840f500001003d00b4af9f00ffa09700cf
:10489000e08f5000050032004fa9970063026100cd
:1048a000020032008100e900f1a79f00040024000b
:1048b000cfa9970004826100090032007fa297000f
:1048c000bfaa9700850f5200030034000502520072
:1048d000f4a79f00020037000003eb00f6a79f003b
:1048e000cf4397000007eb000702fb007fa497006f
:1048f000840f54000100340004075400cfac97002b
:10490000648264003800320062826400e1826400e4
:10491000e00f5200110032003c0290000404b2008b
:10492000080032001c037800b4c2b300e08f5200cc
:104930000100320004c2e800044b7800060ee800d3
:1049400015003700b0022000e08f52000100320055
:104950000080e8008c0078000c003700e08f5200e7
:104960000e0032003c0290000404b2000500320048
:104970009c02780004c2b300844a7800050ee80067
:10498000050037008c00780000022000eef20700de
:10499000e10f4000010032008d06e800e00f5700f3
:1049a0004c00320008c3b3003c0290000404b20083
:1049b000040032001c027800084a7800040ee80067
:1049c000050037008c00780000032000def20700ad
:1049d000e10f4000010032008d06e8000e07e900fb
:1049e000f1ff3a003b003700e00f570013003200a0
:1049f0004fad97006802650010003a0008c2b3008e
:104a00003c0290000404b200040032001c02780052
:104a1000084a7800040ee800050037008c00780092
:104a200000022000c8f20700e10f40000100320040
:104a30008d06e8000e07e900f1ff3a00cfad9700c0
:104a400062826500e1826500e00f520011003200d1
:104a50003c0290000404b200080032001c037800fd
:104a6000b4c2b300e08f52000100320004c2e8007b
:104a7000044b7800060ee80015003700b002200055
:104a8000e08f5200010032000080e8008c007800c6
:104a90000c003700e08f52000e0032003c02900004
:104aa0000404b200050032009c02780004c2b30086
:104ab000844a7800050ee800050037008c00780075
:104ac00000022000a0f20700e10f400001003200c8
:104ad0008d06e8003fa89700cfa997000003e900e2
:104ae000f08161006332b900c230dd00040178005a
:104af000cfaa97004332dd000502b200e6b02000e5
:104b0000f1a79f000602420082979f000e037800e3
:104b1000f3879f00e5879f00d6879f0004077800f2
:104b20009f003700bfab97002fa497008703e900d1
:104b300009042000b7af9f00890f540071003200b4
:104b400003003c00e00f5400080032007c003700f6
:104b5000040820002fa59700840f55005400320050
:104b6000040c2000840f550075003a00cfad97006b
:104b7000e08f55001e003d003e04be002e05be0025
:104b80005fa89700efa897007fa997008fb19700c3
:104b90000802be000a03be0006f607000802be00b7
:104ba0000a03be00c0479f000000fb00cf80de006c
:104bb000010178008201780067f607005faa97007c
:104bc000efaa97007fab97008fb3970000025200c7
:104bd00081825a0002035b0083835b00d4af9f0095
:104be000e5af9f00f6af9f0087b79f002c0037000e
:104bf000ff829700e08f5200210032005faa9700e9
:104c0000efaa97003e04be002e05be000400be00c1
:104c10000801be00b4b79f00c5b79f00baf10700f6
:104c20000801be00c0479f000004eb000000fb002d
:104c3000cf80de002ef507003fb29700cfb297007d
:104c4000c8979f000003520081835a0096979f00e7
:104c5000a7979f008003eb00b7979f001f909700d6
:104c6000af9097003f919700cf919700d0af9f00f2
:104c7000e1af9f00f2af9f0083b79f0008003700ad
:104c80001e0278005fa99700110009000481d80076
:104c9000a4002000110009000480d800c1479f0033
:104ca000cf4197000343b000c3479f002400370063
:104cb000f4bb2000ef829700e08f52000100320029
:104cc000e4ba20005fa89700efa897007fa997009b
:104cd0008fb197007fa397000603e900050033001a
:104ce0008301d1000281d3008180d3000080d300f2
:104cf000f9ff37006f00600064407800c0479f00f4
:104d00000f0037005faa9700efaa97007fab9700cc
:104d10008fb397000f9497000804e9000500330053
:104d20008703d1000683d3008582d3000482d30099
:104d3000f9ff3700674262000443b000c4479f0098
:104d40003c0290000404b200070032009c0278008c
:104d50004f429700844a7800050ee800e04f520069
:104d600007003a0007003700cf4497008c00780016
:104d70000900fb00f4f10700e10f400001003200e0
:104d80008d06e8007fa597008f9597006405550074
:104d9000e3855500faa79f008b979f00680757008f
:104da0003fa89700e00f50005eff3a00cfa89700a1
:104db0005f879700e882600012003200e00f570022
:104dc0001000340008c2b3003c0290000404b2009a
:104dd000040032001c027800084a7800040ee80043
:104de000050037008c00780000022000d6f1070093
:104df000e10f4000010032008d06e8000e07e900d7
:104e0000f1ff3a001fa1970012407800c0479f00b1
:104e1000e04f500058f73a004f0778000d00780037
:104e20004f06be004f05be004f04be000f07b10085
:044e30000000060078
:020000040000fa
:104e34000a4d0000505500003630000035300000a7
:104e440020530000657400007570000020430000ca
:104e54006f6d0000706c0000657400006500000058
:104e64000a4900003243000020520000656100003e
:104e7400642000005465000073740000205000009a
:104e84006173000073650000642c0000204d000075
:104e9400505500003630000035300000204100003d
:104ea4006464000072650000737300003a2000001f
:104eb40030780000257800000045000052520000c0
:104ec4004f5200003a200000493200004320000005
:104ed4005265000061640000205400006573000006
:104ee4007420000046610000696c000065640000e5
:104ef4002c200000537400006f70000070690000e3
:104f04006e670000000a0000526500006769000037
:104f1400737400006572000020630000686500007f
:104f2400636b00002031000020660000616900000e
:104f34006c650000642c000020760000616c0000a9
:104f44007565000020730000686f0000756c000038
:104f5400642000006265000020300000783000000a
:104f6400312c000020770000617300002030000025
:104f740078250000780000000a52000065670000f0
:104f8400697300007465000072200000636800000b
:104f9400656300006b2000003220000066610000a1
:104fa400696c0000656400002c200000766100003c
:104fb4006c75000065200000736800006f750000c8
:104fc4006c6400002062000065200000307800005e
:104fd400303300002c2000007761000073200000b3
:104fe4003078000025780000000a000052650000b7
:104ff400676900007374000065720000206300009c
:1050040068650000636b0000203300002066000028
:10501400616900006c650000642c000020760000cb
:10502400616c00007565000020730000686f00006b
:10503400756c0000642000006265000020300000f0
:1050440062300000303000003031000030300000a9
:10505400302c000020770000617300002030000035
:1050640078250000780000000a52000065670000ff
:10507400697300007465000072200000636800001a
:10508400656300006b2000003420000066610000ae
:10509400696c0000656400002c200000766100004b
:1050a4006c75000065200000736800006f750000d7
:1050b4006c64000020620000652000003062000083
:1050c400303000003030000031300000303000005b
:1050d4002c2000007761000073200000307800006d
:1050e40025780000000a000052650000676900008e
:1050f400737400006572000020630000686500009e
:10510400636b000020350000206600006169000028
:105114006c650000642c000020760000616c0000c7
:105124007565000020730000686f0000756c000056
:105134006420000062650000203000007830000028
:10514400302c000020770000617300002030000044
:1051540078250000780000000a520000656700000e
:105164006973000074650000722000006368000029
:10517400656300006b2000003620000066610000bb
:10518400696c0000656400002c200000766100005a
:105194006c75000065200000736800006f750000e6
:1051a4006c6400002062000065200000307800007c
:1051b400303000002c2000007761000073200000d4
:1051c4003078000025780000000a000052650000d5
:1051d40067690000737400006572000020630000ba
:1051e40068650000636b0000203700002066000043
:1051f400616900006c650000642c000020760000ea
:10520400616c00007565000020730000686f000089
:10521400756c00006420000062650000203000000e
:1052240078300000302c000020770000617300000b
:105234002030000078250000780000000a520000a9
:105244006567000069730000746500007220000047
:1052540063680000656300006b20000038200000d4
:1052640066610000696c0000656400002c20000089
:10527400766100006c750000652000007368000012
:105284006f7500006c64000020620000652000005f
:1052940030780000303000002c20000077610000de
:1052a400732000003078000025780000000a000018
:1052b40052650000676900007374000065720000a5
:1052c4002063000068650000636b00002039000063
:1052d40020660000616900006c650000642c000019
:1052e40020760000616c00007565000020730000ea
:1052f400686f0000756c00006420000062650000a7
:105304002030000078300000302c000020770000ae
:105314006173000020300000782500007800000050
:105324000a5200006567000069730000746500009c
:105334007220000063680000656300006b200000b9
:105344003130000020660000616900006c650000d7
:10535400642c000020760000616c0000756500007c
:1053640020730000686f0000756c0000642000006a
:10537400626500002030000078300000302c00000e
:1053840020770000617300002030000078250000c1
:10539400780000000a52000065670000697300008d
:1053a40074650000722000006368000065630000fb
:1053b4006b200000313100002066000061690000ac
:1053c4006c650000642c000020760000616c000015
:1053d4007565000020730000686f0000756c0000a4
:1053e4006420000062650000203000007830000076
:1053f400302c000020770000617300002030000092
:1054040078250000780000000a520000656700005b
:105414006973000074650000722000006368000076
:10542400656300006b20000031320000206600003c
:10543400616900006c650000642c000020760000a7
:10544400616c00007565000020730000686f000047
:10545400756c0000642000006265000020300000cc
:1054640078300000302c00002077000061730000c9
:105474002030000078250000780000000a52000067
:105484006567000069730000746500007220000005
:1054940063680000656300006b2000003133000086
:1054a40020660000616900006c650000642c000047
:1054b40020760000616c0000756500002073000018
:1054c400686f0000756c00006420000062650000d5
:1054d4002030000078300000302c000020770000dd
:1054e400617300002030000078250000780000007f
:1054f4000a520000656700006973000074650000cb
:105504007220000063680000656300006b200000e7
:105514003134000020660000616900006c65000001
:10552400642c000020760000616c000075650000aa
:1055340020730000686f0000756c00006420000098
:10554400626500002030000078300000302c00003c
:1055540020770000617300002030000078250000ef
:10556400780000000a5200006567000069730000bb
:105574007465000072200000636800006563000029
:105584006b200000313500002066000061690000d6
:105594006c650000642c000020760000616c000043
:1055a4007565000020730000686f0000756c0000d2
:1055b40064200000626500002030000078300000a4
:1055c400302c0000207700006173000020300000c0
:1055d40078250000780000000a520000656700008a
:1055e40069730000746500007220000063680000a5
:1055f400656300006b200000313600002066000067
:10560400616900006c650000642c000020760000d5
:10561400616c00007565000020730000686f000075
:10562400756c0000642000006265000020300000fa
:1056340078300000302c00002077000061730000f7
:105644002030000078250000780000000a52000095
:105654006567000069730000746500007220000033
:1056640063680000656300006b20000031370000b0
:1056740020660000616900006c650000642c000075
:1056840020760000616c0000756500002073000046
:10569400686f0000756c0000642000006265000003
:1056a4002030000078300000302c0000207700000b
:1056b40061730000203000007825000078000000ad
:1056c4000a520000656700006973000074650000f9
:1056d4007220000063680000656300006b20000016
:1056e4003138000020660000616900006c6500002c
:1056f400642c000020760000616c000075650000d9
:1057040020730000686f0000756c000064200000c6
:10571400626500002030000078300000302c00006a
:10572400207700006173000020300000782500001d
:10573400780000000a5200006567000069730000e9
:105744007465000072200000636800006563000057
:105754006b20000031390000206600006169000000
:105764006c650000642c000020760000616c000071
:105774007565000020730000686f0000756c000000
:1057840064200000626500002030000078300000d2
:10579400302c0000207700006173000020300000ee
:1057a40078250000780000000a52000065670000b8
:1057b40069730000746500007220000063680000d3
:1057c400656300006b20000032300000206600009a
:1057d400616900006c650000642c00002076000004
:1057e400616c00007565000020730000686f0000a4
:1057f400756c000064200000626500002030000029
:1058040078300000302c0000207700006173000025
:105814002030000078250000780000000a520000c3
:105824006567000069730000746500007220000061
:1058340063680000656300006b20000032310000e3
:1058440020660000616900006c650000642c0000a3
:1058540020760000616c0000756500002073000074
:10586400686f0000756c0000642000006265000031
:105874002030000078300000302c00002077000039
:1058840061730000203000007825000078000000db
:105894000a52000065670000697300007465000027
:1058a4007220000063680000656300006b20000044
:1058b4003232000020660000616900006c6500005f
:1058c400642c000020760000616c00007565000007
:1058d40020730000686f0000756c000064200000f5
:1058e400626500002030000078300000302c000099
:1058f400207700006173000020300000782500004c
:10590400780000000a520000656700006973000017
:105914007465000072200000636800006563000085
:105924006b20000032330000206600006169000033
:105934006c650000642c000020760000616c00009f
:105944007565000020730000686f0000756c00002e
:105954006420000062650000203000007830000000
:10596400302c00002077000061730000203000001c
:1059740078250000780000000a52000065670000e6
:105984006973000074650000722000006368000001
:10599400656300006b2000003234000020660000c4
:1059a400616900006c650000642c00002076000032
:1059b400616c00007565000020730000686f0000d2
:1059c400756c000064200000626500002030000057
:1059d40078300000302c0000207700006173000054
:1059e4002030000078250000780000000a520000f2
:1059f4006567000069730000746500007220000090
:105a040063680000656300006b200000323500000d
:105a140020660000616900006c650000642c0000d1
:105a240020760000616c00007565000020730000a2
:105a3400686f0000756c000064200000626500005f
:105a44002030000078300000302c00002077000067
:105a54006173000020300000782500007800000009
:105a64000a52000065670000697300007465000055
:105a74007220000063680000656300006b20000072
:105a84003236000020660000616900006c65000089
:105a9400642c000020760000616c00007565000035
:105aa40020730000686f0000756c00006420000023
:105ab400626500002030000078300000302c0000c7
