:020000040000fa
:080000000002040000000000f2
:020000040000fa
:1000080090020000900200009002000090020000a0
:100018009002000090020000900200009002000090
:1000280090020000d6390000900200001032000053
:1000380090020000203a00009002000090020000a8
:1000480090020000900200009002000010390000a9
:100058003439000090020000900200009002000075
:100068009002000090020000900200009002000040
:1000780090020000900200006a3a0000b43a0000c2
:100088009002000090020000900200009002000020
:100098009002000090020000900200009002000010
:1000a8009002000090020000900200009002000000
:1000b80090020000900200009002000090020000f0
:1000c80090020000900200009002000090020000e0
:1000d80090020000900200009002000090020000d0
:1000e80090020000900200009002000090020000c0
:1000f80090020000900200009002000090020000b0
:10010800900200009002000090020000900200009f
:10011800900200009002000090020000900200008f
:10012800900200009002000090020000900200007f
:10013800900200009002000090020000900200006f
:10014800900200009002000090020000900200005f
:10015800900200009002000090020000900200004f
:10016800900200009002000090020000900200003f
:10017800900200009002000090020000900200002f
:10018800900200009002000090020000900200001f
:10019800900200009002000090020000900200000f
:1001a80090020000900200009002000090020000ff
:1001b80090020000900200009002000090020000ef
:1001c80090020000900200009002000090020000df
:1001d80090020000900200009002000090020000cf
:1001e80090020000900200009002000090020000bf
:0801f8009002000090020000db
:020000040000fa
:10020800900200009002000090020000900200009e
:10021800900200009002000090020000900200008e
:1002280090020000d6390000900200001032000051
:1002380090020000203a00009002000090020000a6
:1002480090020000900200009002000010390000a7
:100258003439000090020000900200009002000073
:10026800900200009002000090020000900200003e
:1002780090020000900200006a3a0000b43a0000c0
:10028800900200009002000090020000900200001e
:10029800900200009002000090020000900200000e
:1002a80090020000900200009002000090020000fe
:1002b80090020000900200009002000090020000ee
:1002c80090020000900200009002000090020000de
:1002d80090020000900200009002000090020000ce
:1002e80090020000900200009002000090020000be
:1002f80090020000900200009002000090020000ae
:10030800900200009002000090020000900200009d
:10031800900200009002000090020000900200008d
:10032800900200009002000090020000900200007d
:10033800900200009002000090020000900200006d
:10034800900200009002000090020000900200005d
:10035800900200009002000090020000900200004d
:10036800900200009002000090020000900200003d
:10037800900200009002000090020000900200002d
:10038800900200009002000090020000900200001d
:10039800900200009002000090020000900200000d
:1003a80090020000900200009002000090020000fd
:1003b80090020000900200009002000090020000ed
:1003c80090020000900200009002000090020000dd
:1003d80090020000900200009002000090020000cd
:1003e80090020000900200009002000090020000bd
:0803f8009002000090020000d9
:020000040000fa
:10040000efb020000e7f24000e01880000000000e5
:100410000c000700c0542300010020001100070059
:10042000000020000000e000020032000000020096
:1004300000000000e83b0200000000000040da007d
:100440000000fe004440a900800a20000000e000f7
:100450000300320000002000a00188004440a800f2
:100460000000060091018800800078000000eb0089
:1004700015003700e280400032a0b4009101ba00bc
:10048000e280400032a0b4009102ba00e280400055
:1004900032a0b4000002eb00472bde00f507b200eb
:1004a000602ce10004003a000059eb008301e900f0
:1004b000fdff3e00040037006128e100010032002a
:1004c0000082eb00040007001101ba000200e00006
:1004d000e8ff3a00000006003159ba008301e90044
:1004e0000c0032002159ba008301e90008003200f3
:1004f0000400e00003003a00e280400032a0b400b3
:10050000f5ff370011d9ba008301e900faff3a007c
:100510008100e800e180400032a0b4000000060045
:100520000040da000000fe008420a900670160009e
:100530004411dd0023058000f1f82f008180610067
:100540008280700021058800680060004300de00a2
:100550006100600080004000a00480000010a10045
:1005600001007000a00488000000060084a0a9001b
:10057000670160004411dd0033058000f1f82f00b1
:100580008180610082807000310588006800600011
:10059000c300de00e1806000c508dd00a00480002b
:1005a0000050a10001007000a004880000000600b7
:1005b00086c0a900670160004811dd007305800056
:1005c000f18f2f00818061008280700071058800aa
:1005d00068006000c300de00e1806000c608dd0046
:1005e000b00480000060a10001007000b004880029
:1005f0000000060086e0a900670160004c11dd00e4
:1006000073058000f1ff2800818061008280700006
:100610007105880068006000c300de00e1806000b2
:10062000c708dd00b00480000070a1000100700068
:10063000b004880000000600100a880000000600d0
:10064000300a880000000600d00a8800000006007a
:10065000f00a8800000006008440a90067016000dd
:100660004811dd0023058000f18f2f00818061009b
:10067000828070002105880068006000c300de00f1
:10068000e1806000c208dd00a00480000020a1001d
:1006900001007000a00488000000060084c0a900ca
:1006a000670160004811dd0033058000f18f2f00e5
:1006b00081806100828070003105880068006000e0
:1006c000c300de00e1806000c608dd00a0048000f9
:1006d0000060a10001007000a00488000000060076
:1006e0008720a900670160004411dd0083058000b8
:1006f000f1f82f0081806100828070008105880000
:1007000068006000c300de00e1806000c908dd0011
:10071000b00480000090a10001007000b0048800c7
:10072000000006008740a900670160004811dd0055
:1007300083058000f18f2f0081806100828070002e
:100740008105880068006000c300de00e180600071
:10075000ca08dd00b004800000a0a1000100700004
:10076000b00488000000060083ff2f008001fd0018
:100770008421b6008001fd00010c8800120c880065
:10078000200c88000000060083ff2f008001fd0080
:100790008a21b6008001fd00310c8800420c8800df
:1007a000500c88000000060083ff2f008001fd0030
:1007b0009021b6008001fd00610c8800720c880059
:1007c000800c88000000060083ff2f008001fd00e0
:1007d0009621b6008001fd00910c8800a20c8800d3
:1007e000b00c8800000006008460a900670160006a
:1007f0004c11dd0023058000f1ff2800818061009d
:10080000828070002105880068006000a1048000db
:100810000130a10080807000a10488000000060063
:100820000021ef0011088800200888000000060061
:100830000621ef0061088800800888001061a90087
:10084000000006000a21ef00710888009008880067
:10085000000006000008880000000600300888003c
:1008600000000600500888000000060011118000fa
:100870000110b20010c0b300010032000040eb00d4
:10088000000006008560a9008580a900670160005e
:100890004c11dd0043058000f1ff280081806100dc
:1008a0008280700041058800000178000207b200d4
:1008b0004411de005305800081ff2f00818061001c
:1008c0008280700051058800680160004311de00dd
:1008d000610161004b11dd00a104800001b0a100a5
:1008e00082807000a10488000008b2004700de008a
:1008f000610060004c00dd00a104800001c0a10087
:1009000080807000a10488000000060010118000a3
:10091000614060000000060042118800001188005c
:1009200011118800000006000011800066006000c0
:10093000e60f500002003a0030118000000006006f
:1009400030118000f00fb20000000600011180009d
:10095000e6806000e68f500001003200f00fb20028
:10096000201188000000060001118000e680600070
:10097000e68f50000e003a00040037002322ab003f
:10098000feff3a00221188000080e8001001780084
:10099000e00f5100f9ff3a00000006002322ab00ef
:1009a000feff3a008100fb00211188000000e800f2
:1009b00090407800e0cf5000f8ff3a0000000600b9
:1009c00003f0a200889fbe008a9fbe008c1f7800a3
:1009d000ac010700b30133006450e1004f00320066
:1009e0006420e1005200320003826c0007003b00eb
:1009f0000905d0000306d000820f54000c065d00ec
:100a000002003900020032008901780003067800f4
:100a10008582550004003d000003fd008103fd00b8
:100a20008502ea008b854200840f720002003b00c1
:100a300060001000e08018006011b8000005eb00b5
:100a40007a28e1000a00390006007800c75ddd0061
:100a5000f707b200878075002d0037008281710092
:100a60000a017800610560008180d1000080d30018
:100a70008502e900f9ff3b00060440008784480036
:100a800002003b0060041400e0841c000988a300fd
:100a9000070032008a817100828171006101640067
:100aa0008904d1000884d3008b05e80017003700c3
:100ab0000978a30013003a000b00e0001300340093
:100ac0008b05e9000804440089844c000a44740042
:100ad0000978a3000d003a000b00e0000700340085
:100ae0008b05e9000804440089844c0001003a00a9
:100af0000b0020000978a300f7ff32000001eb0093
:100b000002003700828171000a017800220107008b
:100b10000cf0a70001f0a0006b0137006420e10099
:100b200002003a00838f6c006b0133000801be00a5
:100b30000200be0064013700889fbe008a9fbe008d
:100b40008c1f78004f0107001002200002003b00bc
:100b500030468800530137008a0062006408e100d3
:100b600002003a00304688005b0137006108e1006e
:100b7000fcff32000800be0003047800700007008c
:100b800001f0a1000900070008f0a60004003700ea
:100b90000001be0091042400b0fd200088ff070082
:100ba00009f0a70001f0a20047013700889fbe00ae
:100bb0008a9fbe008c9fbe000004be001c0107007f
:100bc0000800be00890678006420e10008003900b2
:100bd000040032000160a0001202200032468800aa
:100be0005300370091fc2300b0fd20004e00370079
:100bf0000006eb0009f0a10003f82300020020002a
:100c00000800be009f0007000600340001f8230022
:100c1000000020000801be00490007000004be00db
:100c20002c0020000800be0093e82300320a2300b5
:100c300094000700120034000801be00d1fd23001b
:100c4000703d2b005fff07000005be00b3f32300db
:100c5000f27a26000800be003101070003f82300e5
:100c60000200200056ff07000801be0055ff0700e4
:100c70000a01be00320007000004be000c06e800b6
:100c80000800be0001f0a10002002000039823002c
:100c90007c0007000800be00160035000801be00f9
:100ca0001f0107000005be0032cd2c0043fb2300ce
:100cb00044ff0700809fbe001269280003d52b0067
:100cc0000a00be0016010700620f210013ef2b007f
:100cd0003cff07000a01be00110107004f01be00e2
:100ce000170007000801be000d0107000801be0043
:100cf00034ff07000c00e0000b0032000c10a700ce
:100d000001f0a200b2fd200093fc23006260e1002c
:100d10000400320022a9200063f023000c10a70079
:100d200063f8230027ff07000df0a70001f0a200e1
:100d30004f06be004f05be004f04be000000060077
:100d4000889fbe008a9fbe008c1f7800cd000700e0
:100d5000d400330003866c006450e1002e003200a2
:100d60006420e100330032006150e1002f003200c6
:100d70006120e1003100320085855500eb07b000ad
:100d80000900200008042000050037000804440082
:100d900089844c000a0031000603430087834b001e
:100da0000001530081815b00f8ff33000203be00a5
:100db0000800a0000804440089844c00f6ff3900b4
:100dc000c639dd00830173000100320013002000ea
:100dd0008904d1000884d3000998a30005003200db
:100de0000800a7000300a0008904d1000884d300f4
:100df0008b05e8008904d1000884d3000001eb00d2
:100e00000281d2006400070001f0a1000cf0a700ed
:100e100001f0a000ac0037006420e100ae00320019
:100e20000801be000200be00f7ff37006120e100ac
:100e3000a90032006000b800f3ff37000000200076
:100e400001f82700f0ff3700839f68000100e000f1
:100e500002003d0060001000e08018000300e00088
:100e600002003d0060011100e0811900e000070070
:100e70004f00e00002003b0060001000e08018001e
:100e80000000060014002000ec003700f4ff2f00e3
:100e9000ea0037000001be00650007000470a700eb
:100ea00003f0a1006509b100160032000d00350005
:100eb0006828e10006003500f0ff2f00f1ff270051
:100ec0000300e00013003b000100280000000500c3
:100ed00000004000818048008502e900fcff3a00e4
:100ee00008003700f88f420002003c008000eb0051
:100ef000000005008100d1000080d3008502e800d9
:100f0000fcff3a000300e00002003b00600010001c
:100f1000e0801800000006000001be004400070049
:100f20000470a70003f0a10003f8a30013003a0027
:100f30006509b10010003200090035006928e100a0
:100f400002003500010028000000050000004000fc
:100f5000818048008502e900fcff3a00000006009d
:100f6000f88f4200050035008100d1000080d300d9
:100f70008502e800fcff3a00000006008000eb005c
:100f8000000005004f89de0082017800c6003700ae
:100f90006011b800d4003700810020006180550046
:100fa0000b003d000b00200061fe2f000100e1005e
:100fb0001d00340082817100610164008904d10048
:100fc0000884d3000000e800faff3a007100200016
:100fd000610064000300700002006000090032003c
:100fe00061044400e0844c000988a500050032003b
:100ff0008b05e8006808e10002003a008904d1008e
:101000000884d300f20f20000258e10005003d00e3
:10101000c75ddd00f907b20089807500080078001f
:10102000000006000bf827008b0078000000050088
:10103000c70ade00f107b200f50fb2000800320067
:10104000e1cf4200020032000170a0002400050040
:10105000810f700001003200040805004400050003
:10106000810f700002003a00140005008502e900bb
:101070000000400081c04800fcff3b000170a00060
:10108000240005000004be00e9ff07000003be00c5
:101090000405be000200be00e5ff0700844f750096
:1010a000000006000200be006450e10005003600aa
:1010b0006420e100020036000968a30001003a0044
:1010c0000800be000160a0004f0678004f05be007a
:1010d0004f04be0000000600f0ff2f00f1ff2700c4
:1010e000f9ff3700811f78000100e00002003d0099
:1010f00060001000e08018000300e00002003d00e6
:1011000060011100e0811900490007004f00e00074
:1011100002003b0060001000e080180000000600a4
:10112000889fbe008a9fbe008c1f7800d5ff0700f5
:10113000dcff330003866c006450e10024003200c1
:101140006420e100270032006150e10022003200fb
:101150006120e100210032008b854200eb07b100e5
:101160000134b800003ab8000804420089844a00fb
:10117000013ab8000030b8008880400009014a00f8
:101180000400330000004000818048000201490053
:101190008b05e900c909dd00830170000100320000
:1011a00013002000c814de004814dd004709de00eb
:1011b0001200b200c808de000884700076ff070045
:1011c00001f0a1000cf0a70001f0a000beff370065
:1011d0006120e100c0ff32000801be000200be0035
:1011e000f7ff37006150e100fcff3a00baff37001b
:1011f0006022b800060220000000d0008180d200ea
:101200000482d2008582d2000000a00002025200b7
:1012100083825a00030031000202420083824a00a6
:101220000000a1000603e900f3ff3a0000000600f9
:10123000efff07000400be0000000600889fbe000c
:101240008a9fbe00841f78008eff07004f00780041
:1012500011003300f0ff2f00838f6c0006003b006d
:10126000040565000a00a7000800370009f0a60081
:101270001000200008003700820f5400838f5c00ac
:10128000030039001000200001003e000000200093
:1012900009f0a7000000ea004f05be004f04be00a1
:1012a0000000e00000000600881f780003047800ba
:1012b0000300e00007003d0060001000e08018001f
:1012c00060011900e081190002003b0001f02d00cf
:1012d000030037000400070008f0a70001f0a00099
:1012e0004f04780000000600889fbe008a9fbe0061
:1012f0000082700004027100048271002600320036
:101300000004be000200be006011b8006b0920009e
:10131000950220000182cf000a0039000541b1008a
:101320000082cf00070039000541b1000982cf00db
:10133000040039000541b1000882cf0001003900e6
:101340000541b10005425200120032000a003b0084
:1013500082817100610164008100d1000080d300ae
:101360008984d3000884d3008b05e8000442e80098
:10137000f7ff3a00070037000804440089844c0056
:1013800000004800818048008b05e9000442e90024
:10139000f9ff3a0000ff07004f05be004f04be00f2
:1013a000000006009041780031c1510004003a006d
:1013b000e0cf5100020032000000e800f9ff3700e2
:1013c0000200fb00000006000000fa0068815700e0
:1013d000cfb8970040ad20009e0507000080fa00be
:1013e000000006000000fa0068815700cfb897009f
:1013f00040ad2000970507000080fa0000000600bd
:10140000889fbe0001047800b800900062816000ef
:101410008084eb003c003200810178000320b200a0
:101420001801900002003a00e00f510036003a0027
:101430000190a0003104980080047800f90fb200f8
:10144000e00f510002003a0028009000000c7800e4
:10145000ea8f540006003a00010078000008b2004c
:1014600003003a0088007800d0002000e4ff070065
:1014700018009000d8009000810f50000b0032003f
:101480000000e8001004980018007800094878006f
:10149000000ce80010c0b30061b020008048780064
:1014a000ea8f540018003a000500370088007800e1
:1014b0000940780017000700800478001200370008
:1014c000380090000010b2000f00320018019000a8
:1014d000a80090004800900050000700980090007d
:1014e000810f500004003200380090000003b30068
:1014f000300498008084eb000000eb00100498009a
:1015000028009000000c7800090078004f04be000d
:10151000000006000200fa00889fbe00a0ff9f00a6
:101520000104780038009000800078000104b200c7
:1015300033003a00e200600005003a000003b30007
:1015400030049800110498000080eb002e00370052
:10155000d8049000e08f540006003a0012002000ea
:10156000e6805700480090002c00070019049800fe
:1015700023003700a8009000e08f500008003a00d8
:1015800091b0200021049800010c78002100200077
:1015900051049800110498000030a0003004980015
:1015a00018019000a8009000480090001b00070060
:1015b000280090008080eb0011049800aff897009d
:1015c00001487800000ce8002ff89700ea4f50001f
:1015d0000b003a00380090000010b2000800320002
:1015e00018019000a8009000480090000b00070030
:1015f0000000eb0010049800a8009000010c780097
:10160000aff897000100fb004f04be000080fa0015
:101610000000060000c0da00000006000a00fa0020
:10162000e20f500021003e0060588000e10f5000a2
:1016300006003200852320004423200023232000bd
:1016400000232000e08f520004003a008522200091
:10165000442220002322200000222000060028002f
:101660009003630002003a00870a780010087300b4
:10167000004020001300600001003a0013a0a00009
:101680000200780006003700930278000510b200cf
:10169000fdff3200b102fb00050a78000000e900fe
:1016a000e00f5000f8ff3a00080037003300200038
:1016b000b3bf9f00c0bf9f00d1bf9f00e2bf9f008c
:1016c0006a805700d3ff07006fb9970002007800c7
:1016d0000080fa00000006002800fa00889fbe0083
:1016e0008a9fbe008c9fbe0007067800878669002f
:1016f0000c003b00030478008704780008f0a10088
:1017000009f0a100840f5000858f5800860f590002
:10171000890f5c00030033000cf0a20001003a00c6
:101720000cf0a100fe0007006400e1005f00320041
:10173000780147006408e100610032006c01470055
:10174000748557003200be001201be003a04be008c
:101750001a05be001e039000be0a900085035300c8
:1017600006003d000004fd008104fd000205fd00af
:101770008305fd008703ea00050378000df8a30048
:101780000400320060041400e0841c0060051d00a9
:10179000e0851d006022b8007d0320000d38e100c7
:1017a0008006eb000b0039004433dd00f300b2008b
:1017b0008301730039003700848272000d027800c3
:1017c000e10664008b85d1000a85d3008984d300ab
:1017d0000884d3008703e900f7ff3b0008004000be
:1017e000898048000a0149008b81490004003b00c0
:1017f00060001000e080180060011900e08119000d
:101800000358a300090032008d82720084827200a6
:10181000610260008301d1000281d3008180d30086
:101820000080d3000603e8001b0037000348a30034
:1018300017003a000600e000170034000603e90034
:101840000d00a3000000480081804800020149000b
:10185000838149000348a3000f003a000600e0001e
:10186000090034000603e9000000400081804800c0
:10187000020149008381490001003a000003eb00a6
:101880000348a300f5ff32006022b80002003700d1
:1018900084827200618266007500070003f0a10077
:1018a0000cf0a70003f0a000b1003700640147006e
:1018b0006408e10002003a000df8a300a9003a0014
:1018c0003200be001201be00a90037008f1fd100f8
:1018d0002a0307008f87e9000000e00000000600ef
:1018e000809feb00250307008f87e9000000e000e0
:1018f000000006002800fa00889fbe008a9fbe00f4
:101900008c9fbe0003866b00850007006400e10029
:10191000440032006408e1004a0032006100e10046
:10192000460032006108e10049003200ec06470041
:101930006000b8003d02be003d03be00f4865700c3
:101940006011b8003d04be003d05be007d032000cf
:101950000b0037000000a0008d06e90013003200e4
:101960000402420085824a0006034b0087834b0035
:101970000000400081804800020149008381490045
:101980000802520089825a000a035b008b835b00c5
:10199000f0ff3b000802420089824a000a034b0024
:1019a0008b834b008d06e900edff3a0084827200c4
:1019b00086827200f707b20087827200010032004f
:1019c000150020001e0490003e0b900006035400fa
:1019d000e63fb0000368a300070032000000a70044
:1019e0000500a0008301d1000281d3008180d300d3
:1019f0000080d3000603e8008301d1000281d300f8
:101a00008180d3000080d3000002eb000482d2006a
:101a10001700070003f0a1000cf0a70003f0a000de
:101a200053003700640247006408e1004d003200b3
:101a30003400be003401be00f6ff37006108e1004b
:101a4000480032006011b8006000b800f1ff3700b4
:101a500003ff270002002000fbff3700801feb0080
:101a6000c60207008f87e9000000e00000000600c2
:101a70001800200057002000080453000d003d000e
:101a80000600200097fc2f000740e1001e003400f4
:101a900084827200610260008301d1000281d30060
:101aa0008180d3000080d3000804e800f8ff3a00ea
:101ab0004700200061046000050474000404640011
:101ac0000d00320061004000e080480060014900e4
:101ad000e081490003b8a500070032000603e800d2
:101ae0006538e10004003a008301d1000281d3008f
:101af0008180d3000080d300f87f20000830e1000f
:101b000003003500080378006000b8006011b800d9
:101b10004433dd00f300b2008301730000000600cf
:101b2000680447000294be000094be00fc04470015
:101b30008694be008494be0009007800d802070095
:101b400008007800d602070099007800814f7000e5
:101b50000b003b000800be00b10207004f00b100bf
:101b600003003700f3ff2700f2ff2f006110b900d8
:101b70004f06be004f05be004f04be000080fa00b5
:101b8000000006008103780029fd07000001be0067
:101b90006000b8000478a30013003a006220e1005e
:101ba00015003e000d0039008301d1000281d300f1
:101bb0008180d3008301d1000281d3008180d300d2
:101bc0008301d1000281d3008180d3000538b000a9
:101bd000c42add00f300b2008381720007f0a70081
:101be00003f0a00000000600f3ff2700f2ff2f0023
:101bf0006110b900fbff370003ff2700f7ff370034
:101c00001400fa00889fbe008a9fbe008c9fbe0011
:101c10000004be000205be00680047000a90be0036
:101c20000890be009e0207000070a7000bf0a10004
:101c30000bf8a30020003a009e0990000e099000c6
:101c4000fe0090006e0090009e0290003443200041
:101c500084825200c6ff32000a003c00b4fc2f0010
:101c60000428e100140034008301d1000281d30074
:101c70008180d3000080d3008502e800faff3a009b
:101c8000bbff3700b40020000428e10007003c003f
:101c90000000400081804800020149008381490022
:101ca0008502e900faff3a00b1ff3700030028007f
:101cb00002002000010037006011b8006000b80089
:101cc000abff37001400fa00889fbe008a9fbe0059
:101cd0008c9fbe000004be000205be0068004700e5
:101ce0000a90be000890be006d0207000070a700b9
:101cf0000bf0a1000bf8a30016003a009e02900022
:101d00003043200080825200b0fe2f000028e10006
:101d10000d003c00b0fc2f000028e1000d00340055
:101d20001e0990008e0890007e0090000501b00012
:101d30000201d1008180d3000080d3008502e80039
:101d4000fbff3a008aff3700010028000000200056
:101d500087ff37006000b80085ff3700889fbe000e
:101d600000827000040271000482710024003200bd
:101d700036432000c50020008383cf000a003900cd
:101d80000541b1008283cf00070039000541b10051
:101d90008183cf00040039000541b1008083cf006a
:101da000010039000541b10085c353006022b8002d
:101db000120032000a003b0084827200610260005f
:101dc0008301d1000281d3008180d3000080d30041
:101dd0000603e8008743e800f7ff3a0007003700f2
:101de00000004000818048000201490083814900d1
:101df0000603e9008743e900f9ff3a001cff0700ea
:101e00004f04be00000006006011b800d3ff370089
:101e1000cd01070005097800000006002800fa003f
:101e2000889fbe008a9fbe008c9fbe0003866b0009
:101e30003bff07000028a30064003a000128a3002c
:101e400067003a000008a30062003a000108a300fe
:101e500065003a001e009000be0890008106400018
:101e6000ed3fb100f4805700ee019000111ab80068
:101e70008e099000311bb8009e099000311cb800fb
:101e8000511db800f485570046000700fe01900080
:101e90003a0007008b85e8003e0007008e0990009d
:101ea00040000700ee019000340007008b85e80039
:101eb000380007008e099000400007009e0990003e
:101ec0001b18b800890440000a854800fe019000f4
:101ed000340007008b85e80038000700ee01900011
:101ee000300007008e0990001b18b80089044000dc
:101ef0000a8548000a98a30008003a00040242003c
:101f000085824a0006034b0087834b0008044c007f
:101f100089844c000a054d008d06e9008482720018
:101f2000850273004c3add00850272000100320028
:101f300015002000443ade001400b2004538de00ef
:101f4000cb45dd000b007000c540de00cb4ddd0051
:101f50008b8070004549de00cb55dd000b01710020
:101f6000c551de000d037800c1fe070003f0a1009b
:101f70000cf0a70003f0a000fdfe37001b18b8000e
:101f80008502400006834800e0834b0060044c005b
:101f9000070037001b18b80006034000878348007d
:101fa000faff37001b18b800870340000884480078
:101fb000e0844c0060054d00000006001b18b800ce
:101fc0000804400089844800faff37000108a30094
:101fd000e4fe3a005800be005801be00e3ff37009f
:101fe0000008a300dffe3a0009047800f9ff37007b
:101ff00007f0a200b8fd37001400fa00889fbe0069
:102000008a9fbe008c9fbe000005be000206be0077
:10201000680047000c90be000a90be00a0010700b7
:102020006400e1001a00320016003e006100e10089
:102030001a0032006e049000fe0490000e0b900017
:102040009e0b90006011b8009e0590000b38b10007
:10205000d501200082817100610164008703d100f5
:102060000683d3008984d3000884d3008502e90065
:10207000f8ff3a00c8fb07000df0a70001f0a00030
:10208000bbfe3700f1ff2700f0ff2f00b8fe37003e
:1020900001f8270000002000f7ff37006000b800bb
:1020a000f5ff3700020ab900001bb9000200b800b2
:1020b000810042008100430000000600889fbe00ae
:1020c0008a9fbe003004be002005be000404440008
:1020d00085844c0006054d0087854d000898be009c
:1020e0000a90be000440e10005c8e10006d0e1000e
:1020f00007d8e10002003100680040001008e80045
:102100004f05be004f04be0000000600889fbe00c1
:102110008a9fbe008c1f7800000678003c04be0039
:102120002c05be000400540085805c0006015d00a3
:1021300087815d00009ebe00029ebe001000200050
:102140000440e10005c8e10006d0e10007d8e10045
:10215000010039000000eb001c0e10004f06780053
:102160004f05be004f04be00000006001200fa003a
:10217000889fbe008a9fbe008c9fbe000205be00e5
:102180000004be00e4b79f00f5b79f0086bf9f0024
:1021900097bf9f000000eb00d0b79f00c0b79f0023
:1021a000b0b79f00a0b79f0090b79f0000067800cf
:1021b000fd032000dfb197004fb09700038141007d
:1021c000bfb09700e08f510004003d0029000700d8
:1021d0007e805700b9ff0700030037002500070085
:1021e0007e805700c9ff0700dfb09700e08f5000e6
:1021f0000700350014002000050020006033b800ff
:1022000008047200898472000a0573008b857300cc
:102210000c06e8008d0f5600e6ff3400e08f5000fa
:1022200006003d006fb29700ffb297000fbb97000a
:102230009fbb97007e805700a0ff07005fa8970014
:10224000e00f500004003a001fb49700afb49700ad
:102250003fb59700cfb597000800be000a01be0049
:102260004f06be004f05be004f04be000080fa00be
:1022700000000600cf01de0002817100b2b79f00ae
:102280004f09de000000400000007100a0b79f0071
:102290000fb097004f01de00818040008100710087
:1022a00091b79f007faa9700cf20de00000040007a
:1022b0000080700080b79f000800be000a01be00c9
:1022c0004f18de000402420000027200f4af9f00cb
:1022d0000804440089844c000a054d008b854d009c
:1022e0004fb29700dfb297006fb39700ffb397002c
:1022f00000000600881f780018002000881f780062
:102300009aff07008f87e9004f047800000006005d
:10231000801feb0095ff07008f87e9000000060093
:10232000889fbe008a9fbe008c1f7800e00f50007f
:10233000e08f5800e00f5900e08f59000f003d007a
:102340006044b8006055b8000000540081805c0013
:1023500002015d0083815d001c0020000820e10077
:1023600009a8e1000ab0e1000bb8e1000d003d0052
:10237000190007000006eb000a0037000006eb001a
:10238000e00f5200e08f5a00e00f5b00e08f5b002f
:1023900004003d006044b8006055b8000e0007001e
:1023a0001c002000d3ff0700e00f5600060032009b
:1023b0006022b8006033b8000000520081805a00eb
:1023c00002015b0083815b004f0678004f05be0071
:1023d0004f04be00000006000402540085825c0029
:1023e00006035d0087835d0000000600889fbe0035
:1023f0008a9fbe008c1f7800e00f5000e08f5800cd
:10240000e00f5900e08f59000d003d006044b80016
:102410006055b8000000540081805c0002015d003e
:1024200083815d001c0020000820e10009a8e10074
:102430000ab0e1000bb8e1000d003d0008003700d4
:102440000006eb00e00f5200e08f5a00e00f5b0047
:10245000e08f5b0006003d006044b8006055b800a6
:102460000402540085825c0006035d0087835d00e2
:10247000a7ff0700e00f5600060032006022b800f8
:102480006033b8000000520081805a0002015b00f6
:1024900083815b004f0678004f05be004f04be00ed
:1024a00000000600889fbe008a9fbe008c1f780037
:1024b0000006eb00e00f5000e08f5800e00f5900dd
:1024c000e08f590007003d006044b8006055b80037
:1024d0000000540081805c0002015d0083815d008a
:1024e0001c002000e00f5200e08f5a00e00f5b005c
:1024f000e08f5b0007003d006044b8006055b80005
:102500000402540085825c0006035d0087835d0041
:102510000c00a20089000700e00f56000600320000
:102520006022b8006033b8000000520081805a0079
:1025300002015b0083815b004f0678004f05be00ff
:102540004f04be00000006000003be00b8fa0700fa
:102550006220e100020032000600be000500050016
:10256000e507b100f107b20004f023008480700099
:1025700007f0a70001f0a00024000500889fbe001e
:102580008a9fbe008c9fbe000404be000605be00ec
:10259000809fbe00829fbe002f00070004067800c7
:1025a0000800be000a01be002b0007008406780068
:1025b0004f03be004f02be008d4f76007fb09700e4
:1025c00013003300f0ff2f008b8f6b0006003b00e1
:1025d0000d0666000c00a7000a00370007f0a600f1
:1025e000100020000a003700880f5200898f5a001f
:1025f0008a0f5b008b8f5b00030039001000200006
:1026000001003e000000200007f0a7000000ea00e3
:102610004f06be004f05be004f04be00000006007e
:10262000e48240001078a3000700320064024000fa
:102630001178a3003400be001401be000400320073
:102640000330a700000006003500be001501be00e3
:102650000330a0000000060005ff2700058261008e
:10266000070032000428e1000100320024000500c8
:102670000600070001003a004400050004080500b8
:1026800002000700f9ff3a00140005006f826100a4
:102690008102700085027100850272000000060050
:1026a000800078005002be005003be004439de00b6
:1026b000f700b200f37f200003016100090032003f
:1026c0000218e10016003a008501720083017300d0
:1026d000838173000008200015003a0040002000ac
:1026e000130037008501720083017300838173003a
:1026f00005003a0004a8be0006a8be001000200095
:102700000b0037000201e9000402420085824a0002
:1027100006034b0087834b000748a300f9ff3200f4
:102720000740a00004a8be0006a8be0020002000ac
:10273000800098009200980000000600889fbe006c
:102740008a9fbe008c9fbe000404b8000506b80036
:102750008904460060854e000606b8000a0546005a
:10276000e0854e000706b8008b054600040eb80051
:10277000890446000a854e00e0854d00050eb8002c
:102780000a0546008b854e00060eb8008b054600f4
:102790000416b8000a0546008b854e000516b800e1
:1027a0008b054600041eb8008b0546000800be00dd
:1027b0000a01be004f06be004f05be004f04be001a
:1027c00000000600889fbe008a9fbe000084fb00b8
:1027d000d1c6b300814f5000210036004b062000c7
:1027e000110009000b84d8008105780072004000b8
:1027f0004300dd0089972000008044006022b8007b
:102800000600200007fe23005001be004000be006d
:1028100082fd0700aa00200000027800811f7800d6
:10282000110009008a85d8000002fd00cf00780061
:10283000690242004322dd00048244005403be00ca
:102840004402be0075fd0700809fbe001100090014
:102850000a84d800010478004f00be001000370041
:10286000ea4f500013003600a900200011000900b3
:102870000984d80001047800690040004300dd00ad
:1028800089972000008044006022b80006002000e4
:1028900007fe23005001be004000be005ffd0700a0
:1028a0004344dd00888444003902be002903be0091
:1028b000080037004344dd008097200008044000f2
:1028c0006022b8000600200007fe23003800be008a
:1028d0002801be0051fd07004f05be004f04be0099
:1028e00000000600889fbe008a9fbe00d1c6b300cc
:1028f000e04f500025003d000040ea000004fb00ce
:10290000814f50000b0034004206200011000900e6
:102910000204d80001007800a9002000110009007d
:102920000900d800690040004300dd008a972000bc
:1029300023003700ea4f500011003400a2002000ad
:10294000110009000204d80001047800800078001a
:10295000e9804000c308dd0080972000810040002e
:102960004344dd00080040003002be002003be00ea
:102970005101be004100be0028fd070032003700b3
:102980004344dd00809720002c0037000004fb004a
:10299000814f50001c003400420620001100090045
:1029a0000204d80001007800a900200011000900ed
:1029b0000900d800690040004300dd008a8c200037
:1029c000000045003002be002003be008b0920003d
:1029d0008a8545003b00be002b01be000ffd0700ad
:1029e000809fbe00110009000904d800010478008e
:1029f0004f00be004344dd00080545003a02be001a
:102a00002a03be00dcff3700ea4f50000900340003
:102a1000a2002000110009000204d800010478007f
:102a200080007800e9804000c308dd00808c200031
:102a3000caff37004344dd00808c200008044000ba
:102a40003800be002801be004f05be004f04be0086
:102a5000000006002f06b000889fbe008a9fbe00bf
:102a60008c9fbe008e1f780080bf9f00d1a79f0063
:102a7000c2a79f000000eb00f0b79f000e093700cf
:102a8000dfa097008100e800d1a79f0052c2b300e9
:102a9000824f530006003a000003eb0007c3b30067
:102aa00003c2b300b1c2b3005fa0970014003700a7
:102ab0008fb99700330190000204b2000500320084
:102ac000030278009401780086497800030ae80040
:102ad000070037000601fb008fb89700020078005e
:102ae00047fa070000017800e10f4100f2083200c8
:102af000ffb297008502e800f5b79f00ee083700a7
:102b000010447800d9c2b300894f54000b00320042
:102b10000001e800894f540005003c00834f540039
:102b200009003200814f54000e003a0008003700bf
:102b3000874f54000b003a00070037000630a00012
:102b40000000e800eeff37000600a0000300370099
:102b50000610a000010037000620a0000200780047
:102b6000e7ff3700d0a79f00e201630001003200b9
:102b70000600a100e8016300010032000620a10068
:102b80008801fb000303b100e98f51000c003e00f7
:102b9000000020005fa197006a00b9000003b100a7
:102ba0009200fb0001004000d200fb000103b100d5
:102bb000e98f5000f8ff3600e0a79f000b003700b8
:102bc0008005eb00eba79f00a3c2b300834f540026
:102bd00007003a004fa09700c0007800c0a79f00f0
:102be000e1a79f005fa197000201e800d2a79f0024
:102bf000e3c2b3005fa2970094cf11001e003a0019
:102c000006e0a000e4c151000402e800d4a79f0040
:102c10009442780083cf520003003200000020006d
:102c2000840178000c0037004fa49700c804780096
:102c3000c8a79f00f9af9f005fa597000a05e800ad
:102c4000daa79f000f0037006a00b9000003b10047
:102c5000020040008301e8001301fb0001fd2f008a
:102c600082804000e98f5000f7ff3600f0af9f00f0
:102c7000d3a79f000300370006c0a0008005eb002b
:102c8000fbaf9f00c1c6b300dfa19700b346780039
:102c9000ad579f0081cf56001c003200d3a79f0084
:102ca000c3c6b30083cf56000e003c003cc6b30041
:102cb0008ccf56009e00320006003c00e0cf56004c
:102cc0008208320073c4b30083cf5600bb003a00c1
:102cd0001400370073c6b30083cf5600b7003a0024
:102ce0001100370053c7b30083cf5600b90032003c
:102cf000e3c1410083cf56000d003200e5c1510011
:102d000083cf5600ad003a000b003700700063001f
:102d10000200280001003a000201200002037300b3
:102d2000daff37000650a0000690a000aa00370086
:102d30000670a000a80037004fa09700400678005a
:102d4000c0a79f00bcb79f00e00f560002003a00ea
:102d5000e2ae2000b2b79f008001eb00c3b79f0036
:102d60003fb09700cfb097005fb19700efb19700e9
:102d7000010037008500e800810278006142780098
:102d8000e04f5200fbff3a00b0b79f00c1b79f0071
:102d9000d2b79f00e3b79f00ffac9700e08f5400cd
:102da000050032004fb597008a8f540002003100b1
:102db00089057800cbb79f004fb497000006eb0061
:102dc0006fa09700880f50000100360008065000e1
:102dd000e80663002f003a008c01780008c2b300b7
:102de0000fbf9700100037003e0090000004b200b3
:102df000040032001e00780008487800000fe80048
:102e0000050037008e007800000220007cf90700e2
:102e1000e10f400003003200ffb097008100e8009e
:102e2000f1b79f008c0178000c06e900e08f51009b
:102e3000edff3a00170037003e0090000004b2009a
:102e4000090032009e0178000801780032407800c5
:102e500080497800030fe80002047800e04f50003a
:102e600008003a0010003700080178003200fb002b
:102e7000020478008e00780061f90700e10f40003d
:102e8000090032007fb197000201e800f2b79f000d
:102e9000050037003fb49700cfb497005fb59700a7
:102ea000efb597000fbf9700090078008004e90094
:102eb000e00f5000e0ff3a00b8b79f00c9b79f008d
:102ec000dab79f00ebb79f00e08f5600fa07320099
:102ed00011003700380090000004b20004003200f6
:102ee000180078000d487800000ce8000500370055
:102ef000880078000002200041f90700e10f40003f
:102f000003003200ffb297008502e800f5b79f008a
:102f10000e067800020037000dc2b3000fbc970008
:102f20000c07e900e00f5600eaff3a00e20737001d
:102f3000cfa3970047067800c7a79f000c0478002e
:102f4000cfc4de00090578008a057800f8a79f0045
:102f500089af9f009aaf9f00abaf9f004844de004f
:102f60004848dd0008047000a8579f007006630001
:102f70000a003200e04f540008003200e14f4400e4
:102f800006003200b8579f00efc89700c1579f0056
:102f900022002000c2b79f0004003700efc997004d
:102fa000b3579f0014002000c4b79f0035f92f00cd
:102fb00085824700b5b79f0077ff370027f92f00bc
:102fc00087834700b7b79f0018002000c8b79f004d
:102fd00071ff3700060cb300f6a79f000c702000ad
:102fe000ffa497000c866400d80532000c00210075
:102ff0000c866400020032006a002000faaf9f00d5
:10300000ffa5970070866500090032004fa2970067
:103010004401be004400be00c4a79f00b0af9f00a3
:10302000c1af9f00d2af9f00e3af9f000a003700ff
:10303000cfa297004500be00c5a79f00d1fa0700a8
:103040000004be000205be00b8af9f00c9af9f00dc
:10305000daaf9f00ebaf9f006022b8006033b8008a
:103060003fa89700cfa897005fa99700efa9970006
:1030700016fa070080027800e08f52000c003d0035
:103080003fa89700cfa897005fa99700efa99700e6
:1030900003f0a200b0af9f00c1af9f00d2af9f006e
:1030a000e3af9f00ffa097003100b300f1a79f009e
:1030b0000006eb00bc8f9f006022b8006033b800b0
:1030c0003fa89700cfa897005fa99700efa99700a6
:1030d00062fa0700800278008c8f52003b003200b9
:1030e0003fa89700cfa897005fa99700efa9970086
:1030f000c1fb070062f92f000f01410044fb0700ec
:103100003f8a97000402e9006322b900ac00200066
:10311000809fbe00110009000c02d8000002780058
:103120004f00be00b48f9f00e00f520002003d0030
:103130000402e900b48f9f003f8e97008c41ea00a3
:1031400003407800e7fd07003faa9700cfaa970049
:103150005fab9700efab970030fb07000002be00ab
:103160000203be00c49f9f00d59f9f00e69f9f0063
:10317000f79f9f006022b8000600200007ff230091
:10318000d2f9070080027800e08f520002003d0073
:103190000c06e9000c0037006022b8000600200091
:1031a000470224004f989700df9897006f99970087
:1031b000ff999700caf9070080027800e08f52005b
:1031c000020035000c06e800bc8f9f003f8e970080
:1031d000ffa697000d20b20027033200e40f46003f
:1031e00003003500ffaa9700850f5600b202350094
:1031f0007fab9700e00f5300020032000603e900a6
:10320000f6af9f00ffab9700f28f5300030036002c
:1032100023c1b300a3579f00020037006fdc970063
:10322000a8579f006022b8006033b8003fa89700fd
:10323000cfa897005fa99700efa9970007fa0700aa
:1032400080027800e08f520078003200af5697007d
:103250008d41560003407800a2fd07000002be0029
:103260000203be003fa89700cfa897005fa9970070
:10327000efa997009ff907000002be000203be00fd
:10328000b4af9f00c5af9f00d6af9f00e7af9f00d0
:103290008cfa0700dcfa07000002be000203be0041
:1032a0003fa89700cfa897005fa99700efa99700c4
:1032b0004ffb07006022b8000600200007fe230035
:1032c00087f9070080027800e08f52000e00350079
:1032d0006022b8000600200007fe23003fa89700e8
:1032e000cfa897005fa99700efa99700faf8070009
:1032f0000004be000205be00b8af9f00c9af9f002a
:10330000daaf9f00ebaf9f003fa89700cfa89700d0
:103310005fa99700efa997006afa0700809f9f00b6
:10332000919f9f008005eb00ab9f9f000000eb008a
:10333000b09f9f008d06fb000d07e8004377dd007e
:1033400085a220000e8742003e04be002e05be006e
:103350000f9897009f9897002f999700bf99970013
:103360000800e1000988e1000a90e1000b98e10003
:10337000110039000400200005002a009699290058
:1033800097fb23003fa89700cfa897005fa997005d
:10339000efa99700a1fa07000002be000203be00d9
:1033a000b4af9f00c5af9f00d6af9f00e7af9f00af
:1033b0000c06e8001c003700c36edd008d8642005d
:1033c0003d04be002d05be000f9897009f98970002
:1033d0002f999700bf9997000800e1000988e10044
:1033e0000a90e1000b98e100100031006022b80063
:1033f00006002000470224003fa89700cfa89700ae
:103400005fa99700efa9970084fa07000002be00a9
:103410000203be00b4af9f00c5af9f00d6af9f00b0
:10342000e7af9f000c06e900bc8f9f00efa297005a
:10343000e58352007fab970086835300e7a79f0088
:10344000ffa3970063866300030032006fa4970018
:103450000804e900e8a79f00ffa4970064866400c1
:103460004c003200e28664000fbd97003a069000df
:1034700061876400e08f5600190032000c04b2002e
:10348000090032009a067800bcc2b300e00f570072
:10349000010032000cc6e8008c4e78008fbd97000a
:1034a0008d0de8000a003700dc022000e00f570015
:1034b00001003a000c86e9008fb897000c007800f4
:1034c000cff7070080027800e18f4200270032002a
:1034d0007fb097000000e800f0b79f00230037009e
:1034e000e00f5700210032000c04b2000600320049
:1034f0008fb897001106780003c2b300034e78001e
:103500008c08e800060037008fb897000002200002
:10351000bbf7070080027800e18f42001300320001
:103520007fb197000201e800f2b79f000f0037005b
:10353000380090000004b200040032001800780047
:103540000c487800000ce80005003700880078007f
:1035500000032000aaf70700e10f4000010032003d
:103560000e07e8008d06e900040037000cc3b30025
:10357000efa697007fb797000fbc9700e08f56002b
:10358000ebff3c00eda79f008e017800f3b79f0092
:103590004f0037007fa297006806620019003a00ca
:1035a0000f003700380090000004b2000400320021
:1035b000180078000c487800000ce800050037007f
:1035c00088007800000220008df70700e10f40001e
:1035d000010032000e07e8008d06e9000400370004
:1035e0000cc2b300efa697007fb797000fbc9700ff
:1035f000e08f5600ebff3c00eda79f008e027800a5
:10360000f5b79f007fa39700e20663008fbb97008a
:103610003706900061076300e08f56001900320002
:103620000c04b2000900320097067800bcc2b30057
:10363000e00f5700010032000cc6e8008c4e780005
:103640000fbc97000d0ce8000a003700dc022000d8
:10365000e00f570001003a000c86e9008fb8970090
:103660000c00780066f7070080027800e18f4200c6
:1036700017003200ffb497008904e800f9b79f00f3
:1036800013003700e00f5700110032000c04b200a5
:10369000060032000fbd97001a06780003c2b3007f
:1036a000034e78000c0de800060037008fb8970035
:1036b0000002200052f7070080027800e18f4200ec
:1036c00003003200ffb597008b05e800fbb79f00b1
:1036d0003fa89700cfa897005fa99700efa9970090
:1036e00078f9070080a79f0091a79f008000eb005a
:1036f000a1a79f000001eb00b2a79f008fb9970020
:10370000b30690000d04b2002f5297000406fb0090
:10371000818f560014003200130778004366dd00e5
:103720008da220000c8646003c02be002c03be0089
:103730000fa097009fa097002fa19700bfa197000f
:10374000ecfa07000205be000004be000843b0000a
:10375000084f78008fba97008e0ae800e04f5400b7
:1037600014003a00160037004366dd008da22000e9
:103770000c8646003c02be002c03be000fa0970042
:103780009fa097002fa19700bfa19700d9fa07002b
:103790000205be000004be000803b0008fb8970009
:1037a0000800780016f7070080027800e18f4200d9
:1037b000030032007fb397000603e800f6b79f00ce
:1037c000af5397000706fb004366dd008da2200083
:1037d0000c8646003c02be002c03be000fa09700e2
:1037e0009fa097002fa19700bfa19700c8fa0700dc
:1037f000b0b79f00c1b79f00d2b79f00e3b79f004b
:10380000ffac9700e08f54007d0032000fbd9700a1
:103810003a0690000c04b200050032001a06780047
:10382000e3c2b300034e78000c0de8000600370039
:103830008fb89700e0022000f1f6070080027800c0
:10384000e18f420003003200ffb597008b05e800ce
:10385000fbb79f002f5797008da220000fbe970047
:10386000480037003fb09700cfb097005fb1970096
:10387000efb19700e00f5000e08f5800e00f5900c3
:10388000e08f590004003a008040eb00a1579f00f0
:103890000004eb0053003700bc0190000304b200a9
:1038a0000401fb00e08f5100120032001c0478007c
:1038b0004311dd00028146003202be002203be0039
:1038c0003fb09700cfb097005fb19700efb197007e
:1038d00088fa07000203be000002be000443b000e5
:1038e000044c7800080ee800e04f520013003a0044
:1038f000150037004311dd00028146003202be0090
:103900002203be003fb09700cfb097005fb1970091
:10391000efb1970077fa07000203be000002be0075
:103920000403b0008c00780004007800b4f60700af
:1039300000017800e10f4100030032007fb19700e1
:103940000201e800f2b79f00af5197000301fb00ae
:103950004311dd00028146003202be002203be0098
:103960003fb09700cfb097005fb19700efb19700dd
:1039700067fa0700b0b79f00c1b79f00d2b79f009a
:10398000e3b79f002f5197000242e900a4579f0020
:10399000e04f5100b3ff3a000e04fb00ffaa97006e
:1039a000088452000f0037003d0090000004b20070
:1039b000040032001d0078000c487800800ee800fa
:1039c000050037008d007800000320008cf607000a
:1039d000e10f4000010032000e07e8000804e90092
:1039e000030037000cc3b3007fb797008fbe97006a
:1039f000e00f5400ecff3a000e037800f6b79f008a
:103a00007fa697000c02b2008fbb9700370490008e
:103a1000110032000804b2000500320017047800db
:103a200053c4b300034c7800880be800060037004d
:103a30008fb897005004200071f6070080027800cc
:103a4000e18f4200150032007fb497000804e800bf
:103a5000f8b79f00110037000804b20006003200da
:103a60008fbc97001904780053c6b300034c78004c
:103a7000880ce800060037008fb897005006200039
:103a80005ff6070080027800e18f420003003200f9
:103a90007fb597000a05e800fab79f003f8e9700b0
:103aa0008fbd97003b049000e00f560013003d00cf
:103ab0000c06ea00bc8f9f000804b200050032002b
:103ac0001b047800d0c2b300004c7800880de800d9
:103ad000060037008fb89700d002200048f6070094
:103ae00080027800e18f420015003200ffb097009d
:103af0008100e800f1b79f00110037000804b20010
:103b0000060032000fb9970012047800b3c2b30068
:103b1000034c78000809e800060037008fb89700ca
:103b2000b002200036f6070080027800e18f4200e4
:103b300003003200ffb197008301e800f3b79f0054
:103b40000fba9700340790000e04b2003f8c970024
:103b50000e00320014067800ad00200080027800cc
:103b6000811f7800110009000d04d8008002fd00bb
:103b7000cf0078000543b000054e78000c0ae8003d
:103b8000e0cf52000c003a000e003700ac002000dd
:103b9000110009000c04d800000478000803b000ec
:103ba0008fb897000800780015f6070080027800ab
:103bb000e18f420003003200ffb297008502e80067
:103bc000f5b79f000fbb9700360790000e04b200b8
:103bd0003f8c97000e00320016067800ad002000e2
:103be000801f780081027800110009000d04d800c0
:103bf0008102fd004f0078000543b000054e7800bb
:103c00000c0be800e0cf52000c003a000e00370029
:103c1000ac002000110009000c04d8000104780059
:103c20000803b0008fb8970008007800f4f507008b
:103c300080027800e18f420003003200ffb397005a
:103c40008703e800f7b79f007fa49700680364002c
:103c500099043200efa49700e08f540096043400da
:103c600008c2b300890678007fb797000fbe97009f
:103c70003c0090000004b200040032001c007800f8
:103c800008487800000ee800050037008c00780036
:103c900000022000daf50700e10f400001003200c9
:103ca0000e07e8008d06e900f1ff3a000e057800e6
:103cb000fab79f0080043700e00f560004003d0073
:103cc0000c84ea00ffad970088854500fbaf9f009c
:103cd0003fa89700cfa897005fa99700efa997008a
:103ce000c7f70700b0b79f00c1b79f00d2b79f00ca
:103cf000e3b79f008042eb00a5579f0081a2200000
:103d0000100037000c00fb004300dd000080400085
:103d10003002be002003be003fb49700cfb497002e
:103d20005fb59700efb597000440e10005c8e100da
:103d300006d0e10007d8e100050039000c46e80094
:103d4000ac579f002f569700f44f5600edff3a00f6
:103d50000c04fb00ffac970088845400f9af9f006f
:103d6000f88f54000f003c000940780095fa0700d6
:103d70000002be000203be003fa89700cfa8970034
:103d80005fa99700efa9970053f607000002be0055
:103d90000203be00b4af9f00c5af9f00d6af9f0027
:103da000e7af9f006fd89700cefa07000004be006f
:103db0000205be003fb09700cfb097005fb19700fb
:103dc000efb19700e5f707000002be000203be0056
:103dd0003fa89700cfa897005fa99700efa9970089
:103de00083f807000002be000203be000800be0008
:103df0000a01be0009f8070081f707000205be00ae
:103e00000004be00b0b79f00c1b79f00d2b79f00ab
:103e1000e3b79f007fae970009003700a4002000a1
:103e2000050020006033b8000800be000a01be0093
:103e300030f907000205be000004be000c06e900d0
:103e4000e00f56001f003200a400200005002000f3
:103e50006033b8000800be000a01be002cf907005c
:103e6000e00f5000e08f5800e00f5900e08f59003c
:103e7000eaff320013003700ffac9700f88f5400c0
:103e800011003c00094078004efa07000002be0015
:103e90000203be003fa89700cfa897005fa9970034
:103ea000efa997000cf607000002be000203be0057
:103eb000b4af9f00c5af9f00d6af9f00e7af9f0094
:103ec00001003700fcaf9f003f8e9700e90f5600be
:103ed00016003c006022b8006033b8003fa897008d
:103ee000cfa897005fa99700efa99700dbf607001e
:103ef00080027800e08f5200370032003fa8970020
:103f0000cfa897005fa99700efa997003cf707009b
:103f1000e00f5000e08f5800e00f5900e08f59008b
:103f20002d003a00e10f56002b0034000400200061
:103f300005002e00b6e02200170124004f989700dc
:103f4000df9897006f999700ff9997005ff6070039
:103f500000027800e00f520002003d00730256009c
:103f60000100370072025600b48f9f006f50970017
:103f70005cfa07000004be000205be00c89f9f0057
:103f8000d99f9f00ea9f9f00fb9f9f000002be00f9
:103f90000203be003fa89700cfa897005fa9970033
:103fa000efa9970053f6070015f70700b0b79f0079
:103fb000c1b79f00d2b79f00e3b79f006044b8002d
:103fc0006055b80088979f0099979f00aa979f0017
:103fd000bb979f00190037003fa89700cfa8970014
:103fe0005fa99700efa9970005f70700b0b79f00fa
:103ff000c1b79f00d2b79f00e3b79f0057f70700f4
:104000000002be000203be003fa89700cfa89700a1
:104010005fa99700efa99700f5f707000004be001d
:104020000205be0088979f0099979f00aa979f005e
:10403000bb979f000004eb00b88f9f0013c0b30034
:10404000a3579f0081a22000100037000c00fb0046
:104050004300dd00008040003002be002003be00af
:104060003fb49700cfb497005fb59700efb59700c6
:104070000440e10005c8e10006d0e10007d8e100f6
:10408000050039000c46e800ac579f002f569700fa
:10409000f44f5600edff3a00bf8e9700efa4970053
:1040a0008d8354007fad97008a8353000c03fb007f
:1040b00006835300b6af9f00e00f550002003200a8
:1040c0000603e900b6af9f00ffa597006383650074
:1040d000030032003fa897000000e900b0af9f0046
:1040e000ffa09700648360004d003200628660008c
:1040f000e1866000e00f56001b0032000fb9970008
:10410000320390000604b200090032001207780062
:10411000bcc2b300e08f5600010032000cc6e800bc
:104120000c4f78008fb997008e09e8000a0037001d
:10413000dc022000e08f560001003a000c86e90006
:104140008fb897000c007800adf40700800278006b
:10415000e18f4200280032007fb297000402e8009d
:10416000f4b79f0024003700e08f56002200320091
:104170008fba9700350390000604b20005003200a4
:104180001506780003c2b300034e78008c0ae800dd
:10419000060037008fb897000002200098f407004f
:1041a00080027800e18f4200130032007fb3970055
:1041b0000603e800f6b79f000f00370038009000b4
:1041c0000004b20004003200180078000c487800a7
:1041d000000ce8000500370088007800000320008c
:1041e00087f40700e10f4000010032000e07e800ed
:1041f0008d06e900040037000cc3b300bfae970082
:104200007fb797000fbc9700e08f5600ebff3c0094
:10421000bdaf9f008e037800f7b79f007f00370087
:104220007fa497006803640019003a000f0037006c
:10423000380090000004b20004003200180078003a
:104240000c487800000ce800050037008800780072
:10425000000220006af40700e10f40000100320074
:104260000e07e8008d06e900040037000cc2b30019
:10427000bfae97007fb797000fbc9700e08f560046
:10428000ebff3c00bdaf9f008e047800f9b79f00a4
:104290007fa5970062066500e1066500e00f560005
:1042a0001b0032008fbd97003b0390000604b20054
:1042b000090032001b077800bcc2b300e08f560033
:1042c000010032000cc6e8000c4f78000fb89700d0
:1042d0000e08e8000a003700dc022000e08f5600dc
:1042e00001003a000c86e9008fb897000c007800b6
:1042f00043f4070080027800e18f4200470032005b
:10430000ffb097008100e800f1b79f00430037003d
:10431000e08f5600410032000fb997003203900041
:104320000604b200050032001206780003c2b30092
:10433000034e78000c09e800060037008fb897009c
:10434000000220002ef4070080027800e18f420076
:1043500032003200ffb197008301e800f3b79f00fd
:104360002e0037003e0190000204b2000300fb0063
:10437000e00f5100120032001e0678004300dd00fd
:10438000008046003002be002003be000800be00d0
:104390000a01be00d7f70700a40020000500200096
:1043a0006033b800daf707000203be000002be0067
:1043b00000c3b300004e42000c0fe80013003700aa
:1043c0004300dd00008046003002be002003be0036
:1043d0000800be000a01be00c6f70700a4002000c6
:1043e000050020006033b800c9f707000203be00d3
:1043f0000002be000403b0008e00780004007800c4
:10440000fff30700e10f40000a003200ffb0970001
:104410008100e800f1b79f00060037008da2200060
:104420003fb49700cfb497005fb59700efb5970002
:104430000fbf97002f5097008041e900a3579f00be
:10444000e04f5000c7ff3a001100370038009000dd
:104450000004b20004003200180078000d48780013
:10446000000ce800050037008800780000032000f9
:10447000e3f30700e10f4000010032000c06e80002
:104480003f8897000000e900b08f9f0003003700cd
:104490000dc3b3007fb697000fbc97003f8897000d
:1044a000e00f5000e9ff3c00fcb79f007fa9970098
:1044b00023c1b300f20f510001003c00efd9970077
:1044c000a3579f002f5697008c02fb007faa9700ee
:1044d00005075200e04f5600120032000fbb970054
:1044e000b60290000504b2000500320016067800fe
:1044f000e3c2b300034e78000c0be800060037005f
:104500008fb89700e0022000bdf30700800278001a
:10451000e18f420003003200ffb397008703e800f9
:10452000f7b79f002f509700eef807000002be007b
:104530000203be000f9097009f9097002f91970065
:10454000bf91970035f60700adf50700b0b79f00a3
:10455000c1b79f00d2b79f00e3b79f008da2200094
:104560008e047800f9af9f000fbf97003f0037001f
:10457000be0190000304b2000401fb00e08f510073
:10458000120032001e0678004311dd000281460051
:104590003202be002203be003fb09700cfb09700aa
:1045a0005fb19700efb1970052f70700a400200019
:1045b000050020006033b80055f707000ac3b300b8
:1045c0000a4e40000c0fe800160037004311dd00d2
:1045d000028146003202be002203be003fb09700b7
:1045e000cfb097005fb19700efb1970041f7070098
:1045f000a4002000050020006033b80044f7070045
:104600000203be000002be000403b0008e0078006a
:10461000040078007af3070000017800e10f410000
:1046200003003200ffb597008b05e800fbb79f0041
:104630002f5097000001fb004311dd00028146006e
:104640003202be002203be003fb09700cfb09700f9
:104650005fb19700efb197002df70700b0b79f004b
:10466000c1b79f00d2b79f00e3b79f002f519700bb
:104670000242e900a4579f00e04f5100bcff3a00fe
:104680000f003700380090000004b2000400320030
:10469000180078000c487800000ce800050037008e
:1046a000880078000003200055f30700e10f400068
:1046b000010032008d06e8000e07e9000400370013
:1046c0007faf97000cc3b300ffb697000fbc9700f5
:1046d000e00f5700ebff3a00fdb79f00ffa29700e5
:1046e00068816200f40132003fab9700e00f530095
:1046f000f101340008c2b300860678007fb7970046
:104700000fbe97003c0090000004b200040032008d
:104710001c00780008487800000ee800050037000b
:104720008c0078000002200035f30700e10f400004
:10473000010032000e07e8008d06e900f1ff3a00a3
:104740008e037800f7b79f00db0137007fa4970046
:10475000e00f540005003d004fa297004401be0049
:104760004400be00c4a79f000e0037007fa397003f
:10477000f0026300100032004fa597004a04be000b
:10478000caa79f00c88f9f00d98f9f00ec8f9f0002
:10479000fc8f9f004f889700df8897006f899700f4
:1047a000ff899700b0b79f00c1b79f00d2b79f00a5
:1047b000e3b79f000b003700cfa09700c10278003d
:1047c000c1a79f0005047800090020000a0020000e
:1047d0000b002000b8b79f00c9b79f00dab79f0051
:1047e000ebb79f00ffac9700e08f54000d003a003c
:1047f0001a002000faaf9f003fb09700cfb097009b
:104800005fb19700efb19700e00f5000e08f5800c4
:10481000e00f5900e08f5900020032008000eb00e9
:10482000f1af9f007fa19700020cb200b2af9f00d2
:1048300005082000850f51001b003200050c2000e8
:10484000850f510033003a0013c0b300a3579f00f7
:1048500081a22000100037000200fb004300dd00b1
:10486000008040003002be002003be003fb497002d
:10487000cfb497005fb59700efb597000440e10013
:1048800005c8e10006d0e10007d8e10021003900a9
:104890000241e800a2579f002f519700f44f5100aa
:1048a000edff3a001b00370013c0b300a3579f0071
:1048b00008012000090020006055b80012003700f0
:1048c0003fb29700cfb297005fb39700efb3970066
:1048d0000820e10009a8e1000ab0e1000bb8e100fe
:1048e0000c003900450020000804d0008984d20063
:1048f0000a85d2008b85d2008502e900faff3a00d2
:104900000040e800a0579f002f509700f04f500044
:10491000ebff3a002f5397000606fb00ffab970012
:10492000870f560002003d00a7579f000400370084
:104930007fac97008c0f540001003d00fcaf9f003e
:10494000efa49700e08f5400050032007fa5970088
:10495000e3026500020032008904e900e9a79f0034
:1049600005002400ffa5970085826500090032003c
:104970006fa09700ffa89700810f5000030034003c
:1049800001005000e0a79f00020037000001eb008b
:10499000e2a79f00af5197000306fb000007eb0062
:1049a0006fa297008c0f5200010034000c075200d8
:1049b0007fa39700e402630049003200e203630032
:1049c00061066300e08f53001b0032008fbb97002d
:1049d000b70290000504b200090032009706780083
:1049e000d7c2b300e00f560001003a0087c3e900c8
:1049f000874e78000fbc97000d0ce8000a003700c6
:104a0000d7022000e00f560001003a008783e9003a
:104a10008fb897000700780079f2070080027800cd
:104a2000e18f420018003200ffb497008904e800cb
:104a3000f9b79f0014003700e00f56001200320053
:104a40000fbd9700ba0290000504b20005003200c5
:104a50009a03780003c2b300834b7800070de80087
:104a6000060037008fb897000002200064f20700ac
:104a700080027800e18f420003003200ffb597000a
:104a80008b05e800fbb79f00e00f5700e9003200fc
:104a90000cc3b300ffb697000fbc9700380090001e
:104aa0000004b20004003200180078000c487800be
:104ab000000ce800050037008800780000032000a3
:104ac0004ff20700e10f4000010032008d06e800c0
:104ad0000e07e900f1ff3a00fdb79f00d50037004f
:104ae000e00f5700160032007fa09700e802600038
:104af00013003a000cc2b300ffb697000fbc97003a
:104b0000380090000004b200040032001800780061
:104b10000c487800000ce800050037008800780099
:104b20000002200036f20700e10f400001003200d1
:104b30008d06e8000e07e900f1ff3a00fdb79f007f
:104b4000ffa09700e283600061866000e08f530061
:104b50001b0032000fb99700b20290000504b200aa
:104b60000900320092067800d7c2b300e00f560069
:104b700001003a0087c3e900874e78008fb997009b
:104b80008d09e8000a003700d7022000e00f560028
:104b900001003a008783e9008fb89700070078008a
:104ba00017f2070080027800e18f4200a100320076
:104bb0007fb297000402e800f4b79f009d00370021
:104bc000e00f56009b0032000fbb9700b60290002a
:104bd0000504b200050032009603780003c2b3005a
:104be000834b7800070be800060037008fb897006a
:104bf0000002200002f2070080027800e18f4200ec
:104c00008c003200ffb397008703e800f7b79f00de
:104c1000880037000e07e9003fac97000908200024
:104c2000890f54005d0032000a0c20008a0f5400e6
:104c30006b003a004370dd00ffa59700e08f550040
:104c400022003d0081a22000008040003002be0012
:104c50002003be00f4af9f0085b79f0096b79f006a
:104c6000a7b79f003fb09700cfb097005fb1970004
:104c7000efb197009ff50700a0579f000004fb00cd
:104c8000cfc4de00090578008a0578007faa970066
:104c90008fb297001fb39700afb397000800be0014
:104ca0000a01be00fff507003fb49700cfb497009c
:104cb0005fb59700efb597000004540081845c0055
:104cc00002055d0083855d001d003700efa497009d
:104cd000e08f54001f0032003fb69700cfb6970018
:104ce0008aa22000000045003004be002005be005e
:104cf0000801be000c00be003df10700a0579f0058
:104d00000000fb00cf80de000801be00e5f40700d4
:104d10000001560081815e00c2979f00d3979f00db
:104d20008001eb00e3979f000002eb00f4979f00e7
:104d30004f949700df9497006f959700ff95970029
:104d4000b8b79f00c9b79f00dab79f00ebb79f00c5
:104d50000e00370089a22000690178003fb5970056
:104d6000811f7800110009000285d800cf0078006b
:104d7000a2002000811f7800110009000280d800e5
:104d800001007800cf007800a0579f00af55970032
:104d90000b43b000ab579f00110037004270dd009d
:104da0003fb29700cfb297005fb39700efb3970081
:104db000000478000804e900050033008703d100ef
:104dc0000683d3008582d3000482d300f9ff370025
:104dd0006f00620059af200069407800a0579f0023
:104de0000fbd97003a0090000004b20007003200a7
:104df0001a0178002f50970000497800020de80052
:104e0000e04f500007003a0010003700af55970000
:104e10000b00fb008fb8970079f10700e10f40000d
:104e20000a0032007fb097000000e800f0b79f0052
:104e300006003700ffa09700f0806000e1a79f0008
:104e40000e01780082979f007faf9700e00f570018
:104e500070ff3a000f979700ffa1970068816100eb
:104e600015003200e00f57001300340008c2b300f1
:104e7000ffb697000fbe97003c0090000004b20000
:104e8000040032001c00780008487800000ee8009a
:104e9000050037008c0078000002200058f1070060
:104ea000e10f4000010032008d06e8000e07e90026
:104eb000f1ff3a00fdb79f005fa29700144378000e
:104ec000a6579f00e04f5300edf63a007fb09700e1
:104ed0004f0778004f06be004f05be004f04be00ce
:084ee0002f06b10000000600de
:020000040000fa
:104ee80067650000746900006400000069640000e0
:104ef80020640000726f00006e650000203d000015
:104f0800203100000a0000004b700000007600000d
:104f1800616c000020640000652000004b700000f8
:104f2800203a00000a00000069640000206e0000ba
:104f38006f74000020720000656300006f67000056
:104f48006e6900007a6500006421000000520000cc
:104f58006563000065700000746900006f6e0000f2
:104f680020450000727200006f720000210a0000e4
:104f78000044000061740000612000006e6f0000b2
:104f88007420000072640000792100000a0000000b
:104f98000a490000324300002053000065740000f5
:104fa80075700000204300006f6d0000706c0000f9
:104fb8006574000065000000414300004b200000bc
:104fc800312000006e6f0000742000007265000040
:104fd8006369000065760000656400000041000018
:104fe800434b000020320000206e00006f74000068
:104ff80020720000656300006965000076650000a6
:10500800640000005541000052540000204f000089
:105018004b000000256700002c250000672c0000cd
:10502800256700002c250000670a0000000000002a
:020000040000fa
:105038000c00fa00889fbe006000b800008fbe0018
:105048006000b80020079800310798006000b80099
:105058004007980051079800b0458000c14580007e
:1050680002002600a35e240053ee07000200200081
:10507800432b240028f0070002002000a357240037
:105088002def0700008fbe0018c0b30002002000fb
:10509800432b24001e00be007aef0700e00f5000eb
:1050a80001003c000044eb00e04f54000a003a00c5
:1050b80018c0b30002002000432b2c001e00be00c5
:1050c8006eef0700e00f5000010035000044eb00d0
:1050d800e04f5400020032006000b800008fbe00ac
:1050e800704580008145800002002600a35e2400f0
:1050f80031ee070002002000031a240006f0070022
:1051080002002000a35724000bef07002007980097
:105118003107980018c0b30002002000031a2400c9
:105128002e009000be00900056ef0700e00f5000e0
:1051380001003c000044eb00e04f54000b003a0033
:1051480018c0b30002002000031a2c002e009000a3
:10515800be00900049ef0700e00f50000100350045
:105168000044eb00e04f5400030032006000b80038
:10517800200798003107980090458000a1458000dd
:1051880002002600a35e24000bee070002002000a8
:10519800a3572400e8ee070002002000031a2400a9
:1051a800ddef0700400798005107980018c0b300ca
:1051b80002002000031a24004e009000de00900038
:1051c80030ef0700e00f500001003c000044eb0006
:1051d800e04f54000b003a0018c0b3000200200052
:1051e800031a2c004e009000de00900023ef070009
:1051f800e00f5000010035000044eb00e04f540080
:10520800030032006000b80040079800510798007a
:10521800c0408000d1408000604088007140880014
:10522800e0408000f1408000804088009140880084
:105238000041800011418000a0408800b1408800f2
:10524800a08520001000be000001be002e009000c6
:10525800be009000d8ed0700c0408800d14088000b
:10526800a0852000b0009000200090000001be0042
:105278004e009000de009000cfed0700e04088006f
:10528800f1408800b0428000c14280000200200046
:10529800833c2400a8ee07000001be001e00be00eb
:1052a800c5ed070000418800114188007042800068
:1052b8008142800001f0a20002002000833c24000b
:1052c8009dee07002041880031418800904280000f
:1052d800a142800001f0a20002002000833c2400cb
:1052e80095ee07004041880051418800b042800097
:1052f800c142800001f0a20002002000833c24008b
:105308008dee07006041880071418800008320000d
:105318001004be00c0408000d14080000200200080
:10532800833c240084ee07000001be000800be0094
:10533800a2ed0700028320000089be000083200040
:1053480020049000b0049000e0408000f14080000c
:1053580002002000833c240077ee07000001be0015
:105368000800be0095ed0700028320002001980088
:1053780031019800c4408000d5408000104480006e
:10538800214480000001be000400be0062ef070057
:105398000004be0024418000354180005044800054
:1053a800614480000001be000400be005aef0700ff
:1053b8000001be000800be0080ed07000004be002a
:1053c800008320001002be00304480004144800069
:1053d8000001be000400be004fef07000001be0040
:1053e8000800be0075ed07000040880011408800e5
:1053f800e4408000f5408000104480002144800093
:105408000001be000400be0043ef07000004be0018
:105418004441800055418000504480006144800030
:105428000001be000400be003bef07000001be0003
:105438000800be0061ed07000004be0000832000e4
:1054480020029000b0029000304480004144800067
:105458000001be000400be002fef07000001be00df
:105468000800be0055ed0700204088003140880044
:105478000441800015418000704480008144800010
:105488000001be000400be0023ef07000004be00b8
:10549800644180007541800090448000a1448000f0
:1054a8000001be000400be001bef07000001be00a3
:1054b8000800be0041ed07004040880051408800c8
:1054c800404080005140800018c0b3000200200016
:1054d800a34724006bee0700e00f500001003c00da
:1054e8000044eb00e04f54000500320000002000ab
:1054f800a147240040408800514088000f00370031
:10550800404080005140800018c0b30002002000d5
:10551800a3472c0059ee0700e00f500001003500aa
:105528000044eb00e04f540004003200000020006b
:10553800a1472c0040408800514088004f04be001d
:105548000080fa00000006000c00fa00889fbe00e8
:10555800504580006145800018c0b3000200220059
:10556800235b240045ee0700e00f500001003400e3
:105578000044eb00e04f5400030032006000b80024
:10558800008fbe000900370050458000614580004b
:1055980002002e00b35a240007ed07000200200085
:1055a800a3572400e4ed0700008fbe0018c0b30025
:1055b8000200200003f823001e00be0031ee0700a1
:1055c800e00f500001003c000044eb00e04f5400a5
:1055d80009003a0018c0b3006011b8001e00be00f0
:1055e80026ee0700e00f5000010035000044eb00f4
:1055f800e04f5400020032006000b800008fbe0087
:105608006011b8001e00be001cee0700e00f50003d
:1056180009003a0080382100000c880080382100f9
:10562800300c880080382100600c88008038210008
:10563800900c8800bc0037000040800011408000ba
:105648001248200053f32300b3ee07000004be0005
:1056580020408000314080001248200053f32b0086
:10566800adee07000001be000800be00d3ec070045
:105678000002be0040408000514080000001be0092
:105688000400be00cdec070002002800b35b240034
:10569800caec07000004be0002002800b34b240037
:1056a8001e00be009cee07000001be000800be0000
:1056b800c2ec0700f5ed07002007980000408000c5
:1056c800114080001248200053f3230092ee070097
:1056d8000004be00204080003140800012482000b5
:1056e80053f323008cee07000001be000800be0043
:1056f800b2ec07000002be0040408000514080002c
:105708000001be000400be00abec07000200280048
:10571800b35b2400a9ec07000004be0002002800c7
:10572800b34b24001e00be007bee07000001be0044
:105738000800be00a1ec0700d4ed07003007980070
:1057480000408000114080001248200053f32b00d5
:1057580071ee07000004be00204080003140800048
:105768001248200053f323006bee07000001be002f
:105778000800be0091ec07000002be004040800017
:10578800514080000001be000400be008bec070001
:1057980002002800b35b240088ec07000004be0068
:1057a80002002800b34b24001e00be005aee07007a
:1057b8000001be000800be0080ec0700b3ed070042
:1057c80040079800004080001140800012482000e7
:1057d80053f32b0050ee07000004be002040800069
:1057e800314080001248200053f32b004aee070096
:1057f8000001be000800be0070ec07000002be00f9
:1058080040408000514080000001be000400be00fe
:1058180069ec070002002800b35b240067ec07006e
:105828000004be0002002800b34b24001e00be0086
:1058380039ee07000001be000800be005fec07005b
:1058480092ed070050079800ae009000c0d42100e8
:10585800808f500002003400c0d421002007980037
:10586800be009000c0d42100808f50000200340098
:10587800c0d4210030079800ce009000c0d4210089
:10588800808f500002003400c0d4210040079800e7
:10589800de009000c0d42100808f50000200340048
:1058a800c0d4210050079800ae009000f076210087
:1058b800808f500002003c000077210020079800ec
:1058c800be009000f0762100808f500002003c005e
:1058d8000077210030079800ce009000f076210074
:1058e800808f500002003c0000772100400798009c
:1058f800de009000f0762100808f500002003c000e
:1059080000772100500798002e009000000c8800b6
:105918003e009000300c88004e009000600c88001b
:105928005e009000900c88004f04be000080fa00d2
:10593800000006000000fa00504580006145800024
:1059480073ed070000007800000c880050458000c7
:10595800614580006eed070000007800300c88007b
:10596800504580006145800069ed0700000078001f
:10597800600c8800504580006145800064ed070098
:1059880000007800900c88000080fa0000000600f3
:105998000200fa000040eb00004f7800a2c0b300fc
:1059a80011c3b30060cab300cf03070000407800fa
:1059b8001e4f400082c0b300d1c2b30060cab3001a
:1059c800c9030700004078001e4f4000a2c0b30082
:1059d800c1c2b30060cab300c30307000040780027
:1059e8001e4f40001e4078000080fa0000000600ac
:1059f8000400fa00100798001e00900063c0b3006e
:105a08000001780021c3b30060cab300da030700bd
:105a1800004f78001e4078000080fa000000060061
:105a28000400fa00889fbe008a1f7800000f7800e3
:105a3800110798009e0078006480400010007800ec
:105a4800cf80de004ded07000004be001e80e80098
:105a580010007800cf80de0048ed07000801be0086
:105a680033ec070042e1220053262400aaed070088
:105a78001e0190000089be001e00900064054000d1
:105a88009e0078006480400010007800cf80de001f
:105a98003aed07000004be001e00780010007800f0
:105aa800cf80de0035ed07000801be0020ec0700be
