:020000040000fa
:080000000002040000000000f2
:020000040000fa
:1000080090020000900200009002000090020000a0
:100018009002000090020000900200009002000090
:1000280090020000600e000090020000ce0f000059
:1000380090020000980e000090020000900200005c
:100048009002000090020000900200009002000060
:100058009002000090020000900200009002000050
:100068009002000090020000900200009002000040
:100078009002000090020000d00e0000080f00005f
:100088009002000090020000900200009002000020
:100098009002000090020000900200009002000010
:1000a8009002000090020000900200009002000000
:1000b80090020000900200009002000090020000f0
:1000c80090020000900200009002000090020000e0
:1000d80090020000900200009002000090020000d0
:1000e80090020000900200009002000090020000c0
:1000f80090020000900200009002000090020000b0
:10010800900200009002000090020000900200009f
:10011800900200009002000090020000900200008f
:10012800900200009002000090020000900200007f
:10013800900200009002000090020000900200006f
:10014800900200009002000090020000900200005f
:10015800900200009002000090020000900200004f
:10016800900200009002000090020000900200003f
:10017800900200009002000090020000900200002f
:10018800900200009002000090020000900200001f
:10019800900200009002000090020000900200000f
:1001a80090020000900200009002000090020000ff
:1001b80090020000900200009002000090020000ef
:1001c80090020000900200009002000090020000df
:1001d80090020000900200009002000090020000cf
:1001e80090020000900200009002000090020000bf
:0801f8009002000090020000db
:020000040000fa
:10020800900200009002000090020000900200009e
:10021800900200009002000090020000900200008e
:1002280090020000600e000090020000ce0f000057
:1002380090020000980e000090020000900200005a
:10024800900200009002000090020000900200005e
:10025800900200009002000090020000900200004e
:10026800900200009002000090020000900200003e
:100278009002000090020000d00e0000080f00005d
:10028800900200009002000090020000900200001e
:10029800900200009002000090020000900200000e
:1002a80090020000900200009002000090020000fe
:1002b80090020000900200009002000090020000ee
:1002c80090020000900200009002000090020000de
:1002d80090020000900200009002000090020000ce
:1002e80090020000900200009002000090020000be
:1002f80090020000900200009002000090020000ae
:10030800900200009002000090020000900200009d
:10031800900200009002000090020000900200008d
:10032800900200009002000090020000900200007d
:10033800900200009002000090020000900200006d
:10034800900200009002000090020000900200005d
:10035800900200009002000090020000900200004d
:10036800900200009002000090020000900200003d
:10037800900200009002000090020000900200002d
:10038800900200009002000090020000900200001d
:10039800900200009002000090020000900200000d
:1003a80090020000900200009002000090020000fd
:1003b80090020000900200009002000090020000ed
:1003c80090020000900200009002000090020000dd
:1003d80090020000900200009002000090020000cd
:1003e80090020000900200009002000090020000bd
:0803f8009002000090020000d9
:020000040000fa
:100400002f8020000e7f24000e01880000000000d5
:100410000c000700200e2100010020001100070041
:10042000000020000000e000020032000000020096
:1004300000000000d0100200000000000040da00c0
:100440000000fe004440a900000020000000e00081
:100450000300320000002000a00188004440a800f2
:100460000000060091018800800078000000eb0089
:1004700015003700e280400032a0b4009101ba00bc
:10048000e280400032a0b4009102ba00e280400055
:1004900032a0b4000002eb00472bde00f507b200eb
:1004a000602ce10004003a000059eb008301e900f0
:1004b000fdff3e00040037006128e100010032002a
:1004c0000082eb00040007001101ba000200e00006
:1004d000e8ff3a00000006003159ba008301e90044
:1004e0000c0032002159ba008301e90008003200f3
:1004f0000400e00003003a00e280400032a0b400b3
:10050000f5ff370011d9ba008301e900faff3a007c
:100510008100e800e180400032a0b4000000060045
:100520000040da000000fe008420a900670160009e
:100530004411dd0023058000f1f82f008180610067
:100540008280700021058800680060004300de00a2
:100550006100600080004000a00480000010a10045
:1005600001007000a00488000000060084a0a9001b
:10057000670160004411dd0033058000f1f82f00b1
:100580008180610082807000310588006800600011
:10059000c300de00e1806000c508dd00a00480002b
:1005a0000050a10001007000a004880000000600b7
:1005b00086c0a900670160004811dd007305800056
:1005c000f18f2f00818061008280700071058800aa
:1005d00068006000c300de00e1806000c608dd0046
:1005e000b00480000060a10001007000b004880029
:1005f0000000060086e0a900670160004c11dd00e4
:1006000073058000f1ff2800818061008280700006
:100610007105880068006000c300de00e1806000b2
:10062000c708dd00b00480000070a1000100700068
:10063000b004880000000600100a880000000600d0
:10064000300a880000000600d00a8800000006007a
:10065000f00a8800000006008440a90067016000dd
:100660004811dd0023058000f18f2f00818061009b
:10067000828070002105880068006000c300de00f1
:10068000e1806000c208dd00a00480000020a1001d
:1006900001007000a00488000000060084c0a900ca
:1006a000670160004811dd0033058000f18f2f00e5
:1006b00081806100828070003105880068006000e0
:1006c000c300de00e1806000c608dd00a0048000f9
:1006d0000060a10001007000a00488000000060076
:1006e0008720a900670160004411dd0083058000b8
:1006f000f1f82f0081806100828070008105880000
:1007000068006000c300de00e1806000c908dd0011
:10071000b00480000090a10001007000b0048800c7
:10072000000006008740a900670160004811dd0055
:1007300083058000f18f2f0081806100828070002e
:100740008105880068006000c300de00e180600071
:10075000ca08dd00b004800000a0a1000100700004
:10076000b00488000000060083ff2f008001fd0018
:100770008421b6008001fd00010c8800120c880065
:10078000200c88000000060083ff2f008001fd0080
:100790008a21b6008001fd00310c8800420c8800df
:1007a000500c88000000060083ff2f008001fd0030
:1007b0009021b6008001fd00610c8800720c880059
:1007c000800c88000000060083ff2f008001fd00e0
:1007d0009621b6008001fd00910c8800a20c8800d3
:1007e000b00c8800000006008460a900670160006a
:1007f0004c11dd0023058000f1ff2800818061009d
:10080000828070002105880068006000a1048000db
:100810000130a10080807000a10488000000060063
:100820000021ef0011088800200888000000060061
:100830000621ef0061088800800888001061a90087
:10084000000006000a21ef00710888009008880067
:10085000000006000008880000000600300888003c
:1008600000000600500888000000060003f0a20007
:10087000889fbe008a9fbe008c1f78005d01070024
:10088000640133006450e1004f0032006420e10055
:100890005200320003826c0007003b000905d000c3
:1008a0000306d000820f54000c065d0002003900e0
:1008b0000200320089017800030678008582550025
:1008c00004003d000003fd008103fd008502ea00f5
:1008d0008b854200840f720002003b006000100014
:1008e000e08018006011b8000005eb007a28e100f4
:1008f0000a00390006007800c75ddd00f707b20086
:10090000878075002d003700828171000a01780010
:10091000610560008180d1000080d3008502e9007c
:10092000f9ff3b00060440008784480002003b00ba
:1009300060041400e0841c000988a3000700320052
:100940008a81710082817100610164008904d10093
:100950000884d3008b05e800170037000978a3004e
:1009600013003a000b00e000130034008b05e9008f
:100970000804440089844c000a4474000978a300e8
:100980000d003a000b00e000070034008b05e90081
:100990000804440089844c0001003a000b00200048
:1009a0000978a300f7ff32000001eb0002003700d6
:1009b000828171000a017800d30007000cf0a700c3
:1009c00001f0a0001c0137006420e10002003a00a1
:1009d000838f6c001c0133000801be000200be00c2
:1009e00015013700889fbe008a9fbe008c1f7800cb
:1009f000000107001002200002003b0000408800b8
:100a0000040137008a0062006408e10002003a0035
:100a1000004088000c0137006108e100fcff320053
:100a20000800be00030478007000070001f0a10078
:100a30000900070008f0a600040037000001be000e
:100a400091042400b0fd200088ff070009f0a700f2
:100a500001f0a200f8003700889fbe008a9fbe0008
:100a60008c9fbe000004be00cd0007000800be0041
:100a7000890678006420e100080039000400320093
:100a80000160a000120220000240880053003700dd
:100a900091fc2300b0fd20004e0037000006eb0063
:100aa00009f0a10003f82300020020000800be00a6
:100ab000900007000600340001f823000000200029
:100ac0000801be00490007000004be002c00200001
:100ad0000800be0093e82300320a230085000700c7
:100ae000120034000801be00d1fd2300703d2b0030
:100af0005fff07000005be00b3f32300f27a260073
:100b00000800be00d300070003f823000200200005
:100b100056ff07000801be0055ff07000a01be008e
:100b2000320007000004be000c06e8000800be000a
:100b300001f0a10002002000039823006d000700cf
:100b40000800be00160035000801be00c100070005
:100b50000005be0032cd2c0043fb230044ff0700fc
:100b6000809fbe001269280003d52b000a00be003a
:100b7000b8000700620f210013ef2b003cff0700b5
:100b80000a01be00b30007004f01be0017000700b6
:100b90000801be00af0007000801be0034ff0700d7
:100ba0000c00e0000b0032000c10a70001f0a200c6
:100bb000b2fd200093fc23006260e10004003200db
:100bc00022a9200063f023000c10a70063f8230083
:100bd00027ff07000df0a70001f0a2004f06be009e
:100be0004f05be004f04be0000000600889fbe00f7
:100bf0008a9fbe008c1f78007e00070085003300ae
:100c000003866c006450e1002e0032006420e10095
:100c1000330032006150e1002f0032006120e1001a
:100c20003100320085855500eb07b0000900200037
:100c300008042000050037000804440089844c00a3
:100c40000a0031000603430087834b000001530074
:100c500081815b00f8ff33000203be000800a000a2
:100c60000804440089844c00f6ff3900c639dd00d1
:100c70008301730001003200130020008904d100b9
:100c80000884d3000998a300050032000800a700db
:100c90000300a0008904d1000884d3008b05e8007c
:100ca0008904d1000884d3000001eb000281d20046
:100cb0001500070001f0a1000cf0a70001f0a00052
:100cc0005d0037006420e1005f0032000801be00d3
:100cd0000200be00f7ff37006120e1005a00320039
:100ce0006000b800f3ff37000000200001f8270083
:100cf000f0ff370014002000bf0037004f89de00ee
:100d000082017800d7003700810020006180550003
:100d10000b003d000b00200061fe2f000100e100f0
:100d20001d00340082817100610164008904d100da
:100d30000884d3000000e800faff3a0071002000a8
:100d400061006400030070000200600009003200ce
:100d500061044400e0844c000988a50005003200cd
:100d60008b05e8006808e10002003a008904d10020
:100d70000884d300f20f20000258e10005003d0076
:100d8000c75ddd00f907b2008980750008007800b2
:100d9000000006000bf827008b007800000005001b
:100da000c70ade00f107b200f50fb20008003200fa
:100db000e1cf4200020032000170a00024000500d3
:100dc000810f700001003200040805004400050096
:100dd000810f700002003a00140005008502e9004e
:100de0000000400081c04800fcff3b000170a000f3
:100df000240005000004be00e9ff07000003be0058
:100e00000405be000200be00e5ff0700844f750028
:100e1000000006000200be006450e100050036003c
:100e20006420e100020036000968a30001003a00d6
:100e30000800be000160a0004f0678004f05be000c
:100e40004f04be0000000600f0ff2f00f1ff270056
:100e5000f9ff3700889fbe008a9fbe008c1f780074
:100e6000e4ff0700ebff330003866c006450e100f1
:100e7000240032006420e100270032006150e100cc
:100e8000220032006120e100210032008b85420007
:100e9000eb07b1000134b800003ab8000804420082
:100ea00089844a00013ab8000030b80088804000c8
:100eb00009014a000400330000004000818048001e
:100ec000020149008b05e900c909dd0083017000ba
:100ed0000100320013002000c814de004814dd00b9
:100ee0004709de001200b200c808de000884700066
:100ef00085ff070001f0a1000cf0a70001f0a000a1
:100f0000cdff37006120e100cfff32000801be00b5
:100f10000200be00f7ff37006150e100fcff3a001d
:100f2000c9ff3700889fbe008a9fbe008c1f7800d3
:100f30000004be009aff07000478a30026003a00d0
:100f40006120e1002500320009f8a30025003a00e5
:100f50006420e10021003200f507b1000508a3007c
:100f60000200320000004000818048006044b80068
:100f70000310200002002000000040008180480093
:100f80000805440089854c000a0541008b8549000d
:100f90000a0550008b855800030033000a00be008c
:100fa00002047400838474008301d1000281d300a1
:100fb000830f7100f0ff3a008904d1000884d30048
:100fc0006001490082017800c1adde00fb07b0007e
:100fd0004dff070098ff37000960a0000800be0021
:100fe00095ff37001202200002408800f0ff2f001a
:100ff000f1ff270090ff3700889fbe008a9fbe0048
:10100000841f78007bff07004f0078001100330039
:10101000f0ff2f00838f6c0006003b000405650085
:101020000a00a7000800370009f0a6001000200001
:1010300008003700820f5400838f5c0003003900e2
:101040001000200001003e000000200009f0a70071
:101050000000ea004f05be004f04be000000e000a3
:1010600000000600881f7800030478000300e000f9
:1010700007003d0060001000e080180060011900ca
:10108000e081190002003b0001f02d000300370051
:101090000400070008f0a70001f0a0004f0478004a
:1010a00000000600889fbe008a9fbe00008270007c
:1010b0000402710004827100260032000004be00a8
:1010c0000200be006011b8006b09200095022000ec
:1010d0000182cf000a0039000541b1000082cf0033
:1010e000070039000541b1000982cf000400390032
:1010f0000541b1000882cf00010039000541b1006f
:1011000005425200120032000a003b008281710049
:10111000610164008100d1000080d3008984d30084
:101120000884d3008b05e8000442e800f7ff3a008a
:10113000070037000804440089844c000000480080
:10114000818048008b05e9000442e900f9ff3a007c
:10115000edfe07004f05be004f04be000000060074
:020000040000fa
:101160000000fa00f0042000201088000020210078
:10117000301088000000eb00001088000000eb0039
:101180001010880000202900301088000080fa002c
:10119000000006000000fa000602a800000000009f
:1011a0003010800061006000e00f5000fcff3a004a
:1011b0000080fa00000006000000fa000622a800e5
:1011c000000000003010800062006000e00f50005e
:1011d000fcff3a000080fa00000006000000fa0060
:1011e0000642a8000000000030108000640060008b
:1011f000e00f5000fcff3a000080fa0000000600fb
:101200000200fa00004f78009e4078000180fb0049
:101210001010880000000000401080006100600095
:10122000e00f5000fcff3a000080fa0000000600ca
:101230000000fa00000000004110800000002400bf
:1012400000806000e00f5000fbff3a000080fa00d1
:10125000000006000600fa00204798003147980079
:1012600042479800f2ff0700caff07002e40900097
:10127000e3ff0700eeff0700c5000700000f78003e
:101280003e409000deff0700e9ff0700c0000700b6
:10129000000f78004e409000d9ff0700e4ff0700e0
:1012a000ceff07002e409000000107001e007800ce
:1012b0000080fa00000006000600fa00004f7800e7
:1012c000114798001207980043479800d8ff07007d
:1012d000b0ff07001e407800c9ff0700d4ff0700d9
:1012e0001e409000c6ff0700d1ff0700b2ff0700b5
:1012f0001e4078000004a000c1ff0700ccff0700db
:10130000ce4090001e009000bc000700a600070021
:10131000b2ff07000080fa00000006000600fa0095
:10132000204798003147980042479800534798005b
:10133000bfff070097ff07002e409000b0ff070097
:10134000bbff070092000700000f78003e409000ae
:10135000abff0700b6ff07004e409000a8ff070054
:10136000b3ff07008a000700000f78005e4090007e
:10137000a3ff0700aeff070098ff07002e40900074
:10138000ca0007001e0078000080fa000000060076
:101390000800fa00004f7800114798002247980093
:1013a0002307980064479800a1ff070079ff070012
:1013b0001e40780092ff07009dff07001e4090002e
:1013c0008fff07009aff07002e4090008cff070058
:1013d00097ff070078ff07001e4078000004a00078
:1013e00087ff070092ff0700ee4090002e0090005c
:1013f000820007006c00070078ff07000000eb0088
:101400000080fa00000006000400fa00004f780097
:10141000114798001207980085ff07005dff07003d
:101420001e40780076ff070081ff07001e409000f5
:1014300073ff07007eff07001e009000d300070027
:101440007bff070065ff07000000eb000080fa004b
:10145000000006000600fa00004f780011479800cf
:10146000224798002307980071ff070049ff0700f3
:101470001e40780062ff07006dff07001e409000cd
:101480005fff07006aff07002e4090005cff070027
:1014900067ff07002e009000bc00070064ff0700f4
:1014a0004eff07000000eb000080fa00000006007d
:1014b0000600fa00004f78001147980012079800c4
:1014c000434798005aff070032ff07001e4078008c
:1014d0004bff070056ff07001e40900048ff070023
:1014e00053ff070034ff07001e4078000004a000ef
:1014f00043ff07004eff0700ce4090001e00900003
:101500003e0007002800070034ff07000000eb0042
:101510000080fa00000006000800fa00004f780082
:1015200011479800224798002307980064479800c5
:101530003fff070017ff07001e40780030ff07003d
:101540003bff07001e4090002dff070038ff0700fb
:101550002e4090002aff070035ff070016ff070006
:101560001e4078000004a00025ff070030ff0700a0
:10157000ee4090002e009000200007000a000700b7
:1015800016ff07000000eb000080fa0000000600d4
:101590000000fa00401080000080ea004f00de00ea
:1015a0000080fa00000006000000fa0006a2a80071
:1015b0000682a8000000000030108000700060006b
:1015c000e00f5000fcff3a0006a2a9000080fa00dc
:1015d000000006000000fa0006a2a9000682a8008a
:1015e000000000003010800070006000e00f50002c
:1015f000fcff3a000080fa00000006000400fa0038
:10160000000f780021479800100037001c000700e9
:10161000004078009e007800804878001e0fe800a7
:10162000411080000040200000806000e00f50006a
:10163000020032000080eb000f0037002e409000c7
:10164000e04f500001003200e2ff07002e40900002
:101650000080fb000000ea004f00de000040780040
:10166000ae4090008140e90021479800e04f5000d3
:10167000e6ff3a000000eb000080fa0000000600e0
:101680000000fa000662a800000000000000000050
:101690004010800062006000e00f5000fcff32004c
:1016a000001080000080fa00000006000200fa002e
:1016b000004f7800defe0700b6fe070041108000f4
:1016c0000040200000806000e00f50000200320067
:1016d0000080eb002b0037001e407800c8fe07009a
:1016e000e00f500002003200d0ff2f00250037002d
:1016f000cffe070041108000004020000080600005
:10170000e00f5000120032000080eb001d00370097
:10171000a9fe07004110800000402000008060000a
:10172000e00f5000020032000080eb00150037008f
:101730001e407800b2fe0700e00f500002003200a9
:10174000d0ff2f000f003700b9fe0700010037005f
:10175000000000008eff0700e00f5000ecff3a0091
:101760009efe0700411080000040200000806000c5
:10177000e00f5000020032000080eb000100370053
:101780000000eb000080fa00000006000400fa00f0
:10179000100798000040eb00004f7800130037005e
:1017a0001e0090001040780095fe0700e00f5000ea
:1017b00002003200d0ff2f00100037009cfe07000f
:1017c000411080000000280000806000e00f500001
:1017d00002003200e0ff2f00080037001e009000da
:1017e0000000e800100798001e4fe8001e40780037
:1017f000ff4f5000eaff36000000eb000080fa00c7
:10180000000006000200fa000040eb00004f7800e4
:10181000a2c0b30011c3b30060cab3008dfe0700bd
:10182000004078001e4f400082c0b300d1c2b30018
:1018300060cab30087fe0700004078001e4f4000da
:10184000a2c0b300c1c2b30060cab30081fe0700ea
:10185000004078001e4f40001e4078000080fa00d3
:10186000000006000400fa00100798001e00900017
:1018700063c0b3000001780021c3b30060cab300a5
:101880008dfe0700004f78001e4078000080fa00af
:10189000000006000400fa00889fbe008a1f78003e
:1018a000000f7800110798009e00780064804000c7
:1018b00010007800cf80de0010fd07000004be009d
:1018c0001e80e80010007800cf80de000bfd0700ce
:1018d0000801be0043fc07001e0190000089be0005
:1018e0001e009000640540001e80e8009000780013
:1018f0001e80e800100078000088b9000001780020
:101900009e01780064804100900078009e0178007c
:1019100064804100100078000088b9000000780061
:1019200000004100cf80de00f4fc07007dfd0700d1
:101930000004be001e00780010007800cf80de009a
:10194000eefc07000801be0026fc0700008dbe006b
:101950004f0578004f04be000080fa00000006002a
:101960000200fa000040eb00004f7800b2c1b30063
:1019700061c1b30000cdb30036fe0700004078001f
:101980001e4f400092c0b30051c1b30000cdb30060
:1019900030fe0700004078001e4f40001e407800d7
:1019a0000080fa00000006000c00fa0050079800c2
:1019b0000e00e80083c0b30000017800b1c1b3009d
:1019c00000cdb3003cfe0700004f78001e409000a1
:1019d0000080fb00c800dd002e4090000080fb006e
:1019e000808070005e009000010878005e0090002a
:1019f0000080e800500798003e4090000080fb0007
:101a0000c800dd004e4090000080fb008080700028
:101a10005e009000010878005e0090000080e80001
:101a2000500798005e4090000080fb00c800dd0079
:101a30006e4090000080fb00808070005e0090008f
:101a4000010878005e0090000080e80050079800d0
:101a50007e4090000080fb00c800dd000e48900032
:101a60000080fb00808070005e009000010878001c
:101a70005e0090000080e800500798001e4078004b
:101a80000080fa00000006000a00fa00889fbe00ed
:101a90008a9fbe008c1f780030079800410798008d
:101aa000e0002000000f7800e00020001007980000
:101ab000e0002000200798004e0090001004be00b7
:101ac0003e0090000080e80010007800cf80de002b
:101ad0008afc07000005be001e007800cf80de00f3
:101ae00086fc07000001be000a00be003ffc0700a4
:101af00002002000833c24003cfc07000001be00e3
:101b00000800be005afb07004e0190000089be008d
:101b10004e009000640640004e00900064004000bb
:101b20001004be003e0090000080e8001000780025
:101b3000cf80de0071fc07000005be001e00900093
:101b4000cf80de006dfc07000001be000a00be0071
:101b500026fc070002002000833c240023fc070031
:101b60000001be000800be0041fb0700008ebe0061
:101b70004e0090006c0640004e0090006c0040004b
:101b80001004be003e0090000080e80010007800c5
:101b9000cf80de0059fc07000005be002e0090003b
:101ba000cf80de0055fc07000001be000a00be0029
:101bb0000efc070002002000833c24000bfc070001
:101bc0000001be000800be0029fb0700008ebe0019
:101bd0004f0678004f05be004f04be000080fa009b
:101be000000006000000fa008080eb00d0f827001b
:101bf0000ffb070094e0a9000080fa000000060037
:101c00000000fa0011e1a9000000eb0013fb07003f
:101c100011e1a8000080fa00000006000000fa00b0
:101c20007134800000fe2f00008060005000b3007f
:101c30007034880071348000f00f2e0080806000c6
:101c4000006020000080700070348800a1348000a3
:101c500000fe2f00008060007000b300a0348800f8
:101c6000a1348000f00f2e00808060000040210031
:101c700000807000a034880090f92d006efa0700f3
:101c800090f92d006efa070090f92d006efa07000a
:101c900090f92d006efa0700e0ff2f0022fa0700ee
:101ca000e0ff2f0031fa0700e0ff2f0040fa0700a5
:101cb000e0ff2f004ffa07000080fa000000060046
:101cc0003600f800809fbe00829fbe00849fbe0049
:101cd000869fbe003400f80000002000a0018800ac
:101ce0000200fa005116800000022000008060000f
:101cf000e00f500004003200c1ff0700000a80001e
:101d0000000f780001003700501680008420a900e1
:101d10000080fa003400f9004f03be004f02be00fd
:101d20004f01be004f00be003600f9000040060023
:101d30003600f800809fbe00829fbe00849fbe00d8
:101d4000869fbe003400f80000002000a00188003b
:101d50000200fa005116800000042000008060009c
:101d6000e00f500004003200a5ff0700200a8000a9
:101d7000000f7800010037005016800084a0a900f1
:101d80000080fa003400f9004f03be004f02be008d
:101d90004f01be004f00be003600f90000400600b3
:101da0003600f800809fbe00829fbe00849fbe0068
:101db000869fbe003400f80000002000a0018800cb
:101dc0000200fa0051168000000820000080600028
:101dd000e00f50000400320089ff0700c00a8000b5
:101de000000f7800010037005016800086c0a9005f
:101df0000080fa003400f9004f03be004f02be001d
:101e00004f01be004f00be003600f9000040060042
:101e10003600f800809fbe00829fbe00849fbe00f7
:101e2000869fbe003400f80000002000a00188005a
:101e30000200fa009016800070006000e00f500071
:101e4000040032006eff0700e00a8000000f7800f7
:101e5000010037009016800086e0a9000080fa009b
:101e60003400f9004f03be004f02be004f01be0018
:101e70004f00be003600f900004006000000fa00e6
:101e8000313a800000e02f00808060009002200046
:101e900000807000303a8800213a8000f0f32f0073
:101ea00000806000203a8800213a800000fe2f0068
:101eb00000806000203a88000080fa0000000600e0
:101ec0000000fa00c042a900c062a900c082a900b7
:101ed00081e0a9000080fa00000006000000fa007e
:101ee0008080eb00d0f827004dfa0700b0ff2f00ec
:101ef0003dfa07000080fa00000006000000fa002a
:101f000005e1a9000000eb0052fa070005e1a80076
:101f10000080fa00000006001000fa00889fbe0052
:101f2000200798003107980042079800530798004f
:101f3000640798007507980002002000833c240085
:101f40004e009000de00900028fb07002e0190005c
:101f5000be01900046fa0700e28a2d00f3f7230045
:101f6000bcfb07000004be0002802400d3a12300b4
:101f70006e009000fe009000b6fb07000001be005e
:101f80000800be003afa0700008fbe001e00be0027
:101f90004f04be000080fa0000000600809fbe00d3
:101fa000821f78003400f80000002000a0018800a3
:101fb0000000fa0020168000e400600010c0b300aa
:101fc000e08f5000010032000040eb000080fb0079
:101fd000610060004200dd0022168000b1ff2f008a
:101fe0008100610000807000201688008460a900d4
:101ff0000080fa003400f9004f0178004f00be0065
:10200000004006000000fa008080eb00d0f82700b6
:102010000cfa07009500a9000080fa0000000600f5
:102020000000fa0013e1a9000000eb000dfa070020
:1020300013e1a8000080fa00000006000000fa008a
:102040005136800000fe2f00008060002001b300a8
:102050005036880051368000f00f2e0080806000de
:10206000003021000080700050368800613680000a
:1020700000fe2f00008060004001b3006036880041
:1020800061368000f00f2e0080806000005021003b
:102090000080700060368800c22b20008080eb003a
:1020a00080ff2d00b0f90700c22b20008080eb00dc
:1020b00080ff2d00b4f90700c22b20008080eb00c8
:1020c00080ff2d00b8f90700c22b20008080eb00b4
:1020d00080ff2d00bcf9070020ff2f005ef90700ec
:1020e00020ff2f006df9070020ff2f007cf907006b
:1020f00020ff2f008bf9070070002000100c8800d3
:102100000080fa00000006000000fa00210c8000a8
:1021100080ff2f00008060006000b300200c88006a
:10212000510c800080ff2f00008060006000b30031
:10213000500c8800810c800080ff2f000080600020
:102140006000b300800c8800b10c800080ff2f007d
:10215000008060006000b300b00c8800b0ff070092
:082160000080fa0000000600f7
:020000040000fa
:10216800f03fb1000180b10006003500ee03090020
:1021780000000000403fb1000180b100fbff3d00be
:102188001000b000203fb0000200350000800900b8
:08219800000000000000060039
:020000040000fa
:1021a0000000fa0035ff070045ff0700c02b2000a4
:1021b000100c88000088230011002000eaff0700af
:0421c000faff3700eb
:020000040000fa
:1021c4000008000002000000000000000000000001
:020000040000fa
:0200000401f009
:04000c0079ff000078
:020000040000fa
:0200000401f009
:04001000bbff000032
:020000040000fa
:0200000401f009
:040014007fff00006a
:020000040000fa
:0200000401f009
:04001c00dfff000002
:00000001FF
