:020000040000fa
:080000000002040000000000f2
:020000040000fa
:100008009a0200009a0200009a0200009a02000078
:100018009a0200009a0200009a0200009a02000068
:100028009a020000f65300009a0200001a500000dd
:100038009a0200008c5400009a0200009a02000004
:100048009a0200009a0200009a02000098580000e4
:10005800bc5800009a0200009a0200009a020000b0
:100068009a0200009a0200009a0200009a02000018
:100078009a0200009a02000022550000b8550000bc
:100088009a0200009a0200009a0200009a020000f8
:100098009a0200009a0200009a0200009a020000e8
:1000a8009a0200009a0200009a0200009a020000d8
:1000b8009a0200009a0200009a0200009a020000c8
:1000c8009a0200009a0200009a0200009a020000b8
:1000d8009a0200009a0200009a0200009a020000a8
:1000e8009a0200009a0200009a0200009a02000098
:1000f8009a0200009a0200009a0200009a02000088
:100108009a0200009a0200009a0200009a02000077
:100118009a0200009a0200009a0200009a02000067
:100128009a0200009a0200009a0200009a02000057
:100138009a0200009a0200009a0200009a02000047
:100148009a0200009a0200009a0200009a02000037
:100158009a0200009a0200009a0200009a02000027
:100168009a0200009a0200009a0200009a02000017
:100178009a0200009a0200009a0200009a02000007
:100188009a0200009a0200009a0200009a020000f7
:100198009a0200009a0200009a0200009a020000e7
:1001a8009a0200009a0200009a0200009a020000d7
:1001b8009a0200009a0200009a0200009a020000c7
:1001c8009a0200009a0200009a0200009a020000b7
:1001d8009a0200009a0200009a0200009a020000a7
:1001e8009a0200009a0200009a0200009a02000097
:0801f8009a0200009a020000c7
:020000040000fa
:100208009a0200009a0200009a0200009a02000076
:100218009a0200009a0200009a0200009a02000066
:100228009a020000f65300009a0200001a500000db
:100238009a0200008c5400009a0200009a02000002
:100248009a0200009a0200009a02000098580000e2
:10025800bc5800009a0200009a0200009a020000ae
:100268009a0200009a0200009a0200009a02000016
:100278009a0200009a02000022550000b8550000ba
:100288009a0200009a0200009a0200009a020000f6
:100298009a0200009a0200009a0200009a020000e6
:1002a8009a0200009a0200009a0200009a020000d6
:1002b8009a0200009a0200009a0200009a020000c6
:1002c8009a0200009a0200009a0200009a020000b6
:1002d8009a0200009a0200009a0200009a020000a6
:1002e8009a0200009a0200009a0200009a02000096
:1002f8009a0200009a0200009a0200009a02000086
:100308009a0200009a0200009a0200009a02000075
:100318009a0200009a0200009a0200009a02000065
:100328009a0200009a0200009a0200009a02000055
:100338009a0200009a0200009a0200009a02000045
:100348009a0200009a0200009a0200009a02000035
:100358009a0200009a0200009a0200009a02000025
:100368009a0200009a0200009a0200009a02000015
:100378009a0200009a0200009a0200009a02000005
:100388009a0200009a0200009a0200009a020000f5
:100398009a0200009a0200009a0200009a020000e5
:1003a8009a0200009a0200009a0200009a020000d5
:1003b8009a0200009a0200009a0200009a020000c5
:1003c8009a0200009a0200009a0200009a020000b5
:1003d8009a0200009a0200009a0200009a020000a5
:1003e8009a0200009a0200009a0200009a02000095
:0803f8009a0200009a020000c5
:020000040000fa
:10040000efcf20000e7f24000e01880000000000c6
:10041000000020000000e000020032000001200087
:10042000200288000c000700408c250001002000fd
:1004300011000700000020000000e0000200320070
:100440000000020000000000d25b0200000000007b
:100450000040da000000fe004440a90020b820005f
:100460000000e0000300320000002000a00188002e
:100470004440a80000000600910188008000780038
:100480000000eb0015003700e280400032a0b4000d
:100490009101ba00e280400032a0b4009102ba009b
:1004a000e280400032a0b4000002eb00472bde00e7
:1004b000f507b200602ce10004003a000059eb009f
:1004c0008301e900fdff3e00040037006128e100e0
:1004d000010032000082eb00040007001101ba00a5
:1004e0000200e000e8ff3a00000006003159ba00bf
:1004f0008301e9000c0032002159ba008301e900b0
:10050000080032000400e00003003a00e2804000ee
:1005100032a0b400f5ff370011d9ba008301e90019
:10052000faff3a008100e800e180400032a0b40008
:10053000000006000040da000000fe000a00fa0099
:10054000e20f500022003e00e4678000e10f5200fd
:1005500006003200872320004623200024232000a9
:1005600005232000e08f530004003a00872220007a
:10057000462220002422200005222000000028001e
:100580001500600003003a00800b78000700280087
:10059000958a7300054020009482620001003a00b1
:1005a00014a0a000820278000600370094037800af
:1005b0000710b200fdff3200b103fb00070b78000b
:1005c0008502e900e08f5200f8ff3a00080037008a
:1005d00034002000c0bf9f00e2bf9f00b4bf9f0057
:1005e000d1bf9f006a8057005d0407006fb9970074
:1005f000020078000080fa00000006008420a900b4
:1006000067026000f5f82f004422dd002605800017
:100610008682620068006000850272004300de008e
:100620002505880061006000d4ff2f000000400015
:10063000a50480000502620004027000a404880082
:100640000000060084a0a90067026000f5f82f00f2
:100650004422dd003605800086826200680060006a
:10066000850272004300de003505880061006000ed
:10067000f4fd2f004500dd00a504800005026200a6
:1006800004027000a40488000000060086c0a900cf
:1006900067026000f58f2f004822dd00760580009c
:1006a0008682620068006000850272004300de00fe
:1006b0007505880061006000f4fb2f004600dd0036
:1006c000b50480000502620004027000b4048800d2
:1006d0000000060086e0a90067026000f5ff280020
:1006e0004c22dd0076058000868262006800600092
:1006f000850272004300de0075058800610060001d
:10070000f4f72f004700dd00b50480000502620009
:1007100004027000b404880000000600100a88007b
:1007200000000600300a880000000600d00a880099
:1007300000000600f00a8800000006008440a900be
:1007400067026000f58f2f004822dd00260580003b
:100750008682620068006000850272004300de004d
:100760002505880061006000b4ff2f004200dd0015
:10077000a50480000502620004027000a404880041
:100780000000060084c0a90067026000f58f2f00fa
:100790004822dd0036058000868262006800600025
:1007a000850272004300de003505880061006000ac
:1007b000f4fb2f004600dd00a50480000502620066
:1007c00004027000a4048800000006008720a9002d
:1007d00067026000f5f82f004422dd0086058000e6
:1007e0008682620068006000850272004300de00bd
:1007f0008505880061006000f4df2f004900dd00fe
:10080000b50480000502620004027000b404880090
:10081000000006008740a90067026000f58f2f00e6
:100820004822dd0086058000868262006800600044
:10083000850272004300de008505880061006000cb
:10084000f4bf2f004a00dd00b504800005026200fd
:1008500004027000b40488000000060084ff2f002a
:1008600045182000950a6200010c8800120c8800cf
:10087000200c88000000060084ff2f00a51820002f
:10088000950a6200310c8800420c8800500c8800e8
:100890000000060084ff2f0005192000950a620061
:1008a000610c8800720c8800800c88000000060033
:1008b00084ff2f0065192000950a6200910c8800c2
:1008c000a20c8800b00c8800000006008460a9001b
:1008d00067026000f5ff28004c22dd00260580003d
:1008e00086826200680060008502720074ff2f003b
:1008f00025058800a504800005026200040270003e
:10090000a4048800000006000021ef001108880000
:1009100020088800000006000621ef00610888001a
:10092000800888001061a900000006000a21ef007d
:100930007108880090088800000006000008880000
:1009400000000600300888000000060050088800fb
:1009500000000600001020002202b6000000e9009e
:100960004f00de00000006001011800061406000b2
:10097000000006000411800066026200e60f5200cb
:100980000c003a00030037002322ab00feff3a00c0
:1009900025118800b0027800e08f5200faff3a007b
:1009a000000006002322ab00feff3a008502fb0098
:1009b00025118800b0427800e0cf5200f9ff3a00dc
:1009c000000006000411800066026200e60f52007b
:1009d00002003a0030118000000006003011800053
:1009e000f00fb200000006000411800066026200f1
:1009f000e60f520001003200f00fb2002011880013
:100a00000000060003f0a200889fbe008a9fbe007f
:100a10008c1f7800ac010700b30133006450e10083
:100a20004f0032006420e1005200320003826c006b
:100a300007003b000905d0000306d000820f5400d8
:100a40000c065d00020039000200320089017800c6
:100a5000030678008582550004003d000003fd0078
:100a60008103fd008502ea008b854200840f72003d
:100a700002003b0060001000e08018006011b80028
:100a80000005eb007a28e1000a0039000600780032
:100a9000c75ddd00f707b200878075002d003700c5
:100aa000828171000a017800610560008180d100b7
:100ab0000080d3008502e900f9ff3b0006044000f6
:100ac0008784480002003b0060041400e0841c009e
:100ad0000988a300070032008a81710082817100b9
:100ae000610164008904d1000884d3008b05e8000b
:100af000170037000978a30013003a000b00e0004c
:100b0000130034008b05e9000804440089844c007c
:100b10000a4474000978a3000d003a000b00e000bd
:100b2000070034008b05e9000804440089844c0068
:100b300001003a000b0020000978a300f7ff320003
:100b40000001eb0002003700828171000a01780089
:100b5000220107000cf0a70001f0a0006b01370094
:100b60006420e10002003a00838f6c006b013300c7
:100b70000801be000200be0064013700889fbe006d
:100b80008a9fbe008c1f78004f01070010022000d2
:100b900002003b0020558800530137008a006200a4
:100ba0006408e10002003a00205588005b0137002c
:100bb0006108e100fcff32000800be000304780079
:100bc0007000070001f0a1000900070008f0a6006e
:100bd000040037000001be0091042400b0fd200095
:100be00088ff070009f0a70001f0a20047013700c5
:100bf000889fbe008a9fbe008c9fbe000004be007e
:100c00001c0107000800be00890678006420e1008e
:100c100008003900040032000160a0001202200028
:100c2000225588005300370091fc2300b0fd2000be
:100c30004e0037000006eb0009f0a10003f8230086
:100c4000020020000800be009f00070006003400dc
:100c500001f82300000020000801be004900070041
:100c60000004be002c0020000800be0093e8230012
:100c7000320a230094000700120034000801be006d
:100c8000d1fd2300703d2b005fff07000005be0073
:100c9000b3f32300f27a26000800be0031010700fa
:100ca00003f823000200200056ff07000801be00e1
:100cb00055ff07000a01be00320007000004be0015
:100cc0000c06e8000800be0001f0a10002002000b0
:100cd000039823007c0007000800be0016003500c2
:100ce0000801be001f0107000005be0032cd2c0028
:100cf00043fb230044ff0700809fbe0012692800c9
:100d000003d52b000a00be0016010700620f210068
:100d100013ef2b003cff07000a01be001101070082
:100d20004f01be00170007000801be000d010700bb
:100d30000801be0034ff07000c00e0000b00320089
:100d40000c10a70001f0a200b2fd200093fc2300cc
:100d50006260e1000400320022a9200063f0230059
:100d60000c10a70063f8230027ff07000df0a70071
:100d700001f0a2004f06be004f05be004f04be00aa
:100d800000000600889fbe008a9fbe008c1f78006e
:100d9000cd000700d400330003866c006450e100ee
:100da0002e0032006420e100330032006150e10087
:100db0002f0032006120e1003100320085855500ae
:100dc000eb07b000090020000804200005003700f0
:100dd0000804440089844c000a00310006034300e3
:100de00087834b000001530081815b00f8ff3300d3
:100df0000203be000800a0000804440089844c00df
:100e0000f6ff3900c639dd008301730001003200ae
:100e1000130020008904d1000884d3000998a3009e
:100e2000050032000800a7000300a0008904d100db
:100e30000884d3008b05e8008904d1000884d3001e
:100e40000001eb000281d2006400070001f0a10064
:100e50000cf0a70001f0a000ac0037006420e10016
:100e6000ae0032000801be000200be00f7ff3700ee
:100e70006120e100a90032006000b800f3ff3700f4
:100e80000000200001f82700f0ff3700839f680072
:100e90000100e00002003d0060001000e08018004a
:100ea0000300e00002003d0060011100e081190034
:100eb000150107004f00e00002003b006000100039
:100ec000e080180000000600140020002101370017
:100ed000f4ff2f001f0137000001be00650007006e
:100ee0000470a70003f0a1006509b10016003200ec
:100ef0000d0035006828e10006003500f0ff2f00e6
:100f0000f1ff27000300e00013003b000100280070
:100f10000000050000004000818048008502e900d3
:100f2000fcff3a0008003700f88f420002003c0046
:100f30008000eb00000005008100d1000080d3009c
:100f40008502e800fcff3a000300e00002003b00dd
:100f500060001000e0801800000006000001be00e4
:100f6000440007000470a70003f0a10003f8a300e9
:100f700013003a006509b100100032000900350085
:100f80006928e1000200350001002800000005008a
:100f900000004000818048008502e900fcff3a0023
:100fa00000000600f88f4200050035008100d100e6
:100fb0000080d3008502e800fcff3a000000060034
:100fc0008000eb00000005004f89de008201780000
:100fd000fb0037006011b8000901370081002000d4
:100fe000618055000b003d000b00200061fe2f00ca
:100ff0000100e1001d003400828171006101640084
:101000008904d1000884d3000000e800faff3a0008
:1010100071002000610064000300700002006000a5
:101020000900320061044400e0844c000988a500f6
:10103000050032008b05e8006808e10002003a0074
:101040008904d1000884d300f20f20000258e10087
:1010500005003d00c75ddd00f907b200898075001d
:1010600008007800000006000bf827008b007800cd
:1010700000000500c70ade00f107b200f50fb2005c
:1010800008003200e1cf4200020032000170a000ef
:1010900024000500810f70000100320004080500e3
:1010a00044000500810f700002003a0014000500a2
:1010b0008502e9000000400081c04800fcff3b00c1
:1010c0000170a000240005000004be00e9ff070035
:1010d0000003be000405be000200be00e5ff0700dd
:1010e000844f7500000006000200be006450e1005d
:1010f000050036006420e100020036000968a30004
:1011000001003a000800be000160a0004f06780010
:101110004f05be004f04be0000000600f0ff2f0088
:10112000f1ff2700f9ff3700811f78000100e00080
:1011300002003d0060001000e08018000300e000a5
:1011400002003d0060011100e08119007e000700ef
:101150004f00e00002003b0060001000e08018003b
:1011600000000600889fbe008a9fbe008c1f78008a
:10117000d5ff0700dcff330003866c006450e100fc
:10118000240032006420e100270032006150e100b9
:10119000220032006120e100210032008b854200f4
:1011a000eb07b1000134b800003ab800080442006f
:1011b00089844a00013ab8000030b80088804000b5
:1011c00009014a000400330000004000818048000b
:1011d000020149008b05e900c909dd0083017000a7
:1011e0000100320013002000c814de004814dd00a6
:1011f0004709de001200b200c808de000884700053
:1012000076ff070001f0a1000cf0a70001f0a0009c
:10121000beff37006120e100c0ff32000801be00c0
:101220000200be00f7ff37006150e100fcff3a000a
:10123000baff3700889fbe008a9fbe008c1f7800cf
:101240000004be008bff07000478a30026003a00cc
:101250006120e1002500320009f8a30025003a00d2
:101260006420e10021003200f507b1000508a30069
:101270000200320000004000818048006044b80055
:101280000310200002002000000040008180480080
:101290000805440089854c000a0541008b854900fa
:1012a0000a0550008b855800030033000a00be0079
:1012b00002047400838474008301d1000281d3008e
:1012c000830f7100f0ff3a008904d1000884d30035
:1012d0006001490082017800c1adde00fb07b0006b
:1012e0003eff070089ff37000960a0000800be002c
:1012f00086ff37001202200022558800f0ff2f00e1
:10130000f1ff270081ff37006022b80006022000ad
:101310000000d0008180d2000482d2008582d200f9
:101320000000a0000202520083825a000300310034
:101330000202420083824a000000a1000603e90085
:10134000f3ff3a0000000600efff07000400be00b4
:1013500000000600889fbe008a9fbe00841f7800a0
:1013600059ff07004f00780011003300f0ff2f00f5
:10137000838f6c0006003b00040565000a00a7008f
:101380000800370009f0a600100020000800370010
:10139000820f5400838f5c0003003900100020008e
:1013a00001003e000000200009f0a7000000ea0054
:1013b0004f05be004f04be000000e0000000060024
:1013c000881f7800030478000300e00007003d0058
:1013d00060001000e080180060011900e081190031
:1013e00002003b0001f02d0003003700040007005d
:1013f00008f0a70001f0a0004f04780000000600ec
:10140000889fbe008a9fbe000082700004027100a7
:1014100004827100260032000004be000200be00fb
:101420006011b8006b092000950220000182cf00f6
:101430000a0039000541b1000082cf0007003900e1
:101440000541b1000982cf00040039000541b10017
:101450000882cf00010039000541b1000542520069
:10146000120032000a003b008281710061016400b9
:101470008100d1000080d3008984d3000884d30088
:101480008b05e8000442e800f7ff3a000700370048
:101490000804440089844c00000048008180480012
:1014a0008b05e9000442e900f9ff3a00cbfe070092
:1014b0004f05be004f04be0000000600b042780099
:1014c00031c2520002003a00e0cf5200fbff3a0066
:1014d0000400fb0000000600c0cd20000000fa0060
:1014e00068815700cfb897006b0507000080fa00ad
:1014f00000000600c0cd20000000fa0068815700ff
:10150000cfb89700640507000080fa0000000600cd
:10151000c0cd20000000fa0068815700cfb89700c6
:101520005d0507000080fa0000000600c0cd200025
:101530000000fa0068815700cfb8970056050700f1
:101540000080fa0000000600889fbe0001047800b9
:101550008084eb0038029000e20262003b0032001f
:1015600004037800980290000620b20002003a00be
:10157000e08f520035003a000490a000800478000b
:1015800034049800f90fb200e08f520002003a00d4
:10159000a8029000050c7800ea8f540005003a007c
:1015a0000408b20003003a0088007800d000200050
:1015b000e5ff070018029000d8029000850f520046
:1015c0000b0032000402e80015c0b30014049800b8
:1015d00018027800094a7800040ce80064cf200063
:1015e000054a7800ea8f540018003a0005003700d9
:1015f0000940780088007800170007008004780010
:1016000012003700380290000410b2000f003200c0
:1016100018019000a800900048009000c7fb070048
:1016200018029000840f500004003200380290002d
:101630000403b300340498008084eb000002eb0044
:101640001404980028029000040c78000900780027
:101650004f04be00000006000200fa00889fbe0092
:1016600001047800a0ff9f003802900084027800f7
:101670000504b200020032000000fb003500370014
:10168000e202620005003a000403b300150498006a
:10169000340498000080eb002e003700d80490003e
:1016a000e08f540006003a0012002000e680570048
:1016b00048009000a1fb07001904980023003700a0
:1016c000a8029000e08f520008003a00a5cf200049
:1016d0000430a00025049800050c7800340498001c
:1016e000250020005504980015049800180190006a
:1016f000a80090004800900090fb0700280290008e
:101700008082eb0015049800affa9700054a780034
:10171000040ce8002ffa9700ea4f52000b003a0041
:10172000380290000410b200080032001801900046
:10173000a80090004800900080fb07000002eb002a
:10174000a802900014049800050c78002ffa970066
:101750000400fb004f04be000080fa0000000600f9
:1017600000c0da00000006002800fa00889fbe00d2
:101770008a9fbe008c9fbe0007067800878669009e
:101780000c003b00030478008704780008f0a100f7
:1017900009f0a100840f5000858f5800860f590072
:1017a000890f5c00030033000cf0a20001003a0036
:1017b0000cf0a100fe0007006400e1005f003200b1
:1017c000780147006408e100610032006c014700c5
:1017d000748557003200be001201be003a04be00fc
:1017e0001a05be001e039000be0a90008503530038
:1017f00006003d000004fd008104fd000205fd001f
:101800008305fd008703ea00050378000df8a300b7
:101810000400320060041400e0841c0060051d0018
:10182000e0851d006022b8007d0320000d38e10036
:101830008006eb000b0039004433dd00f300b200fa
:101840008301730039003700848272000d02780032
:10185000e10664008b85d1000a85d3008984d3001a
:101860000884d3008703e900f7ff3b00080040002d
:10187000898048000a0149008b81490004003b002f
:1018800060001000e080180060011900e08119007c
:101890000358a300090032008d8272008482720016
:1018a000610260008301d1000281d3008180d300f6
:1018b0000080d3000603e8001b0037000348a300a4
:1018c00017003a000600e000170034000603e900a4
:1018d0000d00a3000000480081804800020149007b
:1018e000838149000348a3000f003a000600e0008e
:1018f000090034000603e900000040008180480030
:10190000020149008381490001003a000003eb0015
:101910000348a300f5ff32006022b8000200370040
:1019200084827200618266007500070003f0a100e6
:101930000cf0a70003f0a000b100370064014700dd
:101940006408e10002003a000df8a300a9003a0083
:101950003200be001201be00a90037008f1fd10067
:10196000fe0207008f87e9000000e000000006008b
:10197000809feb00f90207008f87e9000000e0007c
:10198000000006002800fa00889fbe008a9fbe0063
:101990008c9fbe0003866b00850007006400e10099
:1019a000440032006408e1004a0032006100e100b6
:1019b000460032006108e10049003200ec064700b1
:1019c0006000b8003d02be003d03be00f486570033
:1019d0006011b8003d04be003d05be007d0320003f
:1019e0000b0037000000a0008d06e9001300320054
:1019f0000402420085824a0006034b0087834b00a5
:101a000000004000818048000201490083814900b4
:101a10000802520089825a000a035b008b835b0034
:101a2000f0ff3b000802420089824a000a034b0093
:101a30008b834b008d06e900edff3a008482720033
:101a400086827200f707b2008782720001003200be
:101a5000150020001e0490003e0b90000603540069
:101a6000e63fb0000368a300070032000000a700b3
:101a70000500a0008301d1000281d3008180d30042
:101a80000080d3000603e8008301d1000281d30067
:101a90008180d3000080d3000002eb000482d200da
:101aa0001700070003f0a1000cf0a70003f0a0004e
:101ab00053003700640247006408e1004d00320023
:101ac0003400be003401be00f6ff37006108e100bb
:101ad000480032006011b8006000b800f1ff370024
:101ae00003ff270002002000fbff3700801feb00f0
:101af0009a0207008f87e9000000e000000006005e
:101b00001800200057002000080453000d003d007d
:101b10000600200097fc2f000740e1001e00340063
:101b200084827200610260008301d1000281d300cf
:101b30008180d3000080d3000804e800f8ff3a0059
:101b40004700200061046000050474000404640080
:101b50000d00320061004000e08048006001490053
:101b6000e081490003b8a500070032000603e80041
:101b70006538e10004003a008301d1000281d300fe
:101b80008180d3000080d300f87f20000830e1007e
:101b900003003500080378006000b8006011b80049
:101ba0004433dd00f300b20083017300000006003f
:101bb000680447000294be000094be00fc04470085
:101bc0008694be008494be0009007800ac02070031
:101bd00008007800aa02070099007800814f700081
:101be0000b003b000800be00850207004f00b1005b
:101bf00003003700f3ff2700f2ff2f006110b90048
:101c00004f06be004f05be004f04be000080fa0024
:101c1000000006008103780016fd07000001be00e9
:101c20006000b8000478a30013003a006220e100cd
:101c300015003e000d0039008301d1000281d30060
:101c40008180d3008301d1000281d3008180d30041
:101c50008301d1000281d3008180d3000538b00018
:101c6000c42add00f300b2008381720007f0a700f0
:101c700003f0a00000000600f3ff2700f2ff2f0092
:101c80006110b900fbff370003ff2700f7ff3700a3
:101c90001400fa00889fbe008a9fbe008c9fbe0081
:101ca0000004be000205be00680047000a90be00a6
:101cb0000890be00720207000070a7000bf0a100a0
:101cc0000bf8a30020003a009e0990000e09900036
:101cd000fe0090006e0090009e02900034432000b1
:101ce00084825200c6ff32000a003c00b4fc2f0080
:101cf0000428e100140034008301d1000281d300e4
:101d00008180d3000080d3008502e800faff3a000a
:101d1000bbff3700b40020000428e10007003c00ae
:101d20000000400081804800020149008381490091
:101d30008502e900faff3a00b1ff370003002800ee
:101d400002002000010037006011b8006000b800f8
:101d5000abff3700889fbe00008270000402710054
:101d6000048271002400320036432000c5002000a8
:101d70008383cf000a0039000541b1008283cf0080
:101d8000070039000541b1008183cf00040039000c
:101d90000541b1008083cf00010039000541b10049
:101da00085c353006022b800120032000a003b00d5
:101db00084827200610260008301d1000281d3003d
:101dc0008180d3000080d3000603e8008743e80049
:101dd000f7ff3a000700370000004000818048000c
:101de00002014900838149000603e9008743e900b5
:101df000f9ff3a0042ff07004f04be000000060052
:101e00001400fa00889fbe008a9fbe008c9fbe000f
:101e1000040678000004be000205be00680047000a
:101e20000a90be000890be00150207006200e100a3
:101e30000800be000a01be00040020000b003a00aa
:101e40001e029000e43fb1006e009000fe00900082
:101e50000e0990009e099000f300b20005fe2300d9
:101e6000858171000bf0a70003f0a000040e78003c
:101e700063ff37002800fa00889fbe008a9fbe00db
:101e80008c9fbe0003866b0049ff07000028a3005b
:101e900064003a000128a30067003a000008a3008c
:101ea00062003a000108a30065003a001e0090009d
:101eb000be08900081064000ed3fb100f48057005d
:101ec000ee019000111ab8008e099000311bb80085
:101ed0009e099000311cb800511db800f4855700d0
:101ee00046000700fe0190003a0007008b85e800dd
:101ef0003e0007008e09900040000700ee019000b0
:101f0000340007008b85e800380007008e09900038
:101f1000400007009e0990001b18b800890440008b
:101f20000a854800fe019000340007008b85e80018
:101f300038000700ee019000300007008e09900085
:101f40001b18b800890440000a8548000a98a300bd
:101f500008003a000402420085824a0006034b0052
:101f600087834b0008044c0089844c000a054d000f
:101f70008d06e90084827200850273004c3add0010
:101f8000850272000100320015002000443ade0094
:101f90001400b2004538de00cb45dd000b007000b8
:101fa000c540de00cb4ddd008b8070004549de0072
:101fb000cb55dd000b017100c551de000d0378002b
:101fc000cffe070003f0a1000cf0a70003f0a00073
:101fd0000bff37001b18b80085024000068348003d
:101fe000e0834b0060044c00070037001b18b8006a
:101ff0000603400087834800faff37001b18b8002b
:102000008703400008844800e0844c0060054d00d0
:10201000000006001b18b80008044000898448002e
:10202000faff37000108a300f2fe3a005800be0094
:102030005801be00e3ff37000008a300edfe3a00a0
:1020400009047800f9ff370007f0a200c6fd370049
:10205000020ab900001bb9000200b800810042006a
:102060008100430000000600889fbe008a9fbe00da
:102070003004be002005be000404440085844c00ea
:1020800006054d0087854d000898be000a90be00e9
:102090000440e10005c8e10006d0e10007d8e100f6
:1020a00002003100680040001008e8004f05be0043
:1020b0004f04be00000006001000fa00889fbe001a
:1020c0008a9fbe00110020000605be000404be0069
:1020d0003002be002003be00c4b79f00d5b79f00ea
:1020e000e6b79f00f7b79f000802520089825a00a6
:1020f0000a035b008b835b0084bf9f0095bf9f003a
:10210000a6bf9f00b7bf9f000498be000698be0000
:102110004fb29700dfb297006fb39700ffb39700fd
:102120000820e10009a8e1000ab0e1000bb8e100d5
:10213000010039008000eb004f05be001088100040
:102140004f04be000080fa00000006001400fa00f0
:10215000889fbe008a9fbe008c9fbe000006eb00d9
:102160003e000700ccb79f00bcb79f00acb79f00f4
:102170009cb79f008cb79f000605be000404be00fc
:102180000d0420004fb39700bfb2970086034300b1
:102190002fb29700e00f530004003d003d00070000
:1021a0000f004000b0ff07000300370039000700b0
:1021b0000f004000c0ff0700cfb2970095bf9f00ff
:1021c000e08f5200090035002b00070014002000aa
:1021d000050020006033b8000000720081807200aa
:1021e00002017300838173001c0007000c06e800e5
:1021f0008d0f5600e3ff3a001fba9700e00f520020
:1022000005003d000802be000a03be0000fe2f00cc
:102210000f00400094ff07004faa9700e00f520004
:1022200008003a000fb497009fb497002fb59700ad
:10223000bfb59700d8b79f00e9b79f00fab79f00d6
:102240008bbf9f000c0007004f06be004f05be006d
:102250004f04be000080fa000000060001000700e5
:102260000000060090b79f00a1b79f00b2b79f0083
:10227000c3b79f0000000600010007000000060031
:102280001fb09700afb097003fb19700cfb1970054
:10229000000006004f2bde00f9ff07008683730065
:1022a000858242004f23de00a7b79f00868272001e
:1022b0000402420095b79f00ffaa97004f2bde0053
:1022c000858242000602720084b79f006faa9700c1
:1022d0004f23de000402420086827200f5af9f00a9
:1022e0004f18de0000027200e5ff0700e4af9f0018
:1022f00000004000818048000201490083814900bc
:102300000802be000a03be00d6ff070000fe2f0031
:1023100000000600881f780018002000881f780041
:102320008aff07008f87e9004f047800000006004d
:10233000801feb0085ff07008f87e9000000060083
:10234000889fbe008a9fbe00e00f5000e08f5800bb
:10235000e00f5900e08f59000c003d006044b800c8
:102360006055b8000000540081805c0002015d00ef
:1023700083815d00180020001500070008003d0063
:10238000180007000004eb00050037000004eb0014
:102390000f00070002003d00120007001800200097
:1023a000dcff0700e00f5400060032006022b80096
:1023b0006033b8000000520081805a0002015b00c7
:1023c00083815b004f05be004f04be000000060085
:1023d000e00f5200e08f5a00e00f5b00e08f5b00df
:1023e000000006006044b8006055b80004025400c4
:1023f00085825c0006035d0087835d0000000600a7
:10240000889fbe008a9fbe008c1f7800e00f50009e
:10241000e08f5800e00f5900e08f59000d003d009b
:102420006044b8006055b8001c0020000000540053
:1024300081805c0002015d0083815d000820e10075
:1024400009a8e1000ab0e1000bb8e1000d003d0071
:10245000080037000006eb00e00f5200e08f5a0042
:10246000e00f5b00e08f5b0006003d006044b800b9
:102470006055b8000402540085825c0006035d00cc
:1024800087835d00aaff0700e00f560006003200b8
:102490006022b8006033b8000000520081805a000a
:1024a00002015b0083815b004f0678004f05be0090
:1024b0004f04be0000000600889fbe008a9fbe0039
:1024c0008c1f78000006eb00e00f5000e08f5800f2
:1024d000e00f5900e08f590007003d006044b8004c
:1024e0006055b8001c0020000000540081805c0092
:1024f00002015d0083815d00e00f5200e08f5a0011
:10250000e00f5b00e08f5b0007003d006044b80017
:102510006055b8000c00a2000402540085825c00e3
:1025200006035d0087835d007c000700e00f560016
:10253000060032006022b8006033b800000052008c
:1025400081805a0002015b0083815b004f067800a6
:102550004f05be004f04be0000000600889fbe006d
:102560008a9fbe008c9fbe000404be000605be000c
:10257000809fbe00829fbe002f00070004067800e7
:102580000800be000a01be002b0007008406780088
:102590004f03be004f02be008d4f76007fb0970004
:1025a00013003300f0ff2f008b8f6b0006003b0001
:1025b0000d0666000c00a7000a00370007f0a60011
:1025c000100020000a003700880f5200898f5a003f
:1025d0008a0f5b008b8f5b00030039001000200026
:1025e00001003e000000200007f0a7000000ea0004
:1025f0004f06be004f05be004f04be00000006009f
:10260000e48240001078a30007003200640240001a
:102610001178a3003400be001401be000400320093
:102620000330a700000006003500be001501be0003
:102630000330a0000000060005ff270005826100ae
:10264000070032000428e1000100320024000500e8
:102650000600070001003a004400050004080500d8
:1026600002000700f9ff3a00140005006f826100c4
:102670008102700085027100850272000000060070
:10268000800078005002be005003be004439de00d6
:10269000f700b200f37f200003016100090032005f
:1026a0000218e10016003a008501720083017300f0
:1026b000838173000008200015003a0040002000cc
:1026c000130037008501720083017300838173005a
:1026d00005003a0004a8be0006a8be0010002000b5
:1026e0000b0037000201e9000402420085824a0023
:1026f00006034b0087834b000748a300f9ff320015
:102700000740a00004a8be0006a8be0020002000cc
:10271000800098009200980000000600889fbe008c
:102720008a9fbe008c9fbe000404b8000506b80056
:102730008904460060854e000606b8000a0546007a
:10274000e0854e000706b8008b054600040eb80071
:10275000890446000a854e00e0854d00050eb8004c
:102760000a0546008b854e00060eb8008b05460014
:102770000416b8000a0546008b854e000516b80001
:102780008b054600041eb8008b0546000800be00fd
:102790000a01be004f06be004f05be004f04be003a
:1027a00000000600d4c6b3000800fa00889fbe00ef
:1027b0000084fb008a9fbe00844f50003400360026
:1027c00069b520004b062000110009000b84d800d9
:1027d000720040004300dd00008044008105780065
:1027e0006022b8000600200007fe2300aa00200097
:1027f0005001be004000be009efd07000002be006a
:10280000110009008a85d80080057800e985450017
:10281000c35ddd008b8544000203be0084bf9f00c2
:1028200095bf9f00a6bf9f00b7bf9f003b02be00a1
:102830002b03be000fb897009fb897002fb99700e1
:10284000bfb997008bfd07000002be001100090010
:102850000a84d800010478004344dd0088844400e1
:102860000203be0084bf9f0095bf9f00a6bf9f00cc
:10287000b7bf9f003902be002903be000fb8970002
:102880009fb897002fb99700bfb997001d00370078
:10289000ea4f500013003600aa00200069b520005e
:1028a000110009000a84d80001057800690440007d
:1028b0004355dd004344dd00088444008a8444001d
:1028c0006022b8000600200007fe23003800be008a
:1028d0002801be0067fd07003902be002903be00c3
:1028e0000800370064b520004344dd0008044200be
:1028f0006022b8000600200007fe23003800be005a
:102900002801be005bfd07004f05be004f04be005e
:102910000080fa0000000600d4c6b3000800fa00e8
:10292000889fbe008a9fbe00e04f500022003d00fd
:102930000040ea000004fb00844f50000a0034000d
:1029400044062000a9002000110009000404d8005a
:102950006ab52000110009008900d800e900400094
:10296000c308dd0020003700ea4f50000f0034009c
:10297000a4002000110009000404d80064b5200060
:10298000690040004300dd0000004200430cdd0010
:10299000080242005001be004000be005403be00c9
:1029a0004402be0033fd0700370037004344dd001a
:1029b00064b52000310037000004fb00844f500054
:1029c0002300340044062000a90020001100090063
:1029d0000404d8006aaa2000110009008900d80068
:1029e000e9004000c308dd00810045008b0920009c
:1029f0008a8545003102be002103be003b00be00b7
:102a00002b01be001bfd07000002be0011000900e3
:102a10000904d800010478004344dd00080545009e
:102a20000203be0084bf9f0095bf9f00a6bf9f000a
:102a3000b7bf9f003a02be002a03be000fb897003e
:102a40009fb897002fb99700bfb99700d5ff3700ff
:102a5000ea4f500007003400a400200011000900d4
:102a60000404d80064aa2000690040004300dd008f
:102a7000c5ff37004344dd0064aa2000080442007b
:102a80003800be002801be004f05be004f04be0046
:102a90000080fa0000000600ef05b000889fbe002d
:102aa0008a9fbe008c9fbe00000678008e1f7800b3
:102ab0000007eb00e19f9f0082af9f006000b8001d
:102ac0006011b80080a79f0091a79f00a2a79f0058
:102ad000b3a79f00d9053700ef98970054c2b30001
:102ae0008100e800e19f9f00844f500006003a00fb
:102af000810278008006eb0007c3b30000c2b30078
:102b0000b1c2b3000e0037003c0290000404b200d2
:102b1000040032001c027800004a7800040ee8002d
:102b2000050037000000fb008c00780086fa0700e3
:102b3000e10f4000c10532000e07e800bf05370075
:102b400005037800d2c2b30035427800824f5200ac
:102b50000900320005003c00804f5200080032009e
:102b6000814f52000c003a0007003700874f520097
:102b700009003a00060037000d30a000f0ff3700d2
:102b80000d00a000eeff37000d10a000ecff370095
:102b90000d20a000eaff3700e2826600010032004b
:102ba0000d00a100e8826600010032000d20a100a6
:102bb0008402fb000503b100e98f52000d003e00c6
:102bc000860278008003eb003502fb006a3bb90007
:102bd0000403b100860342001502fb0005037800e0
:102be0000403b100e90f5200f7ff360097b79f00ca
:102bf0000a0037008002eb0095b79f00a5c2b30022
:102c0000854f520005003a008fab97000603e8009d
:102c10004700780087af9f0090b79f00e4c2b300e1
:102c2000964f120017003a000de0a00064425200d7
:102c3000d64f120003003200060278008003eb003a
:102c4000090037000fa997000603e800c2017800c9
:102c500082af9f00d3af9f00c7c6b3000d003700ff
:102c60006a3bb9008683420004037800b402fb008b
:102c70000503b100e98f5200f9ff3600d7af9f007e
:102c8000f5ff37000002eb000dc0a000d4af9f009d
:102c9000f1ff37008602780035427800050378009e
:102ca000874f52002d003200e59f9f00c5c6b3003c
:102cb000854f520014003c00e8c25200854f52007c
:102cc0002400320009003c00ecc25200854f520043
:102cd0002e003200ebc24200854f52009a003200b3
:102ce000e04f52005a053200b800370065c6b30005
:102cf000854f52001f003200e3c24200854f520050
:102d0000b2003a001300370035c7b300854f5200b8
:102d10002200320007003c00e4c25200854f5200fe
:102d2000170032008542e800854f5200a7003a00a4
:102d30001600370055c7b300854f5200a800320077
:102d4000e3c24200854f5200a0003a00e4579f00c2
:102d500010003700e4579f00a3003700f0826600a0
:102d60000401200001003200040028008d067200da
:102d7000c8ff3700e4579f000da0a0009a0037005d
:102d8000e4579f000d60a00097003700e4579f00b4
:102d90000d50a0000d70a000930037008faa97007f
:102da000e4579f004502780085af9f000404780037
:102db000e00f520001003a0088cc20008802780021
:102dc0000002eb00010037000402e80065437a00ce
:102dd000e04f5300fcff3a00840478005fab97009b
:102de000e00f530003003200890f5300010031004f
:102df000860478000002eb009fb39700898f530090
:102e00000100360009825300e8866600ddaf9f00ae
:102e10000d007800e00f50002c003a008406780086
:102e200004c2b30010003700bc0290000504b200d9
:102e3000040032009c027800844a7800050ee80005
:102e40000700370084bf9f008c007800000220003c
:102e5000bdf907000fba9700e10f400001003200f2
:102e60000e07e8008d06e900e08f5600eeff3a00fd
:102e70000082eb00150037003c0290000404b20011
:102e800009003200080278001c037800b442780080
:102e9000054b780004047800060ee800e0cf5200ed
:102ea00008003a000a003700080278008c00780019
:102eb0003400fb0004047800a3f90700e10f400090
:102ec000030032000e07e800010037008406780096
:102ed000090278008404e900e00f5200e6ff3a009e
:102ee0000d027800dfa89700e08f5000d304320075
:102ef0008406780004c2b30010003700bc029000c2
:102f00000504b200040032009c027800844a780074
:102f1000050ee8000700370084bf9f008c00780092
:102f20000002200088f907000fba9700e10f400067
:102f3000010032000e07e8008d06e900e08f560020
:102f4000eeff3a00bd0437000fa99700f08266003b
:102f50004202780082af9f0004007800cf80de003c
:102f6000010178008201780090af9f00a1af9f001f
:102f7000b2af9f00c3af9f004800de00480add00eb
:102f800000007200e0579f00e08f520009003200fd
:102f9000e04f500007003200e14f400005003200d2
:102fa000afd29700f0579f00855f9f002900200057
:102fb000030037002fd3970019002000f6579f0019
:102fc00078f92f000f04440084ff3700e4579f0076
:102fd00068f92f000f044400190020007fff37001c
:102fe000e4579f000d0cb3000470200004826600bb
:102ff00065023200040021000482660002003200f3
:1030000067002000d7af9f00708266000900320081
:103010000faa97004401be004400be0084af9f0089
:1030200090af9f00a1af9f00b2af9f00c3af9f00c2
:103030000a0037008faa97004500be0085af9f00a9
:10304000f4fa07000002be000203be0094af9f0026
:10305000a5af9f00b6af9f00c7af9f006022b8002a
:103060006033b8001fa89700afa897003fa997004a
:10307000cfa9970039fa0700e00f50000a003d0081
:103080001fa89700afa897003fa99700cfa9970066
:1030900003f0a20090af9f00a1af9f00b2af9f00ce
:1030a000c3af9f003d00b3000002eb001fa89700d4
:1030b000afa897003fa99700cfa99700d48f9f0092
:1030c0006022b8006033b80088fa0700e00f5000b3
:1030d00034003200a4f92f000f0242001fa897000d
:1030e000afa897003fa99700cfa9970044fb07001e
:1030f0005f889700a40020000000e9006300b90089
:10310000110009000400d800d08f9f00e00f50008c
:1031100002003d000000e900d08f9f005f8c970007
:103120000840ea00fcfd07001faa9700afaa97001d
:103130003fab9700cfab97004efb07000002be00ed
:103140000203be0084a79f0095a79f00a6a79f002b
:10315000b7a79f006022b8000600200007ff2300e9
:10316000fef90700e00f500002003d000804e900ee
:103170000b0037006022b800060020004702240040
:103180000fa097009fa097002fa19700bfa19700c5
:10319000f7f90700e00f5000020035000804e800ce
:1031a000d88f9f00dfaa9700f88f52000f003c00d5
:1031b000054078007bfd07000002be000203be0050
:1031c0001fa89700afa897003fa99700cfa9970025
:1031d00065f907000002be000203be0094af9f0025
:1031e000a5af9f00b6af9f00c7af9f005f8c970051
:1031f000e90f540015003c006022b8006033b800ad
:103200001fa89700afa897003fa99700cfa99700e4
:1032100036fa0700e00f5000320032001fa8970076
:10322000afa897003fa99700cfa9970098fa070089
:10323000e00f5000e08f5800e00f5900e08f590078
:1032400028003a00e10f540026003400040020005a
:1032500005002e00b6e02200170124000fa0970001
:103260009fa097002fa19700bfa19700bbf907006f
:10327000e00f500002003d007304540001003700cd
:1032800072045400d88f9f002f589700a2fd0700aa
:103290000002be000203be001fa89700afa897005f
:1032a0003fa99700cfa9970084a79f0095a79f00eb
:1032b000a6a79f00b7a79f00b2f9070074fa0700fe
:1032c0000205be000004be006000b8006011b80036
:1032d00090af9f00a1af9f00b2af9f00c3af9f0010
:1032e000170037001fa89700afa897003fa99700c5
:1032f000cfa9970066fa07000205be000004be00d1
:1033000094fa07000002be000203be001fa8970047
:10331000afa897003fa99700cfa997004afb0700e5
:103320000002be000203be0094af9f00a5af9f0045
:10333000b6af9f00c7af9f000002eb00d48f9f0085
:10334000e1c0200010c0b300080037003102be0009
:103350003103be000440e10005c8e10006d0e100f1
:1033600007d8e100030039000040e800f44f5000a6
:10337000f6ff3a009fb297005f8a97005fab970015
:1033800004825200e0579f00860252000002fb00b8
:103390000482520094b79f00e00f530002003200f5
:1033a0000402e90094b79f006382660003003200c4
:1033b0009fb397008703e90097b79f006482660078
:1033c0004500320062826600e1826600e00f520032
:1033d000110032003c0290000404b20008003200e8
:1033e0001c037800b4c2b300e08f52000100320029
:1033f00004c2e800044b7800060ee8001500370010
:10340000b0022000e08f5200010032000080e8008e
:103410008c0078000c003700e08f52002000320052
:103420003c0290000404b200050032009c027800c7
:1034300004c2b300844a7800050ee8000500370096
:103440008c007800000220003ff80700e10f4000e8
:10345000130032000e07e800110037003c02900014
:103460000404b200040032001c027800054a78000f
:10347000040ee80007003700f5b79f008c007800c5
:103480000003200030f80700ffb29700e10f400072
:10349000010032000e07e8008904e9000600370049
:1034a000c8a79f00d9a79f00eaa79f00fba79f007e
:1034b0009fb4970005c3b300e08f5400e7ff3c00c2
:1034c00099b79f004fa49700dfa497006fa59700be
:1034d000ffa597006e003700688266001f003a0063
:1034e000110037003c0290000404b20004003200d6
:1034f0001c027800054a7800040ee8000700370037
:10350000f5b79f008c007800000220000ef807003d
:10351000ffb29700e10f4000010032000e07e80003
:103520008904e90006003700c8a79f00d9a79f00bb
:10353000eaa79f00fba79f009fb4970005c2b300b6
:10354000e08f5400e7ff3c0099b79f004fa497001d
:10355000dfa497006fa59700ffa597006282660021
:10356000e1826600e00f5200110032003c02900040
:103570000404b200080032001c037800b4c2b30097
:10358000e08f52000100320004c2e800044b7800d2
:10359000060ee8003d003700b0022000e08f520028
:1035a000010032000080e8008c0078003400370011
:1035b000e08f5200360032003c0290000404b2005a
:1035c000050032009c02780004c2b300844a7800ef
:1035d000050ee8002d0037008c0078000002200066
:1035e000270037003c0290008502fb000404b20073
:1035f0001300320062c02000c32add0085024100b2
:103600009c0078005503be004502be00c1a79f0084
:103610000800be000a01be003efb0700a400200017
:10362000050020006033b80041fb07004fa297005f
:1036300005c3b300054a4000040ee800130037003c
:1036400066c02000c32add00850243000800be00da
:103650000a01be005503be004502be002dfb070057
:10366000a4002000050020006033b80030fb0700f4
:103670008c0078000403200000024200040078005f
:10368000b1f70700e10f4000010032000e07e8002b
:103690006f5297008442e900e5579f00e04f5200c7
:1036a000d0ff3a00110037003c0290000404b20041
:1036b000040032001c027800084a7800040ee8007a
:1036c000050037008c007800000320009ef70700fb
:1036d000e10f4000010032000e07e8005f8a97000a
:1036e0000402e900d48f9f000100370008c3b30033
:1036f0005f8a9700e00f5200ebff3c00dfab9700c2
:10370000f28f53000300340024c1b300e4579f003c
:10371000020037002fd89700e0579f006f529700a4
:10372000dfa897000403fb0006835000c6a79f0094
:10373000e04f52000e0032003c0290000404b20040
:10374000050032001c027800e5c2b300054a78008b
:10375000040ee800050037008c007800e00220002d
:1037600079f70700e10f4000010032000e07e80082
:103770006f50970068fc07000002be000203be0005
:103780001fa89700afa897003fa99700cfa997005f
:10379000b8f907003ef90700350037003c029000f9
:1037a0008502fb000404b2001300320063c0200055
:1037b000c32add00858241001c0178005503be004c
:1037c0004502be00d2af9f000800be000a01be0045
:1037d000d0fa0700a4002000050020006033b800e4
:1037e000d3fa07005faa970005c3b300054a40005b
:1037f000040ee8001300370066c02000c32add0075
:10380000850243000800be000a01be005503be0049
:103810004502be00bffa0700a400200005002000fa
:103820006033b800c2fa07008c007800040320005f
:10383000000242000400780043f70700e10f400057
:10384000010032000e07e800ef53970060c020002f
:103850000702fb004322dd00040240000800be0016
:103860000a01be005403be004402be00b0fa0700c5
:103870006f5297000205be000004be008442e900ba
:10388000e5579f00e04f5200c4ff3a001100370097
:10389000bc0290000504b200040032009c027800d3
:1038a000844a7800050ee8000700370084bf9f00b7
:1038b0008c0078000003200023f707000fba970060
:1038c000e10f4000010032000e07e8008904e90022
:1038d00006003700cfa49700d0af9f00e1af9f0054
:1038e000f2af9f0083b79f0004c3b300e08f540082
:1038f000e7ff3a005fac9700efac97007fad970011
:103900008fb59700e88666004c0232009fb09700a2
:10391000e08f5000490234000802be000a03be00d6
:103920000dc2b300810478003c0090000004b20096
:10393000040032001c0078000d487800000ee800fa
:103940000d00370084bf9f00f5b79f00d6b79f00da
:10395000e7b79f008c00780000022000faf607000d
:103960000fba9700ffb297005fb39700efb39700cd
:10397000e10f4000010032000e07e8008904e90071
:10398000e9ff3a002d0237008d027800050cb200e5
:103990002a003a00e08f560005003d000fa997006d
:1039a0004205be004204be0082af9f0016003700f1
:1039b000708266000e0032000fab97004602be0018
:1039c000c4979f00d5979f0086af9f001602900076
:1039d0004fa2de00e4979f00f4979f004f9497005a
:1039e000df9497006f959700ff95970006003700ca
:1039f0000fa897004004780080af9f00cfc4de007e
:103a0000090578008a057800e00f5400e08f5c001b
:103a1000e00f5d00e08f5d0023003d006022b800f4
:103a20006033b8003d00b3000804520089845a0096
:103a30000a055b008b855b001b003700e08f56009a
:103a400005003d008fa897004105be004104be005f
:103a500081af9f0014003700f08266000c00320036
:103a60008faa97004501be00a4979f0082979f00f0
:103a700093979f00b4979f0085af9f000f94970086
:103a80009f9497002f959700bf95970006003700e9
:103a90008fab97004704780087af9f000900200094
:103aa0000a0020000b0020005fa89700e00f5000e4
:103ab00009003a0011002000d1af9f00e00f540030
:103ac000e08f5c00e00f5d00e08f5d0002003200df
:103ad0000001eb00d2af9f008d01780004042000ac
:103ae000030cb20093af9f00848f51002c00320072
:103af00003003c00e08f5100080032003c0037001a
:103b0000040820009faa9700848f52001000320002
:103b1000040c2000848f520035003a00e1c02000e0
:103b200010c0b3003102be003103be000440e1000a
:103b300005c8e10006d0e10007d8e1002b003900fc
:103b40000040e800f44f5000f6ff3a00270037002d
:103b500010c0b30004012000050020006033b8004d
:103b60000440e10005c8e10006d0e10007d8e1000b
:103b70001e003900410020000402d0008582d200de
:103b80000683d2008783d2008100e900faff3a0061
:103b90000040e800f04f5000f1ff3a0013003700fa
:103ba00010c0b30084002000050020006033b8007e
:103bb0000440e10005c8e10006d0e10007d8e100bb
:103bc0000a003900320020000402d0008582d200b1
:103bd0000683d2008783d2000201e900faff3a008f
:103be0000040e800f54f5000f1ff3a00e0579f0019
:103bf000ef519700dfaa97000302fb00850f5200e8
:103c000002003d00e5579f00040037005fab9700be
:103c1000840f530001003d00d4af9f009fb3970075
:103c2000e08f53000400320063826600020032001d
:103c30008703e90097b79f00040024000482660010
:103c4000090032001fb09700dfa89700810f5000d5
:103c5000030034000100500090b79f0002003700bd
:103c60000001eb0092b79f00ef5197008002eb003c
:103c70000302fb00c5a79f001fb39700840f5300ea
:103c80000200340004025300c4a79f00648266004f
:103c900045003200e282660061826600e08f5200d9
:103ca00011003200bc0290000504b200080032008e
:103cb0009c027800b6c2b300e00f5200010032004f
:103cc00006c3e800864a7800050ee80015003700b4
:103cd000b0022000e00f5200010032000080e80036
:103ce0008c0078000c003700e00f52000e0032000c
:103cf0003c0290000404b200050032001c0278006f
:103d000005c2b300054a7800040ee800050037003c
:103d10008c007800000220000bf60700e10f400045
:103d2000010032000e07e800cfa39700e08f530098
:103d30006300320098b79f00a9b79f00bab79f00f1
:103d4000cbb79f0004c3b30087047800bc02900087
:103d50000504b200040032009c027800844a780016
:103d6000050ee8000700370084bf9f008c00780034
:103d700000032000f4f507000fba9700e10f4000a0
:103d8000010032000e07e8008904e900efff3a0065
:103d9000c9a79f001fb49700afb497003fb5970025
:103da000cfb5970046003700cfa09700e08f5000b6
:103db0001e003200688266001c003a0098b79f001f
:103dc000a9b79f00bab79f00cbb79f00cfa49700b9
:103dd00004c2b300bc0290000504b200040032002b
:103de0009c027800844a7800050ee800070037003e
:103df00084bf9f008c00780000022000d2f50700ed
:103e00000fba9700e10f4000010032000e07e800f2
:103e10008904e900efff3a00c9a79f001fb497008b
:103e2000afb497003fb59700cfb59700e282660028
:103e300061826600e08f520011003200bc029000e7
:103e40000504b200080032009c027800b6c2b3003c
:103e5000e00f52000100320006c3e800864a7800f5
:103e6000050ee80015003700b0022000e00f5200f8
:103e7000010032000080e8008c0078000c00370060
:103e8000e00f52000e0032003c0290000404b20029
:103e9000050032001c02780005c2b300054a780014
:103ea000040ee800050037008c00780000022000b6
:103eb000a5f50700e10f4000010032000e07e80001
:103ec000dfa8970065c020000102e90098b79f00b5
:103ed000a9b79f00bab79f00cbb79f004221dd0072
:103ee0006323b900929f9f004322dd008601780082
:103ef00085024200839f9f00f59f9f0070826600ad
:103f00008d027800f48f9f000502b200e58f9f00bc
:103f1000a3003700dfa897001fa997008100e900e0
:103f200003042000d1af9f00830f510073003200c3
:103f300003003c00e00f5100080032007e00370013
:103f4000040820009faa9700848f52005600320078
:103f5000040c2000848f520077003a00e08f560056
:103f60001f003d007f9b97001fb09700afb09700e8
:103f70003fb19700cfb197003604be002605be00c2
:103f80000802be000a03be00e2f807000802be00f5
:103f90000a03be00e0579f000000fb00cf80de0058
:103fa000010178008201780043f907001fb29700f1
:103fb000afb297003fb39700cfb397000002520013
:103fc00081825a0002035b0083835b0094b79f00e9
:103fd000a5b79f00b6b79f00c7b79f002e00370058
:103fe000ff8a9700e08f5200220032007f9b9700eb
:103ff0001fb29700afb297003604be002605be0080
:104000000400be0084bf9f00f5b79f000801be00fa
:10401000bdf407000801be00e0579f000000fb0050
:10402000cf80de000af807000fba9700ffb29700b2
:104030000001520081815a000002eb00a29f9f0004
:10404000b39f9f00d49f9f008001eb00c39f9f0000
:104050002f989700bf9897004f999700df99970086
:1040600090b79f00a1b79f00b2b79f00c3b79f0052
:1040700009003700ff9897001fb1970011027800e0
:10408000110009000481d800a400200011000900db
:104090000480d800e1579f00ef5197000343b00020
:1040a000e3579f002400370074cb2000ef8a97006d
:1040b000e08f52000100320064ca20001fb0970058
:1040c000afb097003fb19700cfb197001f9b97000b
:1040d0000603e900050033008301d1000281d3000b
:1040e0008180d3000080d300f9ff37006f006000ab
:1040f00064407800e0579f000f0037001fb2970020
:10410000afb297003fb39700cfb397000f989700d7
:104110000000e900050033008703d1000683d300c7
:104120008582d3000482d300f9ff37006742620022
:104130000443b000e4579f003c0290000404b20026
:10414000070032009c0278006f529700844a780082
:10415000050ee800e04f520007003a000700370064
:10416000ef5097000100fb008c007800f6f4070088
:10417000e10f4000010032000e07e8001f99970090
:104180008f9997007f9a970064015100e381510055
:1041900068025200929f9f00839f9f00f49f9f00a0
:1041a000dfaa9700e08f52005aff3a001fb4970031
:1041b000afb497003fb59700cfb59700e88666008b
:1041c0001e0032004fa39700e00f53001b00340085
:1041d0000802be000a03be00cfa497000dc2b300c0
:1041e0003c0090000004b200040032001c00780083
:1041f0000d487800000ee8000d00370084bf9f00d6
:10420000f5b79f00d6b79f00e7b79f008c007800f6
:1042100000022000ccf407000fba9700ffb297000d
:104220005fb39700efb39700e10f40000100320049
:104230000e07e8008904e900e9ff3a00ef9b9700c8
:1042400017407800e0579f00e04f500022fa3a00f4
:104250000e0078004f0778004f06be004f05be00e5
:0c4260004f04be00ef05b1000000060096
:020000040000fa
:10426c000a4d00005055000036300000353000007b
:10427c00205300006574000075700000204300009e
:10428c006f6d0000706c000065740000650000002c
:10429c000a49000032430000205200006561000012
:1042ac00642000005465000073740000205000006e
:1042bc006173000073650000642c0000204d000049
:1042cc005055000036300000353000002041000011
:1042dc006464000072650000737300003a200000f3
:1042ec003078000025780000004500005252000094
:1042fc004f5200003a2000004932000043200000d9
:10430c0052650000616400002054000065730000d9
:10431c007420000046610000696c000065640000b8
:10432c002c200000537400006f70000070690000b6
:10433c006e670000000a000052650000676900000b
:10434c007374000065720000206300006865000053
:10435c00636b0000203100002066000061690000e2
:10436c006c650000642c000020760000616c00007d
:10437c007565000020730000686f0000756c00000c
:10438c0064200000626500002030000078300000de
:10439c00312c0000207700006173000020300000f9
:1043ac0078250000780000000a52000065670000c4
:1043bc0069730000746500007220000063680000df
:1043cc00656300006b200000322000006661000075
:1043dc00696c0000656400002c2000007661000010
:1043ec006c75000065200000736800006f7500009c
:1043fc006c64000020620000652000003078000032
:10440c00303300002c200000776100007320000086
:10441c003078000025780000000a0000526500008a
:10442c00676900007374000065720000206300006f
:10443c0068650000636b00002033000020660000fc
:10444c00616900006c650000642c0000207600009f
:10445c00616c00007565000020730000686f00003f
:10446c00756c0000642000006265000020300000c4
:10447c00623000003030000030310000303000007d
:10448c00302c000020770000617300002030000009
:10449c0078250000780000000a52000065670000d3
:1044ac0069730000746500007220000063680000ee
:1044bc00656300006b200000342000006661000082
:1044cc00696c0000656400002c200000766100001f
:1044dc006c75000065200000736800006f750000ab
:1044ec006c64000020620000652000003062000057
:1044fc00303000003030000031300000303000002f
:10450c002c20000077610000732000003078000040
:10451c0025780000000a0000526500006769000061
:10452c007374000065720000206300006865000071
:10453c00636b0000203500002066000061690000fc
:10454c006c650000642c000020760000616c00009b
:10455c007565000020730000686f0000756c00002a
:10456c0064200000626500002030000078300000fc
:10457c00302c000020770000617300002030000018
:10458c0078250000780000000a52000065670000e2
:10459c0069730000746500007220000063680000fd
:1045ac00656300006b20000036200000666100008f
:1045bc00696c0000656400002c200000766100002e
:1045cc006c75000065200000736800006f750000ba
:1045dc006c64000020620000652000003078000050
:1045ec00303000002c2000007761000073200000a8
:1045fc003078000025780000000a000052650000a9
:10460c00676900007374000065720000206300008d
:10461c0068650000636b0000203700002066000016
:10462c00616900006c650000642c000020760000bd
:10463c00616c00007565000020730000686f00005d
:10464c00756c0000642000006265000020300000e2
:10465c0078300000302c00002077000061730000df
:10466c002030000078250000780000000a5200007d
:10467c00656700006973000074650000722000001b
:10468c0063680000656300006b20000038200000a8
:10469c0066610000696c0000656400002c2000005d
:1046ac00766100006c7500006520000073680000e6
:1046bc006f7500006c640000206200006520000033
:1046cc0030780000303000002c20000077610000b2
:1046dc00732000003078000025780000000a0000ec
:1046ec005265000067690000737400006572000079
:1046fc002063000068650000636b00002039000037
:10470c0020660000616900006c650000642c0000ec
:10471c0020760000616c00007565000020730000bd
:10472c00686f0000756c000064200000626500007a
:10473c002030000078300000302c00002077000082
:10474c006173000020300000782500007800000024
:10475c000a52000065670000697300007465000070
:10476c007220000063680000656300006b2000008d
:10477c003130000020660000616900006c650000ab
:10478c00642c000020760000616c00007565000050
:10479c0020730000686f0000756c0000642000003e
:1047ac00626500002030000078300000302c0000e2
:1047bc002077000061730000203000007825000095
:1047cc00780000000a520000656700006973000061
:1047dc0074650000722000006368000065630000cf
:1047ec006b20000031310000206600006169000080
:1047fc006c650000642c000020760000616c0000e9
:10480c007565000020730000686f0000756c000077
:10481c006420000062650000203000007830000049
:10482c00302c000020770000617300002030000065
:10483c0078250000780000000a520000656700002f
:10484c00697300007465000072200000636800004a
:10485c00656300006b200000313200002066000010
:10486c00616900006c650000642c0000207600007b
:10487c00616c00007565000020730000686f00001b
:10488c00756c0000642000006265000020300000a0
:10489c0078300000302c000020770000617300009d
:1048ac002030000078250000780000000a5200003b
:1048bc0065670000697300007465000072200000d9
:1048cc0063680000656300006b200000313300005a
:1048dc0020660000616900006c650000642c00001b
:1048ec0020760000616c00007565000020730000ec
:1048fc00686f0000756c00006420000062650000a9
:10490c002030000078300000302c000020770000b0
:10491c006173000020300000782500007800000052
:10492c000a5200006567000069730000746500009e
:10493c007220000063680000656300006b200000bb
:10494c003134000020660000616900006c650000d5
:10495c00642c000020760000616c0000756500007e
:10496c0020730000686f0000756c0000642000006c
:10497c00626500002030000078300000302c000010
:10498c0020770000617300002030000078250000c3
:10499c00780000000a52000065670000697300008f
:1049ac0074650000722000006368000065630000fd
:1049bc006b200000313500002066000061690000aa
:1049cc006c650000642c000020760000616c000017
:1049dc007565000020730000686f0000756c0000a6
:1049ec006420000062650000203000007830000078
:1049fc00302c000020770000617300002030000094
:104a0c0078250000780000000a520000656700005d
:104a1c006973000074650000722000006368000078
:104a2c00656300006b20000031360000206600003a
:104a3c00616900006c650000642c000020760000a9
:104a4c00616c00007565000020730000686f000049
:104a5c00756c0000642000006265000020300000ce
:104a6c0078300000302c00002077000061730000cb
:104a7c002030000078250000780000000a52000069
:104a8c006567000069730000746500007220000007
:104a9c0063680000656300006b2000003137000084
:104aac0020660000616900006c650000642c000049
:104abc0020760000616c000075650000207300001a
:104acc00686f0000756c00006420000062650000d7
:104adc002030000078300000302c000020770000df
:104aec006173000020300000782500007800000081
:104afc000a520000656700006973000074650000cd
:104b0c007220000063680000656300006b200000e9
:104b1c003138000020660000616900006c650000ff
:104b2c00642c000020760000616c000075650000ac
:104b3c0020730000686f0000756c0000642000009a
:104b4c00626500002030000078300000302c00003e
:104b5c0020770000617300002030000078250000f1
:104b6c00780000000a5200006567000069730000bd
:104b7c00746500007220000063680000656300002b
:104b8c006b200000313900002066000061690000d4
:104b9c006c650000642c000020760000616c000045
:104bac007565000020730000686f0000756c0000d4
:104bbc0064200000626500002030000078300000a6
:104bcc00302c0000207700006173000020300000c2
:104bdc0078250000780000000a520000656700008c
:104bec0069730000746500007220000063680000a7
:104bfc00656300006b20000032300000206600006e
:104c0c00616900006c650000642c000020760000d7
:104c1c00616c00007565000020730000686f000077
:104c2c00756c0000642000006265000020300000fc
:104c3c0078300000302c00002077000061730000f9
:104c4c002030000078250000780000000a52000097
:104c5c006567000069730000746500007220000035
:104c6c0063680000656300006b20000032310000b7
:104c7c0020660000616900006c650000642c000077
:104c8c0020760000616c0000756500002073000048
:104c9c00686f0000756c0000642000006265000005
:104cac002030000078300000302c0000207700000d
:104cbc0061730000203000007825000078000000af
:104ccc000a520000656700006973000074650000fb
:104cdc007220000063680000656300006b20000018
:104cec003232000020660000616900006c65000033
:104cfc00642c000020760000616c000075650000db
:104d0c0020730000686f0000756c000064200000c8
:104d1c00626500002030000078300000302c00006c
:104d2c00207700006173000020300000782500001f
:104d3c00780000000a5200006567000069730000eb
:104d4c007465000072200000636800006563000059
:104d5c006b20000032330000206600006169000007
:104d6c006c650000642c000020760000616c000073
:104d7c007565000020730000686f0000756c000002
:104d8c0064200000626500002030000078300000d4
:104d9c00302c0000207700006173000020300000f0
:104dac0078250000780000000a52000065670000ba
:104dbc0069730000746500007220000063680000d5
:104dcc00656300006b200000323400002066000098
:104ddc00616900006c650000642c00002076000006
:104dec00616c00007565000020730000686f0000a6
:104dfc00756c00006420000062650000203000002b
:104e0c0078300000302c0000207700006173000027
:104e1c002030000078250000780000000a520000c5
:104e2c006567000069730000746500007220000063
:104e3c0063680000656300006b20000032350000e1
:104e4c0020660000616900006c650000642c0000a5
:104e5c0020760000616c0000756500002073000076
:104e6c00686f0000756c0000642000006265000033
:104e7c002030000078300000302c0000207700003b
:104e8c0061730000203000007825000078000000dd
:104e9c000a52000065670000697300007465000029
:104eac007220000063680000656300006b20000046
:104ebc003236000020660000616900006c6500005d
:104ecc00642c000020760000616c00007565000009
:104edc0020730000686f0000756c000064200000f7
:104eec00626500002030000078300000302c00009b
:104efc00207700006173000020300000782500004e
:104f0c00780000000a520000656700006973000019
:104f1c007465000072200000636800006563000087
:104f2c006b20000032370000206600006169000031
:104f3c006c650000642c000020760000616c0000a1
:104f4c007565000020730000686f0000756c000030
:104f5c006420000062650000203000007830000002
:104f6c00302c00002077000061730000203000001e
:104f7c0078250000780000000a52000065670000e8
:104f8c006973000074650000722000006368000003
:104f9c00656300006b2000003238000020660000c2
:104fac00616900006c650000642c00002076000034
:104fbc00616c00007565000020730000686f0000d4
:104fcc00756c000064200000626500002030000059
:104fdc0078300000302c0000207700006173000056
:104fec002030000078250000780000000a520000f4
:104ffc006567000069730000746500007220000092
:10500c0063680000656300006b200000323900000b
:10501c0020660000616900006c650000642c0000d3
:10502c0020760000616c00007565000020730000a4
:10503c00686f0000756c0000642000006265000061
:10504c002030000078300000302c00002077000069
:10505c00617300002030000078250000780000000b
:10506c000a52000065670000697300007465000057
:10507c007220000063680000656300006b20000074
:10508c003330000020660000616900006c65000090
:10509c00642c000020760000616c00007565000037
:1050ac0020730000686f0000756c00006420000025
:1050bc00626500002030000078300000302c0000c9
:1050cc00207700006173000020300000782500007c
:1050dc00780000000a520000656700006973000048
:1050ec0074650000722000006368000065630000b6
:1050fc006b20000033310000206600006169000065
:10510c006c650000642c000020760000616c0000cf
:10511c007565000020730000686f0000756c00005e
:10512c006420000062650000203000007830000030
:10513c00302c00002077000061730000203000004c
:10514c0078250000780000000a5200006567000016
:10515c006973000074650000722000006368000031
:10516c00656300006b2000003332000020660000f5
:10517c00616900006c650000642c00002076000062
:10518c00616c00007565000020730000686f000002
:10519c00756c000064200000626500002030000087
:1051ac0078300000302c0000207700006173000084
:1051bc002030000078250000780000000a52000022
:1051cc0065670000697300007465000072200000c0
:1051dc0063680000656300006b200000333300003f
:1051ec0020660000616900006c650000642c000002
:1051fc0020760000616c00007565000020730000d3
:10520c00686f0000756c000064200000626500008f
:10521c002030000078300000302c00002077000097
:10522c006173000020300000782500007800000039
:10523c000a52000065670000697300007465000085
:10524c007220000063680000656300006b200000a2
:10525c003334000020660000616900006c650000ba
:10526c00642c000020760000616c00007565000065
:10527c0020730000686f0000756c00006420000053
:10528c00626500002030000078300000302c0000f7
:10529c0020770000617300002030000078250000aa
:1052ac00780000000a520000656700006973000076
:1052bc0074650000722000006368000065630000e4
:1052cc006b2000003335000020660000616900008f
:1052dc006c650000642c000020760000616c0000fe
:1052ec007565000020730000686f0000756c00008d
:1052fc00642000006265000020300000783000005f
:10530c00302c00002077000061730000203000007a
:10531c0078250000780000000a5200006567000044
:10532c00697300007465000072200000636800005f
:10533c00656300006b20000033360000206600001f
:10534c00616900006c650000642c00002076000090
:10535c00616c00007565000020730000686f000030
:10536c00756c0000642000006265000020300000b5
:10537c0078300000302c00002077000061730000b2
:10538c002030000078250000780000000a52000050
:10539c0065670000697300007465000072200000ee
:1053ac0063680000656300006b2000003337000069
:1053bc0020660000616900006c650000642c000030
:1053cc0020760000616c0000756500002073000001
:1053dc00686f0000756c00006420000062650000be
:1053ec002030000078300000302c000020770000c6
:1053fc006173000020300000782500007800000068
:10540c000a520000656700006973000074650000b3
:10541c007220000063680000656300006b200000d0
:10542c003338000020660000616900006c650000e4
:10543c00642c000020760000616c00007565000093
:10544c0020730000686f0000756c00006420000081
:10545c00626500002030000078300000302c000025
:10546c0020770000617300002030000078250000d8
:10547c00780000000a5200006567000069730000a4
:10548c0074650000722000003339000020630000b6
:10549c0068650000636b0000206600006169000015
:1054ac006c650000642c000020760000616c00002c
:1054bc007565000020730000686f0000756c0000bb
:1054cc00642000006265000020300000783000008d
:1054dc00302c0000207700006173000020300000a9
:1054ec0078250000780000000a5200006567000073
:1054fc00697300007465000072200000636800008e
:10550c00656300006b200000343000002066000052
:10551c00616900006c650000642c000020760000be
:10552c00616c00007565000020730000686f00005e
:10553c00756c0000642000006265000020300000e3
:10554c0078300000322c00002077000061730000de
:10555c002030000078250000780000000a5200007e
:10556c00656700006973000074650000722000001c
:10557c0063680000656300006b200000343100009c
:10558c0020660000616900006c650000642c00005e
:10559c0020760000616c000075650000207300002f
:1055ac00686f0000756c00006420000062650000ec
:1055bc002030000078300000302c000020770000f4
:1055cc006173000020300000782500007800000096
:1055dc000a520000656700006973000074650000e2
:1055ec007220000063680000656300006b200000ff
:1055fc003432000020660000616900006c65000018
:10560c00642c000020760000616c000075650000c1
:10561c0020730000686f0000756c000064200000af
:10562c00626500002030000078300000302c000053
:10563c002077000061730000203000007825000006
:10564c00780000000a5200006567000069730000d2
:10565c007465000072200000766100006c7500001b
:10566c006520000063680000656300006b2000008b
:10567c00706100007373000065640000000a000094
:10568c0052650000676900007374000065720000c9
:10569c0020760000616c000075650000206300003e
:1056ac0068650000636b0000206600006169000003
:1056bc006c650000640000000a470000797200006d
:1056cc006f200000582000006f6600006673000019
:1056dc006574000020730000756d00003a20000016
:1056ec00256c00006420000047790000726f0000f8
:1056fc0020580000206f00006666000073650000f3
:10570c00743a000020250000640000000a470000e5
:10571c00797200006f200000592000006f660000b5
:10572c00667300006574000020730000756d000046
:10573c003a200000256c000064200000477900002e
:10574c00726f000020590000206f00006666000098
:10575c0073650000743a000020250000640000000e
:10576c000a470000797200006f2000005a200000e8
:10577c006f66000066730000657400002073000003
:10578c00756d00003a200000256c000064200000bc
:10579c0047790000726f0000205a0000206f000053
:1057ac006666000073650000743a00002025000056
:1057bc00640a0000000000000a550000415200007d
:1057cc005420000053650000747500007020000028
:1057dc00436f00006d7000006c6500007465000084
:1057ec000067000065740000696400000069000037
:1057fc0064200000647200006f6e000065200000e1
:10580c003d200000310a0000004b00007000000039
:10581c00766100006c20000064650000204b0000e5
:10582c00702000003a0a00000069000064200000ab
:10583c006e6f00007420000072650000636f000042
:10584c00676e0000697a00006564000021000000aa
:10585c00526500006365000070740000696f000001
:10586c006e20000045720000726f00007221000073
:10587c000a0000004461000074610000206e00000a
:10588c006f7400002072000064790000210a00008f
:10589c00000000000a4900003243000020530000c1
:1058ac006574000075700000204300006f6d0000ef
:1058bc00706c00006574000065000000414300003e
:1058cc004b200000312000006e6f0000742000009f
:1058dc007265000063690000657600006564000075
:1058ec0000410000434b000020320000206e0000fd
:1058fc006f74000020720000656300006965000091
:10590c00766500006400000074650000737400008c
:10591c0065640000206f00006b00000065720000e1
:10592c00726f00007220000072650000737000003e
:10593c006f6e000073650000203a00002025000007
:10594c00620000005541000052540000206f00001e
:10595c004b000000256600002c250000660a0000a4
:04596c000000000037
:020000040000fa
:105970000000fa0012c0b30091c1b30000cdb30023
:10598000d712070032c0b300a1c1b30000cdb300ed
:10599000d312070082c0b300b1c1b30000cdb30081
:1059a000cf12070082c0b300c1c1b30000cdb30065
:1059b000cb1207000041eb00d1c1b30000cdb30012
:1059c000c71207000041eb00e1c1b30000cdb300f6
:1059d000c31207000041eb00f1c1b30000cdb300da
:1059e000bf1207000041eb0001c2b30000cdb300bd
:1059f000bb1207000041eb0011c2b30000cdb300a1
:105a0000b71207000041eb0021c2b30000cdb30084
:105a1000b31207000041eb0031c2b30000cdb30068
:105a2000af1207000041eb0041c2b30000cdb3004c
:105a3000ab1207000041eb0051c2b30000cdb30030
:105a4000a71207000041eb0061c2b30000cdb30014
:105a5000a31207000041eb0071c2b30000cdb300f8
:105a60009f1207000041eb0081c2b30000cdb300dc
:105a70009b1207000041eb0091c2b30000cdb300c0
:105a8000971207000041eb00a1c2b30000cdb300a4
:105a9000931207000041eb00b1c2b30000cdb30088
:105aa0008f1207000041eb00c1c2b30000cdb3006c
:105ab0008b1207000041eb00d1c2b30000cdb30050
